{
	"contracts/c2.sol": {
		"FundingPlatform": {
			"abi": [
				{
					"anonymous": false,
					"inputs": [
						{
							"indexed": true,
							"internalType": "uint256",
							"name": "campaignId",
							"type": "uint256"
						},
						{
							"indexed": true,
							"internalType": "address",
							"name": "creator",
							"type": "address"
						}
					],
					"name": "CampaignCreated",
					"type": "event"
				},
				{
					"inputs": [
						{
							"internalType": "uint256",
							"name": "",
							"type": "uint256"
						}
					],
					"name": "campaigns",
					"outputs": [
						{
							"internalType": "address",
							"name": "creator",
							"type": "address"
						},
						{
							"internalType": "string",
							"name": "cause",
							"type": "string"
						},
						{
							"internalType": "string",
							"name": "futurePlans",
							"type": "string"
						},
						{
							"internalType": "uint256",
							"name": "startDate",
							"type": "uint256"
						},
						{
							"internalType": "uint256",
							"name": "endDate",
							"type": "uint256"
						},
						{
							"internalType": "uint256",
							"name": "goalAmount",
							"type": "uint256"
						},
						{
							"internalType": "uint256",
							"name": "currentAmount",
							"type": "uint256"
						},
						{
							"internalType": "bool",
							"name": "isActive",
							"type": "bool"
						}
					],
					"stateMutability": "view",
					"type": "function"
				},
				{
					"inputs": [
						{
							"internalType": "string",
							"name": "_cause",
							"type": "string"
						},
						{
							"internalType": "string",
							"name": "_futurePlans",
							"type": "string"
						},
						{
							"internalType": "uint256",
							"name": "_startDate",
							"type": "uint256"
						},
						{
							"internalType": "uint256",
							"name": "_endDate",
							"type": "uint256"
						},
						{
							"internalType": "uint256",
							"name": "_goalAmount",
							"type": "uint256"
						}
					],
					"name": "createCampaign",
					"outputs": [],
					"stateMutability": "nonpayable",
					"type": "function"
				},
				{
					"inputs": [
						{
							"internalType": "uint256",
							"name": "_campaignId",
							"type": "uint256"
						},
						{
							"internalType": "uint256",
							"name": "_fundingAmount",
							"type": "uint256"
						}
					],
					"name": "fundCampaign",
					"outputs": [],
					"stateMutability": "payable",
					"type": "function"
				},
				{
					"inputs": [
						{
							"internalType": "uint256",
							"name": "",
							"type": "uint256"
						},
						{
							"internalType": "address",
							"name": "",
							"type": "address"
						}
					],
					"name": "funders",
					"outputs": [
						{
							"internalType": "uint256",
							"name": "",
							"type": "uint256"
						}
					],
					"stateMutability": "view",
					"type": "function"
				},
				{
					"inputs": [],
					"name": "getActiveCC",
					"outputs": [
						{
							"internalType": "uint256",
							"name": "",
							"type": "uint256"
						}
					],
					"stateMutability": "view",
					"type": "function"
				},
				{
					"inputs": [],
					"name": "getActiveCIds",
					"outputs": [
						{
							"internalType": "uint256[]",
							"name": "",
							"type": "uint256[]"
						}
					],
					"stateMutability": "view",
					"type": "function"
				},
				{
					"inputs": [
						{
							"internalType": "uint256",
							"name": "_campaignId",
							"type": "uint256"
						}
					],
					"name": "getCampaignDetails",
					"outputs": [
						{
							"internalType": "address",
							"name": "creator",
							"type": "address"
						},
						{
							"internalType": "string",
							"name": "cause",
							"type": "string"
						},
						{
							"internalType": "string",
							"name": "futurePlans",
							"type": "string"
						},
						{
							"internalType": "uint256",
							"name": "startDate",
							"type": "uint256"
						},
						{
							"internalType": "uint256",
							"name": "endDate",
							"type": "uint256"
						},
						{
							"internalType": "uint256",
							"name": "goalAmount",
							"type": "uint256"
						},
						{
							"internalType": "uint256",
							"name": "currentAmount",
							"type": "uint256"
						},
						{
							"internalType": "bool",
							"name": "isActive",
							"type": "bool"
						}
					],
					"stateMutability": "view",
					"type": "function"
				}
			],
			"devdoc": {
				"kind": "dev",
				"methods": {},
				"version": 1
			},
			"evm": {
				"assembly": "    /* \"contracts/c2.sol\":60:3832  contract FundingPlatform {... */\n  mstore(0x40, 0x80)\n  callvalue\n  dup1\n  iszero\n  tag_1\n  jumpi\n  0x00\n  dup1\n  revert\ntag_1:\n  pop\n  dataSize(sub_0)\n  dup1\n  dataOffset(sub_0)\n  0x00\n  codecopy\n  0x00\n  return\nstop\n\nsub_0: assembly {\n        /* \"contracts/c2.sol\":60:3832  contract FundingPlatform {... */\n      mstore(0x40, 0x80)\n      jumpi(tag_1, lt(calldatasize, 0x04))\n      shr(0xe0, calldataload(0x00))\n      dup1\n      0x669b090f\n      gt\n      tag_9\n      jumpi\n      dup1\n      0x669b090f\n      eq\n      tag_5\n      jumpi\n      dup1\n      0x918eab15\n      eq\n      tag_6\n      jumpi\n      dup1\n      0xb5c89219\n      eq\n      tag_7\n      jumpi\n      dup1\n      0xd993de62\n      eq\n      tag_8\n      jumpi\n      jump(tag_1)\n    tag_9:\n      dup1\n      0x141961bc\n      eq\n      tag_2\n      jumpi\n      dup1\n      0x148038b0\n      eq\n      tag_3\n      jumpi\n      dup1\n      0x196da98b\n      eq\n      tag_4\n      jumpi\n    tag_1:\n      0x00\n      dup1\n      revert\n        /* \"contracts/c2.sol\":433:460  Campaign[] public campaigns */\n    tag_2:\n      callvalue\n      dup1\n      iszero\n      tag_10\n      jumpi\n      0x00\n      dup1\n      revert\n    tag_10:\n      pop\n      tag_11\n      0x04\n      dup1\n      calldatasize\n      sub\n      dup2\n      add\n      swap1\n      tag_12\n      swap2\n      swap1\n      tag_13\n      jump\t// in\n    tag_12:\n      tag_14\n      jump\t// in\n    tag_11:\n      mload(0x40)\n      tag_15\n      swap9\n      swap8\n      swap7\n      swap6\n      swap5\n      swap4\n      swap3\n      swap2\n      swap1\n      tag_16\n      jump\t// in\n    tag_15:\n      mload(0x40)\n      dup1\n      swap2\n      sub\n      swap1\n      return\n        /* \"contracts/c2.sol\":368:420  mapping(uint=>mapping(address=>uint)) public funders */\n    tag_3:\n      callvalue\n      dup1\n      iszero\n      tag_17\n      jumpi\n      0x00\n      dup1\n      revert\n    tag_17:\n      pop\n      tag_18\n      0x04\n      dup1\n      calldatasize\n      sub\n      dup2\n      add\n      swap1\n      tag_19\n      swap2\n      swap1\n      tag_20\n      jump\t// in\n    tag_19:\n      tag_21\n      jump\t// in\n    tag_18:\n      mload(0x40)\n      tag_22\n      swap2\n      swap1\n      tag_23\n      jump\t// in\n    tag_22:\n      mload(0x40)\n      dup1\n      swap2\n      sub\n      swap1\n      return\n        /* \"contracts/c2.sol\":3472:3827  function getActiveCIds() public view returns (uint[] memory)... */\n    tag_4:\n      callvalue\n      dup1\n      iszero\n      tag_24\n      jumpi\n      0x00\n      dup1\n      revert\n    tag_24:\n      pop\n      tag_25\n      tag_26\n      jump\t// in\n    tag_25:\n      mload(0x40)\n      tag_27\n      swap2\n      swap1\n      tag_28\n      jump\t// in\n    tag_27:\n      mload(0x40)\n      dup1\n      swap2\n      sub\n      swap1\n      return\n        /* \"contracts/c2.sol\":3137:3422  function getActiveCC() public view returns (uint)... */\n    tag_5:\n      callvalue\n      dup1\n      iszero\n      tag_29\n      jumpi\n      0x00\n      dup1\n      revert\n    tag_29:\n      pop\n      tag_30\n      tag_31\n      jump\t// in\n    tag_30:\n      mload(0x40)\n      tag_32\n      swap2\n      swap1\n      tag_23\n      jump\t// in\n    tag_32:\n      mload(0x40)\n      dup1\n      swap2\n      sub\n      swap1\n      return\n        /* \"contracts/c2.sol\":1778:2453  function fundCampaign(uint _campaignId, uint _fundingAmount) public payable onlyActiveCampaign(_campaignId)... */\n    tag_6:\n      tag_33\n      0x04\n      dup1\n      calldatasize\n      sub\n      dup2\n      add\n      swap1\n      tag_34\n      swap2\n      swap1\n      tag_35\n      jump\t// in\n    tag_34:\n      tag_36\n      jump\t// in\n    tag_33:\n      stop\n        /* \"contracts/c2.sol\":1139:1713  function createCampaign(string memory _cause, string memory _futurePlans, uint _startDate, uint _endDate, uint _goalAmount) public {... */\n    tag_7:\n      callvalue\n      dup1\n      iszero\n      tag_37\n      jumpi\n      0x00\n      dup1\n      revert\n    tag_37:\n      pop\n      tag_38\n      0x04\n      dup1\n      calldatasize\n      sub\n      dup2\n      add\n      swap1\n      tag_39\n      swap2\n      swap1\n      tag_40\n      jump\t// in\n    tag_39:\n      tag_41\n      jump\t// in\n    tag_38:\n      stop\n        /* \"contracts/c2.sol\":2515:3074  function getCampaignDetails(uint _campaignId) public view returns (... */\n    tag_8:\n      callvalue\n      dup1\n      iszero\n      tag_42\n      jumpi\n      0x00\n      dup1\n      revert\n    tag_42:\n      pop\n      tag_43\n      0x04\n      dup1\n      calldatasize\n      sub\n      dup2\n      add\n      swap1\n      tag_44\n      swap2\n      swap1\n      tag_13\n      jump\t// in\n    tag_44:\n      tag_45\n      jump\t// in\n    tag_43:\n      mload(0x40)\n      tag_46\n      swap9\n      swap8\n      swap7\n      swap6\n      swap5\n      swap4\n      swap3\n      swap2\n      swap1\n      tag_16\n      jump\t// in\n    tag_46:\n      mload(0x40)\n      dup1\n      swap2\n      sub\n      swap1\n      return\n        /* \"contracts/c2.sol\":433:460  Campaign[] public campaigns */\n    tag_14:\n      0x01\n      dup2\n      dup2\n      sload\n      dup2\n      lt\n      tag_47\n      jumpi\n      0x00\n      dup1\n      revert\n    tag_47:\n      swap1\n      0x00\n      mstore\n      keccak256(0x00, 0x20)\n      swap1\n      0x08\n      mul\n      add\n      0x00\n      swap2\n      pop\n      swap1\n      pop\n      dup1\n      0x00\n      add\n      0x00\n      swap1\n      sload\n      swap1\n      0x0100\n      exp\n      swap1\n      div\n      0xffffffffffffffffffffffffffffffffffffffff\n      and\n      swap1\n      dup1\n      0x01\n      add\n      dup1\n      sload\n      tag_49\n      swap1\n      tag_50\n      jump\t// in\n    tag_49:\n      dup1\n      0x1f\n      add\n      0x20\n      dup1\n      swap2\n      div\n      mul\n      0x20\n      add\n      mload(0x40)\n      swap1\n      dup2\n      add\n      0x40\n      mstore\n      dup1\n      swap3\n      swap2\n      swap1\n      dup2\n      dup2\n      mstore\n      0x20\n      add\n      dup3\n      dup1\n      sload\n      tag_51\n      swap1\n      tag_50\n      jump\t// in\n    tag_51:\n      dup1\n      iszero\n      tag_52\n      jumpi\n      dup1\n      0x1f\n      lt\n      tag_53\n      jumpi\n      0x0100\n      dup1\n      dup4\n      sload\n      div\n      mul\n      dup4\n      mstore\n      swap2\n      0x20\n      add\n      swap2\n      jump(tag_52)\n    tag_53:\n      dup3\n      add\n      swap2\n      swap1\n      0x00\n      mstore\n      keccak256(0x00, 0x20)\n      swap1\n    tag_54:\n      dup2\n      sload\n      dup2\n      mstore\n      swap1\n      0x01\n      add\n      swap1\n      0x20\n      add\n      dup1\n      dup4\n      gt\n      tag_54\n      jumpi\n      dup3\n      swap1\n      sub\n      0x1f\n      and\n      dup3\n      add\n      swap2\n    tag_52:\n      pop\n      pop\n      pop\n      pop\n      pop\n      swap1\n      dup1\n      0x02\n      add\n      dup1\n      sload\n      tag_55\n      swap1\n      tag_50\n      jump\t// in\n    tag_55:\n      dup1\n      0x1f\n      add\n      0x20\n      dup1\n      swap2\n      div\n      mul\n      0x20\n      add\n      mload(0x40)\n      swap1\n      dup2\n      add\n      0x40\n      mstore\n      dup1\n      swap3\n      swap2\n      swap1\n      dup2\n      dup2\n      mstore\n      0x20\n      add\n      dup3\n      dup1\n      sload\n      tag_56\n      swap1\n      tag_50\n      jump\t// in\n    tag_56:\n      dup1\n      iszero\n      tag_57\n      jumpi\n      dup1\n      0x1f\n      lt\n      tag_58\n      jumpi\n      0x0100\n      dup1\n      dup4\n      sload\n      div\n      mul\n      dup4\n      mstore\n      swap2\n      0x20\n      add\n      swap2\n      jump(tag_57)\n    tag_58:\n      dup3\n      add\n      swap2\n      swap1\n      0x00\n      mstore\n      keccak256(0x00, 0x20)\n      swap1\n    tag_59:\n      dup2\n      sload\n      dup2\n      mstore\n      swap1\n      0x01\n      add\n      swap1\n      0x20\n      add\n      dup1\n      dup4\n      gt\n      tag_59\n      jumpi\n      dup3\n      swap1\n      sub\n      0x1f\n      and\n      dup3\n      add\n      swap2\n    tag_57:\n      pop\n      pop\n      pop\n      pop\n      pop\n      swap1\n      dup1\n      0x03\n      add\n      sload\n      swap1\n      dup1\n      0x04\n      add\n      sload\n      swap1\n      dup1\n      0x05\n      add\n      sload\n      swap1\n      dup1\n      0x06\n      add\n      sload\n      swap1\n      dup1\n      0x07\n      add\n      0x00\n      swap1\n      sload\n      swap1\n      0x0100\n      exp\n      swap1\n      div\n      0xff\n      and\n      swap1\n      pop\n      dup9\n      jump\t// out\n        /* \"contracts/c2.sol\":368:420  mapping(uint=>mapping(address=>uint)) public funders */\n    tag_21:\n      mstore(0x20, 0x00)\n      dup2\n      0x00\n      mstore\n      mstore(0x20, keccak256(0x00, 0x40))\n      dup1\n      0x00\n      mstore\n      keccak256(0x00, 0x40)\n      0x00\n      swap2\n      pop\n      swap2\n      pop\n      pop\n      sload\n      dup2\n      jump\t// out\n        /* \"contracts/c2.sol\":3472:3827  function getActiveCIds() public view returns (uint[] memory)... */\n    tag_26:\n        /* \"contracts/c2.sol\":3518:3531  uint[] memory */\n      0x60\n        /* \"contracts/c2.sol\":3546:3569  uint[] memory activeCId */\n      0x00\n        /* \"contracts/c2.sol\":3583:3596  getActiveCC() */\n      tag_61\n        /* \"contracts/c2.sol\":3583:3594  getActiveCC */\n      tag_31\n        /* \"contracts/c2.sol\":3583:3596  getActiveCC() */\n      jump\t// in\n    tag_61:\n        /* \"contracts/c2.sol\":3572:3597  new uint[](getActiveCC()) */\n      0xffffffffffffffff\n      dup2\n      gt\n      iszero\n      tag_62\n      jumpi\n      tag_63\n      tag_64\n      jump\t// in\n    tag_63:\n    tag_62:\n      mload(0x40)\n      swap1\n      dup1\n      dup3\n      mstore\n      dup1\n      0x20\n      mul\n      0x20\n      add\n      dup3\n      add\n      0x40\n      mstore\n      dup1\n      iszero\n      tag_65\n      jumpi\n      dup2\n      0x20\n      add\n      0x20\n      dup3\n      mul\n      dup1\n      calldatasize\n      dup4\n      calldatacopy\n      dup1\n      dup3\n      add\n      swap2\n      pop\n      pop\n      swap1\n      pop\n    tag_65:\n      pop\n        /* \"contracts/c2.sol\":3546:3597  uint[] memory activeCId = new uint[](getActiveCC()) */\n      swap1\n      pop\n        /* \"contracts/c2.sol\":3604:3614  uint count */\n      0x00\n        /* \"contracts/c2.sol\":3632:3638  uint i */\n      dup1\n        /* \"contracts/c2.sol\":3627:3801  for (uint i = 0; i < campaigns.length; i++) ... */\n    tag_66:\n        /* \"contracts/c2.sol\":3648:3657  campaigns */\n      0x01\n        /* \"contracts/c2.sol\":3648:3664  campaigns.length */\n      dup1\n      sload\n      swap1\n      pop\n        /* \"contracts/c2.sol\":3644:3645  i */\n      dup2\n        /* \"contracts/c2.sol\":3644:3664  i < campaigns.length */\n      lt\n        /* \"contracts/c2.sol\":3627:3801  for (uint i = 0; i < campaigns.length; i++) ... */\n      iszero\n      tag_67\n      jumpi\n        /* \"contracts/c2.sol\":3692:3701  campaigns */\n      0x01\n        /* \"contracts/c2.sol\":3702:3703  i */\n      dup2\n        /* \"contracts/c2.sol\":3692:3704  campaigns[i] */\n      dup2\n      sload\n      dup2\n      lt\n      tag_69\n      jumpi\n      tag_70\n      tag_71\n      jump\t// in\n    tag_70:\n    tag_69:\n      swap1\n      0x00\n      mstore\n      keccak256(0x00, 0x20)\n      swap1\n      0x08\n      mul\n      add\n        /* \"contracts/c2.sol\":3692:3713  campaigns[i].isActive */\n      0x07\n      add\n      0x00\n      swap1\n      sload\n      swap1\n      0x0100\n      exp\n      swap1\n      div\n      0xff\n      and\n        /* \"contracts/c2.sol\":3688:3794  if (campaigns[i].isActive) ... */\n      iszero\n      tag_73\n      jumpi\n        /* \"contracts/c2.sol\":3759:3760  i */\n      dup1\n        /* \"contracts/c2.sol\":3740:3749  activeCId */\n      dup4\n        /* \"contracts/c2.sol\":3750:3755  count */\n      dup4\n        /* \"contracts/c2.sol\":3740:3756  activeCId[count] */\n      dup2\n      mload\n      dup2\n      lt\n      tag_74\n      jumpi\n      tag_75\n      tag_71\n      jump\t// in\n    tag_75:\n    tag_74:\n      0x20\n      mul\n      0x20\n      add\n      add\n        /* \"contracts/c2.sol\":3740:3760  activeCId[count] = i */\n      dup2\n      dup2\n      mstore\n      pop\n      pop\n        /* \"contracts/c2.sol\":3775:3782  count++ */\n      dup2\n      dup1\n      tag_76\n      swap1\n      tag_77\n      jump\t// in\n    tag_76:\n      swap3\n      pop\n      pop\n        /* \"contracts/c2.sol\":3688:3794  if (campaigns[i].isActive) ... */\n    tag_73:\n        /* \"contracts/c2.sol\":3666:3669  i++ */\n      dup1\n      dup1\n      tag_78\n      swap1\n      tag_77\n      jump\t// in\n    tag_78:\n      swap2\n      pop\n      pop\n        /* \"contracts/c2.sol\":3627:3801  for (uint i = 0; i < campaigns.length; i++) ... */\n      jump(tag_66)\n    tag_67:\n      pop\n        /* \"contracts/c2.sol\":3814:3823  activeCId */\n      dup2\n        /* \"contracts/c2.sol\":3807:3823  return activeCId */\n      swap3\n      pop\n      pop\n      pop\n        /* \"contracts/c2.sol\":3472:3827  function getActiveCIds() public view returns (uint[] memory)... */\n      swap1\n      jump\t// out\n        /* \"contracts/c2.sol\":3137:3422  function getActiveCC() public view returns (uint)... */\n    tag_31:\n        /* \"contracts/c2.sol\":3181:3185  uint */\n      0x00\n        /* \"contracts/c2.sol\":3204:3214  uint count */\n      dup1\n        /* \"contracts/c2.sol\":3217:3218  0 */\n      0x00\n        /* \"contracts/c2.sol\":3204:3218  uint count = 0 */\n      swap1\n      pop\n        /* \"contracts/c2.sol\":3234:3240  uint i */\n      0x00\n        /* \"contracts/c2.sol\":3229:3392  for (uint i = 0; i < campaigns.length; i++)... */\n    tag_80:\n        /* \"contracts/c2.sol\":3250:3259  campaigns */\n      0x01\n        /* \"contracts/c2.sol\":3250:3266  campaigns.length */\n      dup1\n      sload\n      swap1\n      pop\n        /* \"contracts/c2.sol\":3246:3247  i */\n      dup2\n        /* \"contracts/c2.sol\":3246:3266  i < campaigns.length */\n      lt\n        /* \"contracts/c2.sol\":3229:3392  for (uint i = 0; i < campaigns.length; i++)... */\n      iszero\n      tag_81\n      jumpi\n        /* \"contracts/c2.sol\":3302:3311  campaigns */\n      0x01\n        /* \"contracts/c2.sol\":3312:3313  i */\n      dup2\n        /* \"contracts/c2.sol\":3302:3314  campaigns[i] */\n      dup2\n      sload\n      dup2\n      lt\n      tag_83\n      jumpi\n      tag_84\n      tag_71\n      jump\t// in\n    tag_84:\n    tag_83:\n      swap1\n      0x00\n      mstore\n      keccak256(0x00, 0x20)\n      swap1\n      0x08\n      mul\n      add\n        /* \"contracts/c2.sol\":3302:3323  campaigns[i].isActive */\n      0x07\n      add\n      0x00\n      swap1\n      sload\n      swap1\n      0x0100\n      exp\n      swap1\n      div\n      0xff\n      and\n        /* \"contracts/c2.sol\":3298:3381  if (campaigns[i].isActive)... */\n      iszero\n      tag_86\n      jumpi\n        /* \"contracts/c2.sol\":3358:3365  count++ */\n      dup2\n      dup1\n      tag_87\n      swap1\n      tag_77\n      jump\t// in\n    tag_87:\n      swap3\n      pop\n      pop\n        /* \"contracts/c2.sol\":3298:3381  if (campaigns[i].isActive)... */\n    tag_86:\n        /* \"contracts/c2.sol\":3268:3271  i++ */\n      dup1\n      dup1\n      tag_88\n      swap1\n      tag_77\n      jump\t// in\n    tag_88:\n      swap2\n      pop\n      pop\n        /* \"contracts/c2.sol\":3229:3392  for (uint i = 0; i < campaigns.length; i++)... */\n      jump(tag_80)\n    tag_81:\n      pop\n        /* \"contracts/c2.sol\":3409:3414  count */\n      dup1\n        /* \"contracts/c2.sol\":3402:3414  return count */\n      swap2\n      pop\n      pop\n        /* \"contracts/c2.sol\":3137:3422  function getActiveCC() public view returns (uint)... */\n      swap1\n      jump\t// out\n        /* \"contracts/c2.sol\":1778:2453  function fundCampaign(uint _campaignId, uint _fundingAmount) public payable onlyActiveCampaign(_campaignId)... */\n    tag_36:\n        /* \"contracts/c2.sol\":1873:1884  _campaignId */\n      dup2\n        /* \"contracts/c2.sol\":1011:1020  campaigns */\n      0x01\n        /* \"contracts/c2.sol\":1021:1032  _campaignId */\n      dup2\n        /* \"contracts/c2.sol\":1011:1033  campaigns[_campaignId] */\n      dup2\n      sload\n      dup2\n      lt\n      tag_90\n      jumpi\n      tag_91\n      tag_71\n      jump\t// in\n    tag_91:\n    tag_90:\n      swap1\n      0x00\n      mstore\n      keccak256(0x00, 0x20)\n      swap1\n      0x08\n      mul\n      add\n        /* \"contracts/c2.sol\":1011:1042  campaigns[_campaignId].isActive */\n      0x07\n      add\n      0x00\n      swap1\n      sload\n      swap1\n      0x0100\n      exp\n      swap1\n      div\n      0xff\n      and\n        /* \"contracts/c2.sol\":1003:1069  require(campaigns[_campaignId].isActive, \"Campaign is not active\") */\n      tag_93\n      jumpi\n      mload(0x40)\n      0x08c379a000000000000000000000000000000000000000000000000000000000\n      dup2\n      mstore\n      0x04\n      add\n      tag_94\n      swap1\n      tag_95\n      jump\t// in\n    tag_94:\n      mload(0x40)\n      dup1\n      swap2\n      sub\n      swap1\n      revert\n    tag_93:\n        /* \"contracts/c2.sol\":1927:1928  0 */\n      0x00\n        /* \"contracts/c2.sol\":1910:1924  _fundingAmount */\n      dup3\n        /* \"contracts/c2.sol\":1910:1928  _fundingAmount > 0 */\n      gt\n        /* \"contracts/c2.sol\":1910:2020  _fundingAmount > 0 && _fundingAmount<=(campaigns[_campaignId].goalAmount-campaigns[_campaignId].currentAmount) */\n      dup1\n      iszero\n      tag_97\n      jumpi\n      pop\n        /* \"contracts/c2.sol\":1983:1992  campaigns */\n      0x01\n        /* \"contracts/c2.sol\":1993:2004  _campaignId */\n      dup4\n        /* \"contracts/c2.sol\":1983:2005  campaigns[_campaignId] */\n      dup2\n      sload\n      dup2\n      lt\n      tag_98\n      jumpi\n      tag_99\n      tag_71\n      jump\t// in\n    tag_99:\n    tag_98:\n      swap1\n      0x00\n      mstore\n      keccak256(0x00, 0x20)\n      swap1\n      0x08\n      mul\n      add\n        /* \"contracts/c2.sol\":1983:2019  campaigns[_campaignId].currentAmount */\n      0x06\n      add\n      sload\n        /* \"contracts/c2.sol\":1949:1958  campaigns */\n      0x01\n        /* \"contracts/c2.sol\":1959:1970  _campaignId */\n      dup5\n        /* \"contracts/c2.sol\":1949:1971  campaigns[_campaignId] */\n      dup2\n      sload\n      dup2\n      lt\n      tag_101\n      jumpi\n      tag_102\n      tag_71\n      jump\t// in\n    tag_102:\n    tag_101:\n      swap1\n      0x00\n      mstore\n      keccak256(0x00, 0x20)\n      swap1\n      0x08\n      mul\n      add\n        /* \"contracts/c2.sol\":1949:1982  campaigns[_campaignId].goalAmount */\n      0x05\n      add\n      sload\n        /* \"contracts/c2.sol\":1949:2019  campaigns[_campaignId].goalAmount-campaigns[_campaignId].currentAmount */\n      tag_104\n      swap2\n      swap1\n      tag_105\n      jump\t// in\n    tag_104:\n        /* \"contracts/c2.sol\":1932:1946  _fundingAmount */\n      dup3\n        /* \"contracts/c2.sol\":1932:2020  _fundingAmount<=(campaigns[_campaignId].goalAmount-campaigns[_campaignId].currentAmount) */\n      gt\n      iszero\n        /* \"contracts/c2.sol\":1910:2020  _fundingAmount > 0 && _fundingAmount<=(campaigns[_campaignId].goalAmount-campaigns[_campaignId].currentAmount) */\n    tag_97:\n        /* \"contracts/c2.sol\":1902:2062  require(_fundingAmount > 0 && _fundingAmount<=(campaigns[_campaignId].goalAmount-campaigns[_campaignId].currentAmount), \"Funding amount must be greater than 0\") */\n      tag_106\n      jumpi\n      mload(0x40)\n      0x08c379a000000000000000000000000000000000000000000000000000000000\n      dup2\n      mstore\n      0x04\n      add\n      tag_107\n      swap1\n      tag_108\n      jump\t// in\n    tag_107:\n      mload(0x40)\n      dup1\n      swap2\n      sub\n      swap1\n      revert\n    tag_106:\n        /* \"contracts/c2.sol\":2116:2117  0 */\n      0x00\n        /* \"contracts/c2.sol\":2080:2087  funders */\n      dup1\n        /* \"contracts/c2.sol\":2080:2100  funders[_campaignId] */\n      0x00\n        /* \"contracts/c2.sol\":2088:2099  _campaignId */\n      dup6\n        /* \"contracts/c2.sol\":2080:2100  funders[_campaignId] */\n      dup2\n      mstore\n      0x20\n      add\n      swap1\n      dup2\n      mstore\n      0x20\n      add\n      0x00\n      keccak256\n        /* \"contracts/c2.sol\":2080:2112  funders[_campaignId][msg.sender] */\n      0x00\n        /* \"contracts/c2.sol\":2101:2111  msg.sender */\n      caller\n        /* \"contracts/c2.sol\":2080:2112  funders[_campaignId][msg.sender] */\n      0xffffffffffffffffffffffffffffffffffffffff\n      and\n      0xffffffffffffffffffffffffffffffffffffffff\n      and\n      dup2\n      mstore\n      0x20\n      add\n      swap1\n      dup2\n      mstore\n      0x20\n      add\n      0x00\n      keccak256\n      sload\n        /* \"contracts/c2.sol\":2080:2117  funders[_campaignId][msg.sender] == 0 */\n      eq\n        /* \"contracts/c2.sol\":2072:2159  require(funders[_campaignId][msg.sender] == 0, \"Funder can only fund once per project\") */\n      tag_109\n      jumpi\n      mload(0x40)\n      0x08c379a000000000000000000000000000000000000000000000000000000000\n      dup2\n      mstore\n      0x04\n      add\n      tag_110\n      swap1\n      tag_111\n      jump\t// in\n    tag_110:\n      mload(0x40)\n      dup1\n      swap2\n      sub\n      swap1\n      revert\n    tag_109:\n        /* \"contracts/c2.sol\":2206:2220  _fundingAmount */\n      dup2\n        /* \"contracts/c2.sol\":2171:2178  funders */\n      0x00\n        /* \"contracts/c2.sol\":2171:2191  funders[_campaignId] */\n      dup1\n        /* \"contracts/c2.sol\":2179:2190  _campaignId */\n      dup6\n        /* \"contracts/c2.sol\":2171:2191  funders[_campaignId] */\n      dup2\n      mstore\n      0x20\n      add\n      swap1\n      dup2\n      mstore\n      0x20\n      add\n      0x00\n      keccak256\n        /* \"contracts/c2.sol\":2171:2203  funders[_campaignId][msg.sender] */\n      0x00\n        /* \"contracts/c2.sol\":2192:2202  msg.sender */\n      caller\n        /* \"contracts/c2.sol\":2171:2203  funders[_campaignId][msg.sender] */\n      0xffffffffffffffffffffffffffffffffffffffff\n      and\n      0xffffffffffffffffffffffffffffffffffffffff\n      and\n      dup2\n      mstore\n      0x20\n      add\n      swap1\n      dup2\n      mstore\n      0x20\n      add\n      0x00\n      keccak256\n        /* \"contracts/c2.sol\":2171:2220  funders[_campaignId][msg.sender] = _fundingAmount */\n      dup2\n      swap1\n      sstore\n      pop\n        /* \"contracts/c2.sol\":2270:2284  _fundingAmount */\n      dup2\n        /* \"contracts/c2.sol\":2230:2239  campaigns */\n      0x01\n        /* \"contracts/c2.sol\":2240:2251  _campaignId */\n      dup5\n        /* \"contracts/c2.sol\":2230:2252  campaigns[_campaignId] */\n      dup2\n      sload\n      dup2\n      lt\n      tag_112\n      jumpi\n      tag_113\n      tag_71\n      jump\t// in\n    tag_113:\n    tag_112:\n      swap1\n      0x00\n      mstore\n      keccak256(0x00, 0x20)\n      swap1\n      0x08\n      mul\n      add\n        /* \"contracts/c2.sol\":2230:2266  campaigns[_campaignId].currentAmount */\n      0x06\n      add\n      0x00\n        /* \"contracts/c2.sol\":2230:2284  campaigns[_campaignId].currentAmount += _fundingAmount */\n      dup3\n      dup3\n      sload\n      tag_115\n      swap2\n      swap1\n      tag_116\n      jump\t// in\n    tag_115:\n      swap3\n      pop\n      pop\n      dup2\n      swap1\n      sstore\n      pop\n        /* \"contracts/c2.sol\":2336:2345  campaigns */\n      0x01\n        /* \"contracts/c2.sol\":2346:2357  _campaignId */\n      dup4\n        /* \"contracts/c2.sol\":2336:2358  campaigns[_campaignId] */\n      dup2\n      sload\n      dup2\n      lt\n      tag_117\n      jumpi\n      tag_118\n      tag_71\n      jump\t// in\n    tag_118:\n    tag_117:\n      swap1\n      0x00\n      mstore\n      keccak256(0x00, 0x20)\n      swap1\n      0x08\n      mul\n      add\n        /* \"contracts/c2.sol\":2336:2369  campaigns[_campaignId].goalAmount */\n      0x05\n      add\n      sload\n        /* \"contracts/c2.sol\":2298:2307  campaigns */\n      0x01\n        /* \"contracts/c2.sol\":2308:2319  _campaignId */\n      dup5\n        /* \"contracts/c2.sol\":2298:2320  campaigns[_campaignId] */\n      dup2\n      sload\n      dup2\n      lt\n      tag_120\n      jumpi\n      tag_121\n      tag_71\n      jump\t// in\n    tag_121:\n    tag_120:\n      swap1\n      0x00\n      mstore\n      keccak256(0x00, 0x20)\n      swap1\n      0x08\n      mul\n      add\n        /* \"contracts/c2.sol\":2298:2334  campaigns[_campaignId].currentAmount */\n      0x06\n      add\n      sload\n        /* \"contracts/c2.sol\":2298:2369  campaigns[_campaignId].currentAmount==campaigns[_campaignId].goalAmount */\n      sub\n        /* \"contracts/c2.sol\":2295:2442  if(campaigns[_campaignId].currentAmount==campaigns[_campaignId].goalAmount)... */\n      tag_123\n      jumpi\n        /* \"contracts/c2.sol\":2425:2430  false */\n      0x00\n        /* \"contracts/c2.sol\":2393:2402  campaigns */\n      0x01\n        /* \"contracts/c2.sol\":2403:2414  _campaignId */\n      dup5\n        /* \"contracts/c2.sol\":2393:2415  campaigns[_campaignId] */\n      dup2\n      sload\n      dup2\n      lt\n      tag_124\n      jumpi\n      tag_125\n      tag_71\n      jump\t// in\n    tag_125:\n    tag_124:\n      swap1\n      0x00\n      mstore\n      keccak256(0x00, 0x20)\n      swap1\n      0x08\n      mul\n      add\n        /* \"contracts/c2.sol\":2393:2424  campaigns[_campaignId].isActive */\n      0x07\n      add\n      0x00\n        /* \"contracts/c2.sol\":2393:2430  campaigns[_campaignId].isActive=false */\n      0x0100\n      exp\n      dup2\n      sload\n      dup2\n      0xff\n      mul\n      not\n      and\n      swap1\n      dup4\n      iszero\n      iszero\n      mul\n      or\n      swap1\n      sstore\n      pop\n        /* \"contracts/c2.sol\":2295:2442  if(campaigns[_campaignId].currentAmount==campaigns[_campaignId].goalAmount)... */\n    tag_123:\n        /* \"contracts/c2.sol\":1778:2453  function fundCampaign(uint _campaignId, uint _fundingAmount) public payable onlyActiveCampaign(_campaignId)... */\n      pop\n      pop\n      pop\n      jump\t// out\n        /* \"contracts/c2.sol\":1139:1713  function createCampaign(string memory _cause, string memory _futurePlans, uint _startDate, uint _endDate, uint _goalAmount) public {... */\n    tag_41:\n        /* \"contracts/c2.sol\":1281:1308  Campaign memory newCampaign */\n      0x00\n        /* \"contracts/c2.sol\":1311:1600  Campaign({... */\n      mload(0x40)\n      dup1\n      0x0100\n      add\n      0x40\n      mstore\n      dup1\n        /* \"contracts/c2.sol\":1344:1354  msg.sender */\n      caller\n        /* \"contracts/c2.sol\":1311:1600  Campaign({... */\n      0xffffffffffffffffffffffffffffffffffffffff\n      and\n      dup2\n      mstore\n      0x20\n      add\n        /* \"contracts/c2.sol\":1376:1382  _cause */\n      dup8\n        /* \"contracts/c2.sol\":1311:1600  Campaign({... */\n      dup2\n      mstore\n      0x20\n      add\n        /* \"contracts/c2.sol\":1410:1422  _futurePlans */\n      dup7\n        /* \"contracts/c2.sol\":1311:1600  Campaign({... */\n      dup2\n      mstore\n      0x20\n      add\n        /* \"contracts/c2.sol\":1448:1458  _startDate */\n      dup6\n        /* \"contracts/c2.sol\":1311:1600  Campaign({... */\n      dup2\n      mstore\n      0x20\n      add\n        /* \"contracts/c2.sol\":1482:1490  _endDate */\n      dup5\n        /* \"contracts/c2.sol\":1311:1600  Campaign({... */\n      dup2\n      mstore\n      0x20\n      add\n        /* \"contracts/c2.sol\":1517:1528  _goalAmount */\n      dup4\n        /* \"contracts/c2.sol\":1311:1600  Campaign({... */\n      dup2\n      mstore\n      0x20\n      add\n        /* \"contracts/c2.sol\":1558:1559  0 */\n      0x00\n        /* \"contracts/c2.sol\":1311:1600  Campaign({... */\n      dup2\n      mstore\n      0x20\n      add\n        /* \"contracts/c2.sol\":1584:1588  true */\n      0x01\n        /* \"contracts/c2.sol\":1311:1600  Campaign({... */\n      iszero\n      iszero\n      dup2\n      mstore\n      pop\n        /* \"contracts/c2.sol\":1281:1600  Campaign memory newCampaign = Campaign({... */\n      swap1\n      pop\n        /* \"contracts/c2.sol\":1613:1622  campaigns */\n      0x01\n        /* \"contracts/c2.sol\":1628:1639  newCampaign */\n      dup2\n        /* \"contracts/c2.sol\":1613:1640  campaigns.push(newCampaign) */\n      swap1\n      dup1\n      0x01\n      dup2\n      sload\n      add\n      dup1\n      dup3\n      sstore\n      dup1\n      swap2\n      pop\n      pop\n      0x01\n      swap1\n      sub\n      swap1\n      0x00\n      mstore\n      keccak256(0x00, 0x20)\n      swap1\n      0x08\n      mul\n      add\n      0x00\n      swap1\n      swap2\n      swap1\n      swap2\n      swap1\n      swap2\n      pop\n      0x00\n      dup3\n      add\n      mload\n      dup2\n      0x00\n      add\n      exp(0x0100, 0x00)\n      dup2\n      sload\n      dup2\n      0xffffffffffffffffffffffffffffffffffffffff\n      mul\n      not\n      and\n      swap1\n      dup4\n      0xffffffffffffffffffffffffffffffffffffffff\n      and\n      mul\n      or\n      swap1\n      sstore\n      pop\n      0x20\n      dup3\n      add\n      mload\n      dup2\n      0x01\n      add\n      swap1\n      dup2\n      tag_129\n      swap2\n      swap1\n      tag_130\n      jump\t// in\n    tag_129:\n      pop\n      0x40\n      dup3\n      add\n      mload\n      dup2\n      0x02\n      add\n      swap1\n      dup2\n      tag_131\n      swap2\n      swap1\n      tag_130\n      jump\t// in\n    tag_131:\n      pop\n      0x60\n      dup3\n      add\n      mload\n      dup2\n      0x03\n      add\n      sstore\n      0x80\n      dup3\n      add\n      mload\n      dup2\n      0x04\n      add\n      sstore\n      0xa0\n      dup3\n      add\n      mload\n      dup2\n      0x05\n      add\n      sstore\n      0xc0\n      dup3\n      add\n      mload\n      dup2\n      0x06\n      add\n      sstore\n      0xe0\n      dup3\n      add\n      mload\n      dup2\n      0x07\n      add\n      exp(0x0100, 0x00)\n      dup2\n      sload\n      dup2\n      0xff\n      mul\n      not\n      and\n      swap1\n      dup4\n      iszero\n      iszero\n      mul\n      or\n      swap1\n      sstore\n      pop\n      pop\n      pop\n        /* \"contracts/c2.sol\":1694:1704  msg.sender */\n      caller\n        /* \"contracts/c2.sol\":1656:1705  CampaignCreated(campaigns.length - 1, msg.sender) */\n      0xffffffffffffffffffffffffffffffffffffffff\n      and\n        /* \"contracts/c2.sol\":1691:1692  1 */\n      0x01\n        /* \"contracts/c2.sol\":1672:1681  campaigns */\n      dup1\n        /* \"contracts/c2.sol\":1672:1688  campaigns.length */\n      dup1\n      sload\n      swap1\n      pop\n        /* \"contracts/c2.sol\":1672:1692  campaigns.length - 1 */\n      tag_132\n      swap2\n      swap1\n      tag_105\n      jump\t// in\n    tag_132:\n        /* \"contracts/c2.sol\":1656:1705  CampaignCreated(campaigns.length - 1, msg.sender) */\n      0x633109eec20320eded000fc1e2634211aa7e92ba3f5b15faf6dcdafca05094e4\n      mload(0x40)\n      mload(0x40)\n      dup1\n      swap2\n      sub\n      swap1\n      log3\n        /* \"contracts/c2.sol\":1270:1713  {... */\n      pop\n        /* \"contracts/c2.sol\":1139:1713  function createCampaign(string memory _cause, string memory _futurePlans, uint _startDate, uint _endDate, uint _goalAmount) public {... */\n      pop\n      pop\n      pop\n      pop\n      pop\n      jump\t// out\n        /* \"contracts/c2.sol\":2515:3074  function getCampaignDetails(uint _campaignId) public view returns (... */\n    tag_45:\n        /* \"contracts/c2.sol\":2592:2607  address creator */\n      0x00\n        /* \"contracts/c2.sol\":2618:2637  string memory cause */\n      0x60\n        /* \"contracts/c2.sol\":2648:2673  string memory futurePlans */\n      dup1\n        /* \"contracts/c2.sol\":2684:2698  uint startDate */\n      0x00\n        /* \"contracts/c2.sol\":2709:2721  uint endDate */\n      dup1\n        /* \"contracts/c2.sol\":2732:2747  uint goalAmount */\n      0x00\n        /* \"contracts/c2.sol\":2758:2776  uint currentAmount */\n      dup1\n        /* \"contracts/c2.sol\":2787:2800  bool isActive */\n      0x00\n        /* \"contracts/c2.sol\":2819:2843  Campaign memory campaign */\n      dup1\n        /* \"contracts/c2.sol\":2846:2855  campaigns */\n      0x01\n        /* \"contracts/c2.sol\":2856:2867  _campaignId */\n      dup11\n        /* \"contracts/c2.sol\":2846:2868  campaigns[_campaignId] */\n      dup2\n      sload\n      dup2\n      lt\n      tag_134\n      jumpi\n      tag_135\n      tag_71\n      jump\t// in\n    tag_135:\n    tag_134:\n      swap1\n      0x00\n      mstore\n      keccak256(0x00, 0x20)\n      swap1\n      0x08\n      mul\n      add\n        /* \"contracts/c2.sol\":2819:2868  Campaign memory campaign = campaigns[_campaignId] */\n      mload(0x40)\n      dup1\n      0x0100\n      add\n      0x40\n      mstore\n      swap1\n      dup2\n      0x00\n      dup3\n      add\n      0x00\n      swap1\n      sload\n      swap1\n      0x0100\n      exp\n      swap1\n      div\n      0xffffffffffffffffffffffffffffffffffffffff\n      and\n      0xffffffffffffffffffffffffffffffffffffffff\n      and\n      0xffffffffffffffffffffffffffffffffffffffff\n      and\n      dup2\n      mstore\n      0x20\n      add\n      0x01\n      dup3\n      add\n      dup1\n      sload\n      tag_137\n      swap1\n      tag_50\n      jump\t// in\n    tag_137:\n      dup1\n      0x1f\n      add\n      0x20\n      dup1\n      swap2\n      div\n      mul\n      0x20\n      add\n      mload(0x40)\n      swap1\n      dup2\n      add\n      0x40\n      mstore\n      dup1\n      swap3\n      swap2\n      swap1\n      dup2\n      dup2\n      mstore\n      0x20\n      add\n      dup3\n      dup1\n      sload\n      tag_138\n      swap1\n      tag_50\n      jump\t// in\n    tag_138:\n      dup1\n      iszero\n      tag_139\n      jumpi\n      dup1\n      0x1f\n      lt\n      tag_140\n      jumpi\n      0x0100\n      dup1\n      dup4\n      sload\n      div\n      mul\n      dup4\n      mstore\n      swap2\n      0x20\n      add\n      swap2\n      jump(tag_139)\n    tag_140:\n      dup3\n      add\n      swap2\n      swap1\n      0x00\n      mstore\n      keccak256(0x00, 0x20)\n      swap1\n    tag_141:\n      dup2\n      sload\n      dup2\n      mstore\n      swap1\n      0x01\n      add\n      swap1\n      0x20\n      add\n      dup1\n      dup4\n      gt\n      tag_141\n      jumpi\n      dup3\n      swap1\n      sub\n      0x1f\n      and\n      dup3\n      add\n      swap2\n    tag_139:\n      pop\n      pop\n      pop\n      pop\n      pop\n      dup2\n      mstore\n      0x20\n      add\n      0x02\n      dup3\n      add\n      dup1\n      sload\n      tag_142\n      swap1\n      tag_50\n      jump\t// in\n    tag_142:\n      dup1\n      0x1f\n      add\n      0x20\n      dup1\n      swap2\n      div\n      mul\n      0x20\n      add\n      mload(0x40)\n      swap1\n      dup2\n      add\n      0x40\n      mstore\n      dup1\n      swap3\n      swap2\n      swap1\n      dup2\n      dup2\n      mstore\n      0x20\n      add\n      dup3\n      dup1\n      sload\n      tag_143\n      swap1\n      tag_50\n      jump\t// in\n    tag_143:\n      dup1\n      iszero\n      tag_144\n      jumpi\n      dup1\n      0x1f\n      lt\n      tag_145\n      jumpi\n      0x0100\n      dup1\n      dup4\n      sload\n      div\n      mul\n      dup4\n      mstore\n      swap2\n      0x20\n      add\n      swap2\n      jump(tag_144)\n    tag_145:\n      dup3\n      add\n      swap2\n      swap1\n      0x00\n      mstore\n      keccak256(0x00, 0x20)\n      swap1\n    tag_146:\n      dup2\n      sload\n      dup2\n      mstore\n      swap1\n      0x01\n      add\n      swap1\n      0x20\n      add\n      dup1\n      dup4\n      gt\n      tag_146\n      jumpi\n      dup3\n      swap1\n      sub\n      0x1f\n      and\n      dup3\n      add\n      swap2\n    tag_144:\n      pop\n      pop\n      pop\n      pop\n      pop\n      dup2\n      mstore\n      0x20\n      add\n      0x03\n      dup3\n      add\n      sload\n      dup2\n      mstore\n      0x20\n      add\n      0x04\n      dup3\n      add\n      sload\n      dup2\n      mstore\n      0x20\n      add\n      0x05\n      dup3\n      add\n      sload\n      dup2\n      mstore\n      0x20\n      add\n      0x06\n      dup3\n      add\n      sload\n      dup2\n      mstore\n      0x20\n      add\n      0x07\n      dup3\n      add\n      0x00\n      swap1\n      sload\n      swap1\n      0x0100\n      exp\n      swap1\n      div\n      0xff\n      and\n      iszero\n      iszero\n      iszero\n      iszero\n      dup2\n      mstore\n      pop\n      pop\n      swap1\n      pop\n        /* \"contracts/c2.sol\":2887:2895  campaign */\n      dup1\n        /* \"contracts/c2.sol\":2887:2903  campaign.creator */\n      0x00\n      add\n      mload\n        /* \"contracts/c2.sol\":2908:2916  campaign */\n      dup2\n        /* \"contracts/c2.sol\":2908:2922  campaign.cause */\n      0x20\n      add\n      mload\n        /* \"contracts/c2.sol\":2926:2934  campaign */\n      dup3\n        /* \"contracts/c2.sol\":2926:2946  campaign.futurePlans */\n      0x40\n      add\n      mload\n        /* \"contracts/c2.sol\":2948:2956  campaign */\n      dup4\n        /* \"contracts/c2.sol\":2948:2966  campaign.startDate */\n      0x60\n      add\n      mload\n        /* \"contracts/c2.sol\":2985:2993  campaign */\n      dup5\n        /* \"contracts/c2.sol\":2985:3001  campaign.endDate */\n      0x80\n      add\n      mload\n        /* \"contracts/c2.sol\":3003:3011  campaign */\n      dup6\n        /* \"contracts/c2.sol\":3003:3022  campaign.goalAmount */\n      0xa0\n      add\n      mload\n        /* \"contracts/c2.sol\":3024:3032  campaign */\n      dup7\n        /* \"contracts/c2.sol\":3024:3046  campaign.currentAmount */\n      0xc0\n      add\n      mload\n        /* \"contracts/c2.sol\":3048:3056  campaign */\n      dup8\n        /* \"contracts/c2.sol\":3048:3065  campaign.isActive */\n      0xe0\n      add\n      mload\n        /* \"contracts/c2.sol\":2879:3066  return (campaign.creator,    campaign.cause,   campaign.futurePlans, campaign.startDate,... */\n      swap9\n      pop\n      swap9\n      pop\n      swap9\n      pop\n      swap9\n      pop\n      swap9\n      pop\n      swap9\n      pop\n      swap9\n      pop\n      swap9\n      pop\n      pop\n        /* \"contracts/c2.sol\":2515:3074  function getCampaignDetails(uint _campaignId) public view returns (... */\n      swap2\n      swap4\n      swap6\n      swap8\n      pop\n      swap2\n      swap4\n      swap6\n      swap8\n      jump\t// out\n        /* \"#utility.yul\":7:82   */\n    tag_147:\n        /* \"#utility.yul\":40:46   */\n      0x00\n        /* \"#utility.yul\":73:75   */\n      0x40\n        /* \"#utility.yul\":67:76   */\n      mload\n        /* \"#utility.yul\":57:76   */\n      swap1\n      pop\n        /* \"#utility.yul\":7:82   */\n      swap1\n      jump\t// out\n        /* \"#utility.yul\":88:205   */\n    tag_148:\n        /* \"#utility.yul\":197:198   */\n      0x00\n        /* \"#utility.yul\":194:195   */\n      dup1\n        /* \"#utility.yul\":187:199   */\n      revert\n        /* \"#utility.yul\":211:328   */\n    tag_149:\n        /* \"#utility.yul\":320:321   */\n      0x00\n        /* \"#utility.yul\":317:318   */\n      dup1\n        /* \"#utility.yul\":310:322   */\n      revert\n        /* \"#utility.yul\":334:411   */\n    tag_150:\n        /* \"#utility.yul\":371:378   */\n      0x00\n        /* \"#utility.yul\":400:405   */\n      dup2\n        /* \"#utility.yul\":389:405   */\n      swap1\n      pop\n        /* \"#utility.yul\":334:411   */\n      swap2\n      swap1\n      pop\n      jump\t// out\n        /* \"#utility.yul\":417:539   */\n    tag_151:\n        /* \"#utility.yul\":490:514   */\n      tag_210\n        /* \"#utility.yul\":508:513   */\n      dup2\n        /* \"#utility.yul\":490:514   */\n      tag_150\n      jump\t// in\n    tag_210:\n        /* \"#utility.yul\":483:488   */\n      dup2\n        /* \"#utility.yul\":480:515   */\n      eq\n        /* \"#utility.yul\":470:533   */\n      tag_211\n      jumpi\n        /* \"#utility.yul\":529:530   */\n      0x00\n        /* \"#utility.yul\":526:527   */\n      dup1\n        /* \"#utility.yul\":519:531   */\n      revert\n        /* \"#utility.yul\":470:533   */\n    tag_211:\n        /* \"#utility.yul\":417:539   */\n      pop\n      jump\t// out\n        /* \"#utility.yul\":545:684   */\n    tag_152:\n        /* \"#utility.yul\":591:596   */\n      0x00\n        /* \"#utility.yul\":629:635   */\n      dup2\n        /* \"#utility.yul\":616:636   */\n      calldataload\n        /* \"#utility.yul\":607:636   */\n      swap1\n      pop\n        /* \"#utility.yul\":645:678   */\n      tag_213\n        /* \"#utility.yul\":672:677   */\n      dup2\n        /* \"#utility.yul\":645:678   */\n      tag_151\n      jump\t// in\n    tag_213:\n        /* \"#utility.yul\":545:684   */\n      swap3\n      swap2\n      pop\n      pop\n      jump\t// out\n        /* \"#utility.yul\":690:1019   */\n    tag_13:\n        /* \"#utility.yul\":749:755   */\n      0x00\n        /* \"#utility.yul\":798:800   */\n      0x20\n        /* \"#utility.yul\":786:795   */\n      dup3\n        /* \"#utility.yul\":777:784   */\n      dup5\n        /* \"#utility.yul\":773:796   */\n      sub\n        /* \"#utility.yul\":769:801   */\n      slt\n        /* \"#utility.yul\":766:885   */\n      iszero\n      tag_215\n      jumpi\n        /* \"#utility.yul\":804:883   */\n      tag_216\n      tag_148\n      jump\t// in\n    tag_216:\n        /* \"#utility.yul\":766:885   */\n    tag_215:\n        /* \"#utility.yul\":924:925   */\n      0x00\n        /* \"#utility.yul\":949:1002   */\n      tag_217\n        /* \"#utility.yul\":994:1001   */\n      dup5\n        /* \"#utility.yul\":985:991   */\n      dup3\n        /* \"#utility.yul\":974:983   */\n      dup6\n        /* \"#utility.yul\":970:992   */\n      add\n        /* \"#utility.yul\":949:1002   */\n      tag_152\n      jump\t// in\n    tag_217:\n        /* \"#utility.yul\":939:1002   */\n      swap2\n      pop\n        /* \"#utility.yul\":895:1012   */\n      pop\n        /* \"#utility.yul\":690:1019   */\n      swap3\n      swap2\n      pop\n      pop\n      jump\t// out\n        /* \"#utility.yul\":1025:1151   */\n    tag_153:\n        /* \"#utility.yul\":1062:1069   */\n      0x00\n        /* \"#utility.yul\":1102:1144   */\n      0xffffffffffffffffffffffffffffffffffffffff\n        /* \"#utility.yul\":1095:1100   */\n      dup3\n        /* \"#utility.yul\":1091:1145   */\n      and\n        /* \"#utility.yul\":1080:1145   */\n      swap1\n      pop\n        /* \"#utility.yul\":1025:1151   */\n      swap2\n      swap1\n      pop\n      jump\t// out\n        /* \"#utility.yul\":1157:1253   */\n    tag_154:\n        /* \"#utility.yul\":1194:1201   */\n      0x00\n        /* \"#utility.yul\":1223:1247   */\n      tag_220\n        /* \"#utility.yul\":1241:1246   */\n      dup3\n        /* \"#utility.yul\":1223:1247   */\n      tag_153\n      jump\t// in\n    tag_220:\n        /* \"#utility.yul\":1212:1247   */\n      swap1\n      pop\n        /* \"#utility.yul\":1157:1253   */\n      swap2\n      swap1\n      pop\n      jump\t// out\n        /* \"#utility.yul\":1259:1377   */\n    tag_155:\n        /* \"#utility.yul\":1346:1370   */\n      tag_222\n        /* \"#utility.yul\":1364:1369   */\n      dup2\n        /* \"#utility.yul\":1346:1370   */\n      tag_154\n      jump\t// in\n    tag_222:\n        /* \"#utility.yul\":1341:1344   */\n      dup3\n        /* \"#utility.yul\":1334:1371   */\n      mstore\n        /* \"#utility.yul\":1259:1377   */\n      pop\n      pop\n      jump\t// out\n        /* \"#utility.yul\":1383:1482   */\n    tag_156:\n        /* \"#utility.yul\":1435:1441   */\n      0x00\n        /* \"#utility.yul\":1469:1474   */\n      dup2\n        /* \"#utility.yul\":1463:1475   */\n      mload\n        /* \"#utility.yul\":1453:1475   */\n      swap1\n      pop\n        /* \"#utility.yul\":1383:1482   */\n      swap2\n      swap1\n      pop\n      jump\t// out\n        /* \"#utility.yul\":1488:1657   */\n    tag_157:\n        /* \"#utility.yul\":1572:1583   */\n      0x00\n        /* \"#utility.yul\":1606:1612   */\n      dup3\n        /* \"#utility.yul\":1601:1604   */\n      dup3\n        /* \"#utility.yul\":1594:1613   */\n      mstore\n        /* \"#utility.yul\":1646:1650   */\n      0x20\n        /* \"#utility.yul\":1641:1644   */\n      dup3\n        /* \"#utility.yul\":1637:1651   */\n      add\n        /* \"#utility.yul\":1622:1651   */\n      swap1\n      pop\n        /* \"#utility.yul\":1488:1657   */\n      swap3\n      swap2\n      pop\n      pop\n      jump\t// out\n        /* \"#utility.yul\":1663:1909   */\n    tag_158:\n        /* \"#utility.yul\":1744:1745   */\n      0x00\n        /* \"#utility.yul\":1754:1867   */\n    tag_226:\n        /* \"#utility.yul\":1768:1774   */\n      dup4\n        /* \"#utility.yul\":1765:1766   */\n      dup2\n        /* \"#utility.yul\":1762:1775   */\n      lt\n        /* \"#utility.yul\":1754:1867   */\n      iszero\n      tag_228\n      jumpi\n        /* \"#utility.yul\":1853:1854   */\n      dup1\n        /* \"#utility.yul\":1848:1851   */\n      dup3\n        /* \"#utility.yul\":1844:1855   */\n      add\n        /* \"#utility.yul\":1838:1856   */\n      mload\n        /* \"#utility.yul\":1834:1835   */\n      dup2\n        /* \"#utility.yul\":1829:1832   */\n      dup5\n        /* \"#utility.yul\":1825:1836   */\n      add\n        /* \"#utility.yul\":1818:1857   */\n      mstore\n        /* \"#utility.yul\":1790:1792   */\n      0x20\n        /* \"#utility.yul\":1787:1788   */\n      dup2\n        /* \"#utility.yul\":1783:1793   */\n      add\n        /* \"#utility.yul\":1778:1793   */\n      swap1\n      pop\n        /* \"#utility.yul\":1754:1867   */\n      jump(tag_226)\n    tag_228:\n        /* \"#utility.yul\":1901:1902   */\n      0x00\n        /* \"#utility.yul\":1892:1898   */\n      dup5\n        /* \"#utility.yul\":1887:1890   */\n      dup5\n        /* \"#utility.yul\":1883:1899   */\n      add\n        /* \"#utility.yul\":1876:1903   */\n      mstore\n        /* \"#utility.yul\":1725:1909   */\n      pop\n        /* \"#utility.yul\":1663:1909   */\n      pop\n      pop\n      pop\n      jump\t// out\n        /* \"#utility.yul\":1915:2017   */\n    tag_159:\n        /* \"#utility.yul\":1956:1962   */\n      0x00\n        /* \"#utility.yul\":2007:2009   */\n      0x1f\n        /* \"#utility.yul\":2003:2010   */\n      not\n        /* \"#utility.yul\":1998:2000   */\n      0x1f\n        /* \"#utility.yul\":1991:1996   */\n      dup4\n        /* \"#utility.yul\":1987:2001   */\n      add\n        /* \"#utility.yul\":1983:2011   */\n      and\n        /* \"#utility.yul\":1973:2011   */\n      swap1\n      pop\n        /* \"#utility.yul\":1915:2017   */\n      swap2\n      swap1\n      pop\n      jump\t// out\n        /* \"#utility.yul\":2023:2400   */\n    tag_160:\n        /* \"#utility.yul\":2111:2114   */\n      0x00\n        /* \"#utility.yul\":2139:2178   */\n      tag_231\n        /* \"#utility.yul\":2172:2177   */\n      dup3\n        /* \"#utility.yul\":2139:2178   */\n      tag_156\n      jump\t// in\n    tag_231:\n        /* \"#utility.yul\":2194:2265   */\n      tag_232\n        /* \"#utility.yul\":2258:2264   */\n      dup2\n        /* \"#utility.yul\":2253:2256   */\n      dup6\n        /* \"#utility.yul\":2194:2265   */\n      tag_157\n      jump\t// in\n    tag_232:\n        /* \"#utility.yul\":2187:2265   */\n      swap4\n      pop\n        /* \"#utility.yul\":2274:2339   */\n      tag_233\n        /* \"#utility.yul\":2332:2338   */\n      dup2\n        /* \"#utility.yul\":2327:2330   */\n      dup6\n        /* \"#utility.yul\":2320:2324   */\n      0x20\n        /* \"#utility.yul\":2313:2318   */\n      dup7\n        /* \"#utility.yul\":2309:2325   */\n      add\n        /* \"#utility.yul\":2274:2339   */\n      tag_158\n      jump\t// in\n    tag_233:\n        /* \"#utility.yul\":2364:2393   */\n      tag_234\n        /* \"#utility.yul\":2386:2392   */\n      dup2\n        /* \"#utility.yul\":2364:2393   */\n      tag_159\n      jump\t// in\n    tag_234:\n        /* \"#utility.yul\":2359:2362   */\n      dup5\n        /* \"#utility.yul\":2355:2394   */\n      add\n        /* \"#utility.yul\":2348:2394   */\n      swap2\n      pop\n        /* \"#utility.yul\":2115:2400   */\n      pop\n        /* \"#utility.yul\":2023:2400   */\n      swap3\n      swap2\n      pop\n      pop\n      jump\t// out\n        /* \"#utility.yul\":2406:2524   */\n    tag_161:\n        /* \"#utility.yul\":2493:2517   */\n      tag_236\n        /* \"#utility.yul\":2511:2516   */\n      dup2\n        /* \"#utility.yul\":2493:2517   */\n      tag_150\n      jump\t// in\n    tag_236:\n        /* \"#utility.yul\":2488:2491   */\n      dup3\n        /* \"#utility.yul\":2481:2518   */\n      mstore\n        /* \"#utility.yul\":2406:2524   */\n      pop\n      pop\n      jump\t// out\n        /* \"#utility.yul\":2530:2620   */\n    tag_162:\n        /* \"#utility.yul\":2564:2571   */\n      0x00\n        /* \"#utility.yul\":2607:2612   */\n      dup2\n        /* \"#utility.yul\":2600:2613   */\n      iszero\n        /* \"#utility.yul\":2593:2614   */\n      iszero\n        /* \"#utility.yul\":2582:2614   */\n      swap1\n      pop\n        /* \"#utility.yul\":2530:2620   */\n      swap2\n      swap1\n      pop\n      jump\t// out\n        /* \"#utility.yul\":2626:2735   */\n    tag_163:\n        /* \"#utility.yul\":2707:2728   */\n      tag_239\n        /* \"#utility.yul\":2722:2727   */\n      dup2\n        /* \"#utility.yul\":2707:2728   */\n      tag_162\n      jump\t// in\n    tag_239:\n        /* \"#utility.yul\":2702:2705   */\n      dup3\n        /* \"#utility.yul\":2695:2729   */\n      mstore\n        /* \"#utility.yul\":2626:2735   */\n      pop\n      pop\n      jump\t// out\n        /* \"#utility.yul\":2741:3908   */\n    tag_16:\n        /* \"#utility.yul\":3064:3068   */\n      0x00\n        /* \"#utility.yul\":3102:3105   */\n      0x0100\n        /* \"#utility.yul\":3091:3100   */\n      dup3\n        /* \"#utility.yul\":3087:3106   */\n      add\n        /* \"#utility.yul\":3079:3106   */\n      swap1\n      pop\n        /* \"#utility.yul\":3116:3187   */\n      tag_241\n        /* \"#utility.yul\":3184:3185   */\n      0x00\n        /* \"#utility.yul\":3173:3182   */\n      dup4\n        /* \"#utility.yul\":3169:3186   */\n      add\n        /* \"#utility.yul\":3160:3166   */\n      dup12\n        /* \"#utility.yul\":3116:3187   */\n      tag_155\n      jump\t// in\n    tag_241:\n        /* \"#utility.yul\":3234:3243   */\n      dup2\n        /* \"#utility.yul\":3228:3232   */\n      dup2\n        /* \"#utility.yul\":3224:3244   */\n      sub\n        /* \"#utility.yul\":3219:3221   */\n      0x20\n        /* \"#utility.yul\":3208:3217   */\n      dup4\n        /* \"#utility.yul\":3204:3222   */\n      add\n        /* \"#utility.yul\":3197:3245   */\n      mstore\n        /* \"#utility.yul\":3262:3340   */\n      tag_242\n        /* \"#utility.yul\":3335:3339   */\n      dup2\n        /* \"#utility.yul\":3326:3332   */\n      dup11\n        /* \"#utility.yul\":3262:3340   */\n      tag_160\n      jump\t// in\n    tag_242:\n        /* \"#utility.yul\":3254:3340   */\n      swap1\n      pop\n        /* \"#utility.yul\":3387:3396   */\n      dup2\n        /* \"#utility.yul\":3381:3385   */\n      dup2\n        /* \"#utility.yul\":3377:3397   */\n      sub\n        /* \"#utility.yul\":3372:3374   */\n      0x40\n        /* \"#utility.yul\":3361:3370   */\n      dup4\n        /* \"#utility.yul\":3357:3375   */\n      add\n        /* \"#utility.yul\":3350:3398   */\n      mstore\n        /* \"#utility.yul\":3415:3493   */\n      tag_243\n        /* \"#utility.yul\":3488:3492   */\n      dup2\n        /* \"#utility.yul\":3479:3485   */\n      dup10\n        /* \"#utility.yul\":3415:3493   */\n      tag_160\n      jump\t// in\n    tag_243:\n        /* \"#utility.yul\":3407:3493   */\n      swap1\n      pop\n        /* \"#utility.yul\":3503:3575   */\n      tag_244\n        /* \"#utility.yul\":3571:3573   */\n      0x60\n        /* \"#utility.yul\":3560:3569   */\n      dup4\n        /* \"#utility.yul\":3556:3574   */\n      add\n        /* \"#utility.yul\":3547:3553   */\n      dup9\n        /* \"#utility.yul\":3503:3575   */\n      tag_161\n      jump\t// in\n    tag_244:\n        /* \"#utility.yul\":3585:3658   */\n      tag_245\n        /* \"#utility.yul\":3653:3656   */\n      0x80\n        /* \"#utility.yul\":3642:3651   */\n      dup4\n        /* \"#utility.yul\":3638:3657   */\n      add\n        /* \"#utility.yul\":3629:3635   */\n      dup8\n        /* \"#utility.yul\":3585:3658   */\n      tag_161\n      jump\t// in\n    tag_245:\n        /* \"#utility.yul\":3668:3741   */\n      tag_246\n        /* \"#utility.yul\":3736:3739   */\n      0xa0\n        /* \"#utility.yul\":3725:3734   */\n      dup4\n        /* \"#utility.yul\":3721:3740   */\n      add\n        /* \"#utility.yul\":3712:3718   */\n      dup7\n        /* \"#utility.yul\":3668:3741   */\n      tag_161\n      jump\t// in\n    tag_246:\n        /* \"#utility.yul\":3751:3824   */\n      tag_247\n        /* \"#utility.yul\":3819:3822   */\n      0xc0\n        /* \"#utility.yul\":3808:3817   */\n      dup4\n        /* \"#utility.yul\":3804:3823   */\n      add\n        /* \"#utility.yul\":3795:3801   */\n      dup6\n        /* \"#utility.yul\":3751:3824   */\n      tag_161\n      jump\t// in\n    tag_247:\n        /* \"#utility.yul\":3834:3901   */\n      tag_248\n        /* \"#utility.yul\":3896:3899   */\n      0xe0\n        /* \"#utility.yul\":3885:3894   */\n      dup4\n        /* \"#utility.yul\":3881:3900   */\n      add\n        /* \"#utility.yul\":3872:3878   */\n      dup5\n        /* \"#utility.yul\":3834:3901   */\n      tag_163\n      jump\t// in\n    tag_248:\n        /* \"#utility.yul\":2741:3908   */\n      swap10\n      swap9\n      pop\n      pop\n      pop\n      pop\n      pop\n      pop\n      pop\n      pop\n      pop\n      jump\t// out\n        /* \"#utility.yul\":3914:4036   */\n    tag_164:\n        /* \"#utility.yul\":3987:4011   */\n      tag_250\n        /* \"#utility.yul\":4005:4010   */\n      dup2\n        /* \"#utility.yul\":3987:4011   */\n      tag_154\n      jump\t// in\n    tag_250:\n        /* \"#utility.yul\":3980:3985   */\n      dup2\n        /* \"#utility.yul\":3977:4012   */\n      eq\n        /* \"#utility.yul\":3967:4030   */\n      tag_251\n      jumpi\n        /* \"#utility.yul\":4026:4027   */\n      0x00\n        /* \"#utility.yul\":4023:4024   */\n      dup1\n        /* \"#utility.yul\":4016:4028   */\n      revert\n        /* \"#utility.yul\":3967:4030   */\n    tag_251:\n        /* \"#utility.yul\":3914:4036   */\n      pop\n      jump\t// out\n        /* \"#utility.yul\":4042:4181   */\n    tag_165:\n        /* \"#utility.yul\":4088:4093   */\n      0x00\n        /* \"#utility.yul\":4126:4132   */\n      dup2\n        /* \"#utility.yul\":4113:4133   */\n      calldataload\n        /* \"#utility.yul\":4104:4133   */\n      swap1\n      pop\n        /* \"#utility.yul\":4142:4175   */\n      tag_253\n        /* \"#utility.yul\":4169:4174   */\n      dup2\n        /* \"#utility.yul\":4142:4175   */\n      tag_164\n      jump\t// in\n    tag_253:\n        /* \"#utility.yul\":4042:4181   */\n      swap3\n      swap2\n      pop\n      pop\n      jump\t// out\n        /* \"#utility.yul\":4187:4661   */\n    tag_20:\n        /* \"#utility.yul\":4255:4261   */\n      0x00\n        /* \"#utility.yul\":4263:4269   */\n      dup1\n        /* \"#utility.yul\":4312:4314   */\n      0x40\n        /* \"#utility.yul\":4300:4309   */\n      dup4\n        /* \"#utility.yul\":4291:4298   */\n      dup6\n        /* \"#utility.yul\":4287:4310   */\n      sub\n        /* \"#utility.yul\":4283:4315   */\n      slt\n        /* \"#utility.yul\":4280:4399   */\n      iszero\n      tag_255\n      jumpi\n        /* \"#utility.yul\":4318:4397   */\n      tag_256\n      tag_148\n      jump\t// in\n    tag_256:\n        /* \"#utility.yul\":4280:4399   */\n    tag_255:\n        /* \"#utility.yul\":4438:4439   */\n      0x00\n        /* \"#utility.yul\":4463:4516   */\n      tag_257\n        /* \"#utility.yul\":4508:4515   */\n      dup6\n        /* \"#utility.yul\":4499:4505   */\n      dup3\n        /* \"#utility.yul\":4488:4497   */\n      dup7\n        /* \"#utility.yul\":4484:4506   */\n      add\n        /* \"#utility.yul\":4463:4516   */\n      tag_152\n      jump\t// in\n    tag_257:\n        /* \"#utility.yul\":4453:4516   */\n      swap3\n      pop\n        /* \"#utility.yul\":4409:4526   */\n      pop\n        /* \"#utility.yul\":4565:4567   */\n      0x20\n        /* \"#utility.yul\":4591:4644   */\n      tag_258\n        /* \"#utility.yul\":4636:4643   */\n      dup6\n        /* \"#utility.yul\":4627:4633   */\n      dup3\n        /* \"#utility.yul\":4616:4625   */\n      dup7\n        /* \"#utility.yul\":4612:4634   */\n      add\n        /* \"#utility.yul\":4591:4644   */\n      tag_165\n      jump\t// in\n    tag_258:\n        /* \"#utility.yul\":4581:4644   */\n      swap2\n      pop\n        /* \"#utility.yul\":4536:4654   */\n      pop\n        /* \"#utility.yul\":4187:4661   */\n      swap3\n      pop\n      swap3\n      swap1\n      pop\n      jump\t// out\n        /* \"#utility.yul\":4667:4889   */\n    tag_23:\n        /* \"#utility.yul\":4760:4764   */\n      0x00\n        /* \"#utility.yul\":4798:4800   */\n      0x20\n        /* \"#utility.yul\":4787:4796   */\n      dup3\n        /* \"#utility.yul\":4783:4801   */\n      add\n        /* \"#utility.yul\":4775:4801   */\n      swap1\n      pop\n        /* \"#utility.yul\":4811:4882   */\n      tag_260\n        /* \"#utility.yul\":4879:4880   */\n      0x00\n        /* \"#utility.yul\":4868:4877   */\n      dup4\n        /* \"#utility.yul\":4864:4881   */\n      add\n        /* \"#utility.yul\":4855:4861   */\n      dup5\n        /* \"#utility.yul\":4811:4882   */\n      tag_161\n      jump\t// in\n    tag_260:\n        /* \"#utility.yul\":4667:4889   */\n      swap3\n      swap2\n      pop\n      pop\n      jump\t// out\n        /* \"#utility.yul\":4895:5009   */\n    tag_166:\n        /* \"#utility.yul\":4962:4968   */\n      0x00\n        /* \"#utility.yul\":4996:5001   */\n      dup2\n        /* \"#utility.yul\":4990:5002   */\n      mload\n        /* \"#utility.yul\":4980:5002   */\n      swap1\n      pop\n        /* \"#utility.yul\":4895:5009   */\n      swap2\n      swap1\n      pop\n      jump\t// out\n        /* \"#utility.yul\":5015:5199   */\n    tag_167:\n        /* \"#utility.yul\":5114:5125   */\n      0x00\n        /* \"#utility.yul\":5148:5154   */\n      dup3\n        /* \"#utility.yul\":5143:5146   */\n      dup3\n        /* \"#utility.yul\":5136:5155   */\n      mstore\n        /* \"#utility.yul\":5188:5192   */\n      0x20\n        /* \"#utility.yul\":5183:5186   */\n      dup3\n        /* \"#utility.yul\":5179:5193   */\n      add\n        /* \"#utility.yul\":5164:5193   */\n      swap1\n      pop\n        /* \"#utility.yul\":5015:5199   */\n      swap3\n      swap2\n      pop\n      pop\n      jump\t// out\n        /* \"#utility.yul\":5205:5337   */\n    tag_168:\n        /* \"#utility.yul\":5272:5276   */\n      0x00\n        /* \"#utility.yul\":5295:5298   */\n      dup2\n        /* \"#utility.yul\":5287:5298   */\n      swap1\n      pop\n        /* \"#utility.yul\":5325:5329   */\n      0x20\n        /* \"#utility.yul\":5320:5323   */\n      dup3\n        /* \"#utility.yul\":5316:5330   */\n      add\n        /* \"#utility.yul\":5308:5330   */\n      swap1\n      pop\n        /* \"#utility.yul\":5205:5337   */\n      swap2\n      swap1\n      pop\n      jump\t// out\n        /* \"#utility.yul\":5343:5451   */\n    tag_169:\n        /* \"#utility.yul\":5420:5444   */\n      tag_265\n        /* \"#utility.yul\":5438:5443   */\n      dup2\n        /* \"#utility.yul\":5420:5444   */\n      tag_150\n      jump\t// in\n    tag_265:\n        /* \"#utility.yul\":5415:5418   */\n      dup3\n        /* \"#utility.yul\":5408:5445   */\n      mstore\n        /* \"#utility.yul\":5343:5451   */\n      pop\n      pop\n      jump\t// out\n        /* \"#utility.yul\":5457:5636   */\n    tag_170:\n        /* \"#utility.yul\":5526:5536   */\n      0x00\n        /* \"#utility.yul\":5547:5593   */\n      tag_267\n        /* \"#utility.yul\":5589:5592   */\n      dup4\n        /* \"#utility.yul\":5581:5587   */\n      dup4\n        /* \"#utility.yul\":5547:5593   */\n      tag_169\n      jump\t// in\n    tag_267:\n        /* \"#utility.yul\":5625:5629   */\n      0x20\n        /* \"#utility.yul\":5620:5623   */\n      dup4\n        /* \"#utility.yul\":5616:5630   */\n      add\n        /* \"#utility.yul\":5602:5630   */\n      swap1\n      pop\n        /* \"#utility.yul\":5457:5636   */\n      swap3\n      swap2\n      pop\n      pop\n      jump\t// out\n        /* \"#utility.yul\":5642:5755   */\n    tag_171:\n        /* \"#utility.yul\":5712:5716   */\n      0x00\n        /* \"#utility.yul\":5744:5748   */\n      0x20\n        /* \"#utility.yul\":5739:5742   */\n      dup3\n        /* \"#utility.yul\":5735:5749   */\n      add\n        /* \"#utility.yul\":5727:5749   */\n      swap1\n      pop\n        /* \"#utility.yul\":5642:5755   */\n      swap2\n      swap1\n      pop\n      jump\t// out\n        /* \"#utility.yul\":5791:6523   */\n    tag_172:\n        /* \"#utility.yul\":5910:5913   */\n      0x00\n        /* \"#utility.yul\":5939:5993   */\n      tag_270\n        /* \"#utility.yul\":5987:5992   */\n      dup3\n        /* \"#utility.yul\":5939:5993   */\n      tag_166\n      jump\t// in\n    tag_270:\n        /* \"#utility.yul\":6009:6095   */\n      tag_271\n        /* \"#utility.yul\":6088:6094   */\n      dup2\n        /* \"#utility.yul\":6083:6086   */\n      dup6\n        /* \"#utility.yul\":6009:6095   */\n      tag_167\n      jump\t// in\n    tag_271:\n        /* \"#utility.yul\":6002:6095   */\n      swap4\n      pop\n        /* \"#utility.yul\":6119:6175   */\n      tag_272\n        /* \"#utility.yul\":6169:6174   */\n      dup4\n        /* \"#utility.yul\":6119:6175   */\n      tag_168\n      jump\t// in\n    tag_272:\n        /* \"#utility.yul\":6198:6205   */\n      dup1\n        /* \"#utility.yul\":6229:6230   */\n      0x00\n        /* \"#utility.yul\":6214:6498   */\n    tag_273:\n        /* \"#utility.yul\":6239:6245   */\n      dup4\n        /* \"#utility.yul\":6236:6237   */\n      dup2\n        /* \"#utility.yul\":6233:6246   */\n      lt\n        /* \"#utility.yul\":6214:6498   */\n      iszero\n      tag_275\n      jumpi\n        /* \"#utility.yul\":6315:6321   */\n      dup2\n        /* \"#utility.yul\":6309:6322   */\n      mload\n        /* \"#utility.yul\":6342:6405   */\n      tag_276\n        /* \"#utility.yul\":6401:6404   */\n      dup9\n        /* \"#utility.yul\":6386:6399   */\n      dup3\n        /* \"#utility.yul\":6342:6405   */\n      tag_170\n      jump\t// in\n    tag_276:\n        /* \"#utility.yul\":6335:6405   */\n      swap8\n      pop\n        /* \"#utility.yul\":6428:6488   */\n      tag_277\n        /* \"#utility.yul\":6481:6487   */\n      dup4\n        /* \"#utility.yul\":6428:6488   */\n      tag_171\n      jump\t// in\n    tag_277:\n        /* \"#utility.yul\":6418:6488   */\n      swap3\n      pop\n        /* \"#utility.yul\":6274:6498   */\n      pop\n        /* \"#utility.yul\":6261:6262   */\n      0x01\n        /* \"#utility.yul\":6258:6259   */\n      dup2\n        /* \"#utility.yul\":6254:6263   */\n      add\n        /* \"#utility.yul\":6249:6263   */\n      swap1\n      pop\n        /* \"#utility.yul\":6214:6498   */\n      jump(tag_273)\n    tag_275:\n        /* \"#utility.yul\":6218:6232   */\n      pop\n        /* \"#utility.yul\":6514:6517   */\n      dup6\n        /* \"#utility.yul\":6507:6517   */\n      swap4\n      pop\n        /* \"#utility.yul\":5915:6523   */\n      pop\n      pop\n      pop\n        /* \"#utility.yul\":5791:6523   */\n      swap3\n      swap2\n      pop\n      pop\n      jump\t// out\n        /* \"#utility.yul\":6529:6902   */\n    tag_28:\n        /* \"#utility.yul\":6672:6676   */\n      0x00\n        /* \"#utility.yul\":6710:6712   */\n      0x20\n        /* \"#utility.yul\":6699:6708   */\n      dup3\n        /* \"#utility.yul\":6695:6713   */\n      add\n        /* \"#utility.yul\":6687:6713   */\n      swap1\n      pop\n        /* \"#utility.yul\":6759:6768   */\n      dup2\n        /* \"#utility.yul\":6753:6757   */\n      dup2\n        /* \"#utility.yul\":6749:6769   */\n      sub\n        /* \"#utility.yul\":6745:6746   */\n      0x00\n        /* \"#utility.yul\":6734:6743   */\n      dup4\n        /* \"#utility.yul\":6730:6747   */\n      add\n        /* \"#utility.yul\":6723:6770   */\n      mstore\n        /* \"#utility.yul\":6787:6895   */\n      tag_279\n        /* \"#utility.yul\":6890:6894   */\n      dup2\n        /* \"#utility.yul\":6881:6887   */\n      dup5\n        /* \"#utility.yul\":6787:6895   */\n      tag_172\n      jump\t// in\n    tag_279:\n        /* \"#utility.yul\":6779:6895   */\n      swap1\n      pop\n        /* \"#utility.yul\":6529:6902   */\n      swap3\n      swap2\n      pop\n      pop\n      jump\t// out\n        /* \"#utility.yul\":6908:7382   */\n    tag_35:\n        /* \"#utility.yul\":6976:6982   */\n      0x00\n        /* \"#utility.yul\":6984:6990   */\n      dup1\n        /* \"#utility.yul\":7033:7035   */\n      0x40\n        /* \"#utility.yul\":7021:7030   */\n      dup4\n        /* \"#utility.yul\":7012:7019   */\n      dup6\n        /* \"#utility.yul\":7008:7031   */\n      sub\n        /* \"#utility.yul\":7004:7036   */\n      slt\n        /* \"#utility.yul\":7001:7120   */\n      iszero\n      tag_281\n      jumpi\n        /* \"#utility.yul\":7039:7118   */\n      tag_282\n      tag_148\n      jump\t// in\n    tag_282:\n        /* \"#utility.yul\":7001:7120   */\n    tag_281:\n        /* \"#utility.yul\":7159:7160   */\n      0x00\n        /* \"#utility.yul\":7184:7237   */\n      tag_283\n        /* \"#utility.yul\":7229:7236   */\n      dup6\n        /* \"#utility.yul\":7220:7226   */\n      dup3\n        /* \"#utility.yul\":7209:7218   */\n      dup7\n        /* \"#utility.yul\":7205:7227   */\n      add\n        /* \"#utility.yul\":7184:7237   */\n      tag_152\n      jump\t// in\n    tag_283:\n        /* \"#utility.yul\":7174:7237   */\n      swap3\n      pop\n        /* \"#utility.yul\":7130:7247   */\n      pop\n        /* \"#utility.yul\":7286:7288   */\n      0x20\n        /* \"#utility.yul\":7312:7365   */\n      tag_284\n        /* \"#utility.yul\":7357:7364   */\n      dup6\n        /* \"#utility.yul\":7348:7354   */\n      dup3\n        /* \"#utility.yul\":7337:7346   */\n      dup7\n        /* \"#utility.yul\":7333:7355   */\n      add\n        /* \"#utility.yul\":7312:7365   */\n      tag_152\n      jump\t// in\n    tag_284:\n        /* \"#utility.yul\":7302:7365   */\n      swap2\n      pop\n        /* \"#utility.yul\":7257:7375   */\n      pop\n        /* \"#utility.yul\":6908:7382   */\n      swap3\n      pop\n      swap3\n      swap1\n      pop\n      jump\t// out\n        /* \"#utility.yul\":7388:7505   */\n    tag_173:\n        /* \"#utility.yul\":7497:7498   */\n      0x00\n        /* \"#utility.yul\":7494:7495   */\n      dup1\n        /* \"#utility.yul\":7487:7499   */\n      revert\n        /* \"#utility.yul\":7511:7628   */\n    tag_174:\n        /* \"#utility.yul\":7620:7621   */\n      0x00\n        /* \"#utility.yul\":7617:7618   */\n      dup1\n        /* \"#utility.yul\":7610:7622   */\n      revert\n        /* \"#utility.yul\":7634:7814   */\n    tag_64:\n        /* \"#utility.yul\":7682:7759   */\n      0x4e487b7100000000000000000000000000000000000000000000000000000000\n        /* \"#utility.yul\":7679:7680   */\n      0x00\n        /* \"#utility.yul\":7672:7760   */\n      mstore\n        /* \"#utility.yul\":7779:7783   */\n      0x41\n        /* \"#utility.yul\":7776:7777   */\n      0x04\n        /* \"#utility.yul\":7769:7784   */\n      mstore\n        /* \"#utility.yul\":7803:7807   */\n      0x24\n        /* \"#utility.yul\":7800:7801   */\n      0x00\n        /* \"#utility.yul\":7793:7808   */\n      revert\n        /* \"#utility.yul\":7820:8101   */\n    tag_175:\n        /* \"#utility.yul\":7903:7930   */\n      tag_289\n        /* \"#utility.yul\":7925:7929   */\n      dup3\n        /* \"#utility.yul\":7903:7930   */\n      tag_159\n      jump\t// in\n    tag_289:\n        /* \"#utility.yul\":7895:7901   */\n      dup2\n        /* \"#utility.yul\":7891:7931   */\n      add\n        /* \"#utility.yul\":8033:8039   */\n      dup2\n        /* \"#utility.yul\":8021:8031   */\n      dup2\n        /* \"#utility.yul\":8018:8040   */\n      lt\n        /* \"#utility.yul\":7997:8015   */\n      0xffffffffffffffff\n        /* \"#utility.yul\":7985:7995   */\n      dup3\n        /* \"#utility.yul\":7982:8016   */\n      gt\n        /* \"#utility.yul\":7979:8041   */\n      or\n        /* \"#utility.yul\":7976:8064   */\n      iszero\n      tag_290\n      jumpi\n        /* \"#utility.yul\":8044:8062   */\n      tag_291\n      tag_64\n      jump\t// in\n    tag_291:\n        /* \"#utility.yul\":7976:8064   */\n    tag_290:\n        /* \"#utility.yul\":8084:8094   */\n      dup1\n        /* \"#utility.yul\":8080:8082   */\n      0x40\n        /* \"#utility.yul\":8073:8095   */\n      mstore\n        /* \"#utility.yul\":7863:8101   */\n      pop\n        /* \"#utility.yul\":7820:8101   */\n      pop\n      pop\n      jump\t// out\n        /* \"#utility.yul\":8107:8236   */\n    tag_176:\n        /* \"#utility.yul\":8141:8147   */\n      0x00\n        /* \"#utility.yul\":8168:8188   */\n      tag_293\n      tag_147\n      jump\t// in\n    tag_293:\n        /* \"#utility.yul\":8158:8188   */\n      swap1\n      pop\n        /* \"#utility.yul\":8197:8230   */\n      tag_294\n        /* \"#utility.yul\":8225:8229   */\n      dup3\n        /* \"#utility.yul\":8217:8223   */\n      dup3\n        /* \"#utility.yul\":8197:8230   */\n      tag_175\n      jump\t// in\n    tag_294:\n        /* \"#utility.yul\":8107:8236   */\n      swap2\n      swap1\n      pop\n      jump\t// out\n        /* \"#utility.yul\":8242:8550   */\n    tag_177:\n        /* \"#utility.yul\":8304:8308   */\n      0x00\n        /* \"#utility.yul\":8394:8412   */\n      0xffffffffffffffff\n        /* \"#utility.yul\":8386:8392   */\n      dup3\n        /* \"#utility.yul\":8383:8413   */\n      gt\n        /* \"#utility.yul\":8380:8436   */\n      iszero\n      tag_296\n      jumpi\n        /* \"#utility.yul\":8416:8434   */\n      tag_297\n      tag_64\n      jump\t// in\n    tag_297:\n        /* \"#utility.yul\":8380:8436   */\n    tag_296:\n        /* \"#utility.yul\":8454:8483   */\n      tag_298\n        /* \"#utility.yul\":8476:8482   */\n      dup3\n        /* \"#utility.yul\":8454:8483   */\n      tag_159\n      jump\t// in\n    tag_298:\n        /* \"#utility.yul\":8446:8483   */\n      swap1\n      pop\n        /* \"#utility.yul\":8538:8542   */\n      0x20\n        /* \"#utility.yul\":8532:8536   */\n      dup2\n        /* \"#utility.yul\":8528:8543   */\n      add\n        /* \"#utility.yul\":8520:8543   */\n      swap1\n      pop\n        /* \"#utility.yul\":8242:8550   */\n      swap2\n      swap1\n      pop\n      jump\t// out\n        /* \"#utility.yul\":8556:8702   */\n    tag_178:\n        /* \"#utility.yul\":8653:8659   */\n      dup3\n        /* \"#utility.yul\":8648:8651   */\n      dup2\n        /* \"#utility.yul\":8643:8646   */\n      dup4\n        /* \"#utility.yul\":8630:8660   */\n      calldatacopy\n        /* \"#utility.yul\":8694:8695   */\n      0x00\n        /* \"#utility.yul\":8685:8691   */\n      dup4\n        /* \"#utility.yul\":8680:8683   */\n      dup4\n        /* \"#utility.yul\":8676:8692   */\n      add\n        /* \"#utility.yul\":8669:8696   */\n      mstore\n        /* \"#utility.yul\":8556:8702   */\n      pop\n      pop\n      pop\n      jump\t// out\n        /* \"#utility.yul\":8708:9133   */\n    tag_179:\n        /* \"#utility.yul\":8786:8791   */\n      0x00\n        /* \"#utility.yul\":8811:8877   */\n      tag_301\n        /* \"#utility.yul\":8827:8876   */\n      tag_302\n        /* \"#utility.yul\":8869:8875   */\n      dup5\n        /* \"#utility.yul\":8827:8876   */\n      tag_177\n      jump\t// in\n    tag_302:\n        /* \"#utility.yul\":8811:8877   */\n      tag_176\n      jump\t// in\n    tag_301:\n        /* \"#utility.yul\":8802:8877   */\n      swap1\n      pop\n        /* \"#utility.yul\":8900:8906   */\n      dup3\n        /* \"#utility.yul\":8893:8898   */\n      dup2\n        /* \"#utility.yul\":8886:8907   */\n      mstore\n        /* \"#utility.yul\":8938:8942   */\n      0x20\n        /* \"#utility.yul\":8931:8936   */\n      dup2\n        /* \"#utility.yul\":8927:8943   */\n      add\n        /* \"#utility.yul\":8976:8979   */\n      dup5\n        /* \"#utility.yul\":8967:8973   */\n      dup5\n        /* \"#utility.yul\":8962:8965   */\n      dup5\n        /* \"#utility.yul\":8958:8974   */\n      add\n        /* \"#utility.yul\":8955:8980   */\n      gt\n        /* \"#utility.yul\":8952:9064   */\n      iszero\n      tag_303\n      jumpi\n        /* \"#utility.yul\":8983:9062   */\n      tag_304\n      tag_174\n      jump\t// in\n    tag_304:\n        /* \"#utility.yul\":8952:9064   */\n    tag_303:\n        /* \"#utility.yul\":9073:9127   */\n      tag_305\n        /* \"#utility.yul\":9120:9126   */\n      dup5\n        /* \"#utility.yul\":9115:9118   */\n      dup3\n        /* \"#utility.yul\":9110:9113   */\n      dup6\n        /* \"#utility.yul\":9073:9127   */\n      tag_178\n      jump\t// in\n    tag_305:\n        /* \"#utility.yul\":8792:9133   */\n      pop\n        /* \"#utility.yul\":8708:9133   */\n      swap4\n      swap3\n      pop\n      pop\n      pop\n      jump\t// out\n        /* \"#utility.yul\":9153:9493   */\n    tag_180:\n        /* \"#utility.yul\":9209:9214   */\n      0x00\n        /* \"#utility.yul\":9258:9261   */\n      dup3\n        /* \"#utility.yul\":9251:9255   */\n      0x1f\n        /* \"#utility.yul\":9243:9249   */\n      dup4\n        /* \"#utility.yul\":9239:9256   */\n      add\n        /* \"#utility.yul\":9235:9262   */\n      slt\n        /* \"#utility.yul\":9225:9347   */\n      tag_307\n      jumpi\n        /* \"#utility.yul\":9266:9345   */\n      tag_308\n      tag_173\n      jump\t// in\n    tag_308:\n        /* \"#utility.yul\":9225:9347   */\n    tag_307:\n        /* \"#utility.yul\":9383:9389   */\n      dup2\n        /* \"#utility.yul\":9370:9390   */\n      calldataload\n        /* \"#utility.yul\":9408:9487   */\n      tag_309\n        /* \"#utility.yul\":9483:9486   */\n      dup5\n        /* \"#utility.yul\":9475:9481   */\n      dup3\n        /* \"#utility.yul\":9468:9472   */\n      0x20\n        /* \"#utility.yul\":9460:9466   */\n      dup7\n        /* \"#utility.yul\":9456:9473   */\n      add\n        /* \"#utility.yul\":9408:9487   */\n      tag_179\n      jump\t// in\n    tag_309:\n        /* \"#utility.yul\":9399:9487   */\n      swap2\n      pop\n        /* \"#utility.yul\":9215:9493   */\n      pop\n        /* \"#utility.yul\":9153:9493   */\n      swap3\n      swap2\n      pop\n      pop\n      jump\t// out\n        /* \"#utility.yul\":9499:10770   */\n    tag_40:\n        /* \"#utility.yul\":9614:9620   */\n      0x00\n        /* \"#utility.yul\":9622:9628   */\n      dup1\n        /* \"#utility.yul\":9630:9636   */\n      0x00\n        /* \"#utility.yul\":9638:9644   */\n      dup1\n        /* \"#utility.yul\":9646:9652   */\n      0x00\n        /* \"#utility.yul\":9695:9698   */\n      0xa0\n        /* \"#utility.yul\":9683:9692   */\n      dup7\n        /* \"#utility.yul\":9674:9681   */\n      dup9\n        /* \"#utility.yul\":9670:9693   */\n      sub\n        /* \"#utility.yul\":9666:9699   */\n      slt\n        /* \"#utility.yul\":9663:9783   */\n      iszero\n      tag_311\n      jumpi\n        /* \"#utility.yul\":9702:9781   */\n      tag_312\n      tag_148\n      jump\t// in\n    tag_312:\n        /* \"#utility.yul\":9663:9783   */\n    tag_311:\n        /* \"#utility.yul\":9850:9851   */\n      0x00\n        /* \"#utility.yul\":9839:9848   */\n      dup7\n        /* \"#utility.yul\":9835:9852   */\n      add\n        /* \"#utility.yul\":9822:9853   */\n      calldataload\n        /* \"#utility.yul\":9880:9898   */\n      0xffffffffffffffff\n        /* \"#utility.yul\":9872:9878   */\n      dup2\n        /* \"#utility.yul\":9869:9899   */\n      gt\n        /* \"#utility.yul\":9866:9983   */\n      iszero\n      tag_313\n      jumpi\n        /* \"#utility.yul\":9902:9981   */\n      tag_314\n      tag_149\n      jump\t// in\n    tag_314:\n        /* \"#utility.yul\":9866:9983   */\n    tag_313:\n        /* \"#utility.yul\":10007:10070   */\n      tag_315\n        /* \"#utility.yul\":10062:10069   */\n      dup9\n        /* \"#utility.yul\":10053:10059   */\n      dup3\n        /* \"#utility.yul\":10042:10051   */\n      dup10\n        /* \"#utility.yul\":10038:10060   */\n      add\n        /* \"#utility.yul\":10007:10070   */\n      tag_180\n      jump\t// in\n    tag_315:\n        /* \"#utility.yul\":9997:10070   */\n      swap6\n      pop\n        /* \"#utility.yul\":9793:10080   */\n      pop\n        /* \"#utility.yul\":10147:10149   */\n      0x20\n        /* \"#utility.yul\":10136:10145   */\n      dup7\n        /* \"#utility.yul\":10132:10150   */\n      add\n        /* \"#utility.yul\":10119:10151   */\n      calldataload\n        /* \"#utility.yul\":10178:10196   */\n      0xffffffffffffffff\n        /* \"#utility.yul\":10170:10176   */\n      dup2\n        /* \"#utility.yul\":10167:10197   */\n      gt\n        /* \"#utility.yul\":10164:10281   */\n      iszero\n      tag_316\n      jumpi\n        /* \"#utility.yul\":10200:10279   */\n      tag_317\n      tag_149\n      jump\t// in\n    tag_317:\n        /* \"#utility.yul\":10164:10281   */\n    tag_316:\n        /* \"#utility.yul\":10305:10368   */\n      tag_318\n        /* \"#utility.yul\":10360:10367   */\n      dup9\n        /* \"#utility.yul\":10351:10357   */\n      dup3\n        /* \"#utility.yul\":10340:10349   */\n      dup10\n        /* \"#utility.yul\":10336:10358   */\n      add\n        /* \"#utility.yul\":10305:10368   */\n      tag_180\n      jump\t// in\n    tag_318:\n        /* \"#utility.yul\":10295:10368   */\n      swap5\n      pop\n        /* \"#utility.yul\":10090:10378   */\n      pop\n        /* \"#utility.yul\":10417:10419   */\n      0x40\n        /* \"#utility.yul\":10443:10496   */\n      tag_319\n        /* \"#utility.yul\":10488:10495   */\n      dup9\n        /* \"#utility.yul\":10479:10485   */\n      dup3\n        /* \"#utility.yul\":10468:10477   */\n      dup10\n        /* \"#utility.yul\":10464:10486   */\n      add\n        /* \"#utility.yul\":10443:10496   */\n      tag_152\n      jump\t// in\n    tag_319:\n        /* \"#utility.yul\":10433:10496   */\n      swap4\n      pop\n        /* \"#utility.yul\":10388:10506   */\n      pop\n        /* \"#utility.yul\":10545:10547   */\n      0x60\n        /* \"#utility.yul\":10571:10624   */\n      tag_320\n        /* \"#utility.yul\":10616:10623   */\n      dup9\n        /* \"#utility.yul\":10607:10613   */\n      dup3\n        /* \"#utility.yul\":10596:10605   */\n      dup10\n        /* \"#utility.yul\":10592:10614   */\n      add\n        /* \"#utility.yul\":10571:10624   */\n      tag_152\n      jump\t// in\n    tag_320:\n        /* \"#utility.yul\":10561:10624   */\n      swap3\n      pop\n        /* \"#utility.yul\":10516:10634   */\n      pop\n        /* \"#utility.yul\":10673:10676   */\n      0x80\n        /* \"#utility.yul\":10700:10753   */\n      tag_321\n        /* \"#utility.yul\":10745:10752   */\n      dup9\n        /* \"#utility.yul\":10736:10742   */\n      dup3\n        /* \"#utility.yul\":10725:10734   */\n      dup10\n        /* \"#utility.yul\":10721:10743   */\n      add\n        /* \"#utility.yul\":10700:10753   */\n      tag_152\n      jump\t// in\n    tag_321:\n        /* \"#utility.yul\":10690:10753   */\n      swap2\n      pop\n        /* \"#utility.yul\":10644:10763   */\n      pop\n        /* \"#utility.yul\":9499:10770   */\n      swap3\n      swap6\n      pop\n      swap3\n      swap6\n      swap1\n      swap4\n      pop\n      jump\t// out\n        /* \"#utility.yul\":10776:10956   */\n    tag_181:\n        /* \"#utility.yul\":10824:10901   */\n      0x4e487b7100000000000000000000000000000000000000000000000000000000\n        /* \"#utility.yul\":10821:10822   */\n      0x00\n        /* \"#utility.yul\":10814:10902   */\n      mstore\n        /* \"#utility.yul\":10921:10925   */\n      0x22\n        /* \"#utility.yul\":10918:10919   */\n      0x04\n        /* \"#utility.yul\":10911:10926   */\n      mstore\n        /* \"#utility.yul\":10945:10949   */\n      0x24\n        /* \"#utility.yul\":10942:10943   */\n      0x00\n        /* \"#utility.yul\":10935:10950   */\n      revert\n        /* \"#utility.yul\":10962:11282   */\n    tag_50:\n        /* \"#utility.yul\":11006:11012   */\n      0x00\n        /* \"#utility.yul\":11043:11044   */\n      0x02\n        /* \"#utility.yul\":11037:11041   */\n      dup3\n        /* \"#utility.yul\":11033:11045   */\n      div\n        /* \"#utility.yul\":11023:11045   */\n      swap1\n      pop\n        /* \"#utility.yul\":11090:11091   */\n      0x01\n        /* \"#utility.yul\":11084:11088   */\n      dup3\n        /* \"#utility.yul\":11080:11092   */\n      and\n        /* \"#utility.yul\":11111:11129   */\n      dup1\n        /* \"#utility.yul\":11101:11182   */\n      tag_324\n      jumpi\n        /* \"#utility.yul\":11167:11171   */\n      0x7f\n        /* \"#utility.yul\":11159:11165   */\n      dup3\n        /* \"#utility.yul\":11155:11172   */\n      and\n        /* \"#utility.yul\":11145:11172   */\n      swap2\n      pop\n        /* \"#utility.yul\":11101:11182   */\n    tag_324:\n        /* \"#utility.yul\":11229:11231   */\n      0x20\n        /* \"#utility.yul\":11221:11227   */\n      dup3\n        /* \"#utility.yul\":11218:11232   */\n      lt\n        /* \"#utility.yul\":11198:11216   */\n      dup2\n        /* \"#utility.yul\":11195:11233   */\n      sub\n        /* \"#utility.yul\":11192:11276   */\n      tag_325\n      jumpi\n        /* \"#utility.yul\":11248:11266   */\n      tag_326\n      tag_181\n      jump\t// in\n    tag_326:\n        /* \"#utility.yul\":11192:11276   */\n    tag_325:\n        /* \"#utility.yul\":11013:11282   */\n      pop\n        /* \"#utility.yul\":10962:11282   */\n      swap2\n      swap1\n      pop\n      jump\t// out\n        /* \"#utility.yul\":11288:11468   */\n    tag_71:\n        /* \"#utility.yul\":11336:11413   */\n      0x4e487b7100000000000000000000000000000000000000000000000000000000\n        /* \"#utility.yul\":11333:11334   */\n      0x00\n        /* \"#utility.yul\":11326:11414   */\n      mstore\n        /* \"#utility.yul\":11433:11437   */\n      0x32\n        /* \"#utility.yul\":11430:11431   */\n      0x04\n        /* \"#utility.yul\":11423:11438   */\n      mstore\n        /* \"#utility.yul\":11457:11461   */\n      0x24\n        /* \"#utility.yul\":11454:11455   */\n      0x00\n        /* \"#utility.yul\":11447:11462   */\n      revert\n        /* \"#utility.yul\":11474:11654   */\n    tag_182:\n        /* \"#utility.yul\":11522:11599   */\n      0x4e487b7100000000000000000000000000000000000000000000000000000000\n        /* \"#utility.yul\":11519:11520   */\n      0x00\n        /* \"#utility.yul\":11512:11600   */\n      mstore\n        /* \"#utility.yul\":11619:11623   */\n      0x11\n        /* \"#utility.yul\":11616:11617   */\n      0x04\n        /* \"#utility.yul\":11609:11624   */\n      mstore\n        /* \"#utility.yul\":11643:11647   */\n      0x24\n        /* \"#utility.yul\":11640:11641   */\n      0x00\n        /* \"#utility.yul\":11633:11648   */\n      revert\n        /* \"#utility.yul\":11660:11893   */\n    tag_77:\n        /* \"#utility.yul\":11699:11702   */\n      0x00\n        /* \"#utility.yul\":11722:11746   */\n      tag_330\n        /* \"#utility.yul\":11740:11745   */\n      dup3\n        /* \"#utility.yul\":11722:11746   */\n      tag_150\n      jump\t// in\n    tag_330:\n        /* \"#utility.yul\":11713:11746   */\n      swap2\n      pop\n        /* \"#utility.yul\":11768:11834   */\n      0xffffffffffffffffffffffffffffffffffffffffffffffffffffffffffffffff\n        /* \"#utility.yul\":11761:11766   */\n      dup3\n        /* \"#utility.yul\":11758:11835   */\n      sub\n        /* \"#utility.yul\":11755:11858   */\n      tag_331\n      jumpi\n        /* \"#utility.yul\":11838:11856   */\n      tag_332\n      tag_182\n      jump\t// in\n    tag_332:\n        /* \"#utility.yul\":11755:11858   */\n    tag_331:\n        /* \"#utility.yul\":11885:11886   */\n      0x01\n        /* \"#utility.yul\":11878:11883   */\n      dup3\n        /* \"#utility.yul\":11874:11887   */\n      add\n        /* \"#utility.yul\":11867:11887   */\n      swap1\n      pop\n        /* \"#utility.yul\":11660:11893   */\n      swap2\n      swap1\n      pop\n      jump\t// out\n        /* \"#utility.yul\":11899:12071   */\n    tag_183:\n        /* \"#utility.yul\":12039:12063   */\n      0x43616d706169676e206973206e6f742061637469766500000000000000000000\n        /* \"#utility.yul\":12035:12036   */\n      0x00\n        /* \"#utility.yul\":12027:12033   */\n      dup3\n        /* \"#utility.yul\":12023:12037   */\n      add\n        /* \"#utility.yul\":12016:12064   */\n      mstore\n        /* \"#utility.yul\":11899:12071   */\n      pop\n      jump\t// out\n        /* \"#utility.yul\":12077:12443   */\n    tag_184:\n        /* \"#utility.yul\":12219:12222   */\n      0x00\n        /* \"#utility.yul\":12240:12307   */\n      tag_335\n        /* \"#utility.yul\":12304:12306   */\n      0x16\n        /* \"#utility.yul\":12299:12302   */\n      dup4\n        /* \"#utility.yul\":12240:12307   */\n      tag_157\n      jump\t// in\n    tag_335:\n        /* \"#utility.yul\":12233:12307   */\n      swap2\n      pop\n        /* \"#utility.yul\":12316:12409   */\n      tag_336\n        /* \"#utility.yul\":12405:12408   */\n      dup3\n        /* \"#utility.yul\":12316:12409   */\n      tag_183\n      jump\t// in\n    tag_336:\n        /* \"#utility.yul\":12434:12436   */\n      0x20\n        /* \"#utility.yul\":12429:12432   */\n      dup3\n        /* \"#utility.yul\":12425:12437   */\n      add\n        /* \"#utility.yul\":12418:12437   */\n      swap1\n      pop\n        /* \"#utility.yul\":12077:12443   */\n      swap2\n      swap1\n      pop\n      jump\t// out\n        /* \"#utility.yul\":12449:12868   */\n    tag_95:\n        /* \"#utility.yul\":12615:12619   */\n      0x00\n        /* \"#utility.yul\":12653:12655   */\n      0x20\n        /* \"#utility.yul\":12642:12651   */\n      dup3\n        /* \"#utility.yul\":12638:12656   */\n      add\n        /* \"#utility.yul\":12630:12656   */\n      swap1\n      pop\n        /* \"#utility.yul\":12702:12711   */\n      dup2\n        /* \"#utility.yul\":12696:12700   */\n      dup2\n        /* \"#utility.yul\":12692:12712   */\n      sub\n        /* \"#utility.yul\":12688:12689   */\n      0x00\n        /* \"#utility.yul\":12677:12686   */\n      dup4\n        /* \"#utility.yul\":12673:12690   */\n      add\n        /* \"#utility.yul\":12666:12713   */\n      mstore\n        /* \"#utility.yul\":12730:12861   */\n      tag_338\n        /* \"#utility.yul\":12856:12860   */\n      dup2\n        /* \"#utility.yul\":12730:12861   */\n      tag_184\n      jump\t// in\n    tag_338:\n        /* \"#utility.yul\":12722:12861   */\n      swap1\n      pop\n        /* \"#utility.yul\":12449:12868   */\n      swap2\n      swap1\n      pop\n      jump\t// out\n        /* \"#utility.yul\":12874:13068   */\n    tag_105:\n        /* \"#utility.yul\":12914:12918   */\n      0x00\n        /* \"#utility.yul\":12934:12954   */\n      tag_340\n        /* \"#utility.yul\":12952:12953   */\n      dup3\n        /* \"#utility.yul\":12934:12954   */\n      tag_150\n      jump\t// in\n    tag_340:\n        /* \"#utility.yul\":12929:12954   */\n      swap2\n      pop\n        /* \"#utility.yul\":12968:12988   */\n      tag_341\n        /* \"#utility.yul\":12986:12987   */\n      dup4\n        /* \"#utility.yul\":12968:12988   */\n      tag_150\n      jump\t// in\n    tag_341:\n        /* \"#utility.yul\":12963:12988   */\n      swap3\n      pop\n        /* \"#utility.yul\":13012:13013   */\n      dup3\n        /* \"#utility.yul\":13009:13010   */\n      dup3\n        /* \"#utility.yul\":13005:13014   */\n      sub\n        /* \"#utility.yul\":12997:13014   */\n      swap1\n      pop\n        /* \"#utility.yul\":13036:13037   */\n      dup2\n        /* \"#utility.yul\":13030:13034   */\n      dup2\n        /* \"#utility.yul\":13027:13038   */\n      gt\n        /* \"#utility.yul\":13024:13061   */\n      iszero\n      tag_342\n      jumpi\n        /* \"#utility.yul\":13041:13059   */\n      tag_343\n      tag_182\n      jump\t// in\n    tag_343:\n        /* \"#utility.yul\":13024:13061   */\n    tag_342:\n        /* \"#utility.yul\":12874:13068   */\n      swap3\n      swap2\n      pop\n      pop\n      jump\t// out\n        /* \"#utility.yul\":13074:13298   */\n    tag_185:\n        /* \"#utility.yul\":13214:13248   */\n      0x46756e64696e6720616d6f756e74206d75737420626520677265617465722074\n        /* \"#utility.yul\":13210:13211   */\n      0x00\n        /* \"#utility.yul\":13202:13208   */\n      dup3\n        /* \"#utility.yul\":13198:13212   */\n      add\n        /* \"#utility.yul\":13191:13249   */\n      mstore\n        /* \"#utility.yul\":13283:13290   */\n      0x68616e2030000000000000000000000000000000000000000000000000000000\n        /* \"#utility.yul\":13278:13280   */\n      0x20\n        /* \"#utility.yul\":13270:13276   */\n      dup3\n        /* \"#utility.yul\":13266:13281   */\n      add\n        /* \"#utility.yul\":13259:13291   */\n      mstore\n        /* \"#utility.yul\":13074:13298   */\n      pop\n      jump\t// out\n        /* \"#utility.yul\":13304:13670   */\n    tag_186:\n        /* \"#utility.yul\":13446:13449   */\n      0x00\n        /* \"#utility.yul\":13467:13534   */\n      tag_346\n        /* \"#utility.yul\":13531:13533   */\n      0x25\n        /* \"#utility.yul\":13526:13529   */\n      dup4\n        /* \"#utility.yul\":13467:13534   */\n      tag_157\n      jump\t// in\n    tag_346:\n        /* \"#utility.yul\":13460:13534   */\n      swap2\n      pop\n        /* \"#utility.yul\":13543:13636   */\n      tag_347\n        /* \"#utility.yul\":13632:13635   */\n      dup3\n        /* \"#utility.yul\":13543:13636   */\n      tag_185\n      jump\t// in\n    tag_347:\n        /* \"#utility.yul\":13661:13663   */\n      0x40\n        /* \"#utility.yul\":13656:13659   */\n      dup3\n        /* \"#utility.yul\":13652:13664   */\n      add\n        /* \"#utility.yul\":13645:13664   */\n      swap1\n      pop\n        /* \"#utility.yul\":13304:13670   */\n      swap2\n      swap1\n      pop\n      jump\t// out\n        /* \"#utility.yul\":13676:14095   */\n    tag_108:\n        /* \"#utility.yul\":13842:13846   */\n      0x00\n        /* \"#utility.yul\":13880:13882   */\n      0x20\n        /* \"#utility.yul\":13869:13878   */\n      dup3\n        /* \"#utility.yul\":13865:13883   */\n      add\n        /* \"#utility.yul\":13857:13883   */\n      swap1\n      pop\n        /* \"#utility.yul\":13929:13938   */\n      dup2\n        /* \"#utility.yul\":13923:13927   */\n      dup2\n        /* \"#utility.yul\":13919:13939   */\n      sub\n        /* \"#utility.yul\":13915:13916   */\n      0x00\n        /* \"#utility.yul\":13904:13913   */\n      dup4\n        /* \"#utility.yul\":13900:13917   */\n      add\n        /* \"#utility.yul\":13893:13940   */\n      mstore\n        /* \"#utility.yul\":13957:14088   */\n      tag_349\n        /* \"#utility.yul\":14083:14087   */\n      dup2\n        /* \"#utility.yul\":13957:14088   */\n      tag_186\n      jump\t// in\n    tag_349:\n        /* \"#utility.yul\":13949:14088   */\n      swap1\n      pop\n        /* \"#utility.yul\":13676:14095   */\n      swap2\n      swap1\n      pop\n      jump\t// out\n        /* \"#utility.yul\":14101:14325   */\n    tag_187:\n        /* \"#utility.yul\":14241:14275   */\n      0x46756e6465722063616e206f6e6c792066756e64206f6e636520706572207072\n        /* \"#utility.yul\":14237:14238   */\n      0x00\n        /* \"#utility.yul\":14229:14235   */\n      dup3\n        /* \"#utility.yul\":14225:14239   */\n      add\n        /* \"#utility.yul\":14218:14276   */\n      mstore\n        /* \"#utility.yul\":14310:14317   */\n      0x6f6a656374000000000000000000000000000000000000000000000000000000\n        /* \"#utility.yul\":14305:14307   */\n      0x20\n        /* \"#utility.yul\":14297:14303   */\n      dup3\n        /* \"#utility.yul\":14293:14308   */\n      add\n        /* \"#utility.yul\":14286:14318   */\n      mstore\n        /* \"#utility.yul\":14101:14325   */\n      pop\n      jump\t// out\n        /* \"#utility.yul\":14331:14697   */\n    tag_188:\n        /* \"#utility.yul\":14473:14476   */\n      0x00\n        /* \"#utility.yul\":14494:14561   */\n      tag_352\n        /* \"#utility.yul\":14558:14560   */\n      0x25\n        /* \"#utility.yul\":14553:14556   */\n      dup4\n        /* \"#utility.yul\":14494:14561   */\n      tag_157\n      jump\t// in\n    tag_352:\n        /* \"#utility.yul\":14487:14561   */\n      swap2\n      pop\n        /* \"#utility.yul\":14570:14663   */\n      tag_353\n        /* \"#utility.yul\":14659:14662   */\n      dup3\n        /* \"#utility.yul\":14570:14663   */\n      tag_187\n      jump\t// in\n    tag_353:\n        /* \"#utility.yul\":14688:14690   */\n      0x40\n        /* \"#utility.yul\":14683:14686   */\n      dup3\n        /* \"#utility.yul\":14679:14691   */\n      add\n        /* \"#utility.yul\":14672:14691   */\n      swap1\n      pop\n        /* \"#utility.yul\":14331:14697   */\n      swap2\n      swap1\n      pop\n      jump\t// out\n        /* \"#utility.yul\":14703:15122   */\n    tag_111:\n        /* \"#utility.yul\":14869:14873   */\n      0x00\n        /* \"#utility.yul\":14907:14909   */\n      0x20\n        /* \"#utility.yul\":14896:14905   */\n      dup3\n        /* \"#utility.yul\":14892:14910   */\n      add\n        /* \"#utility.yul\":14884:14910   */\n      swap1\n      pop\n        /* \"#utility.yul\":14956:14965   */\n      dup2\n        /* \"#utility.yul\":14950:14954   */\n      dup2\n        /* \"#utility.yul\":14946:14966   */\n      sub\n        /* \"#utility.yul\":14942:14943   */\n      0x00\n        /* \"#utility.yul\":14931:14940   */\n      dup4\n        /* \"#utility.yul\":14927:14944   */\n      add\n        /* \"#utility.yul\":14920:14967   */\n      mstore\n        /* \"#utility.yul\":14984:15115   */\n      tag_355\n        /* \"#utility.yul\":15110:15114   */\n      dup2\n        /* \"#utility.yul\":14984:15115   */\n      tag_188\n      jump\t// in\n    tag_355:\n        /* \"#utility.yul\":14976:15115   */\n      swap1\n      pop\n        /* \"#utility.yul\":14703:15122   */\n      swap2\n      swap1\n      pop\n      jump\t// out\n        /* \"#utility.yul\":15128:15319   */\n    tag_116:\n        /* \"#utility.yul\":15168:15171   */\n      0x00\n        /* \"#utility.yul\":15187:15207   */\n      tag_357\n        /* \"#utility.yul\":15205:15206   */\n      dup3\n        /* \"#utility.yul\":15187:15207   */\n      tag_150\n      jump\t// in\n    tag_357:\n        /* \"#utility.yul\":15182:15207   */\n      swap2\n      pop\n        /* \"#utility.yul\":15221:15241   */\n      tag_358\n        /* \"#utility.yul\":15239:15240   */\n      dup4\n        /* \"#utility.yul\":15221:15241   */\n      tag_150\n      jump\t// in\n    tag_358:\n        /* \"#utility.yul\":15216:15241   */\n      swap3\n      pop\n        /* \"#utility.yul\":15264:15265   */\n      dup3\n        /* \"#utility.yul\":15261:15262   */\n      dup3\n        /* \"#utility.yul\":15257:15266   */\n      add\n        /* \"#utility.yul\":15250:15266   */\n      swap1\n      pop\n        /* \"#utility.yul\":15285:15288   */\n      dup1\n        /* \"#utility.yul\":15282:15283   */\n      dup3\n        /* \"#utility.yul\":15279:15289   */\n      gt\n        /* \"#utility.yul\":15276:15312   */\n      iszero\n      tag_359\n      jumpi\n        /* \"#utility.yul\":15292:15310   */\n      tag_360\n      tag_182\n      jump\t// in\n    tag_360:\n        /* \"#utility.yul\":15276:15312   */\n    tag_359:\n        /* \"#utility.yul\":15128:15319   */\n      swap3\n      swap2\n      pop\n      pop\n      jump\t// out\n        /* \"#utility.yul\":15325:15466   */\n    tag_189:\n        /* \"#utility.yul\":15374:15378   */\n      0x00\n        /* \"#utility.yul\":15397:15400   */\n      dup2\n        /* \"#utility.yul\":15389:15400   */\n      swap1\n      pop\n        /* \"#utility.yul\":15420:15423   */\n      dup2\n        /* \"#utility.yul\":15417:15418   */\n      0x00\n        /* \"#utility.yul\":15410:15424   */\n      mstore\n        /* \"#utility.yul\":15454:15458   */\n      0x20\n        /* \"#utility.yul\":15451:15452   */\n      0x00\n        /* \"#utility.yul\":15441:15459   */\n      keccak256\n        /* \"#utility.yul\":15433:15459   */\n      swap1\n      pop\n        /* \"#utility.yul\":15325:15466   */\n      swap2\n      swap1\n      pop\n      jump\t// out\n        /* \"#utility.yul\":15472:15565   */\n    tag_190:\n        /* \"#utility.yul\":15509:15515   */\n      0x00\n        /* \"#utility.yul\":15556:15558   */\n      0x20\n        /* \"#utility.yul\":15551:15553   */\n      0x1f\n        /* \"#utility.yul\":15544:15549   */\n      dup4\n        /* \"#utility.yul\":15540:15554   */\n      add\n        /* \"#utility.yul\":15536:15559   */\n      div\n        /* \"#utility.yul\":15526:15559   */\n      swap1\n      pop\n        /* \"#utility.yul\":15472:15565   */\n      swap2\n      swap1\n      pop\n      jump\t// out\n        /* \"#utility.yul\":15571:15678   */\n    tag_191:\n        /* \"#utility.yul\":15615:15623   */\n      0x00\n        /* \"#utility.yul\":15665:15670   */\n      dup3\n        /* \"#utility.yul\":15659:15663   */\n      dup3\n        /* \"#utility.yul\":15655:15671   */\n      shl\n        /* \"#utility.yul\":15634:15671   */\n      swap1\n      pop\n        /* \"#utility.yul\":15571:15678   */\n      swap3\n      swap2\n      pop\n      pop\n      jump\t// out\n        /* \"#utility.yul\":15684:16077   */\n    tag_192:\n        /* \"#utility.yul\":15753:15759   */\n      0x00\n        /* \"#utility.yul\":15803:15804   */\n      0x08\n        /* \"#utility.yul\":15791:15801   */\n      dup4\n        /* \"#utility.yul\":15787:15805   */\n      mul\n        /* \"#utility.yul\":15826:15923   */\n      tag_365\n        /* \"#utility.yul\":15856:15922   */\n      0xffffffffffffffffffffffffffffffffffffffffffffffffffffffffffffffff\n        /* \"#utility.yul\":15845:15854   */\n      dup3\n        /* \"#utility.yul\":15826:15923   */\n      tag_191\n      jump\t// in\n    tag_365:\n        /* \"#utility.yul\":15944:15983   */\n      tag_366\n        /* \"#utility.yul\":15974:15982   */\n      dup7\n        /* \"#utility.yul\":15963:15972   */\n      dup4\n        /* \"#utility.yul\":15944:15983   */\n      tag_191\n      jump\t// in\n    tag_366:\n        /* \"#utility.yul\":15932:15983   */\n      swap6\n      pop\n        /* \"#utility.yul\":16016:16020   */\n      dup1\n        /* \"#utility.yul\":16012:16021   */\n      not\n        /* \"#utility.yul\":16005:16010   */\n      dup5\n        /* \"#utility.yul\":16001:16022   */\n      and\n        /* \"#utility.yul\":15992:16022   */\n      swap4\n      pop\n        /* \"#utility.yul\":16065:16069   */\n      dup1\n        /* \"#utility.yul\":16055:16063   */\n      dup7\n        /* \"#utility.yul\":16051:16070   */\n      and\n        /* \"#utility.yul\":16044:16049   */\n      dup5\n        /* \"#utility.yul\":16041:16071   */\n      or\n        /* \"#utility.yul\":16031:16071   */\n      swap3\n      pop\n        /* \"#utility.yul\":15760:16077   */\n      pop\n      pop\n        /* \"#utility.yul\":15684:16077   */\n      swap4\n      swap3\n      pop\n      pop\n      pop\n      jump\t// out\n        /* \"#utility.yul\":16083:16143   */\n    tag_193:\n        /* \"#utility.yul\":16111:16114   */\n      0x00\n        /* \"#utility.yul\":16132:16137   */\n      dup2\n        /* \"#utility.yul\":16125:16137   */\n      swap1\n      pop\n        /* \"#utility.yul\":16083:16143   */\n      swap2\n      swap1\n      pop\n      jump\t// out\n        /* \"#utility.yul\":16149:16291   */\n    tag_194:\n        /* \"#utility.yul\":16199:16208   */\n      0x00\n        /* \"#utility.yul\":16232:16285   */\n      tag_369\n        /* \"#utility.yul\":16250:16284   */\n      tag_370\n        /* \"#utility.yul\":16259:16283   */\n      tag_371\n        /* \"#utility.yul\":16277:16282   */\n      dup5\n        /* \"#utility.yul\":16259:16283   */\n      tag_150\n      jump\t// in\n    tag_371:\n        /* \"#utility.yul\":16250:16284   */\n      tag_193\n      jump\t// in\n    tag_370:\n        /* \"#utility.yul\":16232:16285   */\n      tag_150\n      jump\t// in\n    tag_369:\n        /* \"#utility.yul\":16219:16285   */\n      swap1\n      pop\n        /* \"#utility.yul\":16149:16291   */\n      swap2\n      swap1\n      pop\n      jump\t// out\n        /* \"#utility.yul\":16297:16372   */\n    tag_195:\n        /* \"#utility.yul\":16340:16343   */\n      0x00\n        /* \"#utility.yul\":16361:16366   */\n      dup2\n        /* \"#utility.yul\":16354:16366   */\n      swap1\n      pop\n        /* \"#utility.yul\":16297:16372   */\n      swap2\n      swap1\n      pop\n      jump\t// out\n        /* \"#utility.yul\":16378:16647   */\n    tag_196:\n        /* \"#utility.yul\":16488:16527   */\n      tag_374\n        /* \"#utility.yul\":16519:16526   */\n      dup4\n        /* \"#utility.yul\":16488:16527   */\n      tag_194\n      jump\t// in\n    tag_374:\n        /* \"#utility.yul\":16549:16640   */\n      tag_375\n        /* \"#utility.yul\":16598:16639   */\n      tag_376\n        /* \"#utility.yul\":16622:16638   */\n      dup3\n        /* \"#utility.yul\":16598:16639   */\n      tag_195\n      jump\t// in\n    tag_376:\n        /* \"#utility.yul\":16590:16596   */\n      dup5\n        /* \"#utility.yul\":16583:16587   */\n      dup5\n        /* \"#utility.yul\":16577:16588   */\n      sload\n        /* \"#utility.yul\":16549:16640   */\n      tag_192\n      jump\t// in\n    tag_375:\n        /* \"#utility.yul\":16543:16547   */\n      dup3\n        /* \"#utility.yul\":16536:16641   */\n      sstore\n        /* \"#utility.yul\":16454:16647   */\n      pop\n        /* \"#utility.yul\":16378:16647   */\n      pop\n      pop\n      pop\n      jump\t// out\n        /* \"#utility.yul\":16653:16726   */\n    tag_197:\n        /* \"#utility.yul\":16698:16701   */\n      0x00\n        /* \"#utility.yul\":16653:16726   */\n      swap1\n      jump\t// out\n        /* \"#utility.yul\":16732:16921   */\n    tag_198:\n        /* \"#utility.yul\":16809:16841   */\n      tag_379\n      tag_197\n      jump\t// in\n    tag_379:\n        /* \"#utility.yul\":16850:16915   */\n      tag_380\n        /* \"#utility.yul\":16908:16914   */\n      dup2\n        /* \"#utility.yul\":16900:16906   */\n      dup5\n        /* \"#utility.yul\":16894:16898   */\n      dup5\n        /* \"#utility.yul\":16850:16915   */\n      tag_196\n      jump\t// in\n    tag_380:\n        /* \"#utility.yul\":16785:16921   */\n      pop\n        /* \"#utility.yul\":16732:16921   */\n      pop\n      pop\n      jump\t// out\n        /* \"#utility.yul\":16927:17113   */\n    tag_199:\n        /* \"#utility.yul\":16987:17107   */\n    tag_382:\n        /* \"#utility.yul\":17004:17007   */\n      dup2\n        /* \"#utility.yul\":16997:17002   */\n      dup2\n        /* \"#utility.yul\":16994:17008   */\n      lt\n        /* \"#utility.yul\":16987:17107   */\n      iszero\n      tag_384\n      jumpi\n        /* \"#utility.yul\":17058:17097   */\n      tag_385\n        /* \"#utility.yul\":17095:17096   */\n      0x00\n        /* \"#utility.yul\":17088:17093   */\n      dup3\n        /* \"#utility.yul\":17058:17097   */\n      tag_198\n      jump\t// in\n    tag_385:\n        /* \"#utility.yul\":17031:17032   */\n      0x01\n        /* \"#utility.yul\":17024:17029   */\n      dup2\n        /* \"#utility.yul\":17020:17033   */\n      add\n        /* \"#utility.yul\":17011:17033   */\n      swap1\n      pop\n        /* \"#utility.yul\":16987:17107   */\n      jump(tag_382)\n    tag_384:\n        /* \"#utility.yul\":16927:17113   */\n      pop\n      pop\n      jump\t// out\n        /* \"#utility.yul\":17119:17662   */\n    tag_200:\n        /* \"#utility.yul\":17220:17222   */\n      0x1f\n        /* \"#utility.yul\":17215:17218   */\n      dup3\n        /* \"#utility.yul\":17212:17223   */\n      gt\n        /* \"#utility.yul\":17209:17655   */\n      iszero\n      tag_387\n      jumpi\n        /* \"#utility.yul\":17254:17292   */\n      tag_388\n        /* \"#utility.yul\":17286:17291   */\n      dup2\n        /* \"#utility.yul\":17254:17292   */\n      tag_189\n      jump\t// in\n    tag_388:\n        /* \"#utility.yul\":17338:17367   */\n      tag_389\n        /* \"#utility.yul\":17356:17366   */\n      dup5\n        /* \"#utility.yul\":17338:17367   */\n      tag_190\n      jump\t// in\n    tag_389:\n        /* \"#utility.yul\":17328:17336   */\n      dup2\n        /* \"#utility.yul\":17324:17368   */\n      add\n        /* \"#utility.yul\":17521:17523   */\n      0x20\n        /* \"#utility.yul\":17509:17519   */\n      dup6\n        /* \"#utility.yul\":17506:17524   */\n      lt\n        /* \"#utility.yul\":17503:17552   */\n      iszero\n      tag_390\n      jumpi\n        /* \"#utility.yul\":17542:17550   */\n      dup2\n        /* \"#utility.yul\":17527:17550   */\n      swap1\n      pop\n        /* \"#utility.yul\":17503:17552   */\n    tag_390:\n        /* \"#utility.yul\":17565:17645   */\n      tag_391\n        /* \"#utility.yul\":17621:17643   */\n      tag_392\n        /* \"#utility.yul\":17639:17642   */\n      dup6\n        /* \"#utility.yul\":17621:17643   */\n      tag_190\n      jump\t// in\n    tag_392:\n        /* \"#utility.yul\":17611:17619   */\n      dup4\n        /* \"#utility.yul\":17607:17644   */\n      add\n        /* \"#utility.yul\":17594:17605   */\n      dup3\n        /* \"#utility.yul\":17565:17645   */\n      tag_199\n      jump\t// in\n    tag_391:\n        /* \"#utility.yul\":17224:17655   */\n      pop\n      pop\n        /* \"#utility.yul\":17209:17655   */\n    tag_387:\n        /* \"#utility.yul\":17119:17662   */\n      pop\n      pop\n      pop\n      jump\t// out\n        /* \"#utility.yul\":17668:17785   */\n    tag_201:\n        /* \"#utility.yul\":17722:17730   */\n      0x00\n        /* \"#utility.yul\":17772:17777   */\n      dup3\n        /* \"#utility.yul\":17766:17770   */\n      dup3\n        /* \"#utility.yul\":17762:17778   */\n      shr\n        /* \"#utility.yul\":17741:17778   */\n      swap1\n      pop\n        /* \"#utility.yul\":17668:17785   */\n      swap3\n      swap2\n      pop\n      pop\n      jump\t// out\n        /* \"#utility.yul\":17791:17960   */\n    tag_202:\n        /* \"#utility.yul\":17835:17841   */\n      0x00\n        /* \"#utility.yul\":17868:17919   */\n      tag_395\n        /* \"#utility.yul\":17916:17917   */\n      0x00\n        /* \"#utility.yul\":17912:17918   */\n      not\n        /* \"#utility.yul\":17904:17909   */\n      dup5\n        /* \"#utility.yul\":17901:17902   */\n      0x08\n        /* \"#utility.yul\":17897:17910   */\n      mul\n        /* \"#utility.yul\":17868:17919   */\n      tag_201\n      jump\t// in\n    tag_395:\n        /* \"#utility.yul\":17864:17920   */\n      not\n        /* \"#utility.yul\":17949:17953   */\n      dup1\n        /* \"#utility.yul\":17943:17947   */\n      dup4\n        /* \"#utility.yul\":17939:17954   */\n      and\n        /* \"#utility.yul\":17929:17954   */\n      swap2\n      pop\n        /* \"#utility.yul\":17842:17960   */\n      pop\n        /* \"#utility.yul\":17791:17960   */\n      swap3\n      swap2\n      pop\n      pop\n      jump\t// out\n        /* \"#utility.yul\":17965:18260   */\n    tag_203:\n        /* \"#utility.yul\":18041:18045   */\n      0x00\n        /* \"#utility.yul\":18187:18216   */\n      tag_397\n        /* \"#utility.yul\":18212:18215   */\n      dup4\n        /* \"#utility.yul\":18206:18210   */\n      dup4\n        /* \"#utility.yul\":18187:18216   */\n      tag_202\n      jump\t// in\n    tag_397:\n        /* \"#utility.yul\":18179:18216   */\n      swap2\n      pop\n        /* \"#utility.yul\":18249:18252   */\n      dup3\n        /* \"#utility.yul\":18246:18247   */\n      0x02\n        /* \"#utility.yul\":18242:18253   */\n      mul\n        /* \"#utility.yul\":18236:18240   */\n      dup3\n        /* \"#utility.yul\":18233:18254   */\n      or\n        /* \"#utility.yul\":18225:18254   */\n      swap1\n      pop\n        /* \"#utility.yul\":17965:18260   */\n      swap3\n      swap2\n      pop\n      pop\n      jump\t// out\n        /* \"#utility.yul\":18265:19660   */\n    tag_130:\n        /* \"#utility.yul\":18382:18419   */\n      tag_399\n        /* \"#utility.yul\":18415:18418   */\n      dup3\n        /* \"#utility.yul\":18382:18419   */\n      tag_156\n      jump\t// in\n    tag_399:\n        /* \"#utility.yul\":18484:18502   */\n      0xffffffffffffffff\n        /* \"#utility.yul\":18476:18482   */\n      dup2\n        /* \"#utility.yul\":18473:18503   */\n      gt\n        /* \"#utility.yul\":18470:18526   */\n      iszero\n      tag_400\n      jumpi\n        /* \"#utility.yul\":18506:18524   */\n      tag_401\n      tag_64\n      jump\t// in\n    tag_401:\n        /* \"#utility.yul\":18470:18526   */\n    tag_400:\n        /* \"#utility.yul\":18550:18588   */\n      tag_402\n        /* \"#utility.yul\":18582:18586   */\n      dup3\n        /* \"#utility.yul\":18576:18587   */\n      sload\n        /* \"#utility.yul\":18550:18588   */\n      tag_50\n      jump\t// in\n    tag_402:\n        /* \"#utility.yul\":18635:18702   */\n      tag_403\n        /* \"#utility.yul\":18695:18701   */\n      dup3\n        /* \"#utility.yul\":18687:18693   */\n      dup3\n        /* \"#utility.yul\":18681:18685   */\n      dup6\n        /* \"#utility.yul\":18635:18702   */\n      tag_200\n      jump\t// in\n    tag_403:\n        /* \"#utility.yul\":18729:18730   */\n      0x00\n        /* \"#utility.yul\":18753:18757   */\n      0x20\n        /* \"#utility.yul\":18740:18757   */\n      swap1\n      pop\n        /* \"#utility.yul\":18785:18787   */\n      0x1f\n        /* \"#utility.yul\":18777:18783   */\n      dup4\n        /* \"#utility.yul\":18774:18788   */\n      gt\n        /* \"#utility.yul\":18802:18803   */\n      0x01\n        /* \"#utility.yul\":18797:19415   */\n      dup2\n      eq\n      tag_405\n      jumpi\n        /* \"#utility.yul\":19459:19460   */\n      0x00\n        /* \"#utility.yul\":19476:19482   */\n      dup5\n        /* \"#utility.yul\":19473:19550   */\n      iszero\n      tag_406\n      jumpi\n        /* \"#utility.yul\":19525:19534   */\n      dup3\n        /* \"#utility.yul\":19520:19523   */\n      dup8\n        /* \"#utility.yul\":19516:19535   */\n      add\n        /* \"#utility.yul\":19510:19536   */\n      mload\n        /* \"#utility.yul\":19501:19536   */\n      swap1\n      pop\n        /* \"#utility.yul\":19473:19550   */\n    tag_406:\n        /* \"#utility.yul\":19576:19643   */\n      tag_407\n        /* \"#utility.yul\":19636:19642   */\n      dup6\n        /* \"#utility.yul\":19629:19634   */\n      dup3\n        /* \"#utility.yul\":19576:19643   */\n      tag_203\n      jump\t// in\n    tag_407:\n        /* \"#utility.yul\":19570:19574   */\n      dup7\n        /* \"#utility.yul\":19563:19644   */\n      sstore\n        /* \"#utility.yul\":19432:19654   */\n      pop\n        /* \"#utility.yul\":18767:19654   */\n      jump(tag_404)\n        /* \"#utility.yul\":18797:19415   */\n    tag_405:\n        /* \"#utility.yul\":18849:18853   */\n      0x1f\n        /* \"#utility.yul\":18845:18854   */\n      not\n        /* \"#utility.yul\":18837:18843   */\n      dup5\n        /* \"#utility.yul\":18833:18855   */\n      and\n        /* \"#utility.yul\":18883:18920   */\n      tag_408\n        /* \"#utility.yul\":18915:18919   */\n      dup7\n        /* \"#utility.yul\":18883:18920   */\n      tag_189\n      jump\t// in\n    tag_408:\n        /* \"#utility.yul\":18942:18943   */\n      0x00\n        /* \"#utility.yul\":18956:19164   */\n    tag_409:\n        /* \"#utility.yul\":18970:18977   */\n      dup3\n        /* \"#utility.yul\":18967:18968   */\n      dup2\n        /* \"#utility.yul\":18964:18978   */\n      lt\n        /* \"#utility.yul\":18956:19164   */\n      iszero\n      tag_411\n      jumpi\n        /* \"#utility.yul\":19049:19058   */\n      dup5\n        /* \"#utility.yul\":19044:19047   */\n      dup10\n        /* \"#utility.yul\":19040:19059   */\n      add\n        /* \"#utility.yul\":19034:19060   */\n      mload\n        /* \"#utility.yul\":19026:19032   */\n      dup3\n        /* \"#utility.yul\":19019:19061   */\n      sstore\n        /* \"#utility.yul\":19100:19101   */\n      0x01\n        /* \"#utility.yul\":19092:19098   */\n      dup3\n        /* \"#utility.yul\":19088:19102   */\n      add\n        /* \"#utility.yul\":19078:19102   */\n      swap2\n      pop\n        /* \"#utility.yul\":19147:19149   */\n      0x20\n        /* \"#utility.yul\":19136:19145   */\n      dup6\n        /* \"#utility.yul\":19132:19150   */\n      add\n        /* \"#utility.yul\":19119:19150   */\n      swap5\n      pop\n        /* \"#utility.yul\":18993:18997   */\n      0x20\n        /* \"#utility.yul\":18990:18991   */\n      dup2\n        /* \"#utility.yul\":18986:18998   */\n      add\n        /* \"#utility.yul\":18981:18998   */\n      swap1\n      pop\n        /* \"#utility.yul\":18956:19164   */\n      jump(tag_409)\n    tag_411:\n        /* \"#utility.yul\":19192:19198   */\n      dup7\n        /* \"#utility.yul\":19183:19190   */\n      dup4\n        /* \"#utility.yul\":19180:19199   */\n      lt\n        /* \"#utility.yul\":19177:19356   */\n      iszero\n      tag_412\n      jumpi\n        /* \"#utility.yul\":19250:19259   */\n      dup5\n        /* \"#utility.yul\":19245:19248   */\n      dup10\n        /* \"#utility.yul\":19241:19260   */\n      add\n        /* \"#utility.yul\":19235:19261   */\n      mload\n        /* \"#utility.yul\":19293:19341   */\n      tag_413\n        /* \"#utility.yul\":19335:19339   */\n      0x1f\n        /* \"#utility.yul\":19327:19333   */\n      dup10\n        /* \"#utility.yul\":19323:19340   */\n      and\n        /* \"#utility.yul\":19312:19321   */\n      dup3\n        /* \"#utility.yul\":19293:19341   */\n      tag_202\n      jump\t// in\n    tag_413:\n        /* \"#utility.yul\":19285:19291   */\n      dup4\n        /* \"#utility.yul\":19278:19342   */\n      sstore\n        /* \"#utility.yul\":19200:19356   */\n      pop\n        /* \"#utility.yul\":19177:19356   */\n    tag_412:\n        /* \"#utility.yul\":19402:19403   */\n      0x01\n        /* \"#utility.yul\":19398:19399   */\n      0x02\n        /* \"#utility.yul\":19390:19396   */\n      dup9\n        /* \"#utility.yul\":19386:19400   */\n      mul\n        /* \"#utility.yul\":19382:19404   */\n      add\n        /* \"#utility.yul\":19376:19380   */\n      dup9\n        /* \"#utility.yul\":19369:19405   */\n      sstore\n        /* \"#utility.yul\":18804:19415   */\n      pop\n      pop\n      pop\n        /* \"#utility.yul\":18767:19654   */\n    tag_404:\n      pop\n        /* \"#utility.yul\":18357:19660   */\n      pop\n      pop\n      pop\n        /* \"#utility.yul\":18265:19660   */\n      pop\n      pop\n      jump\t// out\n\n    auxdata: 0xa2646970667358221220a00837d298c3eaabfa1105b4bad3e7021bde543bca20cbee52aef00a24a23fd264736f6c63430008120033\n}\n",
				"bytecode": {
					"linkReferences": {},
					"object": "608060405234801561001057600080fd5b506116db806100206000396000f3fe6080604052600436106100705760003560e01c8063669b090f1161004e578063669b090f14610121578063918eab151461014c578063b5c8921914610168578063d993de621461019157610070565b8063141961bc14610075578063148038b0146100b9578063196da98b146100f6575b600080fd5b34801561008157600080fd5b5061009c60048036038101906100979190610be6565b6101d5565b6040516100b0989796959493929190610d0e565b60405180910390f35b3480156100c557600080fd5b506100e060048036038101906100db9190610dc6565b61036a565b6040516100ed9190610e06565b60405180910390f35b34801561010257600080fd5b5061010b61038f565b6040516101189190610edf565b60405180910390f35b34801561012d57600080fd5b50610136610479565b6040516101439190610e06565b60405180910390f35b61016660048036038101906101619190610f01565b6104f2565b005b34801561017457600080fd5b5061018f600480360381019061018a9190611076565b6107c0565b005b34801561019d57600080fd5b506101b860048036038101906101b39190610be6565b61095d565b6040516101cc989796959493929190610d0e565b60405180910390f35b600181815481106101e557600080fd5b90600052602060002090600802016000915090508060000160009054906101000a900473ffffffffffffffffffffffffffffffffffffffff169080600101805461022e90611158565b80601f016020809104026020016040519081016040528092919081815260200182805461025a90611158565b80156102a75780601f1061027c576101008083540402835291602001916102a7565b820191906000526020600020905b81548152906001019060200180831161028a57829003601f168201915b5050505050908060020180546102bc90611158565b80601f01602080910402602001604051908101604052809291908181526020018280546102e890611158565b80156103355780601f1061030a57610100808354040283529160200191610335565b820191906000526020600020905b81548152906001019060200180831161031857829003601f168201915b5050505050908060030154908060040154908060050154908060060154908060070160009054906101000a900460ff16905088565b6000602052816000526040600020602052806000526040600020600091509150505481565b6060600061039b610479565b67ffffffffffffffff8111156103b4576103b3610f4b565b5b6040519080825280602002602001820160405280156103e25781602001602082028036833780820191505090505b5090506000805b600180549050811015610470576001818154811061040a57610409611189565b5b906000526020600020906008020160070160009054906101000a900460ff161561045d578083838151811061044257610441611189565b5b6020026020010181815250508180610459906111e7565b9250505b8080610468906111e7565b9150506103e9565b50819250505090565b6000806000905060005b6001805490508110156104ea57600181815481106104a4576104a3611189565b5b906000526020600020906008020160070160009054906101000a900460ff16156104d75781806104d3906111e7565b9250505b80806104e2906111e7565b915050610483565b508091505090565b816001818154811061050757610506611189565b5b906000526020600020906008020160070160009054906101000a900460ff16610565576040517f08c379a000000000000000000000000000000000000000000000000000000000815260040161055c9061127b565b60405180910390fd5b6000821180156105ca57506001838154811061058457610583611189565b5b906000526020600020906008020160060154600184815481106105aa576105a9611189565b5b9060005260206000209060080201600501546105c6919061129b565b8211155b610609576040517f08c379a000000000000000000000000000000000000000000000000000000000815260040161060090611341565b60405180910390fd5b600080600085815260200190815260200160002060003373ffffffffffffffffffffffffffffffffffffffff1673ffffffffffffffffffffffffffffffffffffffff168152602001908152602001600020541461069b576040517f08c379a0000000000000000000000000000000000000000000000000000000008152600401610692906113d3565b60405180910390fd5b8160008085815260200190815260200160002060003373ffffffffffffffffffffffffffffffffffffffff1673ffffffffffffffffffffffffffffffffffffffff16815260200190815260200160002081905550816001848154811061070457610703611189565b5b9060005260206000209060080201600601600082825461072491906113f3565b925050819055506001838154811061073f5761073e611189565b5b9060005260206000209060080201600501546001848154811061076557610764611189565b5b906000526020600020906008020160060154036107bb5760006001848154811061079257610791611189565b5b906000526020600020906008020160070160006101000a81548160ff0219169083151502179055505b505050565b60006040518061010001604052803373ffffffffffffffffffffffffffffffffffffffff16815260200187815260200186815260200185815260200184815260200183815260200160008152602001600115158152509050600181908060018154018082558091505060019003906000526020600020906008020160009091909190915060008201518160000160006101000a81548173ffffffffffffffffffffffffffffffffffffffff021916908373ffffffffffffffffffffffffffffffffffffffff16021790555060208201518160010190816108a091906115d3565b5060408201518160020190816108b691906115d3565b50606082015181600301556080820151816004015560a0820151816005015560c0820151816006015560e08201518160070160006101000a81548160ff02191690831515021790555050503373ffffffffffffffffffffffffffffffffffffffff1660018080549050610929919061129b565b7f633109eec20320eded000fc1e2634211aa7e92ba3f5b15faf6dcdafca05094e460405160405180910390a3505050505050565b600060608060008060008060008060018a8154811061097f5761097e611189565b5b9060005260206000209060080201604051806101000160405290816000820160009054906101000a900473ffffffffffffffffffffffffffffffffffffffff1673ffffffffffffffffffffffffffffffffffffffff1673ffffffffffffffffffffffffffffffffffffffff1681526020016001820180546109ff90611158565b80601f0160208091040260200160405190810160405280929190818152602001828054610a2b90611158565b8015610a785780601f10610a4d57610100808354040283529160200191610a78565b820191906000526020600020905b815481529060010190602001808311610a5b57829003601f168201915b50505050508152602001600282018054610a9190611158565b80601f0160208091040260200160405190810160405280929190818152602001828054610abd90611158565b8015610b0a5780601f10610adf57610100808354040283529160200191610b0a565b820191906000526020600020905b815481529060010190602001808311610aed57829003601f168201915b50505050508152602001600382015481526020016004820154815260200160058201548152602001600682015481526020016007820160009054906101000a900460ff1615151515815250509050806000015181602001518260400151836060015184608001518560a001518660c001518760e001519850985098509850985098509850985050919395975091939597565b6000604051905090565b600080fd5b600080fd5b6000819050919050565b610bc381610bb0565b8114610bce57600080fd5b50565b600081359050610be081610bba565b92915050565b600060208284031215610bfc57610bfb610ba6565b5b6000610c0a84828501610bd1565b91505092915050565b600073ffffffffffffffffffffffffffffffffffffffff82169050919050565b6000610c3e82610c13565b9050919050565b610c4e81610c33565b82525050565b600081519050919050565b600082825260208201905092915050565b60005b83811015610c8e578082015181840152602081019050610c73565b60008484015250505050565b6000601f19601f8301169050919050565b6000610cb682610c54565b610cc08185610c5f565b9350610cd0818560208601610c70565b610cd981610c9a565b840191505092915050565b610ced81610bb0565b82525050565b60008115159050919050565b610d0881610cf3565b82525050565b600061010082019050610d24600083018b610c45565b8181036020830152610d36818a610cab565b90508181036040830152610d4a8189610cab565b9050610d596060830188610ce4565b610d666080830187610ce4565b610d7360a0830186610ce4565b610d8060c0830185610ce4565b610d8d60e0830184610cff565b9998505050505050505050565b610da381610c33565b8114610dae57600080fd5b50565b600081359050610dc081610d9a565b92915050565b60008060408385031215610ddd57610ddc610ba6565b5b6000610deb85828601610bd1565b9250506020610dfc85828601610db1565b9150509250929050565b6000602082019050610e1b6000830184610ce4565b92915050565b600081519050919050565b600082825260208201905092915050565b6000819050602082019050919050565b610e5681610bb0565b82525050565b6000610e688383610e4d565b60208301905092915050565b6000602082019050919050565b6000610e8c82610e21565b610e968185610e2c565b9350610ea183610e3d565b8060005b83811015610ed2578151610eb98882610e5c565b9750610ec483610e74565b925050600181019050610ea5565b5085935050505092915050565b60006020820190508181036000830152610ef98184610e81565b905092915050565b60008060408385031215610f1857610f17610ba6565b5b6000610f2685828601610bd1565b9250506020610f3785828601610bd1565b9150509250929050565b600080fd5b600080fd5b7f4e487b7100000000000000000000000000000000000000000000000000000000600052604160045260246000fd5b610f8382610c9a565b810181811067ffffffffffffffff82111715610fa257610fa1610f4b565b5b80604052505050565b6000610fb5610b9c565b9050610fc18282610f7a565b919050565b600067ffffffffffffffff821115610fe157610fe0610f4b565b5b610fea82610c9a565b9050602081019050919050565b82818337600083830152505050565b600061101961101484610fc6565b610fab565b90508281526020810184848401111561103557611034610f46565b5b611040848285610ff7565b509392505050565b600082601f83011261105d5761105c610f41565b5b813561106d848260208601611006565b91505092915050565b600080600080600060a0868803121561109257611091610ba6565b5b600086013567ffffffffffffffff8111156110b0576110af610bab565b5b6110bc88828901611048565b955050602086013567ffffffffffffffff8111156110dd576110dc610bab565b5b6110e988828901611048565b94505060406110fa88828901610bd1565b935050606061110b88828901610bd1565b925050608061111c88828901610bd1565b9150509295509295909350565b7f4e487b7100000000000000000000000000000000000000000000000000000000600052602260045260246000fd5b6000600282049050600182168061117057607f821691505b60208210810361118357611182611129565b5b50919050565b7f4e487b7100000000000000000000000000000000000000000000000000000000600052603260045260246000fd5b7f4e487b7100000000000000000000000000000000000000000000000000000000600052601160045260246000fd5b60006111f282610bb0565b91507fffffffffffffffffffffffffffffffffffffffffffffffffffffffffffffffff8203611224576112236111b8565b5b600182019050919050565b7f43616d706169676e206973206e6f742061637469766500000000000000000000600082015250565b6000611265601683610c5f565b91506112708261122f565b602082019050919050565b6000602082019050818103600083015261129481611258565b9050919050565b60006112a682610bb0565b91506112b183610bb0565b92508282039050818111156112c9576112c86111b8565b5b92915050565b7f46756e64696e6720616d6f756e74206d7573742062652067726561746572207460008201527f68616e2030000000000000000000000000000000000000000000000000000000602082015250565b600061132b602583610c5f565b9150611336826112cf565b604082019050919050565b6000602082019050818103600083015261135a8161131e565b9050919050565b7f46756e6465722063616e206f6e6c792066756e64206f6e63652070657220707260008201527f6f6a656374000000000000000000000000000000000000000000000000000000602082015250565b60006113bd602583610c5f565b91506113c882611361565b604082019050919050565b600060208201905081810360008301526113ec816113b0565b9050919050565b60006113fe82610bb0565b915061140983610bb0565b9250828201905080821115611421576114206111b8565b5b92915050565b60008190508160005260206000209050919050565b60006020601f8301049050919050565b600082821b905092915050565b6000600883026114897fffffffffffffffffffffffffffffffffffffffffffffffffffffffffffffffff8261144c565b611493868361144c565b95508019841693508086168417925050509392505050565b6000819050919050565b60006114d06114cb6114c684610bb0565b6114ab565b610bb0565b9050919050565b6000819050919050565b6114ea836114b5565b6114fe6114f6826114d7565b848454611459565b825550505050565b600090565b611513611506565b61151e8184846114e1565b505050565b5b818110156115425761153760008261150b565b600181019050611524565b5050565b601f8211156115875761155881611427565b6115618461143c565b81016020851015611570578190505b61158461157c8561143c565b830182611523565b50505b505050565b600082821c905092915050565b60006115aa6000198460080261158c565b1980831691505092915050565b60006115c38383611599565b9150826002028217905092915050565b6115dc82610c54565b67ffffffffffffffff8111156115f5576115f4610f4b565b5b6115ff8254611158565b61160a828285611546565b600060209050601f83116001811461163d576000841561162b578287015190505b61163585826115b7565b86555061169d565b601f19841661164b86611427565b60005b828110156116735784890151825560018201915060208501945060208101905061164e565b86831015611690578489015161168c601f891682611599565b8355505b6001600288020188555050505b50505050505056fea2646970667358221220a00837d298c3eaabfa1105b4bad3e7021bde543bca20cbee52aef00a24a23fd264736f6c63430008120033",
					"opcodes": "PUSH1 0x80 PUSH1 0x40 MSTORE CALLVALUE DUP1 ISZERO PUSH2 0x10 JUMPI PUSH1 0x0 DUP1 REVERT JUMPDEST POP PUSH2 0x16DB DUP1 PUSH2 0x20 PUSH1 0x0 CODECOPY PUSH1 0x0 RETURN INVALID PUSH1 0x80 PUSH1 0x40 MSTORE PUSH1 0x4 CALLDATASIZE LT PUSH2 0x70 JUMPI PUSH1 0x0 CALLDATALOAD PUSH1 0xE0 SHR DUP1 PUSH4 0x669B090F GT PUSH2 0x4E JUMPI DUP1 PUSH4 0x669B090F EQ PUSH2 0x121 JUMPI DUP1 PUSH4 0x918EAB15 EQ PUSH2 0x14C JUMPI DUP1 PUSH4 0xB5C89219 EQ PUSH2 0x168 JUMPI DUP1 PUSH4 0xD993DE62 EQ PUSH2 0x191 JUMPI PUSH2 0x70 JUMP JUMPDEST DUP1 PUSH4 0x141961BC EQ PUSH2 0x75 JUMPI DUP1 PUSH4 0x148038B0 EQ PUSH2 0xB9 JUMPI DUP1 PUSH4 0x196DA98B EQ PUSH2 0xF6 JUMPI JUMPDEST PUSH1 0x0 DUP1 REVERT JUMPDEST CALLVALUE DUP1 ISZERO PUSH2 0x81 JUMPI PUSH1 0x0 DUP1 REVERT JUMPDEST POP PUSH2 0x9C PUSH1 0x4 DUP1 CALLDATASIZE SUB DUP2 ADD SWAP1 PUSH2 0x97 SWAP2 SWAP1 PUSH2 0xBE6 JUMP JUMPDEST PUSH2 0x1D5 JUMP JUMPDEST PUSH1 0x40 MLOAD PUSH2 0xB0 SWAP9 SWAP8 SWAP7 SWAP6 SWAP5 SWAP4 SWAP3 SWAP2 SWAP1 PUSH2 0xD0E JUMP JUMPDEST PUSH1 0x40 MLOAD DUP1 SWAP2 SUB SWAP1 RETURN JUMPDEST CALLVALUE DUP1 ISZERO PUSH2 0xC5 JUMPI PUSH1 0x0 DUP1 REVERT JUMPDEST POP PUSH2 0xE0 PUSH1 0x4 DUP1 CALLDATASIZE SUB DUP2 ADD SWAP1 PUSH2 0xDB SWAP2 SWAP1 PUSH2 0xDC6 JUMP JUMPDEST PUSH2 0x36A JUMP JUMPDEST PUSH1 0x40 MLOAD PUSH2 0xED SWAP2 SWAP1 PUSH2 0xE06 JUMP JUMPDEST PUSH1 0x40 MLOAD DUP1 SWAP2 SUB SWAP1 RETURN JUMPDEST CALLVALUE DUP1 ISZERO PUSH2 0x102 JUMPI PUSH1 0x0 DUP1 REVERT JUMPDEST POP PUSH2 0x10B PUSH2 0x38F JUMP JUMPDEST PUSH1 0x40 MLOAD PUSH2 0x118 SWAP2 SWAP1 PUSH2 0xEDF JUMP JUMPDEST PUSH1 0x40 MLOAD DUP1 SWAP2 SUB SWAP1 RETURN JUMPDEST CALLVALUE DUP1 ISZERO PUSH2 0x12D JUMPI PUSH1 0x0 DUP1 REVERT JUMPDEST POP PUSH2 0x136 PUSH2 0x479 JUMP JUMPDEST PUSH1 0x40 MLOAD PUSH2 0x143 SWAP2 SWAP1 PUSH2 0xE06 JUMP JUMPDEST PUSH1 0x40 MLOAD DUP1 SWAP2 SUB SWAP1 RETURN JUMPDEST PUSH2 0x166 PUSH1 0x4 DUP1 CALLDATASIZE SUB DUP2 ADD SWAP1 PUSH2 0x161 SWAP2 SWAP1 PUSH2 0xF01 JUMP JUMPDEST PUSH2 0x4F2 JUMP JUMPDEST STOP JUMPDEST CALLVALUE DUP1 ISZERO PUSH2 0x174 JUMPI PUSH1 0x0 DUP1 REVERT JUMPDEST POP PUSH2 0x18F PUSH1 0x4 DUP1 CALLDATASIZE SUB DUP2 ADD SWAP1 PUSH2 0x18A SWAP2 SWAP1 PUSH2 0x1076 JUMP JUMPDEST PUSH2 0x7C0 JUMP JUMPDEST STOP JUMPDEST CALLVALUE DUP1 ISZERO PUSH2 0x19D JUMPI PUSH1 0x0 DUP1 REVERT JUMPDEST POP PUSH2 0x1B8 PUSH1 0x4 DUP1 CALLDATASIZE SUB DUP2 ADD SWAP1 PUSH2 0x1B3 SWAP2 SWAP1 PUSH2 0xBE6 JUMP JUMPDEST PUSH2 0x95D JUMP JUMPDEST PUSH1 0x40 MLOAD PUSH2 0x1CC SWAP9 SWAP8 SWAP7 SWAP6 SWAP5 SWAP4 SWAP3 SWAP2 SWAP1 PUSH2 0xD0E JUMP JUMPDEST PUSH1 0x40 MLOAD DUP1 SWAP2 SUB SWAP1 RETURN JUMPDEST PUSH1 0x1 DUP2 DUP2 SLOAD DUP2 LT PUSH2 0x1E5 JUMPI PUSH1 0x0 DUP1 REVERT JUMPDEST SWAP1 PUSH1 0x0 MSTORE PUSH1 0x20 PUSH1 0x0 KECCAK256 SWAP1 PUSH1 0x8 MUL ADD PUSH1 0x0 SWAP2 POP SWAP1 POP DUP1 PUSH1 0x0 ADD PUSH1 0x0 SWAP1 SLOAD SWAP1 PUSH2 0x100 EXP SWAP1 DIV PUSH20 0xFFFFFFFFFFFFFFFFFFFFFFFFFFFFFFFFFFFFFFFF AND SWAP1 DUP1 PUSH1 0x1 ADD DUP1 SLOAD PUSH2 0x22E SWAP1 PUSH2 0x1158 JUMP JUMPDEST DUP1 PUSH1 0x1F ADD PUSH1 0x20 DUP1 SWAP2 DIV MUL PUSH1 0x20 ADD PUSH1 0x40 MLOAD SWAP1 DUP2 ADD PUSH1 0x40 MSTORE DUP1 SWAP3 SWAP2 SWAP1 DUP2 DUP2 MSTORE PUSH1 0x20 ADD DUP3 DUP1 SLOAD PUSH2 0x25A SWAP1 PUSH2 0x1158 JUMP JUMPDEST DUP1 ISZERO PUSH2 0x2A7 JUMPI DUP1 PUSH1 0x1F LT PUSH2 0x27C JUMPI PUSH2 0x100 DUP1 DUP4 SLOAD DIV MUL DUP4 MSTORE SWAP2 PUSH1 0x20 ADD SWAP2 PUSH2 0x2A7 JUMP JUMPDEST DUP3 ADD SWAP2 SWAP1 PUSH1 0x0 MSTORE PUSH1 0x20 PUSH1 0x0 KECCAK256 SWAP1 JUMPDEST DUP2 SLOAD DUP2 MSTORE SWAP1 PUSH1 0x1 ADD SWAP1 PUSH1 0x20 ADD DUP1 DUP4 GT PUSH2 0x28A JUMPI DUP3 SWAP1 SUB PUSH1 0x1F AND DUP3 ADD SWAP2 JUMPDEST POP POP POP POP POP SWAP1 DUP1 PUSH1 0x2 ADD DUP1 SLOAD PUSH2 0x2BC SWAP1 PUSH2 0x1158 JUMP JUMPDEST DUP1 PUSH1 0x1F ADD PUSH1 0x20 DUP1 SWAP2 DIV MUL PUSH1 0x20 ADD PUSH1 0x40 MLOAD SWAP1 DUP2 ADD PUSH1 0x40 MSTORE DUP1 SWAP3 SWAP2 SWAP1 DUP2 DUP2 MSTORE PUSH1 0x20 ADD DUP3 DUP1 SLOAD PUSH2 0x2E8 SWAP1 PUSH2 0x1158 JUMP JUMPDEST DUP1 ISZERO PUSH2 0x335 JUMPI DUP1 PUSH1 0x1F LT PUSH2 0x30A JUMPI PUSH2 0x100 DUP1 DUP4 SLOAD DIV MUL DUP4 MSTORE SWAP2 PUSH1 0x20 ADD SWAP2 PUSH2 0x335 JUMP JUMPDEST DUP3 ADD SWAP2 SWAP1 PUSH1 0x0 MSTORE PUSH1 0x20 PUSH1 0x0 KECCAK256 SWAP1 JUMPDEST DUP2 SLOAD DUP2 MSTORE SWAP1 PUSH1 0x1 ADD SWAP1 PUSH1 0x20 ADD DUP1 DUP4 GT PUSH2 0x318 JUMPI DUP3 SWAP1 SUB PUSH1 0x1F AND DUP3 ADD SWAP2 JUMPDEST POP POP POP POP POP SWAP1 DUP1 PUSH1 0x3 ADD SLOAD SWAP1 DUP1 PUSH1 0x4 ADD SLOAD SWAP1 DUP1 PUSH1 0x5 ADD SLOAD SWAP1 DUP1 PUSH1 0x6 ADD SLOAD SWAP1 DUP1 PUSH1 0x7 ADD PUSH1 0x0 SWAP1 SLOAD SWAP1 PUSH2 0x100 EXP SWAP1 DIV PUSH1 0xFF AND SWAP1 POP DUP9 JUMP JUMPDEST PUSH1 0x0 PUSH1 0x20 MSTORE DUP2 PUSH1 0x0 MSTORE PUSH1 0x40 PUSH1 0x0 KECCAK256 PUSH1 0x20 MSTORE DUP1 PUSH1 0x0 MSTORE PUSH1 0x40 PUSH1 0x0 KECCAK256 PUSH1 0x0 SWAP2 POP SWAP2 POP POP SLOAD DUP2 JUMP JUMPDEST PUSH1 0x60 PUSH1 0x0 PUSH2 0x39B PUSH2 0x479 JUMP JUMPDEST PUSH8 0xFFFFFFFFFFFFFFFF DUP2 GT ISZERO PUSH2 0x3B4 JUMPI PUSH2 0x3B3 PUSH2 0xF4B JUMP JUMPDEST JUMPDEST PUSH1 0x40 MLOAD SWAP1 DUP1 DUP3 MSTORE DUP1 PUSH1 0x20 MUL PUSH1 0x20 ADD DUP3 ADD PUSH1 0x40 MSTORE DUP1 ISZERO PUSH2 0x3E2 JUMPI DUP2 PUSH1 0x20 ADD PUSH1 0x20 DUP3 MUL DUP1 CALLDATASIZE DUP4 CALLDATACOPY DUP1 DUP3 ADD SWAP2 POP POP SWAP1 POP JUMPDEST POP SWAP1 POP PUSH1 0x0 DUP1 JUMPDEST PUSH1 0x1 DUP1 SLOAD SWAP1 POP DUP2 LT ISZERO PUSH2 0x470 JUMPI PUSH1 0x1 DUP2 DUP2 SLOAD DUP2 LT PUSH2 0x40A JUMPI PUSH2 0x409 PUSH2 0x1189 JUMP JUMPDEST JUMPDEST SWAP1 PUSH1 0x0 MSTORE PUSH1 0x20 PUSH1 0x0 KECCAK256 SWAP1 PUSH1 0x8 MUL ADD PUSH1 0x7 ADD PUSH1 0x0 SWAP1 SLOAD SWAP1 PUSH2 0x100 EXP SWAP1 DIV PUSH1 0xFF AND ISZERO PUSH2 0x45D JUMPI DUP1 DUP4 DUP4 DUP2 MLOAD DUP2 LT PUSH2 0x442 JUMPI PUSH2 0x441 PUSH2 0x1189 JUMP JUMPDEST JUMPDEST PUSH1 0x20 MUL PUSH1 0x20 ADD ADD DUP2 DUP2 MSTORE POP POP DUP2 DUP1 PUSH2 0x459 SWAP1 PUSH2 0x11E7 JUMP JUMPDEST SWAP3 POP POP JUMPDEST DUP1 DUP1 PUSH2 0x468 SWAP1 PUSH2 0x11E7 JUMP JUMPDEST SWAP2 POP POP PUSH2 0x3E9 JUMP JUMPDEST POP DUP2 SWAP3 POP POP POP SWAP1 JUMP JUMPDEST PUSH1 0x0 DUP1 PUSH1 0x0 SWAP1 POP PUSH1 0x0 JUMPDEST PUSH1 0x1 DUP1 SLOAD SWAP1 POP DUP2 LT ISZERO PUSH2 0x4EA JUMPI PUSH1 0x1 DUP2 DUP2 SLOAD DUP2 LT PUSH2 0x4A4 JUMPI PUSH2 0x4A3 PUSH2 0x1189 JUMP JUMPDEST JUMPDEST SWAP1 PUSH1 0x0 MSTORE PUSH1 0x20 PUSH1 0x0 KECCAK256 SWAP1 PUSH1 0x8 MUL ADD PUSH1 0x7 ADD PUSH1 0x0 SWAP1 SLOAD SWAP1 PUSH2 0x100 EXP SWAP1 DIV PUSH1 0xFF AND ISZERO PUSH2 0x4D7 JUMPI DUP2 DUP1 PUSH2 0x4D3 SWAP1 PUSH2 0x11E7 JUMP JUMPDEST SWAP3 POP POP JUMPDEST DUP1 DUP1 PUSH2 0x4E2 SWAP1 PUSH2 0x11E7 JUMP JUMPDEST SWAP2 POP POP PUSH2 0x483 JUMP JUMPDEST POP DUP1 SWAP2 POP POP SWAP1 JUMP JUMPDEST DUP2 PUSH1 0x1 DUP2 DUP2 SLOAD DUP2 LT PUSH2 0x507 JUMPI PUSH2 0x506 PUSH2 0x1189 JUMP JUMPDEST JUMPDEST SWAP1 PUSH1 0x0 MSTORE PUSH1 0x20 PUSH1 0x0 KECCAK256 SWAP1 PUSH1 0x8 MUL ADD PUSH1 0x7 ADD PUSH1 0x0 SWAP1 SLOAD SWAP1 PUSH2 0x100 EXP SWAP1 DIV PUSH1 0xFF AND PUSH2 0x565 JUMPI PUSH1 0x40 MLOAD PUSH32 0x8C379A000000000000000000000000000000000000000000000000000000000 DUP2 MSTORE PUSH1 0x4 ADD PUSH2 0x55C SWAP1 PUSH2 0x127B JUMP JUMPDEST PUSH1 0x40 MLOAD DUP1 SWAP2 SUB SWAP1 REVERT JUMPDEST PUSH1 0x0 DUP3 GT DUP1 ISZERO PUSH2 0x5CA JUMPI POP PUSH1 0x1 DUP4 DUP2 SLOAD DUP2 LT PUSH2 0x584 JUMPI PUSH2 0x583 PUSH2 0x1189 JUMP JUMPDEST JUMPDEST SWAP1 PUSH1 0x0 MSTORE PUSH1 0x20 PUSH1 0x0 KECCAK256 SWAP1 PUSH1 0x8 MUL ADD PUSH1 0x6 ADD SLOAD PUSH1 0x1 DUP5 DUP2 SLOAD DUP2 LT PUSH2 0x5AA JUMPI PUSH2 0x5A9 PUSH2 0x1189 JUMP JUMPDEST JUMPDEST SWAP1 PUSH1 0x0 MSTORE PUSH1 0x20 PUSH1 0x0 KECCAK256 SWAP1 PUSH1 0x8 MUL ADD PUSH1 0x5 ADD SLOAD PUSH2 0x5C6 SWAP2 SWAP1 PUSH2 0x129B JUMP JUMPDEST DUP3 GT ISZERO JUMPDEST PUSH2 0x609 JUMPI PUSH1 0x40 MLOAD PUSH32 0x8C379A000000000000000000000000000000000000000000000000000000000 DUP2 MSTORE PUSH1 0x4 ADD PUSH2 0x600 SWAP1 PUSH2 0x1341 JUMP JUMPDEST PUSH1 0x40 MLOAD DUP1 SWAP2 SUB SWAP1 REVERT JUMPDEST PUSH1 0x0 DUP1 PUSH1 0x0 DUP6 DUP2 MSTORE PUSH1 0x20 ADD SWAP1 DUP2 MSTORE PUSH1 0x20 ADD PUSH1 0x0 KECCAK256 PUSH1 0x0 CALLER PUSH20 0xFFFFFFFFFFFFFFFFFFFFFFFFFFFFFFFFFFFFFFFF AND PUSH20 0xFFFFFFFFFFFFFFFFFFFFFFFFFFFFFFFFFFFFFFFF AND DUP2 MSTORE PUSH1 0x20 ADD SWAP1 DUP2 MSTORE PUSH1 0x20 ADD PUSH1 0x0 KECCAK256 SLOAD EQ PUSH2 0x69B JUMPI PUSH1 0x40 MLOAD PUSH32 0x8C379A000000000000000000000000000000000000000000000000000000000 DUP2 MSTORE PUSH1 0x4 ADD PUSH2 0x692 SWAP1 PUSH2 0x13D3 JUMP JUMPDEST PUSH1 0x40 MLOAD DUP1 SWAP2 SUB SWAP1 REVERT JUMPDEST DUP2 PUSH1 0x0 DUP1 DUP6 DUP2 MSTORE PUSH1 0x20 ADD SWAP1 DUP2 MSTORE PUSH1 0x20 ADD PUSH1 0x0 KECCAK256 PUSH1 0x0 CALLER PUSH20 0xFFFFFFFFFFFFFFFFFFFFFFFFFFFFFFFFFFFFFFFF AND PUSH20 0xFFFFFFFFFFFFFFFFFFFFFFFFFFFFFFFFFFFFFFFF AND DUP2 MSTORE PUSH1 0x20 ADD SWAP1 DUP2 MSTORE PUSH1 0x20 ADD PUSH1 0x0 KECCAK256 DUP2 SWAP1 SSTORE POP DUP2 PUSH1 0x1 DUP5 DUP2 SLOAD DUP2 LT PUSH2 0x704 JUMPI PUSH2 0x703 PUSH2 0x1189 JUMP JUMPDEST JUMPDEST SWAP1 PUSH1 0x0 MSTORE PUSH1 0x20 PUSH1 0x0 KECCAK256 SWAP1 PUSH1 0x8 MUL ADD PUSH1 0x6 ADD PUSH1 0x0 DUP3 DUP3 SLOAD PUSH2 0x724 SWAP2 SWAP1 PUSH2 0x13F3 JUMP JUMPDEST SWAP3 POP POP DUP2 SWAP1 SSTORE POP PUSH1 0x1 DUP4 DUP2 SLOAD DUP2 LT PUSH2 0x73F JUMPI PUSH2 0x73E PUSH2 0x1189 JUMP JUMPDEST JUMPDEST SWAP1 PUSH1 0x0 MSTORE PUSH1 0x20 PUSH1 0x0 KECCAK256 SWAP1 PUSH1 0x8 MUL ADD PUSH1 0x5 ADD SLOAD PUSH1 0x1 DUP5 DUP2 SLOAD DUP2 LT PUSH2 0x765 JUMPI PUSH2 0x764 PUSH2 0x1189 JUMP JUMPDEST JUMPDEST SWAP1 PUSH1 0x0 MSTORE PUSH1 0x20 PUSH1 0x0 KECCAK256 SWAP1 PUSH1 0x8 MUL ADD PUSH1 0x6 ADD SLOAD SUB PUSH2 0x7BB JUMPI PUSH1 0x0 PUSH1 0x1 DUP5 DUP2 SLOAD DUP2 LT PUSH2 0x792 JUMPI PUSH2 0x791 PUSH2 0x1189 JUMP JUMPDEST JUMPDEST SWAP1 PUSH1 0x0 MSTORE PUSH1 0x20 PUSH1 0x0 KECCAK256 SWAP1 PUSH1 0x8 MUL ADD PUSH1 0x7 ADD PUSH1 0x0 PUSH2 0x100 EXP DUP2 SLOAD DUP2 PUSH1 0xFF MUL NOT AND SWAP1 DUP4 ISZERO ISZERO MUL OR SWAP1 SSTORE POP JUMPDEST POP POP POP JUMP JUMPDEST PUSH1 0x0 PUSH1 0x40 MLOAD DUP1 PUSH2 0x100 ADD PUSH1 0x40 MSTORE DUP1 CALLER PUSH20 0xFFFFFFFFFFFFFFFFFFFFFFFFFFFFFFFFFFFFFFFF AND DUP2 MSTORE PUSH1 0x20 ADD DUP8 DUP2 MSTORE PUSH1 0x20 ADD DUP7 DUP2 MSTORE PUSH1 0x20 ADD DUP6 DUP2 MSTORE PUSH1 0x20 ADD DUP5 DUP2 MSTORE PUSH1 0x20 ADD DUP4 DUP2 MSTORE PUSH1 0x20 ADD PUSH1 0x0 DUP2 MSTORE PUSH1 0x20 ADD PUSH1 0x1 ISZERO ISZERO DUP2 MSTORE POP SWAP1 POP PUSH1 0x1 DUP2 SWAP1 DUP1 PUSH1 0x1 DUP2 SLOAD ADD DUP1 DUP3 SSTORE DUP1 SWAP2 POP POP PUSH1 0x1 SWAP1 SUB SWAP1 PUSH1 0x0 MSTORE PUSH1 0x20 PUSH1 0x0 KECCAK256 SWAP1 PUSH1 0x8 MUL ADD PUSH1 0x0 SWAP1 SWAP2 SWAP1 SWAP2 SWAP1 SWAP2 POP PUSH1 0x0 DUP3 ADD MLOAD DUP2 PUSH1 0x0 ADD PUSH1 0x0 PUSH2 0x100 EXP DUP2 SLOAD DUP2 PUSH20 0xFFFFFFFFFFFFFFFFFFFFFFFFFFFFFFFFFFFFFFFF MUL NOT AND SWAP1 DUP4 PUSH20 0xFFFFFFFFFFFFFFFFFFFFFFFFFFFFFFFFFFFFFFFF AND MUL OR SWAP1 SSTORE POP PUSH1 0x20 DUP3 ADD MLOAD DUP2 PUSH1 0x1 ADD SWAP1 DUP2 PUSH2 0x8A0 SWAP2 SWAP1 PUSH2 0x15D3 JUMP JUMPDEST POP PUSH1 0x40 DUP3 ADD MLOAD DUP2 PUSH1 0x2 ADD SWAP1 DUP2 PUSH2 0x8B6 SWAP2 SWAP1 PUSH2 0x15D3 JUMP JUMPDEST POP PUSH1 0x60 DUP3 ADD MLOAD DUP2 PUSH1 0x3 ADD SSTORE PUSH1 0x80 DUP3 ADD MLOAD DUP2 PUSH1 0x4 ADD SSTORE PUSH1 0xA0 DUP3 ADD MLOAD DUP2 PUSH1 0x5 ADD SSTORE PUSH1 0xC0 DUP3 ADD MLOAD DUP2 PUSH1 0x6 ADD SSTORE PUSH1 0xE0 DUP3 ADD MLOAD DUP2 PUSH1 0x7 ADD PUSH1 0x0 PUSH2 0x100 EXP DUP2 SLOAD DUP2 PUSH1 0xFF MUL NOT AND SWAP1 DUP4 ISZERO ISZERO MUL OR SWAP1 SSTORE POP POP POP CALLER PUSH20 0xFFFFFFFFFFFFFFFFFFFFFFFFFFFFFFFFFFFFFFFF AND PUSH1 0x1 DUP1 DUP1 SLOAD SWAP1 POP PUSH2 0x929 SWAP2 SWAP1 PUSH2 0x129B JUMP JUMPDEST PUSH32 0x633109EEC20320EDED000FC1E2634211AA7E92BA3F5B15FAF6DCDAFCA05094E4 PUSH1 0x40 MLOAD PUSH1 0x40 MLOAD DUP1 SWAP2 SUB SWAP1 LOG3 POP POP POP POP POP POP JUMP JUMPDEST PUSH1 0x0 PUSH1 0x60 DUP1 PUSH1 0x0 DUP1 PUSH1 0x0 DUP1 PUSH1 0x0 DUP1 PUSH1 0x1 DUP11 DUP2 SLOAD DUP2 LT PUSH2 0x97F JUMPI PUSH2 0x97E PUSH2 0x1189 JUMP JUMPDEST JUMPDEST SWAP1 PUSH1 0x0 MSTORE PUSH1 0x20 PUSH1 0x0 KECCAK256 SWAP1 PUSH1 0x8 MUL ADD PUSH1 0x40 MLOAD DUP1 PUSH2 0x100 ADD PUSH1 0x40 MSTORE SWAP1 DUP2 PUSH1 0x0 DUP3 ADD PUSH1 0x0 SWAP1 SLOAD SWAP1 PUSH2 0x100 EXP SWAP1 DIV PUSH20 0xFFFFFFFFFFFFFFFFFFFFFFFFFFFFFFFFFFFFFFFF AND PUSH20 0xFFFFFFFFFFFFFFFFFFFFFFFFFFFFFFFFFFFFFFFF AND PUSH20 0xFFFFFFFFFFFFFFFFFFFFFFFFFFFFFFFFFFFFFFFF AND DUP2 MSTORE PUSH1 0x20 ADD PUSH1 0x1 DUP3 ADD DUP1 SLOAD PUSH2 0x9FF SWAP1 PUSH2 0x1158 JUMP JUMPDEST DUP1 PUSH1 0x1F ADD PUSH1 0x20 DUP1 SWAP2 DIV MUL PUSH1 0x20 ADD PUSH1 0x40 MLOAD SWAP1 DUP2 ADD PUSH1 0x40 MSTORE DUP1 SWAP3 SWAP2 SWAP1 DUP2 DUP2 MSTORE PUSH1 0x20 ADD DUP3 DUP1 SLOAD PUSH2 0xA2B SWAP1 PUSH2 0x1158 JUMP JUMPDEST DUP1 ISZERO PUSH2 0xA78 JUMPI DUP1 PUSH1 0x1F LT PUSH2 0xA4D JUMPI PUSH2 0x100 DUP1 DUP4 SLOAD DIV MUL DUP4 MSTORE SWAP2 PUSH1 0x20 ADD SWAP2 PUSH2 0xA78 JUMP JUMPDEST DUP3 ADD SWAP2 SWAP1 PUSH1 0x0 MSTORE PUSH1 0x20 PUSH1 0x0 KECCAK256 SWAP1 JUMPDEST DUP2 SLOAD DUP2 MSTORE SWAP1 PUSH1 0x1 ADD SWAP1 PUSH1 0x20 ADD DUP1 DUP4 GT PUSH2 0xA5B JUMPI DUP3 SWAP1 SUB PUSH1 0x1F AND DUP3 ADD SWAP2 JUMPDEST POP POP POP POP POP DUP2 MSTORE PUSH1 0x20 ADD PUSH1 0x2 DUP3 ADD DUP1 SLOAD PUSH2 0xA91 SWAP1 PUSH2 0x1158 JUMP JUMPDEST DUP1 PUSH1 0x1F ADD PUSH1 0x20 DUP1 SWAP2 DIV MUL PUSH1 0x20 ADD PUSH1 0x40 MLOAD SWAP1 DUP2 ADD PUSH1 0x40 MSTORE DUP1 SWAP3 SWAP2 SWAP1 DUP2 DUP2 MSTORE PUSH1 0x20 ADD DUP3 DUP1 SLOAD PUSH2 0xABD SWAP1 PUSH2 0x1158 JUMP JUMPDEST DUP1 ISZERO PUSH2 0xB0A JUMPI DUP1 PUSH1 0x1F LT PUSH2 0xADF JUMPI PUSH2 0x100 DUP1 DUP4 SLOAD DIV MUL DUP4 MSTORE SWAP2 PUSH1 0x20 ADD SWAP2 PUSH2 0xB0A JUMP JUMPDEST DUP3 ADD SWAP2 SWAP1 PUSH1 0x0 MSTORE PUSH1 0x20 PUSH1 0x0 KECCAK256 SWAP1 JUMPDEST DUP2 SLOAD DUP2 MSTORE SWAP1 PUSH1 0x1 ADD SWAP1 PUSH1 0x20 ADD DUP1 DUP4 GT PUSH2 0xAED JUMPI DUP3 SWAP1 SUB PUSH1 0x1F AND DUP3 ADD SWAP2 JUMPDEST POP POP POP POP POP DUP2 MSTORE PUSH1 0x20 ADD PUSH1 0x3 DUP3 ADD SLOAD DUP2 MSTORE PUSH1 0x20 ADD PUSH1 0x4 DUP3 ADD SLOAD DUP2 MSTORE PUSH1 0x20 ADD PUSH1 0x5 DUP3 ADD SLOAD DUP2 MSTORE PUSH1 0x20 ADD PUSH1 0x6 DUP3 ADD SLOAD DUP2 MSTORE PUSH1 0x20 ADD PUSH1 0x7 DUP3 ADD PUSH1 0x0 SWAP1 SLOAD SWAP1 PUSH2 0x100 EXP SWAP1 DIV PUSH1 0xFF AND ISZERO ISZERO ISZERO ISZERO DUP2 MSTORE POP POP SWAP1 POP DUP1 PUSH1 0x0 ADD MLOAD DUP2 PUSH1 0x20 ADD MLOAD DUP3 PUSH1 0x40 ADD MLOAD DUP4 PUSH1 0x60 ADD MLOAD DUP5 PUSH1 0x80 ADD MLOAD DUP6 PUSH1 0xA0 ADD MLOAD DUP7 PUSH1 0xC0 ADD MLOAD DUP8 PUSH1 0xE0 ADD MLOAD SWAP9 POP SWAP9 POP SWAP9 POP SWAP9 POP SWAP9 POP SWAP9 POP SWAP9 POP SWAP9 POP POP SWAP2 SWAP4 SWAP6 SWAP8 POP SWAP2 SWAP4 SWAP6 SWAP8 JUMP JUMPDEST PUSH1 0x0 PUSH1 0x40 MLOAD SWAP1 POP SWAP1 JUMP JUMPDEST PUSH1 0x0 DUP1 REVERT JUMPDEST PUSH1 0x0 DUP1 REVERT JUMPDEST PUSH1 0x0 DUP2 SWAP1 POP SWAP2 SWAP1 POP JUMP JUMPDEST PUSH2 0xBC3 DUP2 PUSH2 0xBB0 JUMP JUMPDEST DUP2 EQ PUSH2 0xBCE JUMPI PUSH1 0x0 DUP1 REVERT JUMPDEST POP JUMP JUMPDEST PUSH1 0x0 DUP2 CALLDATALOAD SWAP1 POP PUSH2 0xBE0 DUP2 PUSH2 0xBBA JUMP JUMPDEST SWAP3 SWAP2 POP POP JUMP JUMPDEST PUSH1 0x0 PUSH1 0x20 DUP3 DUP5 SUB SLT ISZERO PUSH2 0xBFC JUMPI PUSH2 0xBFB PUSH2 0xBA6 JUMP JUMPDEST JUMPDEST PUSH1 0x0 PUSH2 0xC0A DUP5 DUP3 DUP6 ADD PUSH2 0xBD1 JUMP JUMPDEST SWAP2 POP POP SWAP3 SWAP2 POP POP JUMP JUMPDEST PUSH1 0x0 PUSH20 0xFFFFFFFFFFFFFFFFFFFFFFFFFFFFFFFFFFFFFFFF DUP3 AND SWAP1 POP SWAP2 SWAP1 POP JUMP JUMPDEST PUSH1 0x0 PUSH2 0xC3E DUP3 PUSH2 0xC13 JUMP JUMPDEST SWAP1 POP SWAP2 SWAP1 POP JUMP JUMPDEST PUSH2 0xC4E DUP2 PUSH2 0xC33 JUMP JUMPDEST DUP3 MSTORE POP POP JUMP JUMPDEST PUSH1 0x0 DUP2 MLOAD SWAP1 POP SWAP2 SWAP1 POP JUMP JUMPDEST PUSH1 0x0 DUP3 DUP3 MSTORE PUSH1 0x20 DUP3 ADD SWAP1 POP SWAP3 SWAP2 POP POP JUMP JUMPDEST PUSH1 0x0 JUMPDEST DUP4 DUP2 LT ISZERO PUSH2 0xC8E JUMPI DUP1 DUP3 ADD MLOAD DUP2 DUP5 ADD MSTORE PUSH1 0x20 DUP2 ADD SWAP1 POP PUSH2 0xC73 JUMP JUMPDEST PUSH1 0x0 DUP5 DUP5 ADD MSTORE POP POP POP POP JUMP JUMPDEST PUSH1 0x0 PUSH1 0x1F NOT PUSH1 0x1F DUP4 ADD AND SWAP1 POP SWAP2 SWAP1 POP JUMP JUMPDEST PUSH1 0x0 PUSH2 0xCB6 DUP3 PUSH2 0xC54 JUMP JUMPDEST PUSH2 0xCC0 DUP2 DUP6 PUSH2 0xC5F JUMP JUMPDEST SWAP4 POP PUSH2 0xCD0 DUP2 DUP6 PUSH1 0x20 DUP7 ADD PUSH2 0xC70 JUMP JUMPDEST PUSH2 0xCD9 DUP2 PUSH2 0xC9A JUMP JUMPDEST DUP5 ADD SWAP2 POP POP SWAP3 SWAP2 POP POP JUMP JUMPDEST PUSH2 0xCED DUP2 PUSH2 0xBB0 JUMP JUMPDEST DUP3 MSTORE POP POP JUMP JUMPDEST PUSH1 0x0 DUP2 ISZERO ISZERO SWAP1 POP SWAP2 SWAP1 POP JUMP JUMPDEST PUSH2 0xD08 DUP2 PUSH2 0xCF3 JUMP JUMPDEST DUP3 MSTORE POP POP JUMP JUMPDEST PUSH1 0x0 PUSH2 0x100 DUP3 ADD SWAP1 POP PUSH2 0xD24 PUSH1 0x0 DUP4 ADD DUP12 PUSH2 0xC45 JUMP JUMPDEST DUP2 DUP2 SUB PUSH1 0x20 DUP4 ADD MSTORE PUSH2 0xD36 DUP2 DUP11 PUSH2 0xCAB JUMP JUMPDEST SWAP1 POP DUP2 DUP2 SUB PUSH1 0x40 DUP4 ADD MSTORE PUSH2 0xD4A DUP2 DUP10 PUSH2 0xCAB JUMP JUMPDEST SWAP1 POP PUSH2 0xD59 PUSH1 0x60 DUP4 ADD DUP9 PUSH2 0xCE4 JUMP JUMPDEST PUSH2 0xD66 PUSH1 0x80 DUP4 ADD DUP8 PUSH2 0xCE4 JUMP JUMPDEST PUSH2 0xD73 PUSH1 0xA0 DUP4 ADD DUP7 PUSH2 0xCE4 JUMP JUMPDEST PUSH2 0xD80 PUSH1 0xC0 DUP4 ADD DUP6 PUSH2 0xCE4 JUMP JUMPDEST PUSH2 0xD8D PUSH1 0xE0 DUP4 ADD DUP5 PUSH2 0xCFF JUMP JUMPDEST SWAP10 SWAP9 POP POP POP POP POP POP POP POP POP JUMP JUMPDEST PUSH2 0xDA3 DUP2 PUSH2 0xC33 JUMP JUMPDEST DUP2 EQ PUSH2 0xDAE JUMPI PUSH1 0x0 DUP1 REVERT JUMPDEST POP JUMP JUMPDEST PUSH1 0x0 DUP2 CALLDATALOAD SWAP1 POP PUSH2 0xDC0 DUP2 PUSH2 0xD9A JUMP JUMPDEST SWAP3 SWAP2 POP POP JUMP JUMPDEST PUSH1 0x0 DUP1 PUSH1 0x40 DUP4 DUP6 SUB SLT ISZERO PUSH2 0xDDD JUMPI PUSH2 0xDDC PUSH2 0xBA6 JUMP JUMPDEST JUMPDEST PUSH1 0x0 PUSH2 0xDEB DUP6 DUP3 DUP7 ADD PUSH2 0xBD1 JUMP JUMPDEST SWAP3 POP POP PUSH1 0x20 PUSH2 0xDFC DUP6 DUP3 DUP7 ADD PUSH2 0xDB1 JUMP JUMPDEST SWAP2 POP POP SWAP3 POP SWAP3 SWAP1 POP JUMP JUMPDEST PUSH1 0x0 PUSH1 0x20 DUP3 ADD SWAP1 POP PUSH2 0xE1B PUSH1 0x0 DUP4 ADD DUP5 PUSH2 0xCE4 JUMP JUMPDEST SWAP3 SWAP2 POP POP JUMP JUMPDEST PUSH1 0x0 DUP2 MLOAD SWAP1 POP SWAP2 SWAP1 POP JUMP JUMPDEST PUSH1 0x0 DUP3 DUP3 MSTORE PUSH1 0x20 DUP3 ADD SWAP1 POP SWAP3 SWAP2 POP POP JUMP JUMPDEST PUSH1 0x0 DUP2 SWAP1 POP PUSH1 0x20 DUP3 ADD SWAP1 POP SWAP2 SWAP1 POP JUMP JUMPDEST PUSH2 0xE56 DUP2 PUSH2 0xBB0 JUMP JUMPDEST DUP3 MSTORE POP POP JUMP JUMPDEST PUSH1 0x0 PUSH2 0xE68 DUP4 DUP4 PUSH2 0xE4D JUMP JUMPDEST PUSH1 0x20 DUP4 ADD SWAP1 POP SWAP3 SWAP2 POP POP JUMP JUMPDEST PUSH1 0x0 PUSH1 0x20 DUP3 ADD SWAP1 POP SWAP2 SWAP1 POP JUMP JUMPDEST PUSH1 0x0 PUSH2 0xE8C DUP3 PUSH2 0xE21 JUMP JUMPDEST PUSH2 0xE96 DUP2 DUP6 PUSH2 0xE2C JUMP JUMPDEST SWAP4 POP PUSH2 0xEA1 DUP4 PUSH2 0xE3D JUMP JUMPDEST DUP1 PUSH1 0x0 JUMPDEST DUP4 DUP2 LT ISZERO PUSH2 0xED2 JUMPI DUP2 MLOAD PUSH2 0xEB9 DUP9 DUP3 PUSH2 0xE5C JUMP JUMPDEST SWAP8 POP PUSH2 0xEC4 DUP4 PUSH2 0xE74 JUMP JUMPDEST SWAP3 POP POP PUSH1 0x1 DUP2 ADD SWAP1 POP PUSH2 0xEA5 JUMP JUMPDEST POP DUP6 SWAP4 POP POP POP POP SWAP3 SWAP2 POP POP JUMP JUMPDEST PUSH1 0x0 PUSH1 0x20 DUP3 ADD SWAP1 POP DUP2 DUP2 SUB PUSH1 0x0 DUP4 ADD MSTORE PUSH2 0xEF9 DUP2 DUP5 PUSH2 0xE81 JUMP JUMPDEST SWAP1 POP SWAP3 SWAP2 POP POP JUMP JUMPDEST PUSH1 0x0 DUP1 PUSH1 0x40 DUP4 DUP6 SUB SLT ISZERO PUSH2 0xF18 JUMPI PUSH2 0xF17 PUSH2 0xBA6 JUMP JUMPDEST JUMPDEST PUSH1 0x0 PUSH2 0xF26 DUP6 DUP3 DUP7 ADD PUSH2 0xBD1 JUMP JUMPDEST SWAP3 POP POP PUSH1 0x20 PUSH2 0xF37 DUP6 DUP3 DUP7 ADD PUSH2 0xBD1 JUMP JUMPDEST SWAP2 POP POP SWAP3 POP SWAP3 SWAP1 POP JUMP JUMPDEST PUSH1 0x0 DUP1 REVERT JUMPDEST PUSH1 0x0 DUP1 REVERT JUMPDEST PUSH32 0x4E487B7100000000000000000000000000000000000000000000000000000000 PUSH1 0x0 MSTORE PUSH1 0x41 PUSH1 0x4 MSTORE PUSH1 0x24 PUSH1 0x0 REVERT JUMPDEST PUSH2 0xF83 DUP3 PUSH2 0xC9A JUMP JUMPDEST DUP2 ADD DUP2 DUP2 LT PUSH8 0xFFFFFFFFFFFFFFFF DUP3 GT OR ISZERO PUSH2 0xFA2 JUMPI PUSH2 0xFA1 PUSH2 0xF4B JUMP JUMPDEST JUMPDEST DUP1 PUSH1 0x40 MSTORE POP POP POP JUMP JUMPDEST PUSH1 0x0 PUSH2 0xFB5 PUSH2 0xB9C JUMP JUMPDEST SWAP1 POP PUSH2 0xFC1 DUP3 DUP3 PUSH2 0xF7A JUMP JUMPDEST SWAP2 SWAP1 POP JUMP JUMPDEST PUSH1 0x0 PUSH8 0xFFFFFFFFFFFFFFFF DUP3 GT ISZERO PUSH2 0xFE1 JUMPI PUSH2 0xFE0 PUSH2 0xF4B JUMP JUMPDEST JUMPDEST PUSH2 0xFEA DUP3 PUSH2 0xC9A JUMP JUMPDEST SWAP1 POP PUSH1 0x20 DUP2 ADD SWAP1 POP SWAP2 SWAP1 POP JUMP JUMPDEST DUP3 DUP2 DUP4 CALLDATACOPY PUSH1 0x0 DUP4 DUP4 ADD MSTORE POP POP POP JUMP JUMPDEST PUSH1 0x0 PUSH2 0x1019 PUSH2 0x1014 DUP5 PUSH2 0xFC6 JUMP JUMPDEST PUSH2 0xFAB JUMP JUMPDEST SWAP1 POP DUP3 DUP2 MSTORE PUSH1 0x20 DUP2 ADD DUP5 DUP5 DUP5 ADD GT ISZERO PUSH2 0x1035 JUMPI PUSH2 0x1034 PUSH2 0xF46 JUMP JUMPDEST JUMPDEST PUSH2 0x1040 DUP5 DUP3 DUP6 PUSH2 0xFF7 JUMP JUMPDEST POP SWAP4 SWAP3 POP POP POP JUMP JUMPDEST PUSH1 0x0 DUP3 PUSH1 0x1F DUP4 ADD SLT PUSH2 0x105D JUMPI PUSH2 0x105C PUSH2 0xF41 JUMP JUMPDEST JUMPDEST DUP2 CALLDATALOAD PUSH2 0x106D DUP5 DUP3 PUSH1 0x20 DUP7 ADD PUSH2 0x1006 JUMP JUMPDEST SWAP2 POP POP SWAP3 SWAP2 POP POP JUMP JUMPDEST PUSH1 0x0 DUP1 PUSH1 0x0 DUP1 PUSH1 0x0 PUSH1 0xA0 DUP7 DUP9 SUB SLT ISZERO PUSH2 0x1092 JUMPI PUSH2 0x1091 PUSH2 0xBA6 JUMP JUMPDEST JUMPDEST PUSH1 0x0 DUP7 ADD CALLDATALOAD PUSH8 0xFFFFFFFFFFFFFFFF DUP2 GT ISZERO PUSH2 0x10B0 JUMPI PUSH2 0x10AF PUSH2 0xBAB JUMP JUMPDEST JUMPDEST PUSH2 0x10BC DUP9 DUP3 DUP10 ADD PUSH2 0x1048 JUMP JUMPDEST SWAP6 POP POP PUSH1 0x20 DUP7 ADD CALLDATALOAD PUSH8 0xFFFFFFFFFFFFFFFF DUP2 GT ISZERO PUSH2 0x10DD JUMPI PUSH2 0x10DC PUSH2 0xBAB JUMP JUMPDEST JUMPDEST PUSH2 0x10E9 DUP9 DUP3 DUP10 ADD PUSH2 0x1048 JUMP JUMPDEST SWAP5 POP POP PUSH1 0x40 PUSH2 0x10FA DUP9 DUP3 DUP10 ADD PUSH2 0xBD1 JUMP JUMPDEST SWAP4 POP POP PUSH1 0x60 PUSH2 0x110B DUP9 DUP3 DUP10 ADD PUSH2 0xBD1 JUMP JUMPDEST SWAP3 POP POP PUSH1 0x80 PUSH2 0x111C DUP9 DUP3 DUP10 ADD PUSH2 0xBD1 JUMP JUMPDEST SWAP2 POP POP SWAP3 SWAP6 POP SWAP3 SWAP6 SWAP1 SWAP4 POP JUMP JUMPDEST PUSH32 0x4E487B7100000000000000000000000000000000000000000000000000000000 PUSH1 0x0 MSTORE PUSH1 0x22 PUSH1 0x4 MSTORE PUSH1 0x24 PUSH1 0x0 REVERT JUMPDEST PUSH1 0x0 PUSH1 0x2 DUP3 DIV SWAP1 POP PUSH1 0x1 DUP3 AND DUP1 PUSH2 0x1170 JUMPI PUSH1 0x7F DUP3 AND SWAP2 POP JUMPDEST PUSH1 0x20 DUP3 LT DUP2 SUB PUSH2 0x1183 JUMPI PUSH2 0x1182 PUSH2 0x1129 JUMP JUMPDEST JUMPDEST POP SWAP2 SWAP1 POP JUMP JUMPDEST PUSH32 0x4E487B7100000000000000000000000000000000000000000000000000000000 PUSH1 0x0 MSTORE PUSH1 0x32 PUSH1 0x4 MSTORE PUSH1 0x24 PUSH1 0x0 REVERT JUMPDEST PUSH32 0x4E487B7100000000000000000000000000000000000000000000000000000000 PUSH1 0x0 MSTORE PUSH1 0x11 PUSH1 0x4 MSTORE PUSH1 0x24 PUSH1 0x0 REVERT JUMPDEST PUSH1 0x0 PUSH2 0x11F2 DUP3 PUSH2 0xBB0 JUMP JUMPDEST SWAP2 POP PUSH32 0xFFFFFFFFFFFFFFFFFFFFFFFFFFFFFFFFFFFFFFFFFFFFFFFFFFFFFFFFFFFFFFFF DUP3 SUB PUSH2 0x1224 JUMPI PUSH2 0x1223 PUSH2 0x11B8 JUMP JUMPDEST JUMPDEST PUSH1 0x1 DUP3 ADD SWAP1 POP SWAP2 SWAP1 POP JUMP JUMPDEST PUSH32 0x43616D706169676E206973206E6F742061637469766500000000000000000000 PUSH1 0x0 DUP3 ADD MSTORE POP JUMP JUMPDEST PUSH1 0x0 PUSH2 0x1265 PUSH1 0x16 DUP4 PUSH2 0xC5F JUMP JUMPDEST SWAP2 POP PUSH2 0x1270 DUP3 PUSH2 0x122F JUMP JUMPDEST PUSH1 0x20 DUP3 ADD SWAP1 POP SWAP2 SWAP1 POP JUMP JUMPDEST PUSH1 0x0 PUSH1 0x20 DUP3 ADD SWAP1 POP DUP2 DUP2 SUB PUSH1 0x0 DUP4 ADD MSTORE PUSH2 0x1294 DUP2 PUSH2 0x1258 JUMP JUMPDEST SWAP1 POP SWAP2 SWAP1 POP JUMP JUMPDEST PUSH1 0x0 PUSH2 0x12A6 DUP3 PUSH2 0xBB0 JUMP JUMPDEST SWAP2 POP PUSH2 0x12B1 DUP4 PUSH2 0xBB0 JUMP JUMPDEST SWAP3 POP DUP3 DUP3 SUB SWAP1 POP DUP2 DUP2 GT ISZERO PUSH2 0x12C9 JUMPI PUSH2 0x12C8 PUSH2 0x11B8 JUMP JUMPDEST JUMPDEST SWAP3 SWAP2 POP POP JUMP JUMPDEST PUSH32 0x46756E64696E6720616D6F756E74206D75737420626520677265617465722074 PUSH1 0x0 DUP3 ADD MSTORE PUSH32 0x68616E2030000000000000000000000000000000000000000000000000000000 PUSH1 0x20 DUP3 ADD MSTORE POP JUMP JUMPDEST PUSH1 0x0 PUSH2 0x132B PUSH1 0x25 DUP4 PUSH2 0xC5F JUMP JUMPDEST SWAP2 POP PUSH2 0x1336 DUP3 PUSH2 0x12CF JUMP JUMPDEST PUSH1 0x40 DUP3 ADD SWAP1 POP SWAP2 SWAP1 POP JUMP JUMPDEST PUSH1 0x0 PUSH1 0x20 DUP3 ADD SWAP1 POP DUP2 DUP2 SUB PUSH1 0x0 DUP4 ADD MSTORE PUSH2 0x135A DUP2 PUSH2 0x131E JUMP JUMPDEST SWAP1 POP SWAP2 SWAP1 POP JUMP JUMPDEST PUSH32 0x46756E6465722063616E206F6E6C792066756E64206F6E636520706572207072 PUSH1 0x0 DUP3 ADD MSTORE PUSH32 0x6F6A656374000000000000000000000000000000000000000000000000000000 PUSH1 0x20 DUP3 ADD MSTORE POP JUMP JUMPDEST PUSH1 0x0 PUSH2 0x13BD PUSH1 0x25 DUP4 PUSH2 0xC5F JUMP JUMPDEST SWAP2 POP PUSH2 0x13C8 DUP3 PUSH2 0x1361 JUMP JUMPDEST PUSH1 0x40 DUP3 ADD SWAP1 POP SWAP2 SWAP1 POP JUMP JUMPDEST PUSH1 0x0 PUSH1 0x20 DUP3 ADD SWAP1 POP DUP2 DUP2 SUB PUSH1 0x0 DUP4 ADD MSTORE PUSH2 0x13EC DUP2 PUSH2 0x13B0 JUMP JUMPDEST SWAP1 POP SWAP2 SWAP1 POP JUMP JUMPDEST PUSH1 0x0 PUSH2 0x13FE DUP3 PUSH2 0xBB0 JUMP JUMPDEST SWAP2 POP PUSH2 0x1409 DUP4 PUSH2 0xBB0 JUMP JUMPDEST SWAP3 POP DUP3 DUP3 ADD SWAP1 POP DUP1 DUP3 GT ISZERO PUSH2 0x1421 JUMPI PUSH2 0x1420 PUSH2 0x11B8 JUMP JUMPDEST JUMPDEST SWAP3 SWAP2 POP POP JUMP JUMPDEST PUSH1 0x0 DUP2 SWAP1 POP DUP2 PUSH1 0x0 MSTORE PUSH1 0x20 PUSH1 0x0 KECCAK256 SWAP1 POP SWAP2 SWAP1 POP JUMP JUMPDEST PUSH1 0x0 PUSH1 0x20 PUSH1 0x1F DUP4 ADD DIV SWAP1 POP SWAP2 SWAP1 POP JUMP JUMPDEST PUSH1 0x0 DUP3 DUP3 SHL SWAP1 POP SWAP3 SWAP2 POP POP JUMP JUMPDEST PUSH1 0x0 PUSH1 0x8 DUP4 MUL PUSH2 0x1489 PUSH32 0xFFFFFFFFFFFFFFFFFFFFFFFFFFFFFFFFFFFFFFFFFFFFFFFFFFFFFFFFFFFFFFFF DUP3 PUSH2 0x144C JUMP JUMPDEST PUSH2 0x1493 DUP7 DUP4 PUSH2 0x144C JUMP JUMPDEST SWAP6 POP DUP1 NOT DUP5 AND SWAP4 POP DUP1 DUP7 AND DUP5 OR SWAP3 POP POP POP SWAP4 SWAP3 POP POP POP JUMP JUMPDEST PUSH1 0x0 DUP2 SWAP1 POP SWAP2 SWAP1 POP JUMP JUMPDEST PUSH1 0x0 PUSH2 0x14D0 PUSH2 0x14CB PUSH2 0x14C6 DUP5 PUSH2 0xBB0 JUMP JUMPDEST PUSH2 0x14AB JUMP JUMPDEST PUSH2 0xBB0 JUMP JUMPDEST SWAP1 POP SWAP2 SWAP1 POP JUMP JUMPDEST PUSH1 0x0 DUP2 SWAP1 POP SWAP2 SWAP1 POP JUMP JUMPDEST PUSH2 0x14EA DUP4 PUSH2 0x14B5 JUMP JUMPDEST PUSH2 0x14FE PUSH2 0x14F6 DUP3 PUSH2 0x14D7 JUMP JUMPDEST DUP5 DUP5 SLOAD PUSH2 0x1459 JUMP JUMPDEST DUP3 SSTORE POP POP POP POP JUMP JUMPDEST PUSH1 0x0 SWAP1 JUMP JUMPDEST PUSH2 0x1513 PUSH2 0x1506 JUMP JUMPDEST PUSH2 0x151E DUP2 DUP5 DUP5 PUSH2 0x14E1 JUMP JUMPDEST POP POP POP JUMP JUMPDEST JUMPDEST DUP2 DUP2 LT ISZERO PUSH2 0x1542 JUMPI PUSH2 0x1537 PUSH1 0x0 DUP3 PUSH2 0x150B JUMP JUMPDEST PUSH1 0x1 DUP2 ADD SWAP1 POP PUSH2 0x1524 JUMP JUMPDEST POP POP JUMP JUMPDEST PUSH1 0x1F DUP3 GT ISZERO PUSH2 0x1587 JUMPI PUSH2 0x1558 DUP2 PUSH2 0x1427 JUMP JUMPDEST PUSH2 0x1561 DUP5 PUSH2 0x143C JUMP JUMPDEST DUP2 ADD PUSH1 0x20 DUP6 LT ISZERO PUSH2 0x1570 JUMPI DUP2 SWAP1 POP JUMPDEST PUSH2 0x1584 PUSH2 0x157C DUP6 PUSH2 0x143C JUMP JUMPDEST DUP4 ADD DUP3 PUSH2 0x1523 JUMP JUMPDEST POP POP JUMPDEST POP POP POP JUMP JUMPDEST PUSH1 0x0 DUP3 DUP3 SHR SWAP1 POP SWAP3 SWAP2 POP POP JUMP JUMPDEST PUSH1 0x0 PUSH2 0x15AA PUSH1 0x0 NOT DUP5 PUSH1 0x8 MUL PUSH2 0x158C JUMP JUMPDEST NOT DUP1 DUP4 AND SWAP2 POP POP SWAP3 SWAP2 POP POP JUMP JUMPDEST PUSH1 0x0 PUSH2 0x15C3 DUP4 DUP4 PUSH2 0x1599 JUMP JUMPDEST SWAP2 POP DUP3 PUSH1 0x2 MUL DUP3 OR SWAP1 POP SWAP3 SWAP2 POP POP JUMP JUMPDEST PUSH2 0x15DC DUP3 PUSH2 0xC54 JUMP JUMPDEST PUSH8 0xFFFFFFFFFFFFFFFF DUP2 GT ISZERO PUSH2 0x15F5 JUMPI PUSH2 0x15F4 PUSH2 0xF4B JUMP JUMPDEST JUMPDEST PUSH2 0x15FF DUP3 SLOAD PUSH2 0x1158 JUMP JUMPDEST PUSH2 0x160A DUP3 DUP3 DUP6 PUSH2 0x1546 JUMP JUMPDEST PUSH1 0x0 PUSH1 0x20 SWAP1 POP PUSH1 0x1F DUP4 GT PUSH1 0x1 DUP2 EQ PUSH2 0x163D JUMPI PUSH1 0x0 DUP5 ISZERO PUSH2 0x162B JUMPI DUP3 DUP8 ADD MLOAD SWAP1 POP JUMPDEST PUSH2 0x1635 DUP6 DUP3 PUSH2 0x15B7 JUMP JUMPDEST DUP7 SSTORE POP PUSH2 0x169D JUMP JUMPDEST PUSH1 0x1F NOT DUP5 AND PUSH2 0x164B DUP7 PUSH2 0x1427 JUMP JUMPDEST PUSH1 0x0 JUMPDEST DUP3 DUP2 LT ISZERO PUSH2 0x1673 JUMPI DUP5 DUP10 ADD MLOAD DUP3 SSTORE PUSH1 0x1 DUP3 ADD SWAP2 POP PUSH1 0x20 DUP6 ADD SWAP5 POP PUSH1 0x20 DUP2 ADD SWAP1 POP PUSH2 0x164E JUMP JUMPDEST DUP7 DUP4 LT ISZERO PUSH2 0x1690 JUMPI DUP5 DUP10 ADD MLOAD PUSH2 0x168C PUSH1 0x1F DUP10 AND DUP3 PUSH2 0x1599 JUMP JUMPDEST DUP4 SSTORE POP JUMPDEST PUSH1 0x1 PUSH1 0x2 DUP9 MUL ADD DUP9 SSTORE POP POP POP JUMPDEST POP POP POP POP POP POP JUMP INVALID LOG2 PUSH5 0x6970667358 0x22 SLT KECCAK256 LOG0 ADDMOD CALLDATACOPY 0xD2 SWAP9 0xC3 0xEA 0xAB STATICCALL GT SDIV 0xB4 0xBA 0xD3 0xE7 MUL SHL 0xDE SLOAD EXTCODESIZE 0xCA KECCAK256 0xCB 0xEE MSTORE 0xAE CREATE EXP 0x24 LOG2 EXTCODEHASH 0xD2 PUSH5 0x736F6C6343 STOP ADDMOD SLT STOP CALLER "
				},
				"gasEstimates": {
					"creation": {
						"codeDepositCost": "1170200",
						"executionCost": "1214",
						"totalCost": "1171414"
					},
					"external": {
						"campaigns(uint256)": "infinite",
						"createCampaign(string,string,uint256,uint256,uint256)": "infinite",
						"fundCampaign(uint256,uint256)": "infinite",
						"funders(uint256,address)": "infinite",
						"getActiveCC()": "infinite",
						"getActiveCIds()": "infinite",
						"getCampaignDetails(uint256)": "infinite"
					}
				},
				"methodIdentifiers": {
					"campaigns(uint256)": "141961bc",
					"createCampaign(string,string,uint256,uint256,uint256)": "b5c89219",
					"fundCampaign(uint256,uint256)": "918eab15",
					"funders(uint256,address)": "148038b0",
					"getActiveCC()": "669b090f",
					"getActiveCIds()": "196da98b",
					"getCampaignDetails(uint256)": "d993de62"
				}
			},
			"storageLayout": {
				"storage": [
					{
						"astId": 24,
						"contract": "contracts/c2.sol:FundingPlatform",
						"label": "funders",
						"offset": 0,
						"slot": "0",
						"type": "t_mapping(t_uint256,t_mapping(t_address,t_uint256))"
					},
					{
						"astId": 28,
						"contract": "contracts/c2.sol:FundingPlatform",
						"label": "campaigns",
						"offset": 0,
						"slot": "1",
						"type": "t_array(t_struct(Campaign)18_storage)dyn_storage"
					}
				],
				"types": {
					"t_address": {
						"encoding": "inplace",
						"label": "address",
						"numberOfBytes": "20"
					},
					"t_array(t_struct(Campaign)18_storage)dyn_storage": {
						"base": "t_struct(Campaign)18_storage",
						"encoding": "dynamic_array",
						"label": "struct FundingPlatform.Campaign[]",
						"numberOfBytes": "32"
					},
					"t_bool": {
						"encoding": "inplace",
						"label": "bool",
						"numberOfBytes": "1"
					},
					"t_mapping(t_address,t_uint256)": {
						"encoding": "mapping",
						"key": "t_address",
						"label": "mapping(address => uint256)",
						"numberOfBytes": "32",
						"value": "t_uint256"
					},
					"t_mapping(t_uint256,t_mapping(t_address,t_uint256))": {
						"encoding": "mapping",
						"key": "t_uint256",
						"label": "mapping(uint256 => mapping(address => uint256))",
						"numberOfBytes": "32",
						"value": "t_mapping(t_address,t_uint256)"
					},
					"t_string_storage": {
						"encoding": "bytes",
						"label": "string",
						"numberOfBytes": "32"
					},
					"t_struct(Campaign)18_storage": {
						"encoding": "inplace",
						"label": "struct FundingPlatform.Campaign",
						"members": [
							{
								"astId": 3,
								"contract": "contracts/c2.sol:FundingPlatform",
								"label": "creator",
								"offset": 0,
								"slot": "0",
								"type": "t_address"
							},
							{
								"astId": 5,
								"contract": "contracts/c2.sol:FundingPlatform",
								"label": "cause",
								"offset": 0,
								"slot": "1",
								"type": "t_string_storage"
							},
							{
								"astId": 7,
								"contract": "contracts/c2.sol:FundingPlatform",
								"label": "futurePlans",
								"offset": 0,
								"slot": "2",
								"type": "t_string_storage"
							},
							{
								"astId": 9,
								"contract": "contracts/c2.sol:FundingPlatform",
								"label": "startDate",
								"offset": 0,
								"slot": "3",
								"type": "t_uint256"
							},
							{
								"astId": 11,
								"contract": "contracts/c2.sol:FundingPlatform",
								"label": "endDate",
								"offset": 0,
								"slot": "4",
								"type": "t_uint256"
							},
							{
								"astId": 13,
								"contract": "contracts/c2.sol:FundingPlatform",
								"label": "goalAmount",
								"offset": 0,
								"slot": "5",
								"type": "t_uint256"
							},
							{
								"astId": 15,
								"contract": "contracts/c2.sol:FundingPlatform",
								"label": "currentAmount",
								"offset": 0,
								"slot": "6",
								"type": "t_uint256"
							},
							{
								"astId": 17,
								"contract": "contracts/c2.sol:FundingPlatform",
								"label": "isActive",
								"offset": 0,
								"slot": "7",
								"type": "t_bool"
							}
						],
						"numberOfBytes": "256"
					},
					"t_uint256": {
						"encoding": "inplace",
						"label": "uint256",
						"numberOfBytes": "32"
					}
				}
			},
			"userdoc": {
				"kind": "user",
				"methods": {},
				"version": 1
			}
		}
	}
}