{
	"contracts/crowdfunding.sol": {
		"FundingPlatform": {
			"abi": [
				{
					"anonymous": false,
					"inputs": [
						{
							"indexed": true,
							"internalType": "uint256",
							"name": "campaignId",
							"type": "uint256"
						},
						{
							"indexed": true,
							"internalType": "address",
							"name": "creator",
							"type": "address"
						}
					],
					"name": "CampaignCreated",
					"type": "event"
				},
				{
					"anonymous": false,
					"inputs": [
						{
							"indexed": true,
							"internalType": "uint256",
							"name": "campaignId",
							"type": "uint256"
						},
						{
							"indexed": true,
							"internalType": "address",
							"name": "funder",
							"type": "address"
						},
						{
							"indexed": false,
							"internalType": "uint256",
							"name": "amount",
							"type": "uint256"
						}
					],
					"name": "FundedBy",
					"type": "event"
				},
				{
					"inputs": [
						{
							"internalType": "uint256",
							"name": "",
							"type": "uint256"
						}
					],
					"name": "campaigns",
					"outputs": [
						{
							"internalType": "address",
							"name": "creator",
							"type": "address"
						},
						{
							"internalType": "string",
							"name": "cause",
							"type": "string"
						},
						{
							"internalType": "string",
							"name": "futurePlans",
							"type": "string"
						},
						{
							"internalType": "uint256",
							"name": "startDate",
							"type": "uint256"
						},
						{
							"internalType": "uint256",
							"name": "endDate",
							"type": "uint256"
						},
						{
							"internalType": "uint256",
							"name": "fundingDate",
							"type": "uint256"
						},
						{
							"internalType": "uint256",
							"name": "goalAmount",
							"type": "uint256"
						},
						{
							"internalType": "uint256",
							"name": "currentAmount",
							"type": "uint256"
						},
						{
							"internalType": "bool",
							"name": "isActive",
							"type": "bool"
						}
					],
					"stateMutability": "view",
					"type": "function"
				},
				{
					"inputs": [
						{
							"internalType": "string",
							"name": "_cause",
							"type": "string"
						},
						{
							"internalType": "string",
							"name": "_futurePlans",
							"type": "string"
						},
						{
							"internalType": "uint256",
							"name": "_startDate",
							"type": "uint256"
						},
						{
							"internalType": "uint256",
							"name": "_endDate",
							"type": "uint256"
						},
						{
							"internalType": "uint256",
							"name": "_fundingDate",
							"type": "uint256"
						},
						{
							"internalType": "uint256",
							"name": "_goalAmount",
							"type": "uint256"
						}
					],
					"name": "createCampaign",
					"outputs": [],
					"stateMutability": "nonpayable",
					"type": "function"
				},
				{
					"inputs": [
						{
							"internalType": "uint256",
							"name": "_campaignId",
							"type": "uint256"
						}
					],
					"name": "fundCampaign",
					"outputs": [],
					"stateMutability": "payable",
					"type": "function"
				},
				{
					"inputs": [
						{
							"internalType": "uint256",
							"name": "",
							"type": "uint256"
						},
						{
							"internalType": "address",
							"name": "",
							"type": "address"
						}
					],
					"name": "funders",
					"outputs": [
						{
							"internalType": "uint256",
							"name": "",
							"type": "uint256"
						}
					],
					"stateMutability": "view",
					"type": "function"
				},
				{
					"inputs": [],
					"name": "getActiveCampaignCount",
					"outputs": [
						{
							"internalType": "uint256",
							"name": "",
							"type": "uint256"
						}
					],
					"stateMutability": "view",
					"type": "function"
				},
				{
					"inputs": [
						{
							"internalType": "uint256",
							"name": "_campaignId",
							"type": "uint256"
						}
					],
					"name": "getCampaignDetails",
					"outputs": [
						{
							"internalType": "address",
							"name": "creator",
							"type": "address"
						},
						{
							"internalType": "string",
							"name": "cause",
							"type": "string"
						},
						{
							"internalType": "string",
							"name": "futurePlans",
							"type": "string"
						},
						{
							"internalType": "uint256",
							"name": "startDate",
							"type": "uint256"
						},
						{
							"internalType": "uint256",
							"name": "endDate",
							"type": "uint256"
						},
						{
							"internalType": "uint256",
							"name": "fundingDate",
							"type": "uint256"
						},
						{
							"internalType": "uint256",
							"name": "goalAmount",
							"type": "uint256"
						},
						{
							"internalType": "uint256",
							"name": "currentAmount",
							"type": "uint256"
						},
						{
							"internalType": "bool",
							"name": "isActive",
							"type": "bool"
						}
					],
					"stateMutability": "view",
					"type": "function"
				}
			],
			"devdoc": {
				"kind": "dev",
				"methods": {},
				"version": 1
			},
			"evm": {
				"assembly": "    /* \"contracts/crowdfunding.sol\":60:3504  contract FundingPlatform {... */\n  mstore(0x40, 0x80)\n  callvalue\n  dup1\n  iszero\n  tag_1\n  jumpi\n  0x00\n  dup1\n  revert\ntag_1:\n  pop\n  dataSize(sub_0)\n  dup1\n  dataOffset(sub_0)\n  0x00\n  codecopy\n  0x00\n  return\nstop\n\nsub_0: assembly {\n        /* \"contracts/crowdfunding.sol\":60:3504  contract FundingPlatform {... */\n      mstore(0x40, 0x80)\n      jumpi(tag_1, lt(calldatasize, 0x04))\n      shr(0xe0, calldataload(0x00))\n      dup1\n      0x01eac582\n      eq\n      tag_2\n      jumpi\n      dup1\n      0x141961bc\n      eq\n      tag_3\n      jumpi\n      dup1\n      0x148038b0\n      eq\n      tag_4\n      jumpi\n      dup1\n      0x2897c24a\n      eq\n      tag_5\n      jumpi\n      dup1\n      0x92bd38bc\n      eq\n      tag_6\n      jumpi\n      dup1\n      0xd993de62\n      eq\n      tag_7\n      jumpi\n    tag_1:\n      0x00\n      dup1\n      revert\n        /* \"contracts/crowdfunding.sol\":3235:3501  function getActiveCampaignCount() public view returns (uint) {... */\n    tag_2:\n      callvalue\n      dup1\n      iszero\n      tag_8\n      jumpi\n      0x00\n      dup1\n      revert\n    tag_8:\n      pop\n      tag_9\n      tag_10\n      jump\t// in\n    tag_9:\n      mload(0x40)\n      tag_11\n      swap2\n      swap1\n      tag_12\n      jump\t// in\n    tag_11:\n      mload(0x40)\n      dup1\n      swap2\n      sub\n      swap1\n      return\n        /* \"contracts/crowdfunding.sol\":420:447  Campaign[] public campaigns */\n    tag_3:\n      callvalue\n      dup1\n      iszero\n      tag_13\n      jumpi\n      0x00\n      dup1\n      revert\n    tag_13:\n      pop\n      tag_14\n      0x04\n      dup1\n      calldatasize\n      sub\n      dup2\n      add\n      swap1\n      tag_15\n      swap2\n      swap1\n      tag_16\n      jump\t// in\n    tag_15:\n      tag_17\n      jump\t// in\n    tag_14:\n      mload(0x40)\n      tag_18\n      swap10\n      swap9\n      swap8\n      swap7\n      swap6\n      swap5\n      swap4\n      swap3\n      swap2\n      swap1\n      tag_19\n      jump\t// in\n    tag_18:\n      mload(0x40)\n      dup1\n      swap2\n      sub\n      swap1\n      return\n        /* \"contracts/crowdfunding.sol\":354:410  mapping(uint => mapping(address => uint)) public funders */\n    tag_4:\n      callvalue\n      dup1\n      iszero\n      tag_20\n      jumpi\n      0x00\n      dup1\n      revert\n    tag_20:\n      pop\n      tag_21\n      0x04\n      dup1\n      calldatasize\n      sub\n      dup2\n      add\n      swap1\n      tag_22\n      swap2\n      swap1\n      tag_23\n      jump\t// in\n    tag_22:\n      tag_24\n      jump\t// in\n    tag_21:\n      mload(0x40)\n      tag_25\n      swap2\n      swap1\n      tag_12\n      jump\t// in\n    tag_25:\n      mload(0x40)\n      dup1\n      swap2\n      sub\n      swap1\n      return\n        /* \"contracts/crowdfunding.sol\":992:1988  function createCampaign(... */\n    tag_5:\n      callvalue\n      dup1\n      iszero\n      tag_26\n      jumpi\n      0x00\n      dup1\n      revert\n    tag_26:\n      pop\n      tag_27\n      0x04\n      dup1\n      calldatasize\n      sub\n      dup2\n      add\n      swap1\n      tag_28\n      swap2\n      swap1\n      tag_29\n      jump\t// in\n    tag_28:\n      tag_30\n      jump\t// in\n    tag_27:\n      stop\n        /* \"contracts/crowdfunding.sol\":1996:2505  function fundCampaign(uint _campaignId) public payable onlyActiveCampaign(_campaignId) {... */\n    tag_6:\n      tag_31\n      0x04\n      dup1\n      calldatasize\n      sub\n      dup2\n      add\n      swap1\n      tag_32\n      swap2\n      swap1\n      tag_16\n      jump\t// in\n    tag_32:\n      tag_33\n      jump\t// in\n    tag_31:\n      stop\n        /* \"contracts/crowdfunding.sol\":2513:3227  function getCampaignDetails(uint _campaignId) public view returns (... */\n    tag_7:\n      callvalue\n      dup1\n      iszero\n      tag_34\n      jumpi\n      0x00\n      dup1\n      revert\n    tag_34:\n      pop\n      tag_35\n      0x04\n      dup1\n      calldatasize\n      sub\n      dup2\n      add\n      swap1\n      tag_36\n      swap2\n      swap1\n      tag_16\n      jump\t// in\n    tag_36:\n      tag_37\n      jump\t// in\n    tag_35:\n      mload(0x40)\n      tag_38\n      swap10\n      swap9\n      swap8\n      swap7\n      swap6\n      swap5\n      swap4\n      swap3\n      swap2\n      swap1\n      tag_19\n      jump\t// in\n    tag_38:\n      mload(0x40)\n      dup1\n      swap2\n      sub\n      swap1\n      return\n        /* \"contracts/crowdfunding.sol\":3235:3501  function getActiveCampaignCount() public view returns (uint) {... */\n    tag_10:\n        /* \"contracts/crowdfunding.sol\":3290:3294  uint */\n      0x00\n        /* \"contracts/crowdfunding.sol\":3307:3317  uint count */\n      dup1\n        /* \"contracts/crowdfunding.sol\":3320:3321  0 */\n      0x00\n        /* \"contracts/crowdfunding.sol\":3307:3321  uint count = 0 */\n      swap1\n      pop\n        /* \"contracts/crowdfunding.sol\":3337:3343  uint i */\n      0x00\n        /* \"contracts/crowdfunding.sol\":3332:3471  for (uint i = 0; i < campaigns.length; i++) {... */\n    tag_40:\n        /* \"contracts/crowdfunding.sol\":3353:3362  campaigns */\n      0x01\n        /* \"contracts/crowdfunding.sol\":3353:3369  campaigns.length */\n      dup1\n      sload\n      swap1\n      pop\n        /* \"contracts/crowdfunding.sol\":3349:3350  i */\n      dup2\n        /* \"contracts/crowdfunding.sol\":3349:3369  i < campaigns.length */\n      lt\n        /* \"contracts/crowdfunding.sol\":3332:3471  for (uint i = 0; i < campaigns.length; i++) {... */\n      iszero\n      tag_41\n      jumpi\n        /* \"contracts/crowdfunding.sol\":3395:3404  campaigns */\n      0x01\n        /* \"contracts/crowdfunding.sol\":3405:3406  i */\n      dup2\n        /* \"contracts/crowdfunding.sol\":3395:3407  campaigns[i] */\n      dup2\n      sload\n      dup2\n      lt\n      tag_43\n      jumpi\n      tag_44\n      tag_45\n      jump\t// in\n    tag_44:\n    tag_43:\n      swap1\n      0x00\n      mstore\n      keccak256(0x00, 0x20)\n      swap1\n      0x09\n      mul\n      add\n        /* \"contracts/crowdfunding.sol\":3395:3416  campaigns[i].isActive */\n      0x08\n      add\n      0x00\n      swap1\n      sload\n      swap1\n      0x0100\n      exp\n      swap1\n      div\n      0xff\n      and\n        /* \"contracts/crowdfunding.sol\":3391:3460  if (campaigns[i].isActive) {... */\n      iszero\n      tag_47\n      jumpi\n        /* \"contracts/crowdfunding.sol\":3437:3444  count++ */\n      dup2\n      dup1\n      tag_48\n      swap1\n      tag_49\n      jump\t// in\n    tag_48:\n      swap3\n      pop\n      pop\n        /* \"contracts/crowdfunding.sol\":3391:3460  if (campaigns[i].isActive) {... */\n    tag_47:\n        /* \"contracts/crowdfunding.sol\":3371:3374  i++ */\n      dup1\n      dup1\n      tag_50\n      swap1\n      tag_49\n      jump\t// in\n    tag_50:\n      swap2\n      pop\n      pop\n        /* \"contracts/crowdfunding.sol\":3332:3471  for (uint i = 0; i < campaigns.length; i++) {... */\n      jump(tag_40)\n    tag_41:\n      pop\n        /* \"contracts/crowdfunding.sol\":3488:3493  count */\n      dup1\n        /* \"contracts/crowdfunding.sol\":3481:3493  return count */\n      swap2\n      pop\n      pop\n        /* \"contracts/crowdfunding.sol\":3235:3501  function getActiveCampaignCount() public view returns (uint) {... */\n      swap1\n      jump\t// out\n        /* \"contracts/crowdfunding.sol\":420:447  Campaign[] public campaigns */\n    tag_17:\n      0x01\n      dup2\n      dup2\n      sload\n      dup2\n      lt\n      tag_51\n      jumpi\n      0x00\n      dup1\n      revert\n    tag_51:\n      swap1\n      0x00\n      mstore\n      keccak256(0x00, 0x20)\n      swap1\n      0x09\n      mul\n      add\n      0x00\n      swap2\n      pop\n      swap1\n      pop\n      dup1\n      0x00\n      add\n      0x00\n      swap1\n      sload\n      swap1\n      0x0100\n      exp\n      swap1\n      div\n      0xffffffffffffffffffffffffffffffffffffffff\n      and\n      swap1\n      dup1\n      0x01\n      add\n      dup1\n      sload\n      tag_53\n      swap1\n      tag_54\n      jump\t// in\n    tag_53:\n      dup1\n      0x1f\n      add\n      0x20\n      dup1\n      swap2\n      div\n      mul\n      0x20\n      add\n      mload(0x40)\n      swap1\n      dup2\n      add\n      0x40\n      mstore\n      dup1\n      swap3\n      swap2\n      swap1\n      dup2\n      dup2\n      mstore\n      0x20\n      add\n      dup3\n      dup1\n      sload\n      tag_55\n      swap1\n      tag_54\n      jump\t// in\n    tag_55:\n      dup1\n      iszero\n      tag_56\n      jumpi\n      dup1\n      0x1f\n      lt\n      tag_57\n      jumpi\n      0x0100\n      dup1\n      dup4\n      sload\n      div\n      mul\n      dup4\n      mstore\n      swap2\n      0x20\n      add\n      swap2\n      jump(tag_56)\n    tag_57:\n      dup3\n      add\n      swap2\n      swap1\n      0x00\n      mstore\n      keccak256(0x00, 0x20)\n      swap1\n    tag_58:\n      dup2\n      sload\n      dup2\n      mstore\n      swap1\n      0x01\n      add\n      swap1\n      0x20\n      add\n      dup1\n      dup4\n      gt\n      tag_58\n      jumpi\n      dup3\n      swap1\n      sub\n      0x1f\n      and\n      dup3\n      add\n      swap2\n    tag_56:\n      pop\n      pop\n      pop\n      pop\n      pop\n      swap1\n      dup1\n      0x02\n      add\n      dup1\n      sload\n      tag_59\n      swap1\n      tag_54\n      jump\t// in\n    tag_59:\n      dup1\n      0x1f\n      add\n      0x20\n      dup1\n      swap2\n      div\n      mul\n      0x20\n      add\n      mload(0x40)\n      swap1\n      dup2\n      add\n      0x40\n      mstore\n      dup1\n      swap3\n      swap2\n      swap1\n      dup2\n      dup2\n      mstore\n      0x20\n      add\n      dup3\n      dup1\n      sload\n      tag_60\n      swap1\n      tag_54\n      jump\t// in\n    tag_60:\n      dup1\n      iszero\n      tag_61\n      jumpi\n      dup1\n      0x1f\n      lt\n      tag_62\n      jumpi\n      0x0100\n      dup1\n      dup4\n      sload\n      div\n      mul\n      dup4\n      mstore\n      swap2\n      0x20\n      add\n      swap2\n      jump(tag_61)\n    tag_62:\n      dup3\n      add\n      swap2\n      swap1\n      0x00\n      mstore\n      keccak256(0x00, 0x20)\n      swap1\n    tag_63:\n      dup2\n      sload\n      dup2\n      mstore\n      swap1\n      0x01\n      add\n      swap1\n      0x20\n      add\n      dup1\n      dup4\n      gt\n      tag_63\n      jumpi\n      dup3\n      swap1\n      sub\n      0x1f\n      and\n      dup3\n      add\n      swap2\n    tag_61:\n      pop\n      pop\n      pop\n      pop\n      pop\n      swap1\n      dup1\n      0x03\n      add\n      sload\n      swap1\n      dup1\n      0x04\n      add\n      sload\n      swap1\n      dup1\n      0x05\n      add\n      sload\n      swap1\n      dup1\n      0x06\n      add\n      sload\n      swap1\n      dup1\n      0x07\n      add\n      sload\n      swap1\n      dup1\n      0x08\n      add\n      0x00\n      swap1\n      sload\n      swap1\n      0x0100\n      exp\n      swap1\n      div\n      0xff\n      and\n      swap1\n      pop\n      dup10\n      jump\t// out\n        /* \"contracts/crowdfunding.sol\":354:410  mapping(uint => mapping(address => uint)) public funders */\n    tag_24:\n      mstore(0x20, 0x00)\n      dup2\n      0x00\n      mstore\n      mstore(0x20, keccak256(0x00, 0x40))\n      dup1\n      0x00\n      mstore\n      keccak256(0x00, 0x40)\n      0x00\n      swap2\n      pop\n      swap2\n      pop\n      pop\n      sload\n      dup2\n      jump\t// out\n        /* \"contracts/crowdfunding.sol\":992:1988  function createCampaign(... */\n    tag_30:\n        /* \"contracts/crowdfunding.sol\":1238:1246  _endDate */\n      dup3\n        /* \"contracts/crowdfunding.sol\":1222:1234  _fundingDate */\n      dup3\n        /* \"contracts/crowdfunding.sol\":1222:1246  _fundingDate <= _endDate */\n      gt\n      iszero\n        /* \"contracts/crowdfunding.sol\":1214:1293  require(_fundingDate <= _endDate, \"Funding date cannot be later than end date\") */\n      tag_65\n      jumpi\n      mload(0x40)\n      0x08c379a000000000000000000000000000000000000000000000000000000000\n      dup2\n      mstore\n      0x04\n      add\n      tag_66\n      swap1\n      tag_67\n      jump\t// in\n    tag_66:\n      mload(0x40)\n      dup1\n      swap2\n      sub\n      swap1\n      revert\n    tag_65:\n        /* \"contracts/crowdfunding.sol\":1314:1341  Campaign memory newCampaign */\n      0x00\n        /* \"contracts/crowdfunding.sol\":1344:1673  Campaign({... */\n      mload(0x40)\n      dup1\n      0x0120\n      add\n      0x40\n      mstore\n      dup1\n        /* \"contracts/crowdfunding.sol\":1377:1387  msg.sender */\n      caller\n        /* \"contracts/crowdfunding.sol\":1344:1673  Campaign({... */\n      0xffffffffffffffffffffffffffffffffffffffff\n      and\n      dup2\n      mstore\n      0x20\n      add\n        /* \"contracts/crowdfunding.sol\":1409:1415  _cause */\n      dup9\n        /* \"contracts/crowdfunding.sol\":1344:1673  Campaign({... */\n      dup2\n      mstore\n      0x20\n      add\n        /* \"contracts/crowdfunding.sol\":1443:1455  _futurePlans */\n      dup8\n        /* \"contracts/crowdfunding.sol\":1344:1673  Campaign({... */\n      dup2\n      mstore\n      0x20\n      add\n        /* \"contracts/crowdfunding.sol\":1481:1491  _startDate */\n      dup7\n        /* \"contracts/crowdfunding.sol\":1344:1673  Campaign({... */\n      dup2\n      mstore\n      0x20\n      add\n        /* \"contracts/crowdfunding.sol\":1515:1523  _endDate */\n      dup6\n        /* \"contracts/crowdfunding.sol\":1344:1673  Campaign({... */\n      dup2\n      mstore\n      0x20\n      add\n        /* \"contracts/crowdfunding.sol\":1551:1563  _fundingDate */\n      dup5\n        /* \"contracts/crowdfunding.sol\":1344:1673  Campaign({... */\n      dup2\n      mstore\n      0x20\n      add\n        /* \"contracts/crowdfunding.sol\":1590:1601  _goalAmount */\n      dup4\n        /* \"contracts/crowdfunding.sol\":1344:1673  Campaign({... */\n      dup2\n      mstore\n      0x20\n      add\n        /* \"contracts/crowdfunding.sol\":1631:1632  0 */\n      0x00\n        /* \"contracts/crowdfunding.sol\":1344:1673  Campaign({... */\n      dup2\n      mstore\n      0x20\n      add\n        /* \"contracts/crowdfunding.sol\":1657:1661  true */\n      0x01\n        /* \"contracts/crowdfunding.sol\":1344:1673  Campaign({... */\n      iszero\n      iszero\n      dup2\n      mstore\n      pop\n        /* \"contracts/crowdfunding.sol\":1314:1673  Campaign memory newCampaign = Campaign({... */\n      swap1\n      pop\n        /* \"contracts/crowdfunding.sol\":1686:1695  campaigns */\n      0x01\n        /* \"contracts/crowdfunding.sol\":1701:1712  newCampaign */\n      dup2\n        /* \"contracts/crowdfunding.sol\":1686:1713  campaigns.push(newCampaign) */\n      swap1\n      dup1\n      0x01\n      dup2\n      sload\n      add\n      dup1\n      dup3\n      sstore\n      dup1\n      swap2\n      pop\n      pop\n      0x01\n      swap1\n      sub\n      swap1\n      0x00\n      mstore\n      keccak256(0x00, 0x20)\n      swap1\n      0x09\n      mul\n      add\n      0x00\n      swap1\n      swap2\n      swap1\n      swap2\n      swap1\n      swap2\n      pop\n      0x00\n      dup3\n      add\n      mload\n      dup2\n      0x00\n      add\n      exp(0x0100, 0x00)\n      dup2\n      sload\n      dup2\n      0xffffffffffffffffffffffffffffffffffffffff\n      mul\n      not\n      and\n      swap1\n      dup4\n      0xffffffffffffffffffffffffffffffffffffffff\n      and\n      mul\n      or\n      swap1\n      sstore\n      pop\n      0x20\n      dup3\n      add\n      mload\n      dup2\n      0x01\n      add\n      swap1\n      dup2\n      tag_69\n      swap2\n      swap1\n      tag_70\n      jump\t// in\n    tag_69:\n      pop\n      0x40\n      dup3\n      add\n      mload\n      dup2\n      0x02\n      add\n      swap1\n      dup2\n      tag_71\n      swap2\n      swap1\n      tag_70\n      jump\t// in\n    tag_71:\n      pop\n      0x60\n      dup3\n      add\n      mload\n      dup2\n      0x03\n      add\n      sstore\n      0x80\n      dup3\n      add\n      mload\n      dup2\n      0x04\n      add\n      sstore\n      0xa0\n      dup3\n      add\n      mload\n      dup2\n      0x05\n      add\n      sstore\n      0xc0\n      dup3\n      add\n      mload\n      dup2\n      0x06\n      add\n      sstore\n      0xe0\n      dup3\n      add\n      mload\n      dup2\n      0x07\n      add\n      sstore\n      0x0100\n      dup3\n      add\n      mload\n      dup2\n      0x08\n      add\n      exp(0x0100, 0x00)\n      dup2\n      sload\n      dup2\n      0xff\n      mul\n      not\n      and\n      swap1\n      dup4\n      iszero\n      iszero\n      mul\n      or\n      swap1\n      sstore\n      pop\n      pop\n      pop\n        /* \"contracts/crowdfunding.sol\":1767:1777  msg.sender */\n      caller\n        /* \"contracts/crowdfunding.sol\":1729:1778  CampaignCreated(campaigns.length - 1, msg.sender) */\n      0xffffffffffffffffffffffffffffffffffffffff\n      and\n        /* \"contracts/crowdfunding.sol\":1764:1765  1 */\n      0x01\n        /* \"contracts/crowdfunding.sol\":1745:1754  campaigns */\n      dup1\n        /* \"contracts/crowdfunding.sol\":1745:1761  campaigns.length */\n      dup1\n      sload\n      swap1\n      pop\n        /* \"contracts/crowdfunding.sol\":1745:1765  campaigns.length - 1 */\n      tag_72\n      swap2\n      swap1\n      tag_73\n      jump\t// in\n    tag_72:\n        /* \"contracts/crowdfunding.sol\":1729:1778  CampaignCreated(campaigns.length - 1, msg.sender) */\n      0x633109eec20320eded000fc1e2634211aa7e92ba3f5b15faf6dcdafca05094e4\n      mload(0x40)\n      mload(0x40)\n      dup1\n      swap2\n      sub\n      swap1\n      log3\n        /* \"contracts/crowdfunding.sol\":1813:1821  _endDate */\n      dup4\n        /* \"contracts/crowdfunding.sol\":1795:1810  block.timestamp */\n      timestamp\n        /* \"contracts/crowdfunding.sol\":1795:1821  block.timestamp > _endDate */\n      gt\n        /* \"contracts/crowdfunding.sol\":1791:1898  if (block.timestamp > _endDate) {... */\n      iszero\n      tag_74\n      jumpi\n        /* \"contracts/crowdfunding.sol\":1881:1886  false */\n      0x00\n        /* \"contracts/crowdfunding.sol\":1838:1847  campaigns */\n      0x01\n        /* \"contracts/crowdfunding.sol\":1867:1868  1 */\n      dup1\n        /* \"contracts/crowdfunding.sol\":1848:1857  campaigns */\n      dup1\n        /* \"contracts/crowdfunding.sol\":1848:1864  campaigns.length */\n      dup1\n      sload\n      swap1\n      pop\n        /* \"contracts/crowdfunding.sol\":1848:1868  campaigns.length - 1 */\n      tag_75\n      swap2\n      swap1\n      tag_73\n      jump\t// in\n    tag_75:\n        /* \"contracts/crowdfunding.sol\":1838:1869  campaigns[campaigns.length - 1] */\n      dup2\n      sload\n      dup2\n      lt\n      tag_76\n      jumpi\n      tag_77\n      tag_45\n      jump\t// in\n    tag_77:\n    tag_76:\n      swap1\n      0x00\n      mstore\n      keccak256(0x00, 0x20)\n      swap1\n      0x09\n      mul\n      add\n        /* \"contracts/crowdfunding.sol\":1838:1878  campaigns[campaigns.length - 1].isActive */\n      0x08\n      add\n      0x00\n        /* \"contracts/crowdfunding.sol\":1838:1886  campaigns[campaigns.length - 1].isActive = false */\n      0x0100\n      exp\n      dup2\n      sload\n      dup2\n      0xff\n      mul\n      not\n      and\n      swap1\n      dup4\n      iszero\n      iszero\n      mul\n      or\n      swap1\n      sstore\n      pop\n        /* \"contracts/crowdfunding.sol\":1791:1898  if (block.timestamp > _endDate) {... */\n    tag_74:\n        /* \"contracts/crowdfunding.sol\":1203:1988  {... */\n      pop\n        /* \"contracts/crowdfunding.sol\":992:1988  function createCampaign(... */\n      pop\n      pop\n      pop\n      pop\n      pop\n      pop\n      jump\t// out\n        /* \"contracts/crowdfunding.sol\":1996:2505  function fundCampaign(uint _campaignId) public payable onlyActiveCampaign(_campaignId) {... */\n    tag_33:\n        /* \"contracts/crowdfunding.sol\":2070:2081  _campaignId */\n      dup1\n        /* \"contracts/crowdfunding.sol\":906:915  campaigns */\n      0x01\n        /* \"contracts/crowdfunding.sol\":916:927  _campaignId */\n      dup2\n        /* \"contracts/crowdfunding.sol\":906:928  campaigns[_campaignId] */\n      dup2\n      sload\n      dup2\n      lt\n      tag_80\n      jumpi\n      tag_81\n      tag_45\n      jump\t// in\n    tag_81:\n    tag_80:\n      swap1\n      0x00\n      mstore\n      keccak256(0x00, 0x20)\n      swap1\n      0x09\n      mul\n      add\n        /* \"contracts/crowdfunding.sol\":906:937  campaigns[_campaignId].isActive */\n      0x08\n      add\n      0x00\n      swap1\n      sload\n      swap1\n      0x0100\n      exp\n      swap1\n      div\n      0xff\n      and\n        /* \"contracts/crowdfunding.sol\":898:964  require(campaigns[_campaignId].isActive, \"Campaign is not active\") */\n      tag_83\n      jumpi\n      mload(0x40)\n      0x08c379a000000000000000000000000000000000000000000000000000000000\n      dup2\n      mstore\n      0x04\n      add\n      tag_84\n      swap1\n      tag_85\n      jump\t// in\n    tag_84:\n      mload(0x40)\n      dup1\n      swap2\n      sub\n      swap1\n      revert\n    tag_83:\n        /* \"contracts/crowdfunding.sol\":2114:2115  0 */\n      0x00\n        /* \"contracts/crowdfunding.sol\":2102:2111  msg.value */\n      callvalue\n        /* \"contracts/crowdfunding.sol\":2102:2115  msg.value > 0 */\n      gt\n        /* \"contracts/crowdfunding.sol\":2094:2157  require(msg.value > 0, \"Funding amount must be greater than 0\") */\n      tag_87\n      jumpi\n      mload(0x40)\n      0x08c379a000000000000000000000000000000000000000000000000000000000\n      dup2\n      mstore\n      0x04\n      add\n      tag_88\n      swap1\n      tag_89\n      jump\t// in\n    tag_88:\n      mload(0x40)\n      dup1\n      swap2\n      sub\n      swap1\n      revert\n    tag_87:\n        /* \"contracts/crowdfunding.sol\":2190:2199  campaigns */\n      0x01\n        /* \"contracts/crowdfunding.sol\":2200:2211  _campaignId */\n      dup3\n        /* \"contracts/crowdfunding.sol\":2190:2212  campaigns[_campaignId] */\n      dup2\n      sload\n      dup2\n      lt\n      tag_90\n      jumpi\n      tag_91\n      tag_45\n      jump\t// in\n    tag_91:\n    tag_90:\n      swap1\n      0x00\n      mstore\n      keccak256(0x00, 0x20)\n      swap1\n      0x09\n      mul\n      add\n        /* \"contracts/crowdfunding.sol\":2190:2220  campaigns[_campaignId].creator */\n      0x00\n      add\n      0x00\n      swap1\n      sload\n      swap1\n      0x0100\n      exp\n      swap1\n      div\n      0xffffffffffffffffffffffffffffffffffffffff\n      and\n        /* \"contracts/crowdfunding.sol\":2176:2220  msg.sender != campaigns[_campaignId].creator */\n      0xffffffffffffffffffffffffffffffffffffffff\n      and\n        /* \"contracts/crowdfunding.sol\":2176:2186  msg.sender */\n      caller\n        /* \"contracts/crowdfunding.sol\":2176:2220  msg.sender != campaigns[_campaignId].creator */\n      0xffffffffffffffffffffffffffffffffffffffff\n      and\n      sub\n        /* \"contracts/crowdfunding.sol\":2168:2272  require(msg.sender != campaigns[_campaignId].creator, \"Campaign creator cannot fund their own campaign\") */\n      tag_93\n      jumpi\n      mload(0x40)\n      0x08c379a000000000000000000000000000000000000000000000000000000000\n      dup2\n      mstore\n      0x04\n      add\n      tag_94\n      swap1\n      tag_95\n      jump\t// in\n    tag_94:\n      mload(0x40)\n      dup1\n      swap2\n      sub\n      swap1\n      revert\n    tag_93:\n        /* \"contracts/crowdfunding.sol\":2321:2330  msg.value */\n      callvalue\n        /* \"contracts/crowdfunding.sol\":2285:2292  funders */\n      0x00\n        /* \"contracts/crowdfunding.sol\":2285:2305  funders[_campaignId] */\n      dup1\n        /* \"contracts/crowdfunding.sol\":2293:2304  _campaignId */\n      dup5\n        /* \"contracts/crowdfunding.sol\":2285:2305  funders[_campaignId] */\n      dup2\n      mstore\n      0x20\n      add\n      swap1\n      dup2\n      mstore\n      0x20\n      add\n      0x00\n      keccak256\n        /* \"contracts/crowdfunding.sol\":2285:2317  funders[_campaignId][msg.sender] */\n      0x00\n        /* \"contracts/crowdfunding.sol\":2306:2316  msg.sender */\n      caller\n        /* \"contracts/crowdfunding.sol\":2285:2317  funders[_campaignId][msg.sender] */\n      0xffffffffffffffffffffffffffffffffffffffff\n      and\n      0xffffffffffffffffffffffffffffffffffffffff\n      and\n      dup2\n      mstore\n      0x20\n      add\n      swap1\n      dup2\n      mstore\n      0x20\n      add\n      0x00\n      keccak256\n      0x00\n        /* \"contracts/crowdfunding.sol\":2285:2330  funders[_campaignId][msg.sender] += msg.value */\n      dup3\n      dup3\n      sload\n      tag_96\n      swap2\n      swap1\n      tag_97\n      jump\t// in\n    tag_96:\n      swap3\n      pop\n      pop\n      dup2\n      swap1\n      sstore\n      pop\n        /* \"contracts/crowdfunding.sol\":2418:2427  msg.value */\n      callvalue\n        /* \"contracts/crowdfunding.sol\":2378:2387  campaigns */\n      0x01\n        /* \"contracts/crowdfunding.sol\":2388:2399  _campaignId */\n      dup4\n        /* \"contracts/crowdfunding.sol\":2378:2400  campaigns[_campaignId] */\n      dup2\n      sload\n      dup2\n      lt\n      tag_98\n      jumpi\n      tag_99\n      tag_45\n      jump\t// in\n    tag_99:\n    tag_98:\n      swap1\n      0x00\n      mstore\n      keccak256(0x00, 0x20)\n      swap1\n      0x09\n      mul\n      add\n        /* \"contracts/crowdfunding.sol\":2378:2414  campaigns[_campaignId].currentAmount */\n      0x07\n      add\n      0x00\n        /* \"contracts/crowdfunding.sol\":2378:2427  campaigns[_campaignId].currentAmount += msg.value */\n      dup3\n      dup3\n      sload\n      tag_101\n      swap2\n      swap1\n      tag_97\n      jump\t// in\n    tag_101:\n      swap3\n      pop\n      pop\n      dup2\n      swap1\n      sstore\n      pop\n        /* \"contracts/crowdfunding.sol\":2475:2485  msg.sender */\n      caller\n        /* \"contracts/crowdfunding.sol\":2453:2497  FundedBy(_campaignId, msg.sender, msg.value) */\n      0xffffffffffffffffffffffffffffffffffffffff\n      and\n        /* \"contracts/crowdfunding.sol\":2462:2473  _campaignId */\n      dup3\n        /* \"contracts/crowdfunding.sol\":2453:2497  FundedBy(_campaignId, msg.sender, msg.value) */\n      0x9467b5729ed64e1dcd6030241a31a201c82b464b858fcbfbdb375bec6830447f\n        /* \"contracts/crowdfunding.sol\":2487:2496  msg.value */\n      callvalue\n        /* \"contracts/crowdfunding.sol\":2453:2497  FundedBy(_campaignId, msg.sender, msg.value) */\n      mload(0x40)\n      tag_102\n      swap2\n      swap1\n      tag_12\n      jump\t// in\n    tag_102:\n      mload(0x40)\n      dup1\n      swap2\n      sub\n      swap1\n      log3\n        /* \"contracts/crowdfunding.sol\":1996:2505  function fundCampaign(uint _campaignId) public payable onlyActiveCampaign(_campaignId) {... */\n      pop\n      pop\n      jump\t// out\n        /* \"contracts/crowdfunding.sol\":2513:3227  function getCampaignDetails(uint _campaignId) public view returns (... */\n    tag_37:\n        /* \"contracts/crowdfunding.sol\":2590:2605  address creator */\n      0x00\n        /* \"contracts/crowdfunding.sol\":2616:2635  string memory cause */\n      0x60\n        /* \"contracts/crowdfunding.sol\":2646:2671  string memory futurePlans */\n      dup1\n        /* \"contracts/crowdfunding.sol\":2682:2696  uint startDate */\n      0x00\n        /* \"contracts/crowdfunding.sol\":2707:2719  uint endDate */\n      dup1\n        /* \"contracts/crowdfunding.sol\":2730:2746  uint fundingDate */\n      0x00\n        /* \"contracts/crowdfunding.sol\":2757:2772  uint goalAmount */\n      dup1\n        /* \"contracts/crowdfunding.sol\":2783:2801  uint currentAmount */\n      0x00\n        /* \"contracts/crowdfunding.sol\":2812:2825  bool isActive */\n      dup1\n        /* \"contracts/crowdfunding.sol\":2844:2868  Campaign memory campaign */\n      0x00\n        /* \"contracts/crowdfunding.sol\":2871:2880  campaigns */\n      0x01\n        /* \"contracts/crowdfunding.sol\":2881:2892  _campaignId */\n      dup12\n        /* \"contracts/crowdfunding.sol\":2871:2893  campaigns[_campaignId] */\n      dup2\n      sload\n      dup2\n      lt\n      tag_104\n      jumpi\n      tag_105\n      tag_45\n      jump\t// in\n    tag_105:\n    tag_104:\n      swap1\n      0x00\n      mstore\n      keccak256(0x00, 0x20)\n      swap1\n      0x09\n      mul\n      add\n        /* \"contracts/crowdfunding.sol\":2844:2893  Campaign memory campaign = campaigns[_campaignId] */\n      mload(0x40)\n      dup1\n      0x0120\n      add\n      0x40\n      mstore\n      swap1\n      dup2\n      0x00\n      dup3\n      add\n      0x00\n      swap1\n      sload\n      swap1\n      0x0100\n      exp\n      swap1\n      div\n      0xffffffffffffffffffffffffffffffffffffffff\n      and\n      0xffffffffffffffffffffffffffffffffffffffff\n      and\n      0xffffffffffffffffffffffffffffffffffffffff\n      and\n      dup2\n      mstore\n      0x20\n      add\n      0x01\n      dup3\n      add\n      dup1\n      sload\n      tag_107\n      swap1\n      tag_54\n      jump\t// in\n    tag_107:\n      dup1\n      0x1f\n      add\n      0x20\n      dup1\n      swap2\n      div\n      mul\n      0x20\n      add\n      mload(0x40)\n      swap1\n      dup2\n      add\n      0x40\n      mstore\n      dup1\n      swap3\n      swap2\n      swap1\n      dup2\n      dup2\n      mstore\n      0x20\n      add\n      dup3\n      dup1\n      sload\n      tag_108\n      swap1\n      tag_54\n      jump\t// in\n    tag_108:\n      dup1\n      iszero\n      tag_109\n      jumpi\n      dup1\n      0x1f\n      lt\n      tag_110\n      jumpi\n      0x0100\n      dup1\n      dup4\n      sload\n      div\n      mul\n      dup4\n      mstore\n      swap2\n      0x20\n      add\n      swap2\n      jump(tag_109)\n    tag_110:\n      dup3\n      add\n      swap2\n      swap1\n      0x00\n      mstore\n      keccak256(0x00, 0x20)\n      swap1\n    tag_111:\n      dup2\n      sload\n      dup2\n      mstore\n      swap1\n      0x01\n      add\n      swap1\n      0x20\n      add\n      dup1\n      dup4\n      gt\n      tag_111\n      jumpi\n      dup3\n      swap1\n      sub\n      0x1f\n      and\n      dup3\n      add\n      swap2\n    tag_109:\n      pop\n      pop\n      pop\n      pop\n      pop\n      dup2\n      mstore\n      0x20\n      add\n      0x02\n      dup3\n      add\n      dup1\n      sload\n      tag_112\n      swap1\n      tag_54\n      jump\t// in\n    tag_112:\n      dup1\n      0x1f\n      add\n      0x20\n      dup1\n      swap2\n      div\n      mul\n      0x20\n      add\n      mload(0x40)\n      swap1\n      dup2\n      add\n      0x40\n      mstore\n      dup1\n      swap3\n      swap2\n      swap1\n      dup2\n      dup2\n      mstore\n      0x20\n      add\n      dup3\n      dup1\n      sload\n      tag_113\n      swap1\n      tag_54\n      jump\t// in\n    tag_113:\n      dup1\n      iszero\n      tag_114\n      jumpi\n      dup1\n      0x1f\n      lt\n      tag_115\n      jumpi\n      0x0100\n      dup1\n      dup4\n      sload\n      div\n      mul\n      dup4\n      mstore\n      swap2\n      0x20\n      add\n      swap2\n      jump(tag_114)\n    tag_115:\n      dup3\n      add\n      swap2\n      swap1\n      0x00\n      mstore\n      keccak256(0x00, 0x20)\n      swap1\n    tag_116:\n      dup2\n      sload\n      dup2\n      mstore\n      swap1\n      0x01\n      add\n      swap1\n      0x20\n      add\n      dup1\n      dup4\n      gt\n      tag_116\n      jumpi\n      dup3\n      swap1\n      sub\n      0x1f\n      and\n      dup3\n      add\n      swap2\n    tag_114:\n      pop\n      pop\n      pop\n      pop\n      pop\n      dup2\n      mstore\n      0x20\n      add\n      0x03\n      dup3\n      add\n      sload\n      dup2\n      mstore\n      0x20\n      add\n      0x04\n      dup3\n      add\n      sload\n      dup2\n      mstore\n      0x20\n      add\n      0x05\n      dup3\n      add\n      sload\n      dup2\n      mstore\n      0x20\n      add\n      0x06\n      dup3\n      add\n      sload\n      dup2\n      mstore\n      0x20\n      add\n      0x07\n      dup3\n      add\n      sload\n      dup2\n      mstore\n      0x20\n      add\n      0x08\n      dup3\n      add\n      0x00\n      swap1\n      sload\n      swap1\n      0x0100\n      exp\n      swap1\n      div\n      0xff\n      and\n      iszero\n      iszero\n      iszero\n      iszero\n      dup2\n      mstore\n      pop\n      pop\n      swap1\n      pop\n        /* \"contracts/crowdfunding.sol\":2926:2934  campaign */\n      dup1\n        /* \"contracts/crowdfunding.sol\":2926:2942  campaign.creator */\n      0x00\n      add\n      mload\n        /* \"contracts/crowdfunding.sol\":2957:2965  campaign */\n      dup2\n        /* \"contracts/crowdfunding.sol\":2957:2971  campaign.cause */\n      0x20\n      add\n      mload\n        /* \"contracts/crowdfunding.sol\":2986:2994  campaign */\n      dup3\n        /* \"contracts/crowdfunding.sol\":2986:3006  campaign.futurePlans */\n      0x40\n      add\n      mload\n        /* \"contracts/crowdfunding.sol\":3021:3029  campaign */\n      dup4\n        /* \"contracts/crowdfunding.sol\":3021:3039  campaign.startDate */\n      0x60\n      add\n      mload\n        /* \"contracts/crowdfunding.sol\":3054:3062  campaign */\n      dup5\n        /* \"contracts/crowdfunding.sol\":3054:3070  campaign.endDate */\n      0x80\n      add\n      mload\n        /* \"contracts/crowdfunding.sol\":3085:3093  campaign */\n      dup6\n        /* \"contracts/crowdfunding.sol\":3085:3105  campaign.fundingDate */\n      0xa0\n      add\n      mload\n        /* \"contracts/crowdfunding.sol\":3120:3128  campaign */\n      dup7\n        /* \"contracts/crowdfunding.sol\":3120:3139  campaign.goalAmount */\n      0xc0\n      add\n      mload\n        /* \"contracts/crowdfunding.sol\":3154:3162  campaign */\n      dup8\n        /* \"contracts/crowdfunding.sol\":3154:3176  campaign.currentAmount */\n      0xe0\n      add\n      mload\n        /* \"contracts/crowdfunding.sol\":3191:3199  campaign */\n      dup9\n        /* \"contracts/crowdfunding.sol\":3191:3208  campaign.isActive */\n      0x0100\n      add\n      mload\n        /* \"contracts/crowdfunding.sol\":2904:3219  return (... */\n      swap10\n      pop\n      swap10\n      pop\n      swap10\n      pop\n      swap10\n      pop\n      swap10\n      pop\n      swap10\n      pop\n      swap10\n      pop\n      swap10\n      pop\n      swap10\n      pop\n      pop\n        /* \"contracts/crowdfunding.sol\":2513:3227  function getCampaignDetails(uint _campaignId) public view returns (... */\n      swap2\n      swap4\n      swap6\n      swap8\n      swap10\n      swap1\n      swap3\n      swap5\n      swap7\n      swap9\n      pop\n      jump\t// out\n        /* \"#utility.yul\":7:84   */\n    tag_117:\n        /* \"#utility.yul\":44:51   */\n      0x00\n        /* \"#utility.yul\":73:78   */\n      dup2\n        /* \"#utility.yul\":62:78   */\n      swap1\n      pop\n        /* \"#utility.yul\":7:84   */\n      swap2\n      swap1\n      pop\n      jump\t// out\n        /* \"#utility.yul\":90:208   */\n    tag_118:\n        /* \"#utility.yul\":177:201   */\n      tag_173\n        /* \"#utility.yul\":195:200   */\n      dup2\n        /* \"#utility.yul\":177:201   */\n      tag_117\n      jump\t// in\n    tag_173:\n        /* \"#utility.yul\":172:175   */\n      dup3\n        /* \"#utility.yul\":165:202   */\n      mstore\n        /* \"#utility.yul\":90:208   */\n      pop\n      pop\n      jump\t// out\n        /* \"#utility.yul\":214:436   */\n    tag_12:\n        /* \"#utility.yul\":307:311   */\n      0x00\n        /* \"#utility.yul\":345:347   */\n      0x20\n        /* \"#utility.yul\":334:343   */\n      dup3\n        /* \"#utility.yul\":330:348   */\n      add\n        /* \"#utility.yul\":322:348   */\n      swap1\n      pop\n        /* \"#utility.yul\":358:429   */\n      tag_175\n        /* \"#utility.yul\":426:427   */\n      0x00\n        /* \"#utility.yul\":415:424   */\n      dup4\n        /* \"#utility.yul\":411:428   */\n      add\n        /* \"#utility.yul\":402:408   */\n      dup5\n        /* \"#utility.yul\":358:429   */\n      tag_118\n      jump\t// in\n    tag_175:\n        /* \"#utility.yul\":214:436   */\n      swap3\n      swap2\n      pop\n      pop\n      jump\t// out\n        /* \"#utility.yul\":442:517   */\n    tag_119:\n        /* \"#utility.yul\":475:481   */\n      0x00\n        /* \"#utility.yul\":508:510   */\n      0x40\n        /* \"#utility.yul\":502:511   */\n      mload\n        /* \"#utility.yul\":492:511   */\n      swap1\n      pop\n        /* \"#utility.yul\":442:517   */\n      swap1\n      jump\t// out\n        /* \"#utility.yul\":523:640   */\n    tag_120:\n        /* \"#utility.yul\":632:633   */\n      0x00\n        /* \"#utility.yul\":629:630   */\n      dup1\n        /* \"#utility.yul\":622:634   */\n      revert\n        /* \"#utility.yul\":646:763   */\n    tag_121:\n        /* \"#utility.yul\":755:756   */\n      0x00\n        /* \"#utility.yul\":752:753   */\n      dup1\n        /* \"#utility.yul\":745:757   */\n      revert\n        /* \"#utility.yul\":769:891   */\n    tag_122:\n        /* \"#utility.yul\":842:866   */\n      tag_180\n        /* \"#utility.yul\":860:865   */\n      dup2\n        /* \"#utility.yul\":842:866   */\n      tag_117\n      jump\t// in\n    tag_180:\n        /* \"#utility.yul\":835:840   */\n      dup2\n        /* \"#utility.yul\":832:867   */\n      eq\n        /* \"#utility.yul\":822:885   */\n      tag_181\n      jumpi\n        /* \"#utility.yul\":881:882   */\n      0x00\n        /* \"#utility.yul\":878:879   */\n      dup1\n        /* \"#utility.yul\":871:883   */\n      revert\n        /* \"#utility.yul\":822:885   */\n    tag_181:\n        /* \"#utility.yul\":769:891   */\n      pop\n      jump\t// out\n        /* \"#utility.yul\":897:1036   */\n    tag_123:\n        /* \"#utility.yul\":943:948   */\n      0x00\n        /* \"#utility.yul\":981:987   */\n      dup2\n        /* \"#utility.yul\":968:988   */\n      calldataload\n        /* \"#utility.yul\":959:988   */\n      swap1\n      pop\n        /* \"#utility.yul\":997:1030   */\n      tag_183\n        /* \"#utility.yul\":1024:1029   */\n      dup2\n        /* \"#utility.yul\":997:1030   */\n      tag_122\n      jump\t// in\n    tag_183:\n        /* \"#utility.yul\":897:1036   */\n      swap3\n      swap2\n      pop\n      pop\n      jump\t// out\n        /* \"#utility.yul\":1042:1371   */\n    tag_16:\n        /* \"#utility.yul\":1101:1107   */\n      0x00\n        /* \"#utility.yul\":1150:1152   */\n      0x20\n        /* \"#utility.yul\":1138:1147   */\n      dup3\n        /* \"#utility.yul\":1129:1136   */\n      dup5\n        /* \"#utility.yul\":1125:1148   */\n      sub\n        /* \"#utility.yul\":1121:1153   */\n      slt\n        /* \"#utility.yul\":1118:1237   */\n      iszero\n      tag_185\n      jumpi\n        /* \"#utility.yul\":1156:1235   */\n      tag_186\n      tag_120\n      jump\t// in\n    tag_186:\n        /* \"#utility.yul\":1118:1237   */\n    tag_185:\n        /* \"#utility.yul\":1276:1277   */\n      0x00\n        /* \"#utility.yul\":1301:1354   */\n      tag_187\n        /* \"#utility.yul\":1346:1353   */\n      dup5\n        /* \"#utility.yul\":1337:1343   */\n      dup3\n        /* \"#utility.yul\":1326:1335   */\n      dup6\n        /* \"#utility.yul\":1322:1344   */\n      add\n        /* \"#utility.yul\":1301:1354   */\n      tag_123\n      jump\t// in\n    tag_187:\n        /* \"#utility.yul\":1291:1354   */\n      swap2\n      pop\n        /* \"#utility.yul\":1247:1364   */\n      pop\n        /* \"#utility.yul\":1042:1371   */\n      swap3\n      swap2\n      pop\n      pop\n      jump\t// out\n        /* \"#utility.yul\":1377:1503   */\n    tag_124:\n        /* \"#utility.yul\":1414:1421   */\n      0x00\n        /* \"#utility.yul\":1454:1496   */\n      0xffffffffffffffffffffffffffffffffffffffff\n        /* \"#utility.yul\":1447:1452   */\n      dup3\n        /* \"#utility.yul\":1443:1497   */\n      and\n        /* \"#utility.yul\":1432:1497   */\n      swap1\n      pop\n        /* \"#utility.yul\":1377:1503   */\n      swap2\n      swap1\n      pop\n      jump\t// out\n        /* \"#utility.yul\":1509:1605   */\n    tag_125:\n        /* \"#utility.yul\":1546:1553   */\n      0x00\n        /* \"#utility.yul\":1575:1599   */\n      tag_190\n        /* \"#utility.yul\":1593:1598   */\n      dup3\n        /* \"#utility.yul\":1575:1599   */\n      tag_124\n      jump\t// in\n    tag_190:\n        /* \"#utility.yul\":1564:1599   */\n      swap1\n      pop\n        /* \"#utility.yul\":1509:1605   */\n      swap2\n      swap1\n      pop\n      jump\t// out\n        /* \"#utility.yul\":1611:1729   */\n    tag_126:\n        /* \"#utility.yul\":1698:1722   */\n      tag_192\n        /* \"#utility.yul\":1716:1721   */\n      dup2\n        /* \"#utility.yul\":1698:1722   */\n      tag_125\n      jump\t// in\n    tag_192:\n        /* \"#utility.yul\":1693:1696   */\n      dup3\n        /* \"#utility.yul\":1686:1723   */\n      mstore\n        /* \"#utility.yul\":1611:1729   */\n      pop\n      pop\n      jump\t// out\n        /* \"#utility.yul\":1735:1834   */\n    tag_127:\n        /* \"#utility.yul\":1787:1793   */\n      0x00\n        /* \"#utility.yul\":1821:1826   */\n      dup2\n        /* \"#utility.yul\":1815:1827   */\n      mload\n        /* \"#utility.yul\":1805:1827   */\n      swap1\n      pop\n        /* \"#utility.yul\":1735:1834   */\n      swap2\n      swap1\n      pop\n      jump\t// out\n        /* \"#utility.yul\":1840:2009   */\n    tag_128:\n        /* \"#utility.yul\":1924:1935   */\n      0x00\n        /* \"#utility.yul\":1958:1964   */\n      dup3\n        /* \"#utility.yul\":1953:1956   */\n      dup3\n        /* \"#utility.yul\":1946:1965   */\n      mstore\n        /* \"#utility.yul\":1998:2002   */\n      0x20\n        /* \"#utility.yul\":1993:1996   */\n      dup3\n        /* \"#utility.yul\":1989:2003   */\n      add\n        /* \"#utility.yul\":1974:2003   */\n      swap1\n      pop\n        /* \"#utility.yul\":1840:2009   */\n      swap3\n      swap2\n      pop\n      pop\n      jump\t// out\n        /* \"#utility.yul\":2015:2261   */\n    tag_129:\n        /* \"#utility.yul\":2096:2097   */\n      0x00\n        /* \"#utility.yul\":2106:2219   */\n    tag_196:\n        /* \"#utility.yul\":2120:2126   */\n      dup4\n        /* \"#utility.yul\":2117:2118   */\n      dup2\n        /* \"#utility.yul\":2114:2127   */\n      lt\n        /* \"#utility.yul\":2106:2219   */\n      iszero\n      tag_198\n      jumpi\n        /* \"#utility.yul\":2205:2206   */\n      dup1\n        /* \"#utility.yul\":2200:2203   */\n      dup3\n        /* \"#utility.yul\":2196:2207   */\n      add\n        /* \"#utility.yul\":2190:2208   */\n      mload\n        /* \"#utility.yul\":2186:2187   */\n      dup2\n        /* \"#utility.yul\":2181:2184   */\n      dup5\n        /* \"#utility.yul\":2177:2188   */\n      add\n        /* \"#utility.yul\":2170:2209   */\n      mstore\n        /* \"#utility.yul\":2142:2144   */\n      0x20\n        /* \"#utility.yul\":2139:2140   */\n      dup2\n        /* \"#utility.yul\":2135:2145   */\n      add\n        /* \"#utility.yul\":2130:2145   */\n      swap1\n      pop\n        /* \"#utility.yul\":2106:2219   */\n      jump(tag_196)\n    tag_198:\n        /* \"#utility.yul\":2253:2254   */\n      0x00\n        /* \"#utility.yul\":2244:2250   */\n      dup5\n        /* \"#utility.yul\":2239:2242   */\n      dup5\n        /* \"#utility.yul\":2235:2251   */\n      add\n        /* \"#utility.yul\":2228:2255   */\n      mstore\n        /* \"#utility.yul\":2077:2261   */\n      pop\n        /* \"#utility.yul\":2015:2261   */\n      pop\n      pop\n      pop\n      jump\t// out\n        /* \"#utility.yul\":2267:2369   */\n    tag_130:\n        /* \"#utility.yul\":2308:2314   */\n      0x00\n        /* \"#utility.yul\":2359:2361   */\n      0x1f\n        /* \"#utility.yul\":2355:2362   */\n      not\n        /* \"#utility.yul\":2350:2352   */\n      0x1f\n        /* \"#utility.yul\":2343:2348   */\n      dup4\n        /* \"#utility.yul\":2339:2353   */\n      add\n        /* \"#utility.yul\":2335:2363   */\n      and\n        /* \"#utility.yul\":2325:2363   */\n      swap1\n      pop\n        /* \"#utility.yul\":2267:2369   */\n      swap2\n      swap1\n      pop\n      jump\t// out\n        /* \"#utility.yul\":2375:2752   */\n    tag_131:\n        /* \"#utility.yul\":2463:2466   */\n      0x00\n        /* \"#utility.yul\":2491:2530   */\n      tag_201\n        /* \"#utility.yul\":2524:2529   */\n      dup3\n        /* \"#utility.yul\":2491:2530   */\n      tag_127\n      jump\t// in\n    tag_201:\n        /* \"#utility.yul\":2546:2617   */\n      tag_202\n        /* \"#utility.yul\":2610:2616   */\n      dup2\n        /* \"#utility.yul\":2605:2608   */\n      dup6\n        /* \"#utility.yul\":2546:2617   */\n      tag_128\n      jump\t// in\n    tag_202:\n        /* \"#utility.yul\":2539:2617   */\n      swap4\n      pop\n        /* \"#utility.yul\":2626:2691   */\n      tag_203\n        /* \"#utility.yul\":2684:2690   */\n      dup2\n        /* \"#utility.yul\":2679:2682   */\n      dup6\n        /* \"#utility.yul\":2672:2676   */\n      0x20\n        /* \"#utility.yul\":2665:2670   */\n      dup7\n        /* \"#utility.yul\":2661:2677   */\n      add\n        /* \"#utility.yul\":2626:2691   */\n      tag_129\n      jump\t// in\n    tag_203:\n        /* \"#utility.yul\":2716:2745   */\n      tag_204\n        /* \"#utility.yul\":2738:2744   */\n      dup2\n        /* \"#utility.yul\":2716:2745   */\n      tag_130\n      jump\t// in\n    tag_204:\n        /* \"#utility.yul\":2711:2714   */\n      dup5\n        /* \"#utility.yul\":2707:2746   */\n      add\n        /* \"#utility.yul\":2700:2746   */\n      swap2\n      pop\n        /* \"#utility.yul\":2467:2752   */\n      pop\n        /* \"#utility.yul\":2375:2752   */\n      swap3\n      swap2\n      pop\n      pop\n      jump\t// out\n        /* \"#utility.yul\":2758:2848   */\n    tag_132:\n        /* \"#utility.yul\":2792:2799   */\n      0x00\n        /* \"#utility.yul\":2835:2840   */\n      dup2\n        /* \"#utility.yul\":2828:2841   */\n      iszero\n        /* \"#utility.yul\":2821:2842   */\n      iszero\n        /* \"#utility.yul\":2810:2842   */\n      swap1\n      pop\n        /* \"#utility.yul\":2758:2848   */\n      swap2\n      swap1\n      pop\n      jump\t// out\n        /* \"#utility.yul\":2854:2963   */\n    tag_133:\n        /* \"#utility.yul\":2935:2956   */\n      tag_207\n        /* \"#utility.yul\":2950:2955   */\n      dup2\n        /* \"#utility.yul\":2935:2956   */\n      tag_132\n      jump\t// in\n    tag_207:\n        /* \"#utility.yul\":2930:2933   */\n      dup3\n        /* \"#utility.yul\":2923:2957   */\n      mstore\n        /* \"#utility.yul\":2854:2963   */\n      pop\n      pop\n      jump\t// out\n        /* \"#utility.yul\":2969:4247   */\n    tag_19:\n        /* \"#utility.yul\":3320:3324   */\n      0x00\n        /* \"#utility.yul\":3358:3361   */\n      0x0120\n        /* \"#utility.yul\":3347:3356   */\n      dup3\n        /* \"#utility.yul\":3343:3362   */\n      add\n        /* \"#utility.yul\":3335:3362   */\n      swap1\n      pop\n        /* \"#utility.yul\":3372:3443   */\n      tag_209\n        /* \"#utility.yul\":3440:3441   */\n      0x00\n        /* \"#utility.yul\":3429:3438   */\n      dup4\n        /* \"#utility.yul\":3425:3442   */\n      add\n        /* \"#utility.yul\":3416:3422   */\n      dup13\n        /* \"#utility.yul\":3372:3443   */\n      tag_126\n      jump\t// in\n    tag_209:\n        /* \"#utility.yul\":3490:3499   */\n      dup2\n        /* \"#utility.yul\":3484:3488   */\n      dup2\n        /* \"#utility.yul\":3480:3500   */\n      sub\n        /* \"#utility.yul\":3475:3477   */\n      0x20\n        /* \"#utility.yul\":3464:3473   */\n      dup4\n        /* \"#utility.yul\":3460:3478   */\n      add\n        /* \"#utility.yul\":3453:3501   */\n      mstore\n        /* \"#utility.yul\":3518:3596   */\n      tag_210\n        /* \"#utility.yul\":3591:3595   */\n      dup2\n        /* \"#utility.yul\":3582:3588   */\n      dup12\n        /* \"#utility.yul\":3518:3596   */\n      tag_131\n      jump\t// in\n    tag_210:\n        /* \"#utility.yul\":3510:3596   */\n      swap1\n      pop\n        /* \"#utility.yul\":3643:3652   */\n      dup2\n        /* \"#utility.yul\":3637:3641   */\n      dup2\n        /* \"#utility.yul\":3633:3653   */\n      sub\n        /* \"#utility.yul\":3628:3630   */\n      0x40\n        /* \"#utility.yul\":3617:3626   */\n      dup4\n        /* \"#utility.yul\":3613:3631   */\n      add\n        /* \"#utility.yul\":3606:3654   */\n      mstore\n        /* \"#utility.yul\":3671:3749   */\n      tag_211\n        /* \"#utility.yul\":3744:3748   */\n      dup2\n        /* \"#utility.yul\":3735:3741   */\n      dup11\n        /* \"#utility.yul\":3671:3749   */\n      tag_131\n      jump\t// in\n    tag_211:\n        /* \"#utility.yul\":3663:3749   */\n      swap1\n      pop\n        /* \"#utility.yul\":3759:3831   */\n      tag_212\n        /* \"#utility.yul\":3827:3829   */\n      0x60\n        /* \"#utility.yul\":3816:3825   */\n      dup4\n        /* \"#utility.yul\":3812:3830   */\n      add\n        /* \"#utility.yul\":3803:3809   */\n      dup10\n        /* \"#utility.yul\":3759:3831   */\n      tag_118\n      jump\t// in\n    tag_212:\n        /* \"#utility.yul\":3841:3914   */\n      tag_213\n        /* \"#utility.yul\":3909:3912   */\n      0x80\n        /* \"#utility.yul\":3898:3907   */\n      dup4\n        /* \"#utility.yul\":3894:3913   */\n      add\n        /* \"#utility.yul\":3885:3891   */\n      dup9\n        /* \"#utility.yul\":3841:3914   */\n      tag_118\n      jump\t// in\n    tag_213:\n        /* \"#utility.yul\":3924:3997   */\n      tag_214\n        /* \"#utility.yul\":3992:3995   */\n      0xa0\n        /* \"#utility.yul\":3981:3990   */\n      dup4\n        /* \"#utility.yul\":3977:3996   */\n      add\n        /* \"#utility.yul\":3968:3974   */\n      dup8\n        /* \"#utility.yul\":3924:3997   */\n      tag_118\n      jump\t// in\n    tag_214:\n        /* \"#utility.yul\":4007:4080   */\n      tag_215\n        /* \"#utility.yul\":4075:4078   */\n      0xc0\n        /* \"#utility.yul\":4064:4073   */\n      dup4\n        /* \"#utility.yul\":4060:4079   */\n      add\n        /* \"#utility.yul\":4051:4057   */\n      dup7\n        /* \"#utility.yul\":4007:4080   */\n      tag_118\n      jump\t// in\n    tag_215:\n        /* \"#utility.yul\":4090:4163   */\n      tag_216\n        /* \"#utility.yul\":4158:4161   */\n      0xe0\n        /* \"#utility.yul\":4147:4156   */\n      dup4\n        /* \"#utility.yul\":4143:4162   */\n      add\n        /* \"#utility.yul\":4134:4140   */\n      dup6\n        /* \"#utility.yul\":4090:4163   */\n      tag_118\n      jump\t// in\n    tag_216:\n        /* \"#utility.yul\":4173:4240   */\n      tag_217\n        /* \"#utility.yul\":4235:4238   */\n      0x0100\n        /* \"#utility.yul\":4224:4233   */\n      dup4\n        /* \"#utility.yul\":4220:4239   */\n      add\n        /* \"#utility.yul\":4211:4217   */\n      dup5\n        /* \"#utility.yul\":4173:4240   */\n      tag_133\n      jump\t// in\n    tag_217:\n        /* \"#utility.yul\":2969:4247   */\n      swap11\n      swap10\n      pop\n      pop\n      pop\n      pop\n      pop\n      pop\n      pop\n      pop\n      pop\n      pop\n      jump\t// out\n        /* \"#utility.yul\":4253:4375   */\n    tag_134:\n        /* \"#utility.yul\":4326:4350   */\n      tag_219\n        /* \"#utility.yul\":4344:4349   */\n      dup2\n        /* \"#utility.yul\":4326:4350   */\n      tag_125\n      jump\t// in\n    tag_219:\n        /* \"#utility.yul\":4319:4324   */\n      dup2\n        /* \"#utility.yul\":4316:4351   */\n      eq\n        /* \"#utility.yul\":4306:4369   */\n      tag_220\n      jumpi\n        /* \"#utility.yul\":4365:4366   */\n      0x00\n        /* \"#utility.yul\":4362:4363   */\n      dup1\n        /* \"#utility.yul\":4355:4367   */\n      revert\n        /* \"#utility.yul\":4306:4369   */\n    tag_220:\n        /* \"#utility.yul\":4253:4375   */\n      pop\n      jump\t// out\n        /* \"#utility.yul\":4381:4520   */\n    tag_135:\n        /* \"#utility.yul\":4427:4432   */\n      0x00\n        /* \"#utility.yul\":4465:4471   */\n      dup2\n        /* \"#utility.yul\":4452:4472   */\n      calldataload\n        /* \"#utility.yul\":4443:4472   */\n      swap1\n      pop\n        /* \"#utility.yul\":4481:4514   */\n      tag_222\n        /* \"#utility.yul\":4508:4513   */\n      dup2\n        /* \"#utility.yul\":4481:4514   */\n      tag_134\n      jump\t// in\n    tag_222:\n        /* \"#utility.yul\":4381:4520   */\n      swap3\n      swap2\n      pop\n      pop\n      jump\t// out\n        /* \"#utility.yul\":4526:5000   */\n    tag_23:\n        /* \"#utility.yul\":4594:4600   */\n      0x00\n        /* \"#utility.yul\":4602:4608   */\n      dup1\n        /* \"#utility.yul\":4651:4653   */\n      0x40\n        /* \"#utility.yul\":4639:4648   */\n      dup4\n        /* \"#utility.yul\":4630:4637   */\n      dup6\n        /* \"#utility.yul\":4626:4649   */\n      sub\n        /* \"#utility.yul\":4622:4654   */\n      slt\n        /* \"#utility.yul\":4619:4738   */\n      iszero\n      tag_224\n      jumpi\n        /* \"#utility.yul\":4657:4736   */\n      tag_225\n      tag_120\n      jump\t// in\n    tag_225:\n        /* \"#utility.yul\":4619:4738   */\n    tag_224:\n        /* \"#utility.yul\":4777:4778   */\n      0x00\n        /* \"#utility.yul\":4802:4855   */\n      tag_226\n        /* \"#utility.yul\":4847:4854   */\n      dup6\n        /* \"#utility.yul\":4838:4844   */\n      dup3\n        /* \"#utility.yul\":4827:4836   */\n      dup7\n        /* \"#utility.yul\":4823:4845   */\n      add\n        /* \"#utility.yul\":4802:4855   */\n      tag_123\n      jump\t// in\n    tag_226:\n        /* \"#utility.yul\":4792:4855   */\n      swap3\n      pop\n        /* \"#utility.yul\":4748:4865   */\n      pop\n        /* \"#utility.yul\":4904:4906   */\n      0x20\n        /* \"#utility.yul\":4930:4983   */\n      tag_227\n        /* \"#utility.yul\":4975:4982   */\n      dup6\n        /* \"#utility.yul\":4966:4972   */\n      dup3\n        /* \"#utility.yul\":4955:4964   */\n      dup7\n        /* \"#utility.yul\":4951:4973   */\n      add\n        /* \"#utility.yul\":4930:4983   */\n      tag_135\n      jump\t// in\n    tag_227:\n        /* \"#utility.yul\":4920:4983   */\n      swap2\n      pop\n        /* \"#utility.yul\":4875:4993   */\n      pop\n        /* \"#utility.yul\":4526:5000   */\n      swap3\n      pop\n      swap3\n      swap1\n      pop\n      jump\t// out\n        /* \"#utility.yul\":5006:5123   */\n    tag_136:\n        /* \"#utility.yul\":5115:5116   */\n      0x00\n        /* \"#utility.yul\":5112:5113   */\n      dup1\n        /* \"#utility.yul\":5105:5117   */\n      revert\n        /* \"#utility.yul\":5129:5246   */\n    tag_137:\n        /* \"#utility.yul\":5238:5239   */\n      0x00\n        /* \"#utility.yul\":5235:5236   */\n      dup1\n        /* \"#utility.yul\":5228:5240   */\n      revert\n        /* \"#utility.yul\":5252:5432   */\n    tag_138:\n        /* \"#utility.yul\":5300:5377   */\n      0x4e487b7100000000000000000000000000000000000000000000000000000000\n        /* \"#utility.yul\":5297:5298   */\n      0x00\n        /* \"#utility.yul\":5290:5378   */\n      mstore\n        /* \"#utility.yul\":5397:5401   */\n      0x41\n        /* \"#utility.yul\":5394:5395   */\n      0x04\n        /* \"#utility.yul\":5387:5402   */\n      mstore\n        /* \"#utility.yul\":5421:5425   */\n      0x24\n        /* \"#utility.yul\":5418:5419   */\n      0x00\n        /* \"#utility.yul\":5411:5426   */\n      revert\n        /* \"#utility.yul\":5438:5719   */\n    tag_139:\n        /* \"#utility.yul\":5521:5548   */\n      tag_232\n        /* \"#utility.yul\":5543:5547   */\n      dup3\n        /* \"#utility.yul\":5521:5548   */\n      tag_130\n      jump\t// in\n    tag_232:\n        /* \"#utility.yul\":5513:5519   */\n      dup2\n        /* \"#utility.yul\":5509:5549   */\n      add\n        /* \"#utility.yul\":5651:5657   */\n      dup2\n        /* \"#utility.yul\":5639:5649   */\n      dup2\n        /* \"#utility.yul\":5636:5658   */\n      lt\n        /* \"#utility.yul\":5615:5633   */\n      0xffffffffffffffff\n        /* \"#utility.yul\":5603:5613   */\n      dup3\n        /* \"#utility.yul\":5600:5634   */\n      gt\n        /* \"#utility.yul\":5597:5659   */\n      or\n        /* \"#utility.yul\":5594:5682   */\n      iszero\n      tag_233\n      jumpi\n        /* \"#utility.yul\":5662:5680   */\n      tag_234\n      tag_138\n      jump\t// in\n    tag_234:\n        /* \"#utility.yul\":5594:5682   */\n    tag_233:\n        /* \"#utility.yul\":5702:5712   */\n      dup1\n        /* \"#utility.yul\":5698:5700   */\n      0x40\n        /* \"#utility.yul\":5691:5713   */\n      mstore\n        /* \"#utility.yul\":5481:5719   */\n      pop\n        /* \"#utility.yul\":5438:5719   */\n      pop\n      pop\n      jump\t// out\n        /* \"#utility.yul\":5725:5854   */\n    tag_140:\n        /* \"#utility.yul\":5759:5765   */\n      0x00\n        /* \"#utility.yul\":5786:5806   */\n      tag_236\n      tag_119\n      jump\t// in\n    tag_236:\n        /* \"#utility.yul\":5776:5806   */\n      swap1\n      pop\n        /* \"#utility.yul\":5815:5848   */\n      tag_237\n        /* \"#utility.yul\":5843:5847   */\n      dup3\n        /* \"#utility.yul\":5835:5841   */\n      dup3\n        /* \"#utility.yul\":5815:5848   */\n      tag_139\n      jump\t// in\n    tag_237:\n        /* \"#utility.yul\":5725:5854   */\n      swap2\n      swap1\n      pop\n      jump\t// out\n        /* \"#utility.yul\":5860:6168   */\n    tag_141:\n        /* \"#utility.yul\":5922:5926   */\n      0x00\n        /* \"#utility.yul\":6012:6030   */\n      0xffffffffffffffff\n        /* \"#utility.yul\":6004:6010   */\n      dup3\n        /* \"#utility.yul\":6001:6031   */\n      gt\n        /* \"#utility.yul\":5998:6054   */\n      iszero\n      tag_239\n      jumpi\n        /* \"#utility.yul\":6034:6052   */\n      tag_240\n      tag_138\n      jump\t// in\n    tag_240:\n        /* \"#utility.yul\":5998:6054   */\n    tag_239:\n        /* \"#utility.yul\":6072:6101   */\n      tag_241\n        /* \"#utility.yul\":6094:6100   */\n      dup3\n        /* \"#utility.yul\":6072:6101   */\n      tag_130\n      jump\t// in\n    tag_241:\n        /* \"#utility.yul\":6064:6101   */\n      swap1\n      pop\n        /* \"#utility.yul\":6156:6160   */\n      0x20\n        /* \"#utility.yul\":6150:6154   */\n      dup2\n        /* \"#utility.yul\":6146:6161   */\n      add\n        /* \"#utility.yul\":6138:6161   */\n      swap1\n      pop\n        /* \"#utility.yul\":5860:6168   */\n      swap2\n      swap1\n      pop\n      jump\t// out\n        /* \"#utility.yul\":6174:6320   */\n    tag_142:\n        /* \"#utility.yul\":6271:6277   */\n      dup3\n        /* \"#utility.yul\":6266:6269   */\n      dup2\n        /* \"#utility.yul\":6261:6264   */\n      dup4\n        /* \"#utility.yul\":6248:6278   */\n      calldatacopy\n        /* \"#utility.yul\":6312:6313   */\n      0x00\n        /* \"#utility.yul\":6303:6309   */\n      dup4\n        /* \"#utility.yul\":6298:6301   */\n      dup4\n        /* \"#utility.yul\":6294:6310   */\n      add\n        /* \"#utility.yul\":6287:6314   */\n      mstore\n        /* \"#utility.yul\":6174:6320   */\n      pop\n      pop\n      pop\n      jump\t// out\n        /* \"#utility.yul\":6326:6751   */\n    tag_143:\n        /* \"#utility.yul\":6404:6409   */\n      0x00\n        /* \"#utility.yul\":6429:6495   */\n      tag_244\n        /* \"#utility.yul\":6445:6494   */\n      tag_245\n        /* \"#utility.yul\":6487:6493   */\n      dup5\n        /* \"#utility.yul\":6445:6494   */\n      tag_141\n      jump\t// in\n    tag_245:\n        /* \"#utility.yul\":6429:6495   */\n      tag_140\n      jump\t// in\n    tag_244:\n        /* \"#utility.yul\":6420:6495   */\n      swap1\n      pop\n        /* \"#utility.yul\":6518:6524   */\n      dup3\n        /* \"#utility.yul\":6511:6516   */\n      dup2\n        /* \"#utility.yul\":6504:6525   */\n      mstore\n        /* \"#utility.yul\":6556:6560   */\n      0x20\n        /* \"#utility.yul\":6549:6554   */\n      dup2\n        /* \"#utility.yul\":6545:6561   */\n      add\n        /* \"#utility.yul\":6594:6597   */\n      dup5\n        /* \"#utility.yul\":6585:6591   */\n      dup5\n        /* \"#utility.yul\":6580:6583   */\n      dup5\n        /* \"#utility.yul\":6576:6592   */\n      add\n        /* \"#utility.yul\":6573:6598   */\n      gt\n        /* \"#utility.yul\":6570:6682   */\n      iszero\n      tag_246\n      jumpi\n        /* \"#utility.yul\":6601:6680   */\n      tag_247\n      tag_137\n      jump\t// in\n    tag_247:\n        /* \"#utility.yul\":6570:6682   */\n    tag_246:\n        /* \"#utility.yul\":6691:6745   */\n      tag_248\n        /* \"#utility.yul\":6738:6744   */\n      dup5\n        /* \"#utility.yul\":6733:6736   */\n      dup3\n        /* \"#utility.yul\":6728:6731   */\n      dup6\n        /* \"#utility.yul\":6691:6745   */\n      tag_142\n      jump\t// in\n    tag_248:\n        /* \"#utility.yul\":6410:6751   */\n      pop\n        /* \"#utility.yul\":6326:6751   */\n      swap4\n      swap3\n      pop\n      pop\n      pop\n      jump\t// out\n        /* \"#utility.yul\":6771:7111   */\n    tag_144:\n        /* \"#utility.yul\":6827:6832   */\n      0x00\n        /* \"#utility.yul\":6876:6879   */\n      dup3\n        /* \"#utility.yul\":6869:6873   */\n      0x1f\n        /* \"#utility.yul\":6861:6867   */\n      dup4\n        /* \"#utility.yul\":6857:6874   */\n      add\n        /* \"#utility.yul\":6853:6880   */\n      slt\n        /* \"#utility.yul\":6843:6965   */\n      tag_250\n      jumpi\n        /* \"#utility.yul\":6884:6963   */\n      tag_251\n      tag_136\n      jump\t// in\n    tag_251:\n        /* \"#utility.yul\":6843:6965   */\n    tag_250:\n        /* \"#utility.yul\":7001:7007   */\n      dup2\n        /* \"#utility.yul\":6988:7008   */\n      calldataload\n        /* \"#utility.yul\":7026:7105   */\n      tag_252\n        /* \"#utility.yul\":7101:7104   */\n      dup5\n        /* \"#utility.yul\":7093:7099   */\n      dup3\n        /* \"#utility.yul\":7086:7090   */\n      0x20\n        /* \"#utility.yul\":7078:7084   */\n      dup7\n        /* \"#utility.yul\":7074:7091   */\n      add\n        /* \"#utility.yul\":7026:7105   */\n      tag_143\n      jump\t// in\n    tag_252:\n        /* \"#utility.yul\":7017:7105   */\n      swap2\n      pop\n        /* \"#utility.yul\":6833:7111   */\n      pop\n        /* \"#utility.yul\":6771:7111   */\n      swap3\n      swap2\n      pop\n      pop\n      jump\t// out\n        /* \"#utility.yul\":7117:8534   */\n    tag_29:\n        /* \"#utility.yul\":7241:7247   */\n      0x00\n        /* \"#utility.yul\":7249:7255   */\n      dup1\n        /* \"#utility.yul\":7257:7263   */\n      0x00\n        /* \"#utility.yul\":7265:7271   */\n      dup1\n        /* \"#utility.yul\":7273:7279   */\n      0x00\n        /* \"#utility.yul\":7281:7287   */\n      dup1\n        /* \"#utility.yul\":7330:7333   */\n      0xc0\n        /* \"#utility.yul\":7318:7327   */\n      dup8\n        /* \"#utility.yul\":7309:7316   */\n      dup10\n        /* \"#utility.yul\":7305:7328   */\n      sub\n        /* \"#utility.yul\":7301:7334   */\n      slt\n        /* \"#utility.yul\":7298:7418   */\n      iszero\n      tag_254\n      jumpi\n        /* \"#utility.yul\":7337:7416   */\n      tag_255\n      tag_120\n      jump\t// in\n    tag_255:\n        /* \"#utility.yul\":7298:7418   */\n    tag_254:\n        /* \"#utility.yul\":7485:7486   */\n      0x00\n        /* \"#utility.yul\":7474:7483   */\n      dup8\n        /* \"#utility.yul\":7470:7487   */\n      add\n        /* \"#utility.yul\":7457:7488   */\n      calldataload\n        /* \"#utility.yul\":7515:7533   */\n      0xffffffffffffffff\n        /* \"#utility.yul\":7507:7513   */\n      dup2\n        /* \"#utility.yul\":7504:7534   */\n      gt\n        /* \"#utility.yul\":7501:7618   */\n      iszero\n      tag_256\n      jumpi\n        /* \"#utility.yul\":7537:7616   */\n      tag_257\n      tag_121\n      jump\t// in\n    tag_257:\n        /* \"#utility.yul\":7501:7618   */\n    tag_256:\n        /* \"#utility.yul\":7642:7705   */\n      tag_258\n        /* \"#utility.yul\":7697:7704   */\n      dup10\n        /* \"#utility.yul\":7688:7694   */\n      dup3\n        /* \"#utility.yul\":7677:7686   */\n      dup11\n        /* \"#utility.yul\":7673:7695   */\n      add\n        /* \"#utility.yul\":7642:7705   */\n      tag_144\n      jump\t// in\n    tag_258:\n        /* \"#utility.yul\":7632:7705   */\n      swap7\n      pop\n        /* \"#utility.yul\":7428:7715   */\n      pop\n        /* \"#utility.yul\":7782:7784   */\n      0x20\n        /* \"#utility.yul\":7771:7780   */\n      dup8\n        /* \"#utility.yul\":7767:7785   */\n      add\n        /* \"#utility.yul\":7754:7786   */\n      calldataload\n        /* \"#utility.yul\":7813:7831   */\n      0xffffffffffffffff\n        /* \"#utility.yul\":7805:7811   */\n      dup2\n        /* \"#utility.yul\":7802:7832   */\n      gt\n        /* \"#utility.yul\":7799:7916   */\n      iszero\n      tag_259\n      jumpi\n        /* \"#utility.yul\":7835:7914   */\n      tag_260\n      tag_121\n      jump\t// in\n    tag_260:\n        /* \"#utility.yul\":7799:7916   */\n    tag_259:\n        /* \"#utility.yul\":7940:8003   */\n      tag_261\n        /* \"#utility.yul\":7995:8002   */\n      dup10\n        /* \"#utility.yul\":7986:7992   */\n      dup3\n        /* \"#utility.yul\":7975:7984   */\n      dup11\n        /* \"#utility.yul\":7971:7993   */\n      add\n        /* \"#utility.yul\":7940:8003   */\n      tag_144\n      jump\t// in\n    tag_261:\n        /* \"#utility.yul\":7930:8003   */\n      swap6\n      pop\n        /* \"#utility.yul\":7725:8013   */\n      pop\n        /* \"#utility.yul\":8052:8054   */\n      0x40\n        /* \"#utility.yul\":8078:8131   */\n      tag_262\n        /* \"#utility.yul\":8123:8130   */\n      dup10\n        /* \"#utility.yul\":8114:8120   */\n      dup3\n        /* \"#utility.yul\":8103:8112   */\n      dup11\n        /* \"#utility.yul\":8099:8121   */\n      add\n        /* \"#utility.yul\":8078:8131   */\n      tag_123\n      jump\t// in\n    tag_262:\n        /* \"#utility.yul\":8068:8131   */\n      swap5\n      pop\n        /* \"#utility.yul\":8023:8141   */\n      pop\n        /* \"#utility.yul\":8180:8182   */\n      0x60\n        /* \"#utility.yul\":8206:8259   */\n      tag_263\n        /* \"#utility.yul\":8251:8258   */\n      dup10\n        /* \"#utility.yul\":8242:8248   */\n      dup3\n        /* \"#utility.yul\":8231:8240   */\n      dup11\n        /* \"#utility.yul\":8227:8249   */\n      add\n        /* \"#utility.yul\":8206:8259   */\n      tag_123\n      jump\t// in\n    tag_263:\n        /* \"#utility.yul\":8196:8259   */\n      swap4\n      pop\n        /* \"#utility.yul\":8151:8269   */\n      pop\n        /* \"#utility.yul\":8308:8311   */\n      0x80\n        /* \"#utility.yul\":8335:8388   */\n      tag_264\n        /* \"#utility.yul\":8380:8387   */\n      dup10\n        /* \"#utility.yul\":8371:8377   */\n      dup3\n        /* \"#utility.yul\":8360:8369   */\n      dup11\n        /* \"#utility.yul\":8356:8378   */\n      add\n        /* \"#utility.yul\":8335:8388   */\n      tag_123\n      jump\t// in\n    tag_264:\n        /* \"#utility.yul\":8325:8388   */\n      swap3\n      pop\n        /* \"#utility.yul\":8279:8398   */\n      pop\n        /* \"#utility.yul\":8437:8440   */\n      0xa0\n        /* \"#utility.yul\":8464:8517   */\n      tag_265\n        /* \"#utility.yul\":8509:8516   */\n      dup10\n        /* \"#utility.yul\":8500:8506   */\n      dup3\n        /* \"#utility.yul\":8489:8498   */\n      dup11\n        /* \"#utility.yul\":8485:8507   */\n      add\n        /* \"#utility.yul\":8464:8517   */\n      tag_123\n      jump\t// in\n    tag_265:\n        /* \"#utility.yul\":8454:8517   */\n      swap2\n      pop\n        /* \"#utility.yul\":8408:8527   */\n      pop\n        /* \"#utility.yul\":7117:8534   */\n      swap3\n      swap6\n      pop\n      swap3\n      swap6\n      pop\n      swap3\n      swap6\n      jump\t// out\n        /* \"#utility.yul\":8540:8720   */\n    tag_45:\n        /* \"#utility.yul\":8588:8665   */\n      0x4e487b7100000000000000000000000000000000000000000000000000000000\n        /* \"#utility.yul\":8585:8586   */\n      0x00\n        /* \"#utility.yul\":8578:8666   */\n      mstore\n        /* \"#utility.yul\":8685:8689   */\n      0x32\n        /* \"#utility.yul\":8682:8683   */\n      0x04\n        /* \"#utility.yul\":8675:8690   */\n      mstore\n        /* \"#utility.yul\":8709:8713   */\n      0x24\n        /* \"#utility.yul\":8706:8707   */\n      0x00\n        /* \"#utility.yul\":8699:8714   */\n      revert\n        /* \"#utility.yul\":8726:8906   */\n    tag_145:\n        /* \"#utility.yul\":8774:8851   */\n      0x4e487b7100000000000000000000000000000000000000000000000000000000\n        /* \"#utility.yul\":8771:8772   */\n      0x00\n        /* \"#utility.yul\":8764:8852   */\n      mstore\n        /* \"#utility.yul\":8871:8875   */\n      0x11\n        /* \"#utility.yul\":8868:8869   */\n      0x04\n        /* \"#utility.yul\":8861:8876   */\n      mstore\n        /* \"#utility.yul\":8895:8899   */\n      0x24\n        /* \"#utility.yul\":8892:8893   */\n      0x00\n        /* \"#utility.yul\":8885:8900   */\n      revert\n        /* \"#utility.yul\":8912:9145   */\n    tag_49:\n        /* \"#utility.yul\":8951:8954   */\n      0x00\n        /* \"#utility.yul\":8974:8998   */\n      tag_269\n        /* \"#utility.yul\":8992:8997   */\n      dup3\n        /* \"#utility.yul\":8974:8998   */\n      tag_117\n      jump\t// in\n    tag_269:\n        /* \"#utility.yul\":8965:8998   */\n      swap2\n      pop\n        /* \"#utility.yul\":9020:9086   */\n      0xffffffffffffffffffffffffffffffffffffffffffffffffffffffffffffffff\n        /* \"#utility.yul\":9013:9018   */\n      dup3\n        /* \"#utility.yul\":9010:9087   */\n      sub\n        /* \"#utility.yul\":9007:9110   */\n      tag_270\n      jumpi\n        /* \"#utility.yul\":9090:9108   */\n      tag_271\n      tag_145\n      jump\t// in\n    tag_271:\n        /* \"#utility.yul\":9007:9110   */\n    tag_270:\n        /* \"#utility.yul\":9137:9138   */\n      0x01\n        /* \"#utility.yul\":9130:9135   */\n      dup3\n        /* \"#utility.yul\":9126:9139   */\n      add\n        /* \"#utility.yul\":9119:9139   */\n      swap1\n      pop\n        /* \"#utility.yul\":8912:9145   */\n      swap2\n      swap1\n      pop\n      jump\t// out\n        /* \"#utility.yul\":9151:9331   */\n    tag_146:\n        /* \"#utility.yul\":9199:9276   */\n      0x4e487b7100000000000000000000000000000000000000000000000000000000\n        /* \"#utility.yul\":9196:9197   */\n      0x00\n        /* \"#utility.yul\":9189:9277   */\n      mstore\n        /* \"#utility.yul\":9296:9300   */\n      0x22\n        /* \"#utility.yul\":9293:9294   */\n      0x04\n        /* \"#utility.yul\":9286:9301   */\n      mstore\n        /* \"#utility.yul\":9320:9324   */\n      0x24\n        /* \"#utility.yul\":9317:9318   */\n      0x00\n        /* \"#utility.yul\":9310:9325   */\n      revert\n        /* \"#utility.yul\":9337:9657   */\n    tag_54:\n        /* \"#utility.yul\":9381:9387   */\n      0x00\n        /* \"#utility.yul\":9418:9419   */\n      0x02\n        /* \"#utility.yul\":9412:9416   */\n      dup3\n        /* \"#utility.yul\":9408:9420   */\n      div\n        /* \"#utility.yul\":9398:9420   */\n      swap1\n      pop\n        /* \"#utility.yul\":9465:9466   */\n      0x01\n        /* \"#utility.yul\":9459:9463   */\n      dup3\n        /* \"#utility.yul\":9455:9467   */\n      and\n        /* \"#utility.yul\":9486:9504   */\n      dup1\n        /* \"#utility.yul\":9476:9557   */\n      tag_274\n      jumpi\n        /* \"#utility.yul\":9542:9546   */\n      0x7f\n        /* \"#utility.yul\":9534:9540   */\n      dup3\n        /* \"#utility.yul\":9530:9547   */\n      and\n        /* \"#utility.yul\":9520:9547   */\n      swap2\n      pop\n        /* \"#utility.yul\":9476:9557   */\n    tag_274:\n        /* \"#utility.yul\":9604:9606   */\n      0x20\n        /* \"#utility.yul\":9596:9602   */\n      dup3\n        /* \"#utility.yul\":9593:9607   */\n      lt\n        /* \"#utility.yul\":9573:9591   */\n      dup2\n        /* \"#utility.yul\":9570:9608   */\n      sub\n        /* \"#utility.yul\":9567:9651   */\n      tag_275\n      jumpi\n        /* \"#utility.yul\":9623:9641   */\n      tag_276\n      tag_146\n      jump\t// in\n    tag_276:\n        /* \"#utility.yul\":9567:9651   */\n    tag_275:\n        /* \"#utility.yul\":9388:9657   */\n      pop\n        /* \"#utility.yul\":9337:9657   */\n      swap2\n      swap1\n      pop\n      jump\t// out\n        /* \"#utility.yul\":9663:9892   */\n    tag_147:\n        /* \"#utility.yul\":9803:9837   */\n      0x46756e64696e6720646174652063616e6e6f74206265206c6174657220746861\n        /* \"#utility.yul\":9799:9800   */\n      0x00\n        /* \"#utility.yul\":9791:9797   */\n      dup3\n        /* \"#utility.yul\":9787:9801   */\n      add\n        /* \"#utility.yul\":9780:9838   */\n      mstore\n        /* \"#utility.yul\":9872:9884   */\n      0x6e20656e64206461746500000000000000000000000000000000000000000000\n        /* \"#utility.yul\":9867:9869   */\n      0x20\n        /* \"#utility.yul\":9859:9865   */\n      dup3\n        /* \"#utility.yul\":9855:9870   */\n      add\n        /* \"#utility.yul\":9848:9885   */\n      mstore\n        /* \"#utility.yul\":9663:9892   */\n      pop\n      jump\t// out\n        /* \"#utility.yul\":9898:10264   */\n    tag_148:\n        /* \"#utility.yul\":10040:10043   */\n      0x00\n        /* \"#utility.yul\":10061:10128   */\n      tag_279\n        /* \"#utility.yul\":10125:10127   */\n      0x2a\n        /* \"#utility.yul\":10120:10123   */\n      dup4\n        /* \"#utility.yul\":10061:10128   */\n      tag_128\n      jump\t// in\n    tag_279:\n        /* \"#utility.yul\":10054:10128   */\n      swap2\n      pop\n        /* \"#utility.yul\":10137:10230   */\n      tag_280\n        /* \"#utility.yul\":10226:10229   */\n      dup3\n        /* \"#utility.yul\":10137:10230   */\n      tag_147\n      jump\t// in\n    tag_280:\n        /* \"#utility.yul\":10255:10257   */\n      0x40\n        /* \"#utility.yul\":10250:10253   */\n      dup3\n        /* \"#utility.yul\":10246:10258   */\n      add\n        /* \"#utility.yul\":10239:10258   */\n      swap1\n      pop\n        /* \"#utility.yul\":9898:10264   */\n      swap2\n      swap1\n      pop\n      jump\t// out\n        /* \"#utility.yul\":10270:10689   */\n    tag_67:\n        /* \"#utility.yul\":10436:10440   */\n      0x00\n        /* \"#utility.yul\":10474:10476   */\n      0x20\n        /* \"#utility.yul\":10463:10472   */\n      dup3\n        /* \"#utility.yul\":10459:10477   */\n      add\n        /* \"#utility.yul\":10451:10477   */\n      swap1\n      pop\n        /* \"#utility.yul\":10523:10532   */\n      dup2\n        /* \"#utility.yul\":10517:10521   */\n      dup2\n        /* \"#utility.yul\":10513:10533   */\n      sub\n        /* \"#utility.yul\":10509:10510   */\n      0x00\n        /* \"#utility.yul\":10498:10507   */\n      dup4\n        /* \"#utility.yul\":10494:10511   */\n      add\n        /* \"#utility.yul\":10487:10534   */\n      mstore\n        /* \"#utility.yul\":10551:10682   */\n      tag_282\n        /* \"#utility.yul\":10677:10681   */\n      dup2\n        /* \"#utility.yul\":10551:10682   */\n      tag_148\n      jump\t// in\n    tag_282:\n        /* \"#utility.yul\":10543:10682   */\n      swap1\n      pop\n        /* \"#utility.yul\":10270:10689   */\n      swap2\n      swap1\n      pop\n      jump\t// out\n        /* \"#utility.yul\":10695:10836   */\n    tag_149:\n        /* \"#utility.yul\":10744:10748   */\n      0x00\n        /* \"#utility.yul\":10767:10770   */\n      dup2\n        /* \"#utility.yul\":10759:10770   */\n      swap1\n      pop\n        /* \"#utility.yul\":10790:10793   */\n      dup2\n        /* \"#utility.yul\":10787:10788   */\n      0x00\n        /* \"#utility.yul\":10780:10794   */\n      mstore\n        /* \"#utility.yul\":10824:10828   */\n      0x20\n        /* \"#utility.yul\":10821:10822   */\n      0x00\n        /* \"#utility.yul\":10811:10829   */\n      keccak256\n        /* \"#utility.yul\":10803:10829   */\n      swap1\n      pop\n        /* \"#utility.yul\":10695:10836   */\n      swap2\n      swap1\n      pop\n      jump\t// out\n        /* \"#utility.yul\":10842:10935   */\n    tag_150:\n        /* \"#utility.yul\":10879:10885   */\n      0x00\n        /* \"#utility.yul\":10926:10928   */\n      0x20\n        /* \"#utility.yul\":10921:10923   */\n      0x1f\n        /* \"#utility.yul\":10914:10919   */\n      dup4\n        /* \"#utility.yul\":10910:10924   */\n      add\n        /* \"#utility.yul\":10906:10929   */\n      div\n        /* \"#utility.yul\":10896:10929   */\n      swap1\n      pop\n        /* \"#utility.yul\":10842:10935   */\n      swap2\n      swap1\n      pop\n      jump\t// out\n        /* \"#utility.yul\":10941:11048   */\n    tag_151:\n        /* \"#utility.yul\":10985:10993   */\n      0x00\n        /* \"#utility.yul\":11035:11040   */\n      dup3\n        /* \"#utility.yul\":11029:11033   */\n      dup3\n        /* \"#utility.yul\":11025:11041   */\n      shl\n        /* \"#utility.yul\":11004:11041   */\n      swap1\n      pop\n        /* \"#utility.yul\":10941:11048   */\n      swap3\n      swap2\n      pop\n      pop\n      jump\t// out\n        /* \"#utility.yul\":11054:11447   */\n    tag_152:\n        /* \"#utility.yul\":11123:11129   */\n      0x00\n        /* \"#utility.yul\":11173:11174   */\n      0x08\n        /* \"#utility.yul\":11161:11171   */\n      dup4\n        /* \"#utility.yul\":11157:11175   */\n      mul\n        /* \"#utility.yul\":11196:11293   */\n      tag_287\n        /* \"#utility.yul\":11226:11292   */\n      0xffffffffffffffffffffffffffffffffffffffffffffffffffffffffffffffff\n        /* \"#utility.yul\":11215:11224   */\n      dup3\n        /* \"#utility.yul\":11196:11293   */\n      tag_151\n      jump\t// in\n    tag_287:\n        /* \"#utility.yul\":11314:11353   */\n      tag_288\n        /* \"#utility.yul\":11344:11352   */\n      dup7\n        /* \"#utility.yul\":11333:11342   */\n      dup4\n        /* \"#utility.yul\":11314:11353   */\n      tag_151\n      jump\t// in\n    tag_288:\n        /* \"#utility.yul\":11302:11353   */\n      swap6\n      pop\n        /* \"#utility.yul\":11386:11390   */\n      dup1\n        /* \"#utility.yul\":11382:11391   */\n      not\n        /* \"#utility.yul\":11375:11380   */\n      dup5\n        /* \"#utility.yul\":11371:11392   */\n      and\n        /* \"#utility.yul\":11362:11392   */\n      swap4\n      pop\n        /* \"#utility.yul\":11435:11439   */\n      dup1\n        /* \"#utility.yul\":11425:11433   */\n      dup7\n        /* \"#utility.yul\":11421:11440   */\n      and\n        /* \"#utility.yul\":11414:11419   */\n      dup5\n        /* \"#utility.yul\":11411:11441   */\n      or\n        /* \"#utility.yul\":11401:11441   */\n      swap3\n      pop\n        /* \"#utility.yul\":11130:11447   */\n      pop\n      pop\n        /* \"#utility.yul\":11054:11447   */\n      swap4\n      swap3\n      pop\n      pop\n      pop\n      jump\t// out\n        /* \"#utility.yul\":11453:11513   */\n    tag_153:\n        /* \"#utility.yul\":11481:11484   */\n      0x00\n        /* \"#utility.yul\":11502:11507   */\n      dup2\n        /* \"#utility.yul\":11495:11507   */\n      swap1\n      pop\n        /* \"#utility.yul\":11453:11513   */\n      swap2\n      swap1\n      pop\n      jump\t// out\n        /* \"#utility.yul\":11519:11661   */\n    tag_154:\n        /* \"#utility.yul\":11569:11578   */\n      0x00\n        /* \"#utility.yul\":11602:11655   */\n      tag_291\n        /* \"#utility.yul\":11620:11654   */\n      tag_292\n        /* \"#utility.yul\":11629:11653   */\n      tag_293\n        /* \"#utility.yul\":11647:11652   */\n      dup5\n        /* \"#utility.yul\":11629:11653   */\n      tag_117\n      jump\t// in\n    tag_293:\n        /* \"#utility.yul\":11620:11654   */\n      tag_153\n      jump\t// in\n    tag_292:\n        /* \"#utility.yul\":11602:11655   */\n      tag_117\n      jump\t// in\n    tag_291:\n        /* \"#utility.yul\":11589:11655   */\n      swap1\n      pop\n        /* \"#utility.yul\":11519:11661   */\n      swap2\n      swap1\n      pop\n      jump\t// out\n        /* \"#utility.yul\":11667:11742   */\n    tag_155:\n        /* \"#utility.yul\":11710:11713   */\n      0x00\n        /* \"#utility.yul\":11731:11736   */\n      dup2\n        /* \"#utility.yul\":11724:11736   */\n      swap1\n      pop\n        /* \"#utility.yul\":11667:11742   */\n      swap2\n      swap1\n      pop\n      jump\t// out\n        /* \"#utility.yul\":11748:12017   */\n    tag_156:\n        /* \"#utility.yul\":11858:11897   */\n      tag_296\n        /* \"#utility.yul\":11889:11896   */\n      dup4\n        /* \"#utility.yul\":11858:11897   */\n      tag_154\n      jump\t// in\n    tag_296:\n        /* \"#utility.yul\":11919:12010   */\n      tag_297\n        /* \"#utility.yul\":11968:12009   */\n      tag_298\n        /* \"#utility.yul\":11992:12008   */\n      dup3\n        /* \"#utility.yul\":11968:12009   */\n      tag_155\n      jump\t// in\n    tag_298:\n        /* \"#utility.yul\":11960:11966   */\n      dup5\n        /* \"#utility.yul\":11953:11957   */\n      dup5\n        /* \"#utility.yul\":11947:11958   */\n      sload\n        /* \"#utility.yul\":11919:12010   */\n      tag_152\n      jump\t// in\n    tag_297:\n        /* \"#utility.yul\":11913:11917   */\n      dup3\n        /* \"#utility.yul\":11906:12011   */\n      sstore\n        /* \"#utility.yul\":11824:12017   */\n      pop\n        /* \"#utility.yul\":11748:12017   */\n      pop\n      pop\n      pop\n      jump\t// out\n        /* \"#utility.yul\":12023:12096   */\n    tag_157:\n        /* \"#utility.yul\":12068:12071   */\n      0x00\n        /* \"#utility.yul\":12023:12096   */\n      swap1\n      jump\t// out\n        /* \"#utility.yul\":12102:12291   */\n    tag_158:\n        /* \"#utility.yul\":12179:12211   */\n      tag_301\n      tag_157\n      jump\t// in\n    tag_301:\n        /* \"#utility.yul\":12220:12285   */\n      tag_302\n        /* \"#utility.yul\":12278:12284   */\n      dup2\n        /* \"#utility.yul\":12270:12276   */\n      dup5\n        /* \"#utility.yul\":12264:12268   */\n      dup5\n        /* \"#utility.yul\":12220:12285   */\n      tag_156\n      jump\t// in\n    tag_302:\n        /* \"#utility.yul\":12155:12291   */\n      pop\n        /* \"#utility.yul\":12102:12291   */\n      pop\n      pop\n      jump\t// out\n        /* \"#utility.yul\":12297:12483   */\n    tag_159:\n        /* \"#utility.yul\":12357:12477   */\n    tag_304:\n        /* \"#utility.yul\":12374:12377   */\n      dup2\n        /* \"#utility.yul\":12367:12372   */\n      dup2\n        /* \"#utility.yul\":12364:12378   */\n      lt\n        /* \"#utility.yul\":12357:12477   */\n      iszero\n      tag_306\n      jumpi\n        /* \"#utility.yul\":12428:12467   */\n      tag_307\n        /* \"#utility.yul\":12465:12466   */\n      0x00\n        /* \"#utility.yul\":12458:12463   */\n      dup3\n        /* \"#utility.yul\":12428:12467   */\n      tag_158\n      jump\t// in\n    tag_307:\n        /* \"#utility.yul\":12401:12402   */\n      0x01\n        /* \"#utility.yul\":12394:12399   */\n      dup2\n        /* \"#utility.yul\":12390:12403   */\n      add\n        /* \"#utility.yul\":12381:12403   */\n      swap1\n      pop\n        /* \"#utility.yul\":12357:12477   */\n      jump(tag_304)\n    tag_306:\n        /* \"#utility.yul\":12297:12483   */\n      pop\n      pop\n      jump\t// out\n        /* \"#utility.yul\":12489:13032   */\n    tag_160:\n        /* \"#utility.yul\":12590:12592   */\n      0x1f\n        /* \"#utility.yul\":12585:12588   */\n      dup3\n        /* \"#utility.yul\":12582:12593   */\n      gt\n        /* \"#utility.yul\":12579:13025   */\n      iszero\n      tag_309\n      jumpi\n        /* \"#utility.yul\":12624:12662   */\n      tag_310\n        /* \"#utility.yul\":12656:12661   */\n      dup2\n        /* \"#utility.yul\":12624:12662   */\n      tag_149\n      jump\t// in\n    tag_310:\n        /* \"#utility.yul\":12708:12737   */\n      tag_311\n        /* \"#utility.yul\":12726:12736   */\n      dup5\n        /* \"#utility.yul\":12708:12737   */\n      tag_150\n      jump\t// in\n    tag_311:\n        /* \"#utility.yul\":12698:12706   */\n      dup2\n        /* \"#utility.yul\":12694:12738   */\n      add\n        /* \"#utility.yul\":12891:12893   */\n      0x20\n        /* \"#utility.yul\":12879:12889   */\n      dup6\n        /* \"#utility.yul\":12876:12894   */\n      lt\n        /* \"#utility.yul\":12873:12922   */\n      iszero\n      tag_312\n      jumpi\n        /* \"#utility.yul\":12912:12920   */\n      dup2\n        /* \"#utility.yul\":12897:12920   */\n      swap1\n      pop\n        /* \"#utility.yul\":12873:12922   */\n    tag_312:\n        /* \"#utility.yul\":12935:13015   */\n      tag_313\n        /* \"#utility.yul\":12991:13013   */\n      tag_314\n        /* \"#utility.yul\":13009:13012   */\n      dup6\n        /* \"#utility.yul\":12991:13013   */\n      tag_150\n      jump\t// in\n    tag_314:\n        /* \"#utility.yul\":12981:12989   */\n      dup4\n        /* \"#utility.yul\":12977:13014   */\n      add\n        /* \"#utility.yul\":12964:12975   */\n      dup3\n        /* \"#utility.yul\":12935:13015   */\n      tag_159\n      jump\t// in\n    tag_313:\n        /* \"#utility.yul\":12594:13025   */\n      pop\n      pop\n        /* \"#utility.yul\":12579:13025   */\n    tag_309:\n        /* \"#utility.yul\":12489:13032   */\n      pop\n      pop\n      pop\n      jump\t// out\n        /* \"#utility.yul\":13038:13155   */\n    tag_161:\n        /* \"#utility.yul\":13092:13100   */\n      0x00\n        /* \"#utility.yul\":13142:13147   */\n      dup3\n        /* \"#utility.yul\":13136:13140   */\n      dup3\n        /* \"#utility.yul\":13132:13148   */\n      shr\n        /* \"#utility.yul\":13111:13148   */\n      swap1\n      pop\n        /* \"#utility.yul\":13038:13155   */\n      swap3\n      swap2\n      pop\n      pop\n      jump\t// out\n        /* \"#utility.yul\":13161:13330   */\n    tag_162:\n        /* \"#utility.yul\":13205:13211   */\n      0x00\n        /* \"#utility.yul\":13238:13289   */\n      tag_317\n        /* \"#utility.yul\":13286:13287   */\n      0x00\n        /* \"#utility.yul\":13282:13288   */\n      not\n        /* \"#utility.yul\":13274:13279   */\n      dup5\n        /* \"#utility.yul\":13271:13272   */\n      0x08\n        /* \"#utility.yul\":13267:13280   */\n      mul\n        /* \"#utility.yul\":13238:13289   */\n      tag_161\n      jump\t// in\n    tag_317:\n        /* \"#utility.yul\":13234:13290   */\n      not\n        /* \"#utility.yul\":13319:13323   */\n      dup1\n        /* \"#utility.yul\":13313:13317   */\n      dup4\n        /* \"#utility.yul\":13309:13324   */\n      and\n        /* \"#utility.yul\":13299:13324   */\n      swap2\n      pop\n        /* \"#utility.yul\":13212:13330   */\n      pop\n        /* \"#utility.yul\":13161:13330   */\n      swap3\n      swap2\n      pop\n      pop\n      jump\t// out\n        /* \"#utility.yul\":13335:13630   */\n    tag_163:\n        /* \"#utility.yul\":13411:13415   */\n      0x00\n        /* \"#utility.yul\":13557:13586   */\n      tag_319\n        /* \"#utility.yul\":13582:13585   */\n      dup4\n        /* \"#utility.yul\":13576:13580   */\n      dup4\n        /* \"#utility.yul\":13557:13586   */\n      tag_162\n      jump\t// in\n    tag_319:\n        /* \"#utility.yul\":13549:13586   */\n      swap2\n      pop\n        /* \"#utility.yul\":13619:13622   */\n      dup3\n        /* \"#utility.yul\":13616:13617   */\n      0x02\n        /* \"#utility.yul\":13612:13623   */\n      mul\n        /* \"#utility.yul\":13606:13610   */\n      dup3\n        /* \"#utility.yul\":13603:13624   */\n      or\n        /* \"#utility.yul\":13595:13624   */\n      swap1\n      pop\n        /* \"#utility.yul\":13335:13630   */\n      swap3\n      swap2\n      pop\n      pop\n      jump\t// out\n        /* \"#utility.yul\":13635:15030   */\n    tag_70:\n        /* \"#utility.yul\":13752:13789   */\n      tag_321\n        /* \"#utility.yul\":13785:13788   */\n      dup3\n        /* \"#utility.yul\":13752:13789   */\n      tag_127\n      jump\t// in\n    tag_321:\n        /* \"#utility.yul\":13854:13872   */\n      0xffffffffffffffff\n        /* \"#utility.yul\":13846:13852   */\n      dup2\n        /* \"#utility.yul\":13843:13873   */\n      gt\n        /* \"#utility.yul\":13840:13896   */\n      iszero\n      tag_322\n      jumpi\n        /* \"#utility.yul\":13876:13894   */\n      tag_323\n      tag_138\n      jump\t// in\n    tag_323:\n        /* \"#utility.yul\":13840:13896   */\n    tag_322:\n        /* \"#utility.yul\":13920:13958   */\n      tag_324\n        /* \"#utility.yul\":13952:13956   */\n      dup3\n        /* \"#utility.yul\":13946:13957   */\n      sload\n        /* \"#utility.yul\":13920:13958   */\n      tag_54\n      jump\t// in\n    tag_324:\n        /* \"#utility.yul\":14005:14072   */\n      tag_325\n        /* \"#utility.yul\":14065:14071   */\n      dup3\n        /* \"#utility.yul\":14057:14063   */\n      dup3\n        /* \"#utility.yul\":14051:14055   */\n      dup6\n        /* \"#utility.yul\":14005:14072   */\n      tag_160\n      jump\t// in\n    tag_325:\n        /* \"#utility.yul\":14099:14100   */\n      0x00\n        /* \"#utility.yul\":14123:14127   */\n      0x20\n        /* \"#utility.yul\":14110:14127   */\n      swap1\n      pop\n        /* \"#utility.yul\":14155:14157   */\n      0x1f\n        /* \"#utility.yul\":14147:14153   */\n      dup4\n        /* \"#utility.yul\":14144:14158   */\n      gt\n        /* \"#utility.yul\":14172:14173   */\n      0x01\n        /* \"#utility.yul\":14167:14785   */\n      dup2\n      eq\n      tag_327\n      jumpi\n        /* \"#utility.yul\":14829:14830   */\n      0x00\n        /* \"#utility.yul\":14846:14852   */\n      dup5\n        /* \"#utility.yul\":14843:14920   */\n      iszero\n      tag_328\n      jumpi\n        /* \"#utility.yul\":14895:14904   */\n      dup3\n        /* \"#utility.yul\":14890:14893   */\n      dup8\n        /* \"#utility.yul\":14886:14905   */\n      add\n        /* \"#utility.yul\":14880:14906   */\n      mload\n        /* \"#utility.yul\":14871:14906   */\n      swap1\n      pop\n        /* \"#utility.yul\":14843:14920   */\n    tag_328:\n        /* \"#utility.yul\":14946:15013   */\n      tag_329\n        /* \"#utility.yul\":15006:15012   */\n      dup6\n        /* \"#utility.yul\":14999:15004   */\n      dup3\n        /* \"#utility.yul\":14946:15013   */\n      tag_163\n      jump\t// in\n    tag_329:\n        /* \"#utility.yul\":14940:14944   */\n      dup7\n        /* \"#utility.yul\":14933:15014   */\n      sstore\n        /* \"#utility.yul\":14802:15024   */\n      pop\n        /* \"#utility.yul\":14137:15024   */\n      jump(tag_326)\n        /* \"#utility.yul\":14167:14785   */\n    tag_327:\n        /* \"#utility.yul\":14219:14223   */\n      0x1f\n        /* \"#utility.yul\":14215:14224   */\n      not\n        /* \"#utility.yul\":14207:14213   */\n      dup5\n        /* \"#utility.yul\":14203:14225   */\n      and\n        /* \"#utility.yul\":14253:14290   */\n      tag_330\n        /* \"#utility.yul\":14285:14289   */\n      dup7\n        /* \"#utility.yul\":14253:14290   */\n      tag_149\n      jump\t// in\n    tag_330:\n        /* \"#utility.yul\":14312:14313   */\n      0x00\n        /* \"#utility.yul\":14326:14534   */\n    tag_331:\n        /* \"#utility.yul\":14340:14347   */\n      dup3\n        /* \"#utility.yul\":14337:14338   */\n      dup2\n        /* \"#utility.yul\":14334:14348   */\n      lt\n        /* \"#utility.yul\":14326:14534   */\n      iszero\n      tag_333\n      jumpi\n        /* \"#utility.yul\":14419:14428   */\n      dup5\n        /* \"#utility.yul\":14414:14417   */\n      dup10\n        /* \"#utility.yul\":14410:14429   */\n      add\n        /* \"#utility.yul\":14404:14430   */\n      mload\n        /* \"#utility.yul\":14396:14402   */\n      dup3\n        /* \"#utility.yul\":14389:14431   */\n      sstore\n        /* \"#utility.yul\":14470:14471   */\n      0x01\n        /* \"#utility.yul\":14462:14468   */\n      dup3\n        /* \"#utility.yul\":14458:14472   */\n      add\n        /* \"#utility.yul\":14448:14472   */\n      swap2\n      pop\n        /* \"#utility.yul\":14517:14519   */\n      0x20\n        /* \"#utility.yul\":14506:14515   */\n      dup6\n        /* \"#utility.yul\":14502:14520   */\n      add\n        /* \"#utility.yul\":14489:14520   */\n      swap5\n      pop\n        /* \"#utility.yul\":14363:14367   */\n      0x20\n        /* \"#utility.yul\":14360:14361   */\n      dup2\n        /* \"#utility.yul\":14356:14368   */\n      add\n        /* \"#utility.yul\":14351:14368   */\n      swap1\n      pop\n        /* \"#utility.yul\":14326:14534   */\n      jump(tag_331)\n    tag_333:\n        /* \"#utility.yul\":14562:14568   */\n      dup7\n        /* \"#utility.yul\":14553:14560   */\n      dup4\n        /* \"#utility.yul\":14550:14569   */\n      lt\n        /* \"#utility.yul\":14547:14726   */\n      iszero\n      tag_334\n      jumpi\n        /* \"#utility.yul\":14620:14629   */\n      dup5\n        /* \"#utility.yul\":14615:14618   */\n      dup10\n        /* \"#utility.yul\":14611:14630   */\n      add\n        /* \"#utility.yul\":14605:14631   */\n      mload\n        /* \"#utility.yul\":14663:14711   */\n      tag_335\n        /* \"#utility.yul\":14705:14709   */\n      0x1f\n        /* \"#utility.yul\":14697:14703   */\n      dup10\n        /* \"#utility.yul\":14693:14710   */\n      and\n        /* \"#utility.yul\":14682:14691   */\n      dup3\n        /* \"#utility.yul\":14663:14711   */\n      tag_162\n      jump\t// in\n    tag_335:\n        /* \"#utility.yul\":14655:14661   */\n      dup4\n        /* \"#utility.yul\":14648:14712   */\n      sstore\n        /* \"#utility.yul\":14570:14726   */\n      pop\n        /* \"#utility.yul\":14547:14726   */\n    tag_334:\n        /* \"#utility.yul\":14772:14773   */\n      0x01\n        /* \"#utility.yul\":14768:14769   */\n      0x02\n        /* \"#utility.yul\":14760:14766   */\n      dup9\n        /* \"#utility.yul\":14756:14770   */\n      mul\n        /* \"#utility.yul\":14752:14774   */\n      add\n        /* \"#utility.yul\":14746:14750   */\n      dup9\n        /* \"#utility.yul\":14739:14775   */\n      sstore\n        /* \"#utility.yul\":14174:14785   */\n      pop\n      pop\n      pop\n        /* \"#utility.yul\":14137:15024   */\n    tag_326:\n      pop\n        /* \"#utility.yul\":13727:15030   */\n      pop\n      pop\n      pop\n        /* \"#utility.yul\":13635:15030   */\n      pop\n      pop\n      jump\t// out\n        /* \"#utility.yul\":15036:15230   */\n    tag_73:\n        /* \"#utility.yul\":15076:15080   */\n      0x00\n        /* \"#utility.yul\":15096:15116   */\n      tag_337\n        /* \"#utility.yul\":15114:15115   */\n      dup3\n        /* \"#utility.yul\":15096:15116   */\n      tag_117\n      jump\t// in\n    tag_337:\n        /* \"#utility.yul\":15091:15116   */\n      swap2\n      pop\n        /* \"#utility.yul\":15130:15150   */\n      tag_338\n        /* \"#utility.yul\":15148:15149   */\n      dup4\n        /* \"#utility.yul\":15130:15150   */\n      tag_117\n      jump\t// in\n    tag_338:\n        /* \"#utility.yul\":15125:15150   */\n      swap3\n      pop\n        /* \"#utility.yul\":15174:15175   */\n      dup3\n        /* \"#utility.yul\":15171:15172   */\n      dup3\n        /* \"#utility.yul\":15167:15176   */\n      sub\n        /* \"#utility.yul\":15159:15176   */\n      swap1\n      pop\n        /* \"#utility.yul\":15198:15199   */\n      dup2\n        /* \"#utility.yul\":15192:15196   */\n      dup2\n        /* \"#utility.yul\":15189:15200   */\n      gt\n        /* \"#utility.yul\":15186:15223   */\n      iszero\n      tag_339\n      jumpi\n        /* \"#utility.yul\":15203:15221   */\n      tag_340\n      tag_145\n      jump\t// in\n    tag_340:\n        /* \"#utility.yul\":15186:15223   */\n    tag_339:\n        /* \"#utility.yul\":15036:15230   */\n      swap3\n      swap2\n      pop\n      pop\n      jump\t// out\n        /* \"#utility.yul\":15236:15408   */\n    tag_164:\n        /* \"#utility.yul\":15376:15400   */\n      0x43616d706169676e206973206e6f742061637469766500000000000000000000\n        /* \"#utility.yul\":15372:15373   */\n      0x00\n        /* \"#utility.yul\":15364:15370   */\n      dup3\n        /* \"#utility.yul\":15360:15374   */\n      add\n        /* \"#utility.yul\":15353:15401   */\n      mstore\n        /* \"#utility.yul\":15236:15408   */\n      pop\n      jump\t// out\n        /* \"#utility.yul\":15414:15780   */\n    tag_165:\n        /* \"#utility.yul\":15556:15559   */\n      0x00\n        /* \"#utility.yul\":15577:15644   */\n      tag_343\n        /* \"#utility.yul\":15641:15643   */\n      0x16\n        /* \"#utility.yul\":15636:15639   */\n      dup4\n        /* \"#utility.yul\":15577:15644   */\n      tag_128\n      jump\t// in\n    tag_343:\n        /* \"#utility.yul\":15570:15644   */\n      swap2\n      pop\n        /* \"#utility.yul\":15653:15746   */\n      tag_344\n        /* \"#utility.yul\":15742:15745   */\n      dup3\n        /* \"#utility.yul\":15653:15746   */\n      tag_164\n      jump\t// in\n    tag_344:\n        /* \"#utility.yul\":15771:15773   */\n      0x20\n        /* \"#utility.yul\":15766:15769   */\n      dup3\n        /* \"#utility.yul\":15762:15774   */\n      add\n        /* \"#utility.yul\":15755:15774   */\n      swap1\n      pop\n        /* \"#utility.yul\":15414:15780   */\n      swap2\n      swap1\n      pop\n      jump\t// out\n        /* \"#utility.yul\":15786:16205   */\n    tag_85:\n        /* \"#utility.yul\":15952:15956   */\n      0x00\n        /* \"#utility.yul\":15990:15992   */\n      0x20\n        /* \"#utility.yul\":15979:15988   */\n      dup3\n        /* \"#utility.yul\":15975:15993   */\n      add\n        /* \"#utility.yul\":15967:15993   */\n      swap1\n      pop\n        /* \"#utility.yul\":16039:16048   */\n      dup2\n        /* \"#utility.yul\":16033:16037   */\n      dup2\n        /* \"#utility.yul\":16029:16049   */\n      sub\n        /* \"#utility.yul\":16025:16026   */\n      0x00\n        /* \"#utility.yul\":16014:16023   */\n      dup4\n        /* \"#utility.yul\":16010:16027   */\n      add\n        /* \"#utility.yul\":16003:16050   */\n      mstore\n        /* \"#utility.yul\":16067:16198   */\n      tag_346\n        /* \"#utility.yul\":16193:16197   */\n      dup2\n        /* \"#utility.yul\":16067:16198   */\n      tag_165\n      jump\t// in\n    tag_346:\n        /* \"#utility.yul\":16059:16198   */\n      swap1\n      pop\n        /* \"#utility.yul\":15786:16205   */\n      swap2\n      swap1\n      pop\n      jump\t// out\n        /* \"#utility.yul\":16211:16435   */\n    tag_166:\n        /* \"#utility.yul\":16351:16385   */\n      0x46756e64696e6720616d6f756e74206d75737420626520677265617465722074\n        /* \"#utility.yul\":16347:16348   */\n      0x00\n        /* \"#utility.yul\":16339:16345   */\n      dup3\n        /* \"#utility.yul\":16335:16349   */\n      add\n        /* \"#utility.yul\":16328:16386   */\n      mstore\n        /* \"#utility.yul\":16420:16427   */\n      0x68616e2030000000000000000000000000000000000000000000000000000000\n        /* \"#utility.yul\":16415:16417   */\n      0x20\n        /* \"#utility.yul\":16407:16413   */\n      dup3\n        /* \"#utility.yul\":16403:16418   */\n      add\n        /* \"#utility.yul\":16396:16428   */\n      mstore\n        /* \"#utility.yul\":16211:16435   */\n      pop\n      jump\t// out\n        /* \"#utility.yul\":16441:16807   */\n    tag_167:\n        /* \"#utility.yul\":16583:16586   */\n      0x00\n        /* \"#utility.yul\":16604:16671   */\n      tag_349\n        /* \"#utility.yul\":16668:16670   */\n      0x25\n        /* \"#utility.yul\":16663:16666   */\n      dup4\n        /* \"#utility.yul\":16604:16671   */\n      tag_128\n      jump\t// in\n    tag_349:\n        /* \"#utility.yul\":16597:16671   */\n      swap2\n      pop\n        /* \"#utility.yul\":16680:16773   */\n      tag_350\n        /* \"#utility.yul\":16769:16772   */\n      dup3\n        /* \"#utility.yul\":16680:16773   */\n      tag_166\n      jump\t// in\n    tag_350:\n        /* \"#utility.yul\":16798:16800   */\n      0x40\n        /* \"#utility.yul\":16793:16796   */\n      dup3\n        /* \"#utility.yul\":16789:16801   */\n      add\n        /* \"#utility.yul\":16782:16801   */\n      swap1\n      pop\n        /* \"#utility.yul\":16441:16807   */\n      swap2\n      swap1\n      pop\n      jump\t// out\n        /* \"#utility.yul\":16813:17232   */\n    tag_89:\n        /* \"#utility.yul\":16979:16983   */\n      0x00\n        /* \"#utility.yul\":17017:17019   */\n      0x20\n        /* \"#utility.yul\":17006:17015   */\n      dup3\n        /* \"#utility.yul\":17002:17020   */\n      add\n        /* \"#utility.yul\":16994:17020   */\n      swap1\n      pop\n        /* \"#utility.yul\":17066:17075   */\n      dup2\n        /* \"#utility.yul\":17060:17064   */\n      dup2\n        /* \"#utility.yul\":17056:17076   */\n      sub\n        /* \"#utility.yul\":17052:17053   */\n      0x00\n        /* \"#utility.yul\":17041:17050   */\n      dup4\n        /* \"#utility.yul\":17037:17054   */\n      add\n        /* \"#utility.yul\":17030:17077   */\n      mstore\n        /* \"#utility.yul\":17094:17225   */\n      tag_352\n        /* \"#utility.yul\":17220:17224   */\n      dup2\n        /* \"#utility.yul\":17094:17225   */\n      tag_167\n      jump\t// in\n    tag_352:\n        /* \"#utility.yul\":17086:17225   */\n      swap1\n      pop\n        /* \"#utility.yul\":16813:17232   */\n      swap2\n      swap1\n      pop\n      jump\t// out\n        /* \"#utility.yul\":17238:17472   */\n    tag_168:\n        /* \"#utility.yul\":17378:17412   */\n      0x43616d706169676e2063726561746f722063616e6e6f742066756e6420746865\n        /* \"#utility.yul\":17374:17375   */\n      0x00\n        /* \"#utility.yul\":17366:17372   */\n      dup3\n        /* \"#utility.yul\":17362:17376   */\n      add\n        /* \"#utility.yul\":17355:17413   */\n      mstore\n        /* \"#utility.yul\":17447:17464   */\n      0x6972206f776e2063616d706169676e0000000000000000000000000000000000\n        /* \"#utility.yul\":17442:17444   */\n      0x20\n        /* \"#utility.yul\":17434:17440   */\n      dup3\n        /* \"#utility.yul\":17430:17445   */\n      add\n        /* \"#utility.yul\":17423:17465   */\n      mstore\n        /* \"#utility.yul\":17238:17472   */\n      pop\n      jump\t// out\n        /* \"#utility.yul\":17478:17844   */\n    tag_169:\n        /* \"#utility.yul\":17620:17623   */\n      0x00\n        /* \"#utility.yul\":17641:17708   */\n      tag_355\n        /* \"#utility.yul\":17705:17707   */\n      0x2f\n        /* \"#utility.yul\":17700:17703   */\n      dup4\n        /* \"#utility.yul\":17641:17708   */\n      tag_128\n      jump\t// in\n    tag_355:\n        /* \"#utility.yul\":17634:17708   */\n      swap2\n      pop\n        /* \"#utility.yul\":17717:17810   */\n      tag_356\n        /* \"#utility.yul\":17806:17809   */\n      dup3\n        /* \"#utility.yul\":17717:17810   */\n      tag_168\n      jump\t// in\n    tag_356:\n        /* \"#utility.yul\":17835:17837   */\n      0x40\n        /* \"#utility.yul\":17830:17833   */\n      dup3\n        /* \"#utility.yul\":17826:17838   */\n      add\n        /* \"#utility.yul\":17819:17838   */\n      swap1\n      pop\n        /* \"#utility.yul\":17478:17844   */\n      swap2\n      swap1\n      pop\n      jump\t// out\n        /* \"#utility.yul\":17850:18269   */\n    tag_95:\n        /* \"#utility.yul\":18016:18020   */\n      0x00\n        /* \"#utility.yul\":18054:18056   */\n      0x20\n        /* \"#utility.yul\":18043:18052   */\n      dup3\n        /* \"#utility.yul\":18039:18057   */\n      add\n        /* \"#utility.yul\":18031:18057   */\n      swap1\n      pop\n        /* \"#utility.yul\":18103:18112   */\n      dup2\n        /* \"#utility.yul\":18097:18101   */\n      dup2\n        /* \"#utility.yul\":18093:18113   */\n      sub\n        /* \"#utility.yul\":18089:18090   */\n      0x00\n        /* \"#utility.yul\":18078:18087   */\n      dup4\n        /* \"#utility.yul\":18074:18091   */\n      add\n        /* \"#utility.yul\":18067:18114   */\n      mstore\n        /* \"#utility.yul\":18131:18262   */\n      tag_358\n        /* \"#utility.yul\":18257:18261   */\n      dup2\n        /* \"#utility.yul\":18131:18262   */\n      tag_169\n      jump\t// in\n    tag_358:\n        /* \"#utility.yul\":18123:18262   */\n      swap1\n      pop\n        /* \"#utility.yul\":17850:18269   */\n      swap2\n      swap1\n      pop\n      jump\t// out\n        /* \"#utility.yul\":18275:18466   */\n    tag_97:\n        /* \"#utility.yul\":18315:18318   */\n      0x00\n        /* \"#utility.yul\":18334:18354   */\n      tag_360\n        /* \"#utility.yul\":18352:18353   */\n      dup3\n        /* \"#utility.yul\":18334:18354   */\n      tag_117\n      jump\t// in\n    tag_360:\n        /* \"#utility.yul\":18329:18354   */\n      swap2\n      pop\n        /* \"#utility.yul\":18368:18388   */\n      tag_361\n        /* \"#utility.yul\":18386:18387   */\n      dup4\n        /* \"#utility.yul\":18368:18388   */\n      tag_117\n      jump\t// in\n    tag_361:\n        /* \"#utility.yul\":18363:18388   */\n      swap3\n      pop\n        /* \"#utility.yul\":18411:18412   */\n      dup3\n        /* \"#utility.yul\":18408:18409   */\n      dup3\n        /* \"#utility.yul\":18404:18413   */\n      add\n        /* \"#utility.yul\":18397:18413   */\n      swap1\n      pop\n        /* \"#utility.yul\":18432:18435   */\n      dup1\n        /* \"#utility.yul\":18429:18430   */\n      dup3\n        /* \"#utility.yul\":18426:18436   */\n      gt\n        /* \"#utility.yul\":18423:18459   */\n      iszero\n      tag_362\n      jumpi\n        /* \"#utility.yul\":18439:18457   */\n      tag_363\n      tag_145\n      jump\t// in\n    tag_363:\n        /* \"#utility.yul\":18423:18459   */\n    tag_362:\n        /* \"#utility.yul\":18275:18466   */\n      swap3\n      swap2\n      pop\n      pop\n      jump\t// out\n\n    auxdata: 0xa26469706673582212207a206be456ab2091088637175b95b4bcff09c529fde0f7283b4889a54e44f15264736f6c63430008120033\n}\n",
				"bytecode": {
					"linkReferences": {},
					"object": "608060405234801561001057600080fd5b50611597806100206000396000f3fe6080604052600436106100555760003560e01c806301eac5821461005a578063141961bc14610085578063148038b0146100ca5780632897c24a1461010757806392bd38bc14610130578063d993de621461014c575b600080fd5b34801561006657600080fd5b5061006f610191565b60405161007c9190610ade565b60405180910390f35b34801561009157600080fd5b506100ac60048036038101906100a79190610b39565b61020a565b6040516100c199989796959493929190610c52565b60405180910390f35b3480156100d657600080fd5b506100f160048036038101906100ec9190610d19565b6103a5565b6040516100fe9190610ade565b60405180910390f35b34801561011357600080fd5b5061012e60048036038101906101299190610e8e565b6103ca565b005b61014a60048036038101906101459190610b39565b610612565b005b34801561015857600080fd5b50610173600480360381019061016e9190610b39565b610870565b60405161018899989796959493929190610c52565b60405180910390f35b6000806000905060005b60018054905081101561020257600181815481106101bc576101bb610f53565b5b906000526020600020906009020160080160009054906101000a900460ff16156101ef5781806101eb90610fb1565b9250505b80806101fa90610fb1565b91505061019b565b508091505090565b6001818154811061021a57600080fd5b90600052602060002090600902016000915090508060000160009054906101000a900473ffffffffffffffffffffffffffffffffffffffff169080600101805461026390611028565b80601f016020809104026020016040519081016040528092919081815260200182805461028f90611028565b80156102dc5780601f106102b1576101008083540402835291602001916102dc565b820191906000526020600020905b8154815290600101906020018083116102bf57829003601f168201915b5050505050908060020180546102f190611028565b80601f016020809104026020016040519081016040528092919081815260200182805461031d90611028565b801561036a5780601f1061033f5761010080835404028352916020019161036a565b820191906000526020600020905b81548152906001019060200180831161034d57829003601f168201915b5050505050908060030154908060040154908060050154908060060154908060070154908060080160009054906101000a900460ff16905089565b6000602052816000526040600020602052806000526040600020600091509150505481565b8282111561040d576040517f08c379a0000000000000000000000000000000000000000000000000000000008152600401610404906110cb565b60405180910390fd5b60006040518061012001604052803373ffffffffffffffffffffffffffffffffffffffff16815260200188815260200187815260200186815260200185815260200184815260200183815260200160008152602001600115158152509050600181908060018154018082558091505060019003906000526020600020906009020160009091909190915060008201518160000160006101000a81548173ffffffffffffffffffffffffffffffffffffffff021916908373ffffffffffffffffffffffffffffffffffffffff16021790555060208201518160010190816104f39190611297565b5060408201518160020190816105099190611297565b50606082015181600301556080820151816004015560a0820151816005015560c0820151816006015560e082015181600701556101008201518160080160006101000a81548160ff02191690831515021790555050503373ffffffffffffffffffffffffffffffffffffffff16600180805490506105879190611369565b7f633109eec20320eded000fc1e2634211aa7e92ba3f5b15faf6dcdafca05094e460405160405180910390a38342111561060957600060018080805490506105cf9190611369565b815481106105e0576105df610f53565b5b906000526020600020906009020160080160006101000a81548160ff0219169083151502179055505b50505050505050565b806001818154811061062757610626610f53565b5b906000526020600020906009020160080160009054906101000a900460ff16610685576040517f08c379a000000000000000000000000000000000000000000000000000000000815260040161067c906113e9565b60405180910390fd5b600034116106c8576040517f08c379a00000000000000000000000000000000000000000000000000000000081526004016106bf9061147b565b60405180910390fd5b600182815481106106dc576106db610f53565b5b906000526020600020906009020160000160009054906101000a900473ffffffffffffffffffffffffffffffffffffffff1673ffffffffffffffffffffffffffffffffffffffff163373ffffffffffffffffffffffffffffffffffffffff160361077b576040517f08c379a00000000000000000000000000000000000000000000000000000000081526004016107729061150d565b60405180910390fd5b3460008084815260200190815260200160002060003373ffffffffffffffffffffffffffffffffffffffff1673ffffffffffffffffffffffffffffffffffffffff16815260200190815260200160002060008282546107da919061152d565b9250508190555034600183815481106107f6576107f5610f53565b5b90600052602060002090600902016007016000828254610816919061152d565b925050819055503373ffffffffffffffffffffffffffffffffffffffff16827f9467b5729ed64e1dcd6030241a31a201c82b464b858fcbfbdb375bec6830447f346040516108649190610ade565b60405180910390a35050565b6000606080600080600080600080600060018b8154811061089457610893610f53565b5b9060005260206000209060090201604051806101200160405290816000820160009054906101000a900473ffffffffffffffffffffffffffffffffffffffff1673ffffffffffffffffffffffffffffffffffffffff1673ffffffffffffffffffffffffffffffffffffffff16815260200160018201805461091490611028565b80601f016020809104026020016040519081016040528092919081815260200182805461094090611028565b801561098d5780601f106109625761010080835404028352916020019161098d565b820191906000526020600020905b81548152906001019060200180831161097057829003601f168201915b505050505081526020016002820180546109a690611028565b80601f01602080910402602001604051908101604052809291908181526020018280546109d290611028565b8015610a1f5780601f106109f457610100808354040283529160200191610a1f565b820191906000526020600020905b815481529060010190602001808311610a0257829003601f168201915b5050505050815260200160038201548152602001600482015481526020016005820154815260200160068201548152602001600782015481526020016008820160009054906101000a900460ff1615151515815250509050806000015181602001518260400151836060015184608001518560a001518660c001518760e00151886101000151995099509950995099509950995099509950509193959799909294969850565b6000819050919050565b610ad881610ac5565b82525050565b6000602082019050610af36000830184610acf565b92915050565b6000604051905090565b600080fd5b600080fd5b610b1681610ac5565b8114610b2157600080fd5b50565b600081359050610b3381610b0d565b92915050565b600060208284031215610b4f57610b4e610b03565b5b6000610b5d84828501610b24565b91505092915050565b600073ffffffffffffffffffffffffffffffffffffffff82169050919050565b6000610b9182610b66565b9050919050565b610ba181610b86565b82525050565b600081519050919050565b600082825260208201905092915050565b60005b83811015610be1578082015181840152602081019050610bc6565b60008484015250505050565b6000601f19601f8301169050919050565b6000610c0982610ba7565b610c138185610bb2565b9350610c23818560208601610bc3565b610c2c81610bed565b840191505092915050565b60008115159050919050565b610c4c81610c37565b82525050565b600061012082019050610c68600083018c610b98565b8181036020830152610c7a818b610bfe565b90508181036040830152610c8e818a610bfe565b9050610c9d6060830189610acf565b610caa6080830188610acf565b610cb760a0830187610acf565b610cc460c0830186610acf565b610cd160e0830185610acf565b610cdf610100830184610c43565b9a9950505050505050505050565b610cf681610b86565b8114610d0157600080fd5b50565b600081359050610d1381610ced565b92915050565b60008060408385031215610d3057610d2f610b03565b5b6000610d3e85828601610b24565b9250506020610d4f85828601610d04565b9150509250929050565b600080fd5b600080fd5b7f4e487b7100000000000000000000000000000000000000000000000000000000600052604160045260246000fd5b610d9b82610bed565b810181811067ffffffffffffffff82111715610dba57610db9610d63565b5b80604052505050565b6000610dcd610af9565b9050610dd98282610d92565b919050565b600067ffffffffffffffff821115610df957610df8610d63565b5b610e0282610bed565b9050602081019050919050565b82818337600083830152505050565b6000610e31610e2c84610dde565b610dc3565b905082815260208101848484011115610e4d57610e4c610d5e565b5b610e58848285610e0f565b509392505050565b600082601f830112610e7557610e74610d59565b5b8135610e85848260208601610e1e565b91505092915050565b60008060008060008060c08789031215610eab57610eaa610b03565b5b600087013567ffffffffffffffff811115610ec957610ec8610b08565b5b610ed589828a01610e60565b965050602087013567ffffffffffffffff811115610ef657610ef5610b08565b5b610f0289828a01610e60565b9550506040610f1389828a01610b24565b9450506060610f2489828a01610b24565b9350506080610f3589828a01610b24565b92505060a0610f4689828a01610b24565b9150509295509295509295565b7f4e487b7100000000000000000000000000000000000000000000000000000000600052603260045260246000fd5b7f4e487b7100000000000000000000000000000000000000000000000000000000600052601160045260246000fd5b6000610fbc82610ac5565b91507fffffffffffffffffffffffffffffffffffffffffffffffffffffffffffffffff8203610fee57610fed610f82565b5b600182019050919050565b7f4e487b7100000000000000000000000000000000000000000000000000000000600052602260045260246000fd5b6000600282049050600182168061104057607f821691505b60208210810361105357611052610ff9565b5b50919050565b7f46756e64696e6720646174652063616e6e6f74206265206c617465722074686160008201527f6e20656e64206461746500000000000000000000000000000000000000000000602082015250565b60006110b5602a83610bb2565b91506110c082611059565b604082019050919050565b600060208201905081810360008301526110e4816110a8565b9050919050565b60008190508160005260206000209050919050565b60006020601f8301049050919050565b600082821b905092915050565b60006008830261114d7fffffffffffffffffffffffffffffffffffffffffffffffffffffffffffffffff82611110565b6111578683611110565b95508019841693508086168417925050509392505050565b6000819050919050565b600061119461118f61118a84610ac5565b61116f565b610ac5565b9050919050565b6000819050919050565b6111ae83611179565b6111c26111ba8261119b565b84845461111d565b825550505050565b600090565b6111d76111ca565b6111e28184846111a5565b505050565b5b81811015611206576111fb6000826111cf565b6001810190506111e8565b5050565b601f82111561124b5761121c816110eb565b61122584611100565b81016020851015611234578190505b61124861124085611100565b8301826111e7565b50505b505050565b600082821c905092915050565b600061126e60001984600802611250565b1980831691505092915050565b6000611287838361125d565b9150826002028217905092915050565b6112a082610ba7565b67ffffffffffffffff8111156112b9576112b8610d63565b5b6112c38254611028565b6112ce82828561120a565b600060209050601f83116001811461130157600084156112ef578287015190505b6112f9858261127b565b865550611361565b601f19841661130f866110eb565b60005b8281101561133757848901518255600182019150602085019450602081019050611312565b868310156113545784890151611350601f89168261125d565b8355505b6001600288020188555050505b505050505050565b600061137482610ac5565b915061137f83610ac5565b925082820390508181111561139757611396610f82565b5b92915050565b7f43616d706169676e206973206e6f742061637469766500000000000000000000600082015250565b60006113d3601683610bb2565b91506113de8261139d565b602082019050919050565b60006020820190508181036000830152611402816113c6565b9050919050565b7f46756e64696e6720616d6f756e74206d7573742062652067726561746572207460008201527f68616e2030000000000000000000000000000000000000000000000000000000602082015250565b6000611465602583610bb2565b915061147082611409565b604082019050919050565b6000602082019050818103600083015261149481611458565b9050919050565b7f43616d706169676e2063726561746f722063616e6e6f742066756e642074686560008201527f6972206f776e2063616d706169676e0000000000000000000000000000000000602082015250565b60006114f7602f83610bb2565b91506115028261149b565b604082019050919050565b60006020820190508181036000830152611526816114ea565b9050919050565b600061153882610ac5565b915061154383610ac5565b925082820190508082111561155b5761155a610f82565b5b9291505056fea26469706673582212207a206be456ab2091088637175b95b4bcff09c529fde0f7283b4889a54e44f15264736f6c63430008120033",
					"opcodes": "PUSH1 0x80 PUSH1 0x40 MSTORE CALLVALUE DUP1 ISZERO PUSH2 0x10 JUMPI PUSH1 0x0 DUP1 REVERT JUMPDEST POP PUSH2 0x1597 DUP1 PUSH2 0x20 PUSH1 0x0 CODECOPY PUSH1 0x0 RETURN INVALID PUSH1 0x80 PUSH1 0x40 MSTORE PUSH1 0x4 CALLDATASIZE LT PUSH2 0x55 JUMPI PUSH1 0x0 CALLDATALOAD PUSH1 0xE0 SHR DUP1 PUSH4 0x1EAC582 EQ PUSH2 0x5A JUMPI DUP1 PUSH4 0x141961BC EQ PUSH2 0x85 JUMPI DUP1 PUSH4 0x148038B0 EQ PUSH2 0xCA JUMPI DUP1 PUSH4 0x2897C24A EQ PUSH2 0x107 JUMPI DUP1 PUSH4 0x92BD38BC EQ PUSH2 0x130 JUMPI DUP1 PUSH4 0xD993DE62 EQ PUSH2 0x14C JUMPI JUMPDEST PUSH1 0x0 DUP1 REVERT JUMPDEST CALLVALUE DUP1 ISZERO PUSH2 0x66 JUMPI PUSH1 0x0 DUP1 REVERT JUMPDEST POP PUSH2 0x6F PUSH2 0x191 JUMP JUMPDEST PUSH1 0x40 MLOAD PUSH2 0x7C SWAP2 SWAP1 PUSH2 0xADE JUMP JUMPDEST PUSH1 0x40 MLOAD DUP1 SWAP2 SUB SWAP1 RETURN JUMPDEST CALLVALUE DUP1 ISZERO PUSH2 0x91 JUMPI PUSH1 0x0 DUP1 REVERT JUMPDEST POP PUSH2 0xAC PUSH1 0x4 DUP1 CALLDATASIZE SUB DUP2 ADD SWAP1 PUSH2 0xA7 SWAP2 SWAP1 PUSH2 0xB39 JUMP JUMPDEST PUSH2 0x20A JUMP JUMPDEST PUSH1 0x40 MLOAD PUSH2 0xC1 SWAP10 SWAP9 SWAP8 SWAP7 SWAP6 SWAP5 SWAP4 SWAP3 SWAP2 SWAP1 PUSH2 0xC52 JUMP JUMPDEST PUSH1 0x40 MLOAD DUP1 SWAP2 SUB SWAP1 RETURN JUMPDEST CALLVALUE DUP1 ISZERO PUSH2 0xD6 JUMPI PUSH1 0x0 DUP1 REVERT JUMPDEST POP PUSH2 0xF1 PUSH1 0x4 DUP1 CALLDATASIZE SUB DUP2 ADD SWAP1 PUSH2 0xEC SWAP2 SWAP1 PUSH2 0xD19 JUMP JUMPDEST PUSH2 0x3A5 JUMP JUMPDEST PUSH1 0x40 MLOAD PUSH2 0xFE SWAP2 SWAP1 PUSH2 0xADE JUMP JUMPDEST PUSH1 0x40 MLOAD DUP1 SWAP2 SUB SWAP1 RETURN JUMPDEST CALLVALUE DUP1 ISZERO PUSH2 0x113 JUMPI PUSH1 0x0 DUP1 REVERT JUMPDEST POP PUSH2 0x12E PUSH1 0x4 DUP1 CALLDATASIZE SUB DUP2 ADD SWAP1 PUSH2 0x129 SWAP2 SWAP1 PUSH2 0xE8E JUMP JUMPDEST PUSH2 0x3CA JUMP JUMPDEST STOP JUMPDEST PUSH2 0x14A PUSH1 0x4 DUP1 CALLDATASIZE SUB DUP2 ADD SWAP1 PUSH2 0x145 SWAP2 SWAP1 PUSH2 0xB39 JUMP JUMPDEST PUSH2 0x612 JUMP JUMPDEST STOP JUMPDEST CALLVALUE DUP1 ISZERO PUSH2 0x158 JUMPI PUSH1 0x0 DUP1 REVERT JUMPDEST POP PUSH2 0x173 PUSH1 0x4 DUP1 CALLDATASIZE SUB DUP2 ADD SWAP1 PUSH2 0x16E SWAP2 SWAP1 PUSH2 0xB39 JUMP JUMPDEST PUSH2 0x870 JUMP JUMPDEST PUSH1 0x40 MLOAD PUSH2 0x188 SWAP10 SWAP9 SWAP8 SWAP7 SWAP6 SWAP5 SWAP4 SWAP3 SWAP2 SWAP1 PUSH2 0xC52 JUMP JUMPDEST PUSH1 0x40 MLOAD DUP1 SWAP2 SUB SWAP1 RETURN JUMPDEST PUSH1 0x0 DUP1 PUSH1 0x0 SWAP1 POP PUSH1 0x0 JUMPDEST PUSH1 0x1 DUP1 SLOAD SWAP1 POP DUP2 LT ISZERO PUSH2 0x202 JUMPI PUSH1 0x1 DUP2 DUP2 SLOAD DUP2 LT PUSH2 0x1BC JUMPI PUSH2 0x1BB PUSH2 0xF53 JUMP JUMPDEST JUMPDEST SWAP1 PUSH1 0x0 MSTORE PUSH1 0x20 PUSH1 0x0 KECCAK256 SWAP1 PUSH1 0x9 MUL ADD PUSH1 0x8 ADD PUSH1 0x0 SWAP1 SLOAD SWAP1 PUSH2 0x100 EXP SWAP1 DIV PUSH1 0xFF AND ISZERO PUSH2 0x1EF JUMPI DUP2 DUP1 PUSH2 0x1EB SWAP1 PUSH2 0xFB1 JUMP JUMPDEST SWAP3 POP POP JUMPDEST DUP1 DUP1 PUSH2 0x1FA SWAP1 PUSH2 0xFB1 JUMP JUMPDEST SWAP2 POP POP PUSH2 0x19B JUMP JUMPDEST POP DUP1 SWAP2 POP POP SWAP1 JUMP JUMPDEST PUSH1 0x1 DUP2 DUP2 SLOAD DUP2 LT PUSH2 0x21A JUMPI PUSH1 0x0 DUP1 REVERT JUMPDEST SWAP1 PUSH1 0x0 MSTORE PUSH1 0x20 PUSH1 0x0 KECCAK256 SWAP1 PUSH1 0x9 MUL ADD PUSH1 0x0 SWAP2 POP SWAP1 POP DUP1 PUSH1 0x0 ADD PUSH1 0x0 SWAP1 SLOAD SWAP1 PUSH2 0x100 EXP SWAP1 DIV PUSH20 0xFFFFFFFFFFFFFFFFFFFFFFFFFFFFFFFFFFFFFFFF AND SWAP1 DUP1 PUSH1 0x1 ADD DUP1 SLOAD PUSH2 0x263 SWAP1 PUSH2 0x1028 JUMP JUMPDEST DUP1 PUSH1 0x1F ADD PUSH1 0x20 DUP1 SWAP2 DIV MUL PUSH1 0x20 ADD PUSH1 0x40 MLOAD SWAP1 DUP2 ADD PUSH1 0x40 MSTORE DUP1 SWAP3 SWAP2 SWAP1 DUP2 DUP2 MSTORE PUSH1 0x20 ADD DUP3 DUP1 SLOAD PUSH2 0x28F SWAP1 PUSH2 0x1028 JUMP JUMPDEST DUP1 ISZERO PUSH2 0x2DC JUMPI DUP1 PUSH1 0x1F LT PUSH2 0x2B1 JUMPI PUSH2 0x100 DUP1 DUP4 SLOAD DIV MUL DUP4 MSTORE SWAP2 PUSH1 0x20 ADD SWAP2 PUSH2 0x2DC JUMP JUMPDEST DUP3 ADD SWAP2 SWAP1 PUSH1 0x0 MSTORE PUSH1 0x20 PUSH1 0x0 KECCAK256 SWAP1 JUMPDEST DUP2 SLOAD DUP2 MSTORE SWAP1 PUSH1 0x1 ADD SWAP1 PUSH1 0x20 ADD DUP1 DUP4 GT PUSH2 0x2BF JUMPI DUP3 SWAP1 SUB PUSH1 0x1F AND DUP3 ADD SWAP2 JUMPDEST POP POP POP POP POP SWAP1 DUP1 PUSH1 0x2 ADD DUP1 SLOAD PUSH2 0x2F1 SWAP1 PUSH2 0x1028 JUMP JUMPDEST DUP1 PUSH1 0x1F ADD PUSH1 0x20 DUP1 SWAP2 DIV MUL PUSH1 0x20 ADD PUSH1 0x40 MLOAD SWAP1 DUP2 ADD PUSH1 0x40 MSTORE DUP1 SWAP3 SWAP2 SWAP1 DUP2 DUP2 MSTORE PUSH1 0x20 ADD DUP3 DUP1 SLOAD PUSH2 0x31D SWAP1 PUSH2 0x1028 JUMP JUMPDEST DUP1 ISZERO PUSH2 0x36A JUMPI DUP1 PUSH1 0x1F LT PUSH2 0x33F JUMPI PUSH2 0x100 DUP1 DUP4 SLOAD DIV MUL DUP4 MSTORE SWAP2 PUSH1 0x20 ADD SWAP2 PUSH2 0x36A JUMP JUMPDEST DUP3 ADD SWAP2 SWAP1 PUSH1 0x0 MSTORE PUSH1 0x20 PUSH1 0x0 KECCAK256 SWAP1 JUMPDEST DUP2 SLOAD DUP2 MSTORE SWAP1 PUSH1 0x1 ADD SWAP1 PUSH1 0x20 ADD DUP1 DUP4 GT PUSH2 0x34D JUMPI DUP3 SWAP1 SUB PUSH1 0x1F AND DUP3 ADD SWAP2 JUMPDEST POP POP POP POP POP SWAP1 DUP1 PUSH1 0x3 ADD SLOAD SWAP1 DUP1 PUSH1 0x4 ADD SLOAD SWAP1 DUP1 PUSH1 0x5 ADD SLOAD SWAP1 DUP1 PUSH1 0x6 ADD SLOAD SWAP1 DUP1 PUSH1 0x7 ADD SLOAD SWAP1 DUP1 PUSH1 0x8 ADD PUSH1 0x0 SWAP1 SLOAD SWAP1 PUSH2 0x100 EXP SWAP1 DIV PUSH1 0xFF AND SWAP1 POP DUP10 JUMP JUMPDEST PUSH1 0x0 PUSH1 0x20 MSTORE DUP2 PUSH1 0x0 MSTORE PUSH1 0x40 PUSH1 0x0 KECCAK256 PUSH1 0x20 MSTORE DUP1 PUSH1 0x0 MSTORE PUSH1 0x40 PUSH1 0x0 KECCAK256 PUSH1 0x0 SWAP2 POP SWAP2 POP POP SLOAD DUP2 JUMP JUMPDEST DUP3 DUP3 GT ISZERO PUSH2 0x40D JUMPI PUSH1 0x40 MLOAD PUSH32 0x8C379A000000000000000000000000000000000000000000000000000000000 DUP2 MSTORE PUSH1 0x4 ADD PUSH2 0x404 SWAP1 PUSH2 0x10CB JUMP JUMPDEST PUSH1 0x40 MLOAD DUP1 SWAP2 SUB SWAP1 REVERT JUMPDEST PUSH1 0x0 PUSH1 0x40 MLOAD DUP1 PUSH2 0x120 ADD PUSH1 0x40 MSTORE DUP1 CALLER PUSH20 0xFFFFFFFFFFFFFFFFFFFFFFFFFFFFFFFFFFFFFFFF AND DUP2 MSTORE PUSH1 0x20 ADD DUP9 DUP2 MSTORE PUSH1 0x20 ADD DUP8 DUP2 MSTORE PUSH1 0x20 ADD DUP7 DUP2 MSTORE PUSH1 0x20 ADD DUP6 DUP2 MSTORE PUSH1 0x20 ADD DUP5 DUP2 MSTORE PUSH1 0x20 ADD DUP4 DUP2 MSTORE PUSH1 0x20 ADD PUSH1 0x0 DUP2 MSTORE PUSH1 0x20 ADD PUSH1 0x1 ISZERO ISZERO DUP2 MSTORE POP SWAP1 POP PUSH1 0x1 DUP2 SWAP1 DUP1 PUSH1 0x1 DUP2 SLOAD ADD DUP1 DUP3 SSTORE DUP1 SWAP2 POP POP PUSH1 0x1 SWAP1 SUB SWAP1 PUSH1 0x0 MSTORE PUSH1 0x20 PUSH1 0x0 KECCAK256 SWAP1 PUSH1 0x9 MUL ADD PUSH1 0x0 SWAP1 SWAP2 SWAP1 SWAP2 SWAP1 SWAP2 POP PUSH1 0x0 DUP3 ADD MLOAD DUP2 PUSH1 0x0 ADD PUSH1 0x0 PUSH2 0x100 EXP DUP2 SLOAD DUP2 PUSH20 0xFFFFFFFFFFFFFFFFFFFFFFFFFFFFFFFFFFFFFFFF MUL NOT AND SWAP1 DUP4 PUSH20 0xFFFFFFFFFFFFFFFFFFFFFFFFFFFFFFFFFFFFFFFF AND MUL OR SWAP1 SSTORE POP PUSH1 0x20 DUP3 ADD MLOAD DUP2 PUSH1 0x1 ADD SWAP1 DUP2 PUSH2 0x4F3 SWAP2 SWAP1 PUSH2 0x1297 JUMP JUMPDEST POP PUSH1 0x40 DUP3 ADD MLOAD DUP2 PUSH1 0x2 ADD SWAP1 DUP2 PUSH2 0x509 SWAP2 SWAP1 PUSH2 0x1297 JUMP JUMPDEST POP PUSH1 0x60 DUP3 ADD MLOAD DUP2 PUSH1 0x3 ADD SSTORE PUSH1 0x80 DUP3 ADD MLOAD DUP2 PUSH1 0x4 ADD SSTORE PUSH1 0xA0 DUP3 ADD MLOAD DUP2 PUSH1 0x5 ADD SSTORE PUSH1 0xC0 DUP3 ADD MLOAD DUP2 PUSH1 0x6 ADD SSTORE PUSH1 0xE0 DUP3 ADD MLOAD DUP2 PUSH1 0x7 ADD SSTORE PUSH2 0x100 DUP3 ADD MLOAD DUP2 PUSH1 0x8 ADD PUSH1 0x0 PUSH2 0x100 EXP DUP2 SLOAD DUP2 PUSH1 0xFF MUL NOT AND SWAP1 DUP4 ISZERO ISZERO MUL OR SWAP1 SSTORE POP POP POP CALLER PUSH20 0xFFFFFFFFFFFFFFFFFFFFFFFFFFFFFFFFFFFFFFFF AND PUSH1 0x1 DUP1 DUP1 SLOAD SWAP1 POP PUSH2 0x587 SWAP2 SWAP1 PUSH2 0x1369 JUMP JUMPDEST PUSH32 0x633109EEC20320EDED000FC1E2634211AA7E92BA3F5B15FAF6DCDAFCA05094E4 PUSH1 0x40 MLOAD PUSH1 0x40 MLOAD DUP1 SWAP2 SUB SWAP1 LOG3 DUP4 TIMESTAMP GT ISZERO PUSH2 0x609 JUMPI PUSH1 0x0 PUSH1 0x1 DUP1 DUP1 DUP1 SLOAD SWAP1 POP PUSH2 0x5CF SWAP2 SWAP1 PUSH2 0x1369 JUMP JUMPDEST DUP2 SLOAD DUP2 LT PUSH2 0x5E0 JUMPI PUSH2 0x5DF PUSH2 0xF53 JUMP JUMPDEST JUMPDEST SWAP1 PUSH1 0x0 MSTORE PUSH1 0x20 PUSH1 0x0 KECCAK256 SWAP1 PUSH1 0x9 MUL ADD PUSH1 0x8 ADD PUSH1 0x0 PUSH2 0x100 EXP DUP2 SLOAD DUP2 PUSH1 0xFF MUL NOT AND SWAP1 DUP4 ISZERO ISZERO MUL OR SWAP1 SSTORE POP JUMPDEST POP POP POP POP POP POP POP JUMP JUMPDEST DUP1 PUSH1 0x1 DUP2 DUP2 SLOAD DUP2 LT PUSH2 0x627 JUMPI PUSH2 0x626 PUSH2 0xF53 JUMP JUMPDEST JUMPDEST SWAP1 PUSH1 0x0 MSTORE PUSH1 0x20 PUSH1 0x0 KECCAK256 SWAP1 PUSH1 0x9 MUL ADD PUSH1 0x8 ADD PUSH1 0x0 SWAP1 SLOAD SWAP1 PUSH2 0x100 EXP SWAP1 DIV PUSH1 0xFF AND PUSH2 0x685 JUMPI PUSH1 0x40 MLOAD PUSH32 0x8C379A000000000000000000000000000000000000000000000000000000000 DUP2 MSTORE PUSH1 0x4 ADD PUSH2 0x67C SWAP1 PUSH2 0x13E9 JUMP JUMPDEST PUSH1 0x40 MLOAD DUP1 SWAP2 SUB SWAP1 REVERT JUMPDEST PUSH1 0x0 CALLVALUE GT PUSH2 0x6C8 JUMPI PUSH1 0x40 MLOAD PUSH32 0x8C379A000000000000000000000000000000000000000000000000000000000 DUP2 MSTORE PUSH1 0x4 ADD PUSH2 0x6BF SWAP1 PUSH2 0x147B JUMP JUMPDEST PUSH1 0x40 MLOAD DUP1 SWAP2 SUB SWAP1 REVERT JUMPDEST PUSH1 0x1 DUP3 DUP2 SLOAD DUP2 LT PUSH2 0x6DC JUMPI PUSH2 0x6DB PUSH2 0xF53 JUMP JUMPDEST JUMPDEST SWAP1 PUSH1 0x0 MSTORE PUSH1 0x20 PUSH1 0x0 KECCAK256 SWAP1 PUSH1 0x9 MUL ADD PUSH1 0x0 ADD PUSH1 0x0 SWAP1 SLOAD SWAP1 PUSH2 0x100 EXP SWAP1 DIV PUSH20 0xFFFFFFFFFFFFFFFFFFFFFFFFFFFFFFFFFFFFFFFF AND PUSH20 0xFFFFFFFFFFFFFFFFFFFFFFFFFFFFFFFFFFFFFFFF AND CALLER PUSH20 0xFFFFFFFFFFFFFFFFFFFFFFFFFFFFFFFFFFFFFFFF AND SUB PUSH2 0x77B JUMPI PUSH1 0x40 MLOAD PUSH32 0x8C379A000000000000000000000000000000000000000000000000000000000 DUP2 MSTORE PUSH1 0x4 ADD PUSH2 0x772 SWAP1 PUSH2 0x150D JUMP JUMPDEST PUSH1 0x40 MLOAD DUP1 SWAP2 SUB SWAP1 REVERT JUMPDEST CALLVALUE PUSH1 0x0 DUP1 DUP5 DUP2 MSTORE PUSH1 0x20 ADD SWAP1 DUP2 MSTORE PUSH1 0x20 ADD PUSH1 0x0 KECCAK256 PUSH1 0x0 CALLER PUSH20 0xFFFFFFFFFFFFFFFFFFFFFFFFFFFFFFFFFFFFFFFF AND PUSH20 0xFFFFFFFFFFFFFFFFFFFFFFFFFFFFFFFFFFFFFFFF AND DUP2 MSTORE PUSH1 0x20 ADD SWAP1 DUP2 MSTORE PUSH1 0x20 ADD PUSH1 0x0 KECCAK256 PUSH1 0x0 DUP3 DUP3 SLOAD PUSH2 0x7DA SWAP2 SWAP1 PUSH2 0x152D JUMP JUMPDEST SWAP3 POP POP DUP2 SWAP1 SSTORE POP CALLVALUE PUSH1 0x1 DUP4 DUP2 SLOAD DUP2 LT PUSH2 0x7F6 JUMPI PUSH2 0x7F5 PUSH2 0xF53 JUMP JUMPDEST JUMPDEST SWAP1 PUSH1 0x0 MSTORE PUSH1 0x20 PUSH1 0x0 KECCAK256 SWAP1 PUSH1 0x9 MUL ADD PUSH1 0x7 ADD PUSH1 0x0 DUP3 DUP3 SLOAD PUSH2 0x816 SWAP2 SWAP1 PUSH2 0x152D JUMP JUMPDEST SWAP3 POP POP DUP2 SWAP1 SSTORE POP CALLER PUSH20 0xFFFFFFFFFFFFFFFFFFFFFFFFFFFFFFFFFFFFFFFF AND DUP3 PUSH32 0x9467B5729ED64E1DCD6030241A31A201C82B464B858FCBFBDB375BEC6830447F CALLVALUE PUSH1 0x40 MLOAD PUSH2 0x864 SWAP2 SWAP1 PUSH2 0xADE JUMP JUMPDEST PUSH1 0x40 MLOAD DUP1 SWAP2 SUB SWAP1 LOG3 POP POP JUMP JUMPDEST PUSH1 0x0 PUSH1 0x60 DUP1 PUSH1 0x0 DUP1 PUSH1 0x0 DUP1 PUSH1 0x0 DUP1 PUSH1 0x0 PUSH1 0x1 DUP12 DUP2 SLOAD DUP2 LT PUSH2 0x894 JUMPI PUSH2 0x893 PUSH2 0xF53 JUMP JUMPDEST JUMPDEST SWAP1 PUSH1 0x0 MSTORE PUSH1 0x20 PUSH1 0x0 KECCAK256 SWAP1 PUSH1 0x9 MUL ADD PUSH1 0x40 MLOAD DUP1 PUSH2 0x120 ADD PUSH1 0x40 MSTORE SWAP1 DUP2 PUSH1 0x0 DUP3 ADD PUSH1 0x0 SWAP1 SLOAD SWAP1 PUSH2 0x100 EXP SWAP1 DIV PUSH20 0xFFFFFFFFFFFFFFFFFFFFFFFFFFFFFFFFFFFFFFFF AND PUSH20 0xFFFFFFFFFFFFFFFFFFFFFFFFFFFFFFFFFFFFFFFF AND PUSH20 0xFFFFFFFFFFFFFFFFFFFFFFFFFFFFFFFFFFFFFFFF AND DUP2 MSTORE PUSH1 0x20 ADD PUSH1 0x1 DUP3 ADD DUP1 SLOAD PUSH2 0x914 SWAP1 PUSH2 0x1028 JUMP JUMPDEST DUP1 PUSH1 0x1F ADD PUSH1 0x20 DUP1 SWAP2 DIV MUL PUSH1 0x20 ADD PUSH1 0x40 MLOAD SWAP1 DUP2 ADD PUSH1 0x40 MSTORE DUP1 SWAP3 SWAP2 SWAP1 DUP2 DUP2 MSTORE PUSH1 0x20 ADD DUP3 DUP1 SLOAD PUSH2 0x940 SWAP1 PUSH2 0x1028 JUMP JUMPDEST DUP1 ISZERO PUSH2 0x98D JUMPI DUP1 PUSH1 0x1F LT PUSH2 0x962 JUMPI PUSH2 0x100 DUP1 DUP4 SLOAD DIV MUL DUP4 MSTORE SWAP2 PUSH1 0x20 ADD SWAP2 PUSH2 0x98D JUMP JUMPDEST DUP3 ADD SWAP2 SWAP1 PUSH1 0x0 MSTORE PUSH1 0x20 PUSH1 0x0 KECCAK256 SWAP1 JUMPDEST DUP2 SLOAD DUP2 MSTORE SWAP1 PUSH1 0x1 ADD SWAP1 PUSH1 0x20 ADD DUP1 DUP4 GT PUSH2 0x970 JUMPI DUP3 SWAP1 SUB PUSH1 0x1F AND DUP3 ADD SWAP2 JUMPDEST POP POP POP POP POP DUP2 MSTORE PUSH1 0x20 ADD PUSH1 0x2 DUP3 ADD DUP1 SLOAD PUSH2 0x9A6 SWAP1 PUSH2 0x1028 JUMP JUMPDEST DUP1 PUSH1 0x1F ADD PUSH1 0x20 DUP1 SWAP2 DIV MUL PUSH1 0x20 ADD PUSH1 0x40 MLOAD SWAP1 DUP2 ADD PUSH1 0x40 MSTORE DUP1 SWAP3 SWAP2 SWAP1 DUP2 DUP2 MSTORE PUSH1 0x20 ADD DUP3 DUP1 SLOAD PUSH2 0x9D2 SWAP1 PUSH2 0x1028 JUMP JUMPDEST DUP1 ISZERO PUSH2 0xA1F JUMPI DUP1 PUSH1 0x1F LT PUSH2 0x9F4 JUMPI PUSH2 0x100 DUP1 DUP4 SLOAD DIV MUL DUP4 MSTORE SWAP2 PUSH1 0x20 ADD SWAP2 PUSH2 0xA1F JUMP JUMPDEST DUP3 ADD SWAP2 SWAP1 PUSH1 0x0 MSTORE PUSH1 0x20 PUSH1 0x0 KECCAK256 SWAP1 JUMPDEST DUP2 SLOAD DUP2 MSTORE SWAP1 PUSH1 0x1 ADD SWAP1 PUSH1 0x20 ADD DUP1 DUP4 GT PUSH2 0xA02 JUMPI DUP3 SWAP1 SUB PUSH1 0x1F AND DUP3 ADD SWAP2 JUMPDEST POP POP POP POP POP DUP2 MSTORE PUSH1 0x20 ADD PUSH1 0x3 DUP3 ADD SLOAD DUP2 MSTORE PUSH1 0x20 ADD PUSH1 0x4 DUP3 ADD SLOAD DUP2 MSTORE PUSH1 0x20 ADD PUSH1 0x5 DUP3 ADD SLOAD DUP2 MSTORE PUSH1 0x20 ADD PUSH1 0x6 DUP3 ADD SLOAD DUP2 MSTORE PUSH1 0x20 ADD PUSH1 0x7 DUP3 ADD SLOAD DUP2 MSTORE PUSH1 0x20 ADD PUSH1 0x8 DUP3 ADD PUSH1 0x0 SWAP1 SLOAD SWAP1 PUSH2 0x100 EXP SWAP1 DIV PUSH1 0xFF AND ISZERO ISZERO ISZERO ISZERO DUP2 MSTORE POP POP SWAP1 POP DUP1 PUSH1 0x0 ADD MLOAD DUP2 PUSH1 0x20 ADD MLOAD DUP3 PUSH1 0x40 ADD MLOAD DUP4 PUSH1 0x60 ADD MLOAD DUP5 PUSH1 0x80 ADD MLOAD DUP6 PUSH1 0xA0 ADD MLOAD DUP7 PUSH1 0xC0 ADD MLOAD DUP8 PUSH1 0xE0 ADD MLOAD DUP9 PUSH2 0x100 ADD MLOAD SWAP10 POP SWAP10 POP SWAP10 POP SWAP10 POP SWAP10 POP SWAP10 POP SWAP10 POP SWAP10 POP SWAP10 POP POP SWAP2 SWAP4 SWAP6 SWAP8 SWAP10 SWAP1 SWAP3 SWAP5 SWAP7 SWAP9 POP JUMP JUMPDEST PUSH1 0x0 DUP2 SWAP1 POP SWAP2 SWAP1 POP JUMP JUMPDEST PUSH2 0xAD8 DUP2 PUSH2 0xAC5 JUMP JUMPDEST DUP3 MSTORE POP POP JUMP JUMPDEST PUSH1 0x0 PUSH1 0x20 DUP3 ADD SWAP1 POP PUSH2 0xAF3 PUSH1 0x0 DUP4 ADD DUP5 PUSH2 0xACF JUMP JUMPDEST SWAP3 SWAP2 POP POP JUMP JUMPDEST PUSH1 0x0 PUSH1 0x40 MLOAD SWAP1 POP SWAP1 JUMP JUMPDEST PUSH1 0x0 DUP1 REVERT JUMPDEST PUSH1 0x0 DUP1 REVERT JUMPDEST PUSH2 0xB16 DUP2 PUSH2 0xAC5 JUMP JUMPDEST DUP2 EQ PUSH2 0xB21 JUMPI PUSH1 0x0 DUP1 REVERT JUMPDEST POP JUMP JUMPDEST PUSH1 0x0 DUP2 CALLDATALOAD SWAP1 POP PUSH2 0xB33 DUP2 PUSH2 0xB0D JUMP JUMPDEST SWAP3 SWAP2 POP POP JUMP JUMPDEST PUSH1 0x0 PUSH1 0x20 DUP3 DUP5 SUB SLT ISZERO PUSH2 0xB4F JUMPI PUSH2 0xB4E PUSH2 0xB03 JUMP JUMPDEST JUMPDEST PUSH1 0x0 PUSH2 0xB5D DUP5 DUP3 DUP6 ADD PUSH2 0xB24 JUMP JUMPDEST SWAP2 POP POP SWAP3 SWAP2 POP POP JUMP JUMPDEST PUSH1 0x0 PUSH20 0xFFFFFFFFFFFFFFFFFFFFFFFFFFFFFFFFFFFFFFFF DUP3 AND SWAP1 POP SWAP2 SWAP1 POP JUMP JUMPDEST PUSH1 0x0 PUSH2 0xB91 DUP3 PUSH2 0xB66 JUMP JUMPDEST SWAP1 POP SWAP2 SWAP1 POP JUMP JUMPDEST PUSH2 0xBA1 DUP2 PUSH2 0xB86 JUMP JUMPDEST DUP3 MSTORE POP POP JUMP JUMPDEST PUSH1 0x0 DUP2 MLOAD SWAP1 POP SWAP2 SWAP1 POP JUMP JUMPDEST PUSH1 0x0 DUP3 DUP3 MSTORE PUSH1 0x20 DUP3 ADD SWAP1 POP SWAP3 SWAP2 POP POP JUMP JUMPDEST PUSH1 0x0 JUMPDEST DUP4 DUP2 LT ISZERO PUSH2 0xBE1 JUMPI DUP1 DUP3 ADD MLOAD DUP2 DUP5 ADD MSTORE PUSH1 0x20 DUP2 ADD SWAP1 POP PUSH2 0xBC6 JUMP JUMPDEST PUSH1 0x0 DUP5 DUP5 ADD MSTORE POP POP POP POP JUMP JUMPDEST PUSH1 0x0 PUSH1 0x1F NOT PUSH1 0x1F DUP4 ADD AND SWAP1 POP SWAP2 SWAP1 POP JUMP JUMPDEST PUSH1 0x0 PUSH2 0xC09 DUP3 PUSH2 0xBA7 JUMP JUMPDEST PUSH2 0xC13 DUP2 DUP6 PUSH2 0xBB2 JUMP JUMPDEST SWAP4 POP PUSH2 0xC23 DUP2 DUP6 PUSH1 0x20 DUP7 ADD PUSH2 0xBC3 JUMP JUMPDEST PUSH2 0xC2C DUP2 PUSH2 0xBED JUMP JUMPDEST DUP5 ADD SWAP2 POP POP SWAP3 SWAP2 POP POP JUMP JUMPDEST PUSH1 0x0 DUP2 ISZERO ISZERO SWAP1 POP SWAP2 SWAP1 POP JUMP JUMPDEST PUSH2 0xC4C DUP2 PUSH2 0xC37 JUMP JUMPDEST DUP3 MSTORE POP POP JUMP JUMPDEST PUSH1 0x0 PUSH2 0x120 DUP3 ADD SWAP1 POP PUSH2 0xC68 PUSH1 0x0 DUP4 ADD DUP13 PUSH2 0xB98 JUMP JUMPDEST DUP2 DUP2 SUB PUSH1 0x20 DUP4 ADD MSTORE PUSH2 0xC7A DUP2 DUP12 PUSH2 0xBFE JUMP JUMPDEST SWAP1 POP DUP2 DUP2 SUB PUSH1 0x40 DUP4 ADD MSTORE PUSH2 0xC8E DUP2 DUP11 PUSH2 0xBFE JUMP JUMPDEST SWAP1 POP PUSH2 0xC9D PUSH1 0x60 DUP4 ADD DUP10 PUSH2 0xACF JUMP JUMPDEST PUSH2 0xCAA PUSH1 0x80 DUP4 ADD DUP9 PUSH2 0xACF JUMP JUMPDEST PUSH2 0xCB7 PUSH1 0xA0 DUP4 ADD DUP8 PUSH2 0xACF JUMP JUMPDEST PUSH2 0xCC4 PUSH1 0xC0 DUP4 ADD DUP7 PUSH2 0xACF JUMP JUMPDEST PUSH2 0xCD1 PUSH1 0xE0 DUP4 ADD DUP6 PUSH2 0xACF JUMP JUMPDEST PUSH2 0xCDF PUSH2 0x100 DUP4 ADD DUP5 PUSH2 0xC43 JUMP JUMPDEST SWAP11 SWAP10 POP POP POP POP POP POP POP POP POP POP JUMP JUMPDEST PUSH2 0xCF6 DUP2 PUSH2 0xB86 JUMP JUMPDEST DUP2 EQ PUSH2 0xD01 JUMPI PUSH1 0x0 DUP1 REVERT JUMPDEST POP JUMP JUMPDEST PUSH1 0x0 DUP2 CALLDATALOAD SWAP1 POP PUSH2 0xD13 DUP2 PUSH2 0xCED JUMP JUMPDEST SWAP3 SWAP2 POP POP JUMP JUMPDEST PUSH1 0x0 DUP1 PUSH1 0x40 DUP4 DUP6 SUB SLT ISZERO PUSH2 0xD30 JUMPI PUSH2 0xD2F PUSH2 0xB03 JUMP JUMPDEST JUMPDEST PUSH1 0x0 PUSH2 0xD3E DUP6 DUP3 DUP7 ADD PUSH2 0xB24 JUMP JUMPDEST SWAP3 POP POP PUSH1 0x20 PUSH2 0xD4F DUP6 DUP3 DUP7 ADD PUSH2 0xD04 JUMP JUMPDEST SWAP2 POP POP SWAP3 POP SWAP3 SWAP1 POP JUMP JUMPDEST PUSH1 0x0 DUP1 REVERT JUMPDEST PUSH1 0x0 DUP1 REVERT JUMPDEST PUSH32 0x4E487B7100000000000000000000000000000000000000000000000000000000 PUSH1 0x0 MSTORE PUSH1 0x41 PUSH1 0x4 MSTORE PUSH1 0x24 PUSH1 0x0 REVERT JUMPDEST PUSH2 0xD9B DUP3 PUSH2 0xBED JUMP JUMPDEST DUP2 ADD DUP2 DUP2 LT PUSH8 0xFFFFFFFFFFFFFFFF DUP3 GT OR ISZERO PUSH2 0xDBA JUMPI PUSH2 0xDB9 PUSH2 0xD63 JUMP JUMPDEST JUMPDEST DUP1 PUSH1 0x40 MSTORE POP POP POP JUMP JUMPDEST PUSH1 0x0 PUSH2 0xDCD PUSH2 0xAF9 JUMP JUMPDEST SWAP1 POP PUSH2 0xDD9 DUP3 DUP3 PUSH2 0xD92 JUMP JUMPDEST SWAP2 SWAP1 POP JUMP JUMPDEST PUSH1 0x0 PUSH8 0xFFFFFFFFFFFFFFFF DUP3 GT ISZERO PUSH2 0xDF9 JUMPI PUSH2 0xDF8 PUSH2 0xD63 JUMP JUMPDEST JUMPDEST PUSH2 0xE02 DUP3 PUSH2 0xBED JUMP JUMPDEST SWAP1 POP PUSH1 0x20 DUP2 ADD SWAP1 POP SWAP2 SWAP1 POP JUMP JUMPDEST DUP3 DUP2 DUP4 CALLDATACOPY PUSH1 0x0 DUP4 DUP4 ADD MSTORE POP POP POP JUMP JUMPDEST PUSH1 0x0 PUSH2 0xE31 PUSH2 0xE2C DUP5 PUSH2 0xDDE JUMP JUMPDEST PUSH2 0xDC3 JUMP JUMPDEST SWAP1 POP DUP3 DUP2 MSTORE PUSH1 0x20 DUP2 ADD DUP5 DUP5 DUP5 ADD GT ISZERO PUSH2 0xE4D JUMPI PUSH2 0xE4C PUSH2 0xD5E JUMP JUMPDEST JUMPDEST PUSH2 0xE58 DUP5 DUP3 DUP6 PUSH2 0xE0F JUMP JUMPDEST POP SWAP4 SWAP3 POP POP POP JUMP JUMPDEST PUSH1 0x0 DUP3 PUSH1 0x1F DUP4 ADD SLT PUSH2 0xE75 JUMPI PUSH2 0xE74 PUSH2 0xD59 JUMP JUMPDEST JUMPDEST DUP2 CALLDATALOAD PUSH2 0xE85 DUP5 DUP3 PUSH1 0x20 DUP7 ADD PUSH2 0xE1E JUMP JUMPDEST SWAP2 POP POP SWAP3 SWAP2 POP POP JUMP JUMPDEST PUSH1 0x0 DUP1 PUSH1 0x0 DUP1 PUSH1 0x0 DUP1 PUSH1 0xC0 DUP8 DUP10 SUB SLT ISZERO PUSH2 0xEAB JUMPI PUSH2 0xEAA PUSH2 0xB03 JUMP JUMPDEST JUMPDEST PUSH1 0x0 DUP8 ADD CALLDATALOAD PUSH8 0xFFFFFFFFFFFFFFFF DUP2 GT ISZERO PUSH2 0xEC9 JUMPI PUSH2 0xEC8 PUSH2 0xB08 JUMP JUMPDEST JUMPDEST PUSH2 0xED5 DUP10 DUP3 DUP11 ADD PUSH2 0xE60 JUMP JUMPDEST SWAP7 POP POP PUSH1 0x20 DUP8 ADD CALLDATALOAD PUSH8 0xFFFFFFFFFFFFFFFF DUP2 GT ISZERO PUSH2 0xEF6 JUMPI PUSH2 0xEF5 PUSH2 0xB08 JUMP JUMPDEST JUMPDEST PUSH2 0xF02 DUP10 DUP3 DUP11 ADD PUSH2 0xE60 JUMP JUMPDEST SWAP6 POP POP PUSH1 0x40 PUSH2 0xF13 DUP10 DUP3 DUP11 ADD PUSH2 0xB24 JUMP JUMPDEST SWAP5 POP POP PUSH1 0x60 PUSH2 0xF24 DUP10 DUP3 DUP11 ADD PUSH2 0xB24 JUMP JUMPDEST SWAP4 POP POP PUSH1 0x80 PUSH2 0xF35 DUP10 DUP3 DUP11 ADD PUSH2 0xB24 JUMP JUMPDEST SWAP3 POP POP PUSH1 0xA0 PUSH2 0xF46 DUP10 DUP3 DUP11 ADD PUSH2 0xB24 JUMP JUMPDEST SWAP2 POP POP SWAP3 SWAP6 POP SWAP3 SWAP6 POP SWAP3 SWAP6 JUMP JUMPDEST PUSH32 0x4E487B7100000000000000000000000000000000000000000000000000000000 PUSH1 0x0 MSTORE PUSH1 0x32 PUSH1 0x4 MSTORE PUSH1 0x24 PUSH1 0x0 REVERT JUMPDEST PUSH32 0x4E487B7100000000000000000000000000000000000000000000000000000000 PUSH1 0x0 MSTORE PUSH1 0x11 PUSH1 0x4 MSTORE PUSH1 0x24 PUSH1 0x0 REVERT JUMPDEST PUSH1 0x0 PUSH2 0xFBC DUP3 PUSH2 0xAC5 JUMP JUMPDEST SWAP2 POP PUSH32 0xFFFFFFFFFFFFFFFFFFFFFFFFFFFFFFFFFFFFFFFFFFFFFFFFFFFFFFFFFFFFFFFF DUP3 SUB PUSH2 0xFEE JUMPI PUSH2 0xFED PUSH2 0xF82 JUMP JUMPDEST JUMPDEST PUSH1 0x1 DUP3 ADD SWAP1 POP SWAP2 SWAP1 POP JUMP JUMPDEST PUSH32 0x4E487B7100000000000000000000000000000000000000000000000000000000 PUSH1 0x0 MSTORE PUSH1 0x22 PUSH1 0x4 MSTORE PUSH1 0x24 PUSH1 0x0 REVERT JUMPDEST PUSH1 0x0 PUSH1 0x2 DUP3 DIV SWAP1 POP PUSH1 0x1 DUP3 AND DUP1 PUSH2 0x1040 JUMPI PUSH1 0x7F DUP3 AND SWAP2 POP JUMPDEST PUSH1 0x20 DUP3 LT DUP2 SUB PUSH2 0x1053 JUMPI PUSH2 0x1052 PUSH2 0xFF9 JUMP JUMPDEST JUMPDEST POP SWAP2 SWAP1 POP JUMP JUMPDEST PUSH32 0x46756E64696E6720646174652063616E6E6F74206265206C6174657220746861 PUSH1 0x0 DUP3 ADD MSTORE PUSH32 0x6E20656E64206461746500000000000000000000000000000000000000000000 PUSH1 0x20 DUP3 ADD MSTORE POP JUMP JUMPDEST PUSH1 0x0 PUSH2 0x10B5 PUSH1 0x2A DUP4 PUSH2 0xBB2 JUMP JUMPDEST SWAP2 POP PUSH2 0x10C0 DUP3 PUSH2 0x1059 JUMP JUMPDEST PUSH1 0x40 DUP3 ADD SWAP1 POP SWAP2 SWAP1 POP JUMP JUMPDEST PUSH1 0x0 PUSH1 0x20 DUP3 ADD SWAP1 POP DUP2 DUP2 SUB PUSH1 0x0 DUP4 ADD MSTORE PUSH2 0x10E4 DUP2 PUSH2 0x10A8 JUMP JUMPDEST SWAP1 POP SWAP2 SWAP1 POP JUMP JUMPDEST PUSH1 0x0 DUP2 SWAP1 POP DUP2 PUSH1 0x0 MSTORE PUSH1 0x20 PUSH1 0x0 KECCAK256 SWAP1 POP SWAP2 SWAP1 POP JUMP JUMPDEST PUSH1 0x0 PUSH1 0x20 PUSH1 0x1F DUP4 ADD DIV SWAP1 POP SWAP2 SWAP1 POP JUMP JUMPDEST PUSH1 0x0 DUP3 DUP3 SHL SWAP1 POP SWAP3 SWAP2 POP POP JUMP JUMPDEST PUSH1 0x0 PUSH1 0x8 DUP4 MUL PUSH2 0x114D PUSH32 0xFFFFFFFFFFFFFFFFFFFFFFFFFFFFFFFFFFFFFFFFFFFFFFFFFFFFFFFFFFFFFFFF DUP3 PUSH2 0x1110 JUMP JUMPDEST PUSH2 0x1157 DUP7 DUP4 PUSH2 0x1110 JUMP JUMPDEST SWAP6 POP DUP1 NOT DUP5 AND SWAP4 POP DUP1 DUP7 AND DUP5 OR SWAP3 POP POP POP SWAP4 SWAP3 POP POP POP JUMP JUMPDEST PUSH1 0x0 DUP2 SWAP1 POP SWAP2 SWAP1 POP JUMP JUMPDEST PUSH1 0x0 PUSH2 0x1194 PUSH2 0x118F PUSH2 0x118A DUP5 PUSH2 0xAC5 JUMP JUMPDEST PUSH2 0x116F JUMP JUMPDEST PUSH2 0xAC5 JUMP JUMPDEST SWAP1 POP SWAP2 SWAP1 POP JUMP JUMPDEST PUSH1 0x0 DUP2 SWAP1 POP SWAP2 SWAP1 POP JUMP JUMPDEST PUSH2 0x11AE DUP4 PUSH2 0x1179 JUMP JUMPDEST PUSH2 0x11C2 PUSH2 0x11BA DUP3 PUSH2 0x119B JUMP JUMPDEST DUP5 DUP5 SLOAD PUSH2 0x111D JUMP JUMPDEST DUP3 SSTORE POP POP POP POP JUMP JUMPDEST PUSH1 0x0 SWAP1 JUMP JUMPDEST PUSH2 0x11D7 PUSH2 0x11CA JUMP JUMPDEST PUSH2 0x11E2 DUP2 DUP5 DUP5 PUSH2 0x11A5 JUMP JUMPDEST POP POP POP JUMP JUMPDEST JUMPDEST DUP2 DUP2 LT ISZERO PUSH2 0x1206 JUMPI PUSH2 0x11FB PUSH1 0x0 DUP3 PUSH2 0x11CF JUMP JUMPDEST PUSH1 0x1 DUP2 ADD SWAP1 POP PUSH2 0x11E8 JUMP JUMPDEST POP POP JUMP JUMPDEST PUSH1 0x1F DUP3 GT ISZERO PUSH2 0x124B JUMPI PUSH2 0x121C DUP2 PUSH2 0x10EB JUMP JUMPDEST PUSH2 0x1225 DUP5 PUSH2 0x1100 JUMP JUMPDEST DUP2 ADD PUSH1 0x20 DUP6 LT ISZERO PUSH2 0x1234 JUMPI DUP2 SWAP1 POP JUMPDEST PUSH2 0x1248 PUSH2 0x1240 DUP6 PUSH2 0x1100 JUMP JUMPDEST DUP4 ADD DUP3 PUSH2 0x11E7 JUMP JUMPDEST POP POP JUMPDEST POP POP POP JUMP JUMPDEST PUSH1 0x0 DUP3 DUP3 SHR SWAP1 POP SWAP3 SWAP2 POP POP JUMP JUMPDEST PUSH1 0x0 PUSH2 0x126E PUSH1 0x0 NOT DUP5 PUSH1 0x8 MUL PUSH2 0x1250 JUMP JUMPDEST NOT DUP1 DUP4 AND SWAP2 POP POP SWAP3 SWAP2 POP POP JUMP JUMPDEST PUSH1 0x0 PUSH2 0x1287 DUP4 DUP4 PUSH2 0x125D JUMP JUMPDEST SWAP2 POP DUP3 PUSH1 0x2 MUL DUP3 OR SWAP1 POP SWAP3 SWAP2 POP POP JUMP JUMPDEST PUSH2 0x12A0 DUP3 PUSH2 0xBA7 JUMP JUMPDEST PUSH8 0xFFFFFFFFFFFFFFFF DUP2 GT ISZERO PUSH2 0x12B9 JUMPI PUSH2 0x12B8 PUSH2 0xD63 JUMP JUMPDEST JUMPDEST PUSH2 0x12C3 DUP3 SLOAD PUSH2 0x1028 JUMP JUMPDEST PUSH2 0x12CE DUP3 DUP3 DUP6 PUSH2 0x120A JUMP JUMPDEST PUSH1 0x0 PUSH1 0x20 SWAP1 POP PUSH1 0x1F DUP4 GT PUSH1 0x1 DUP2 EQ PUSH2 0x1301 JUMPI PUSH1 0x0 DUP5 ISZERO PUSH2 0x12EF JUMPI DUP3 DUP8 ADD MLOAD SWAP1 POP JUMPDEST PUSH2 0x12F9 DUP6 DUP3 PUSH2 0x127B JUMP JUMPDEST DUP7 SSTORE POP PUSH2 0x1361 JUMP JUMPDEST PUSH1 0x1F NOT DUP5 AND PUSH2 0x130F DUP7 PUSH2 0x10EB JUMP JUMPDEST PUSH1 0x0 JUMPDEST DUP3 DUP2 LT ISZERO PUSH2 0x1337 JUMPI DUP5 DUP10 ADD MLOAD DUP3 SSTORE PUSH1 0x1 DUP3 ADD SWAP2 POP PUSH1 0x20 DUP6 ADD SWAP5 POP PUSH1 0x20 DUP2 ADD SWAP1 POP PUSH2 0x1312 JUMP JUMPDEST DUP7 DUP4 LT ISZERO PUSH2 0x1354 JUMPI DUP5 DUP10 ADD MLOAD PUSH2 0x1350 PUSH1 0x1F DUP10 AND DUP3 PUSH2 0x125D JUMP JUMPDEST DUP4 SSTORE POP JUMPDEST PUSH1 0x1 PUSH1 0x2 DUP9 MUL ADD DUP9 SSTORE POP POP POP JUMPDEST POP POP POP POP POP POP JUMP JUMPDEST PUSH1 0x0 PUSH2 0x1374 DUP3 PUSH2 0xAC5 JUMP JUMPDEST SWAP2 POP PUSH2 0x137F DUP4 PUSH2 0xAC5 JUMP JUMPDEST SWAP3 POP DUP3 DUP3 SUB SWAP1 POP DUP2 DUP2 GT ISZERO PUSH2 0x1397 JUMPI PUSH2 0x1396 PUSH2 0xF82 JUMP JUMPDEST JUMPDEST SWAP3 SWAP2 POP POP JUMP JUMPDEST PUSH32 0x43616D706169676E206973206E6F742061637469766500000000000000000000 PUSH1 0x0 DUP3 ADD MSTORE POP JUMP JUMPDEST PUSH1 0x0 PUSH2 0x13D3 PUSH1 0x16 DUP4 PUSH2 0xBB2 JUMP JUMPDEST SWAP2 POP PUSH2 0x13DE DUP3 PUSH2 0x139D JUMP JUMPDEST PUSH1 0x20 DUP3 ADD SWAP1 POP SWAP2 SWAP1 POP JUMP JUMPDEST PUSH1 0x0 PUSH1 0x20 DUP3 ADD SWAP1 POP DUP2 DUP2 SUB PUSH1 0x0 DUP4 ADD MSTORE PUSH2 0x1402 DUP2 PUSH2 0x13C6 JUMP JUMPDEST SWAP1 POP SWAP2 SWAP1 POP JUMP JUMPDEST PUSH32 0x46756E64696E6720616D6F756E74206D75737420626520677265617465722074 PUSH1 0x0 DUP3 ADD MSTORE PUSH32 0x68616E2030000000000000000000000000000000000000000000000000000000 PUSH1 0x20 DUP3 ADD MSTORE POP JUMP JUMPDEST PUSH1 0x0 PUSH2 0x1465 PUSH1 0x25 DUP4 PUSH2 0xBB2 JUMP JUMPDEST SWAP2 POP PUSH2 0x1470 DUP3 PUSH2 0x1409 JUMP JUMPDEST PUSH1 0x40 DUP3 ADD SWAP1 POP SWAP2 SWAP1 POP JUMP JUMPDEST PUSH1 0x0 PUSH1 0x20 DUP3 ADD SWAP1 POP DUP2 DUP2 SUB PUSH1 0x0 DUP4 ADD MSTORE PUSH2 0x1494 DUP2 PUSH2 0x1458 JUMP JUMPDEST SWAP1 POP SWAP2 SWAP1 POP JUMP JUMPDEST PUSH32 0x43616D706169676E2063726561746F722063616E6E6F742066756E6420746865 PUSH1 0x0 DUP3 ADD MSTORE PUSH32 0x6972206F776E2063616D706169676E0000000000000000000000000000000000 PUSH1 0x20 DUP3 ADD MSTORE POP JUMP JUMPDEST PUSH1 0x0 PUSH2 0x14F7 PUSH1 0x2F DUP4 PUSH2 0xBB2 JUMP JUMPDEST SWAP2 POP PUSH2 0x1502 DUP3 PUSH2 0x149B JUMP JUMPDEST PUSH1 0x40 DUP3 ADD SWAP1 POP SWAP2 SWAP1 POP JUMP JUMPDEST PUSH1 0x0 PUSH1 0x20 DUP3 ADD SWAP1 POP DUP2 DUP2 SUB PUSH1 0x0 DUP4 ADD MSTORE PUSH2 0x1526 DUP2 PUSH2 0x14EA JUMP JUMPDEST SWAP1 POP SWAP2 SWAP1 POP JUMP JUMPDEST PUSH1 0x0 PUSH2 0x1538 DUP3 PUSH2 0xAC5 JUMP JUMPDEST SWAP2 POP PUSH2 0x1543 DUP4 PUSH2 0xAC5 JUMP JUMPDEST SWAP3 POP DUP3 DUP3 ADD SWAP1 POP DUP1 DUP3 GT ISZERO PUSH2 0x155B JUMPI PUSH2 0x155A PUSH2 0xF82 JUMP JUMPDEST JUMPDEST SWAP3 SWAP2 POP POP JUMP INVALID LOG2 PUSH5 0x6970667358 0x22 SLT KECCAK256 PUSH27 0x206BE456AB2091088637175B95B4BCFF09C529FDE0F7283B4889A5 0x4E PREVRANDAO CALL MSTORE PUSH5 0x736F6C6343 STOP ADDMOD SLT STOP CALLER "
				},
				"gasEstimates": {
					"creation": {
						"codeDepositCost": "1105400",
						"executionCost": "1147",
						"totalCost": "1106547"
					},
					"external": {
						"campaigns(uint256)": "infinite",
						"createCampaign(string,string,uint256,uint256,uint256,uint256)": "infinite",
						"fundCampaign(uint256)": "infinite",
						"funders(uint256,address)": "infinite",
						"getActiveCampaignCount()": "infinite",
						"getCampaignDetails(uint256)": "infinite"
					}
				},
				"methodIdentifiers": {
					"campaigns(uint256)": "141961bc",
					"createCampaign(string,string,uint256,uint256,uint256,uint256)": "2897c24a",
					"fundCampaign(uint256)": "92bd38bc",
					"funders(uint256,address)": "148038b0",
					"getActiveCampaignCount()": "01eac582",
					"getCampaignDetails(uint256)": "d993de62"
				}
			},
			"storageLayout": {
				"storage": [
					{
						"astId": 26,
						"contract": "contracts/crowdfunding.sol:FundingPlatform",
						"label": "funders",
						"offset": 0,
						"slot": "0",
						"type": "t_mapping(t_uint256,t_mapping(t_address,t_uint256))"
					},
					{
						"astId": 30,
						"contract": "contracts/crowdfunding.sol:FundingPlatform",
						"label": "campaigns",
						"offset": 0,
						"slot": "1",
						"type": "t_array(t_struct(Campaign)20_storage)dyn_storage"
					}
				],
				"types": {
					"t_address": {
						"encoding": "inplace",
						"label": "address",
						"numberOfBytes": "20"
					},
					"t_array(t_struct(Campaign)20_storage)dyn_storage": {
						"base": "t_struct(Campaign)20_storage",
						"encoding": "dynamic_array",
						"label": "struct FundingPlatform.Campaign[]",
						"numberOfBytes": "32"
					},
					"t_bool": {
						"encoding": "inplace",
						"label": "bool",
						"numberOfBytes": "1"
					},
					"t_mapping(t_address,t_uint256)": {
						"encoding": "mapping",
						"key": "t_address",
						"label": "mapping(address => uint256)",
						"numberOfBytes": "32",
						"value": "t_uint256"
					},
					"t_mapping(t_uint256,t_mapping(t_address,t_uint256))": {
						"encoding": "mapping",
						"key": "t_uint256",
						"label": "mapping(uint256 => mapping(address => uint256))",
						"numberOfBytes": "32",
						"value": "t_mapping(t_address,t_uint256)"
					},
					"t_string_storage": {
						"encoding": "bytes",
						"label": "string",
						"numberOfBytes": "32"
					},
					"t_struct(Campaign)20_storage": {
						"encoding": "inplace",
						"label": "struct FundingPlatform.Campaign",
						"members": [
							{
								"astId": 3,
								"contract": "contracts/crowdfunding.sol:FundingPlatform",
								"label": "creator",
								"offset": 0,
								"slot": "0",
								"type": "t_address"
							},
							{
								"astId": 5,
								"contract": "contracts/crowdfunding.sol:FundingPlatform",
								"label": "cause",
								"offset": 0,
								"slot": "1",
								"type": "t_string_storage"
							},
							{
								"astId": 7,
								"contract": "contracts/crowdfunding.sol:FundingPlatform",
								"label": "futurePlans",
								"offset": 0,
								"slot": "2",
								"type": "t_string_storage"
							},
							{
								"astId": 9,
								"contract": "contracts/crowdfunding.sol:FundingPlatform",
								"label": "startDate",
								"offset": 0,
								"slot": "3",
								"type": "t_uint256"
							},
							{
								"astId": 11,
								"contract": "contracts/crowdfunding.sol:FundingPlatform",
								"label": "endDate",
								"offset": 0,
								"slot": "4",
								"type": "t_uint256"
							},
							{
								"astId": 13,
								"contract": "contracts/crowdfunding.sol:FundingPlatform",
								"label": "fundingDate",
								"offset": 0,
								"slot": "5",
								"type": "t_uint256"
							},
							{
								"astId": 15,
								"contract": "contracts/crowdfunding.sol:FundingPlatform",
								"label": "goalAmount",
								"offset": 0,
								"slot": "6",
								"type": "t_uint256"
							},
							{
								"astId": 17,
								"contract": "contracts/crowdfunding.sol:FundingPlatform",
								"label": "currentAmount",
								"offset": 0,
								"slot": "7",
								"type": "t_uint256"
							},
							{
								"astId": 19,
								"contract": "contracts/crowdfunding.sol:FundingPlatform",
								"label": "isActive",
								"offset": 0,
								"slot": "8",
								"type": "t_bool"
							}
						],
						"numberOfBytes": "288"
					},
					"t_uint256": {
						"encoding": "inplace",
						"label": "uint256",
						"numberOfBytes": "32"
					}
				}
			},
			"userdoc": {
				"kind": "user",
				"methods": {},
				"version": 1
			}
		}
	}
}